:020000022000DC
:1030000000000120D9A3020001A4020003A40200D1
:1030100005A4020007A4020009A4020000000000A9
:103020000000000000000000000000000BA40200EF
:103030000DA40200000000000FA4020011A4020071
:10304000AD59020013A40200596A02009165020002
:10305000DD65020013A40200D15D020013A402008A
:1030600013A4020013A4020013A4020013A402007C
:1030700013A4020013A4020013A4020013A402006C
:1030800013A402007943020013A4020013A4020057
:103090001944020013A40200D9AA020013A40200DA
:1030A00013A4020013A4020013A4020013A402003C
:1030B00013A4020013A4020000000000000000009E
:1030C00013A4020013A4020013A4020013A402001C
:1030D00013A4020013A4020013A4020000000000C5
:1030E00000000000000000000000000000000000E0
:1030F00000000000000000000000000000000000D0
:1031000000000000000000000000000000000000BF
:1031100000000000000000000000000000000000AF
:10312000000000000000000000000000000000009F
:10313000000000000000000000000000000000008F
:10314000000000000000000000000000000000007F
:10315000000000000000000000000000000000006F
:10316000000000000000000000000000000000005F
:10317000000000000000000000000000000000004F
:10318000000000000000000000000000000000003F
:10319000000000000000000000000000000000002F
:1031A000000000000000000000000000000000001F
:1031B000000000000000000000000000000000000F
:1031C00000000000000000000000000000000000FF
:1031D00000000000000000000000000000000000EF
:1031E00000000000000000000000000000000000DF
:1031F00000000000000000000000000000000000CF
:1032000010B5054C237833B9044B13B10448AFF320
:1032100000800123237010BD08240020000000005E
:1032200080B9020008B5034B1BB103490348AFF353
:10323000008008BD000000000C24002080B90200BE
:10324000154B002B08BF134B9D46A3F5803A002178
:103250008B460F461348144A121A07F0F6FD0F4B1F
:10326000002B00D098470E4B002B00D09847002031
:10327000002104000D000D48002802D00C48AFF3D7
:10328000008007F093FD2000290005F06DFF07F096
:1032900079FD00BF000008000000012000000000D0
:1032A0000000000008240020102D00200000000075
:1032B00000000000F0B595B0002415460F46084602
:1032C0001E4602F0A5F9384623460895082205A9AE
:1032D0001A9D09960D950A948DF82C400C9402F0D5
:1032E000FDF99DF814308DF81040DDE9061003F06B
:1032F0000302012A0290ADF80C102BD0022A04D050
:10330000384602F095F915B0F0BDBDF81650C3F37C
:10331000C202C3F38003AD098DF80E208DF80F3083
:103320000826082D2C4628BF0824334622460EA91D
:10333000384602F0D3F92D1B214608AB02AA0EA88D
:10334000264400F089FD002DEBD1384602F070F9DB
:1033500015B0F0BDBDF814500598C5F38315C3F33F
:10336000C20CAA000EA9C3F38004C0F3952608235B
:1033700038468DF80EC08DF80F4002F0AFF908AB5B
:103380002A4630460EA9009302AB00F0CDFC384629
:1033900002F04EF915B0F0BD014B01221A707047D2
:1033A00068240020704700BF70B50E4D0E4888B0ED
:1033B00003F024FA0FCD6C460FC495E80F0008AD5A
:1033C000062645F8206D84E80F00294600220648AD
:1033D00003F02CF908B100F01DFF044B00221A7015
:1033E00008B070BDA0AE020080210020242400207F
:1033F00000B583B0044B0093044A4023FFF75AFF03
:1034000003B05DF804FB00BF113402002824002043
:1034100010B5094C09480023D2B2237003F072FAA8
:1034200030B9074B1B7813B12378002BFCD010BDAB
:1034300000F0F0FEF5E700BF6824002080210020A6
:103440002424002070B50D4D0FCD88B06C460FC4FC
:1034500095E80F0008AD062645F8206D84E80F00BA
:103460002946074A074803F0E1F808B100F0D2FE08
:10347000054B01221A7008B070BD00BFA0AE02005B
:1034800099330200802100202424002010B5054C2F
:10349000FFF7D8FF2046042100F004FC01236372EB
:1034A00010BD00BF882100202DE9F047824C002389
:1034B00084B0C4F81834BFF34F8FD4E9017607EA1B
:1034C0000601CB1C04EB830214F8233098073D4619
:1034D0000FD1138852889B0903EB921301331D44CB
:1034E00006EA0501CB1C04EB830214F823309B078A
:1034F000EFD004EB81016A1CCB680193324004EBEE
:10350000820203F00303D2680292022B05F1020843
:103510000FD0012B75D0032B06D02068C01B18BF1D
:10352000012004B0BDE8F087D4F818040028F4D1D5
:10353000F7E7BDF8063061484FEA93194D46502D24
:1035400028BF502565F38F1305F10801ADF806304B
:1035500002F01CF80746002851D026EA080A0AF1B2
:10356000010A02F055F84FEA8A0A0023082201A94D
:10357000384602F085F8554540F29080EBB2BAF13A
:10358000000F00F0848006EA0801A3EB0A03033170
:1035900004EB8101DDB252460823384602F070F890
:1035A0002A460AF108034649384602F069F809F14B
:1035B000030908EB9909D4F81834002B62D1D4F828
:1035C000105455B16B7A28463946002B56D02B68DB
:1035D0001B6898476D68002DF4D1384602F028F832
:1035E00004A8002300F80D3D01F0B0FBD4F8183416
:1035F0000BB9C4F804909DF8030001F0CDFB676897
:103600008BE7BDF804302D48C3F38311062928BF8A
:10361000062161F3891302318900ADF8043001F00D
:10362000B5FF07460028EAD001F0F2FF0023082288
:1036300001A9384602F024F8BDF8043013F4707F75
:1036400037D06FF0010AAAEB050A082506EA08013F
:1036500003312B46042204EB8101384602F010F8B6
:10366000BDF8043008F101090AEB0902C3F3831322
:103670009A42C84605F10405E8D39CE76D68002D21
:10368000A0D1AAE7384601F0D3FF676845E72A468C
:1036900008230B49384601F0F3FF88E706EA0801E2
:1036A000033104EB81012A460823384601F0E8FF84
:1036B0007DE7C1467FE700BF6C240020CCAE02004E
:1036C0007824002008B50E4B0E480022FF21C3F8D5
:1036D00018249960C3E90022C3F8142483F81C2439
:1036E00001F052FF58B90849084BC91AC90806D059
:1036F000074A034622F80C3B01339942FAD108BD30
:103700006C240020CCAE02000CBA0200B4B9020056
:103710008423002021B9134A02EBC00000687047DF
:1037200030B411490F4C091BC90816D00F4B5A88E9
:10373000824218BF002205D111E0DD89854203F1E4
:103740000C0305D001329142F7D1002030BC704704
:1037500004EBC200006830BC70470846F6E720461C
:10376000F8E700BFB4B902000CBA020084230020BD
:10377000094B013903EBC00003290BD8DFE801F046
:1037800002080604022070474079704700797047AC
:103790000420704700207047B4B902002DE9F04FB3
:1037A00089B008AB002703F80D7D604C02901846E5
:1037B000A3680193039101F0C9FAD4E901E0D4F8B8
:1037C000008000EB0E030133A3EB0803032B60D84A
:1037D00000F1010AAAEB080A04F5836C04F214460E
:1037E00000EA0E0901255CE8003F43EA05024CE8C7
:1037F000002191F0000FF6D156E8003F43EA0502A0
:1038000046E8002191F0000FF6D109F1030304EB23
:10381000830114F823309B07CB46724610D10B88E6
:1038200049889B0903EB911301331A4400EA020B08
:103830000BF1030304EB830114F823309B07EED054
:1038400004EB8B0B0232DBF80C30059303F003031F
:10385000012B65D0022B05D1BDF816309B0903332F
:1038600002EB930256E8003F03EA070146E8001B1B
:103870009BF0000FF6D143B10AEB0203032B626009
:1038800007D8964600EA0209ADE70AEB0E03032BC0
:10389000A9D908EA0000C31C08F1020114F823208A
:1038A0009DF8130042F0030204F82320216001F088
:1038B00073FA019A029908F10103134004EB8303A0
:1038C00002EA080808F103080A0CDA6014F8283044
:1038D0000A0962F3820361F3C50304F8283034F85F
:1038E0002830039A6FF3891324F8283054F82830CD
:1038F00062F39F231A46012161F3010244F8283044
:1039000004F8282094F81C341BB906E0FFF7CCFD1E
:1039100018B1D4E900329A42F8D109B0BDE8F08F6D
:10392000BDF81430C3F383131A449BE76C240020C2
:103930002DE9F04F89B008AB002703F80D7D644CEA
:1039400001901846A3680093CDE9021201F0FEF938
:10395000D4E901E0D4F8008000EB0E030133A3EBBF
:103960000803042B60D800F1010AAAEB080A04F549
:10397000836C04F2144600EA0E0901255CE8003F5E
:1039800043EA05024CE8002191F0000FF6D156E819
:10399000003F43EA050246E8002191F0000FF6D10E
:1039A00009F1030304EB830114F823309B07CB4692
:1039B000724610D10B8849889B0903EB91130133A0
:1039C0001A4400EA020B0BF1030304EB830114F821
:1039D00023309B07EED004EB8B0B0232DBF80C306C
:1039E000059303F00303012B6CD0022B05D1BDF826
:1039F00016309B09033302EB930256E8003F03EABB
:103A0000070146E8001B9BF0000FF6D143B10AEB1B
:103A10000203042B626007D8964600EA0209ADE76C
:103A20000AEB0E03042BA9D908EA0000C31C08F115
:103A3000030114F823209DF8130042F0030204F858
:103A40002320216001F0A8F900990198039D08F155
:103A5000020208F101030A400B4004EB820204EB6E
:103A6000830301EA080808F10308010CD560D96056
:103A700014F82830020962F3820360F3C50304F8E6
:103A8000283034F82830029A012161F3891324F890
:103A9000283054F8283062F39F231A4661F301025C
:103AA00044F8283004F8282094F81C341BB906E0A8
:103AB000FFF7FAFC18B1D4E900329A42F8D109B004
:103AC000BDE8F08FBDF81430C3F383131A4494E7B4
:103AD0006C2400202DE9F04F8BB00AAD00276A4C12
:103AE00005F80D7D029005932846A3680193CDE962
:103AF000031201F02BF9D4E901E0D4F8008000EBC7
:103B00000E030133A3EB0803052B60D800F1010A73
:103B1000AAEB080A04F5836C04F2144600EA0E09C5
:103B200001255CE8003F43EA05024CE8002191F0E2
:103B3000000FF6D156E8003F43EA050246E80021AF
:103B400091F0000FF6D109F1030304EB830114F89F
:103B500023309B07CB46724610D10B8849889B09BE
:103B600003EB911301331A4400EA020B0BF1030338
:103B700004EB830114F823309B07EED004EB8B0B8E
:103B80000232DBF80C30079303F00303012B74D0EF
:103B9000022B05D1BDF81E309B09033302EB9302C3
:103BA00056E8003F03EA070146E8001B9BF0000FC0
:103BB000F6D143B10AEB0203052B626007D89646A3
:103BC00000EA0209ADE70AEB0E03052BA9D908EAC2
:103BD0000000C31C08F1040114F823209DF81B0009
:103BE00042F0030204F82320216001F0D5F8019887
:103BF000029D049E08F1020108F1030208F101038D
:103C000001400240034004EB810104EB820204EB1B
:103C1000830300EA0808CE6008F103080599D16023
:103C2000280CD86014F828302A0962F3820365F35F
:103C3000C50304F8283034F82830022262F38913CF
:103C400024F82830039A54F8283062F39F231A4648
:103C5000012161F3010244F8283004F8282094F887
:103C60001C341BB906E0FFF71FFC18B1D4E9003281
:103C70009A42F8D10BB0BDE8F08FBDF81C30C3F309
:103C800083131A448CE700BF6C240020044BD3E953
:103C900000239A4201D0FFF707BC0020704700BF05
:103CA0006C24002030B4154DD5F81044002154B1D7
:103CB000237A8B4213D0234602E01A7A8A420ED02E
:103CC0005B68002BF9D10172D5F810347BB15B68C9
:103CD0004360D5F81034586030BC08467047013155
:103CE0000A29E4D14FF0FF31084630BC7047C5F8CF
:103CF0001004436030BC0846704700BF6C240020AD
:103D000038B5084BD3F81044012583F81C543CB156
:103D10002368657220465B6898476468002CF7D179
:103D200038BD00BF6C2400202DE9F04784B01D464B
:103D30000C9C002394F80C802373EB7981460E468B
:103D40001746DBB1062F09D8DFE807F00430363D0F
:103D500046515E004946204601F0A2F8EB792BB9A6
:103D60002B7AEBB93649204601F09AF8204601F04B
:103D70008BF884F80C8004B0BDE8F0872B7AA88813
:103D8000A979002B4FD12F4B53F821A00021FFF729
:103D9000C1FC524603462C49204601F081F8D1E788
:103DA0002A4A2B49204601F07BF8DBE73268494676
:103DB000204601F075F8D1E74946D6E900232046B0
:103DC00001F06EF8CAE7B168D6E9002320460091F9
:103DD000494601F065F8C1E7D6E90201D6E90023BA
:103DE000019100904946204601F05AF8B6E7D6E91D
:103DF0000371B068D6E900230291CDE90007494676
:103E0000204601F04DF8A9E7D6E90410D6E90023D1
:103E10000390D6E902070291CDE900074946204602
:103E200001F03EF89AE7FFF7A3FC0A4B084953F864
:103E30002020204601F034F8A979A888A3E700BF24
:103E400034AF020038AF020020AF02002CAF0200F6
:103E50001CAF0200E4AE020008295CD82DE9F04F47
:103E60001D46914600232A7B2B7383B099F80730B7
:103E7000019207460E46002B4ED0DFF808B1DFF85E
:103E80000881002405E03A5D013401F009F8082CAE
:103E900009D0A64241462846F5D85946013400F0DB
:103EA000FFFF082CF5D13049DFF8E080DFF8E0B003
:103EB000284600F0F5FF002411E017F804A006F0F2
:103EC00099FF50445946437813F0970F14BF524658
:103ED0002E222846013400F0E3FF082C08D0A64229
:103EE00041462846E9D8013400F0DAFF082CF6D123
:103EF00099F8073013B999F808300BBB1B492846CD
:103F000000F0CEFF284600F0BFFF9DF804302B7371
:103F100003B0BDE8F08F704799F80830B9F8040095
:103F200099F8061093B9124B53F821400021FFF77E
:103F3000F1FB224603460F49284600F0B1FF9CE7FB
:103F40000D4A0E49284600F0ABFFD7E7FFF710FCFB
:103F50000B4B0A4953F82020284600F0A1FF99F89E
:103F60000610B9F80400DEE714AF020034AF020017
:103F700038AF020020AF02002CAF02001CAF0200DD
:103F8000E4AE020010AF020008AF020028AF02004A
:103F900018AF0200044B195C4FF0A04201238B4084
:103FA000C2F80C35704700BFACAF0200044B195C7F
:103FB0004FF0A04201238B40C2F80835704700BF84
:103FC000ACAF020030B44FF0A04303224FF40035F1
:103FD0004FF480244FF400204FF48011C3F844279D
:103FE000C3F84827C3F84C27C3F85027C3F808552F
:103FF000C3F80845C3F80805C3F8081530BC704776
:104000002DE9F84F254B93F800C0BCF1000F31D0DB
:10401000DFF88CB0DFF88CA0DFF88C90002401274B
:1040200003E00134E4B2644524D226B2DBF8005048
:10403000DAF8003015F8360007FA00F10B4205EB0C
:10404000C608EED023EA0103CAF8003001F0B6FE3C
:1040500015F83660D9F8003007FA06F52B4000FA5B
:1040600006F18B4208D00D4B013493F800C0E4B246
:104070006445DAD3BDE8F88F98F80110D8F8043019
:10408000A1F10101B1FA81F14909091AB1FA81F1ED
:104090004909002BE7D030469847E4E75C29002027
:1040A0008C290020882900208429002070B506462C
:1040B000114800F011FE40B9104D01242B68B440A6
:1040C000234203D023EA04042C6070BD304601F083
:1040D00075FE0B490A6860B122432B6809480A60E3
:1040E0001C4301682C6004480022BDE8704000F0C9
:1040F0009DBD22EA0402F0E76429002088290020FF
:104100008429002060290020042A34D92DE9F041B7
:1041100082B00F460646144601F0E4FC002834D075
:104120001C4A1D4B1D4916601F701D4A1D4B0C601B
:1041300000257C1E15601D60E4B2F7B106EBC404D7
:10414000194F083E4FF0030801E0B44215D0A378A0
:1041500020788DF804803A4601A98DF806508DF834
:1041600007508DF8053001F0C7FC083C0028ECD062
:1041700002B0BDE8F081072070470C4A0C480021CE
:1041800000F042FD02B0BDE8F08101F071FC0028B2
:10419000C6D0EDE78C2900205C2900206029002092
:1041A0008429002088290020AD400200014002003F
:1041B000B0AF020070B5084D2B785BB1074E0024FC
:1041C0003368012113F8340001F064FD2B780134C9
:1041D000A342F5D8002070BD5C2900208C29002066
:1041E00070B5094D2B7853B1084E0024336813F88D
:1041F000340001F0B1FD2B780134A342F6D8044815
:10420000BDE8704000F068BD5C2900208C290020CA
:104210006429002000B585B000230390194601AA47
:1042200044F20100ADF80430029300F003F805B049
:104230005DF804FB10B5FFF763FDFFF727FD0028CD
:10424000FBD1104C10492088000440F00100FFF71A
:10425000A5FA0E4B1B68DB0700D5FFDE20880C4952
:10426000000440F00200FFF799FABFF34F8F0949AD
:10427000094BCA6802F4E0621343CB60BFF34F8F6F
:1042800000BFFDE784230020B4AF0200F0ED00E0A2
:10429000C0AF020000ED00E00400FA05F0B412F037
:1042A000030412D14B1CDB000A4D0B4E0B4F347034
:1042B0009BB213442B600A4E0A4D0B4B28803A6088
:1042C000347019802046F0BC704707242046F0BCAB
:1042D000704700BF942900209029002098290020D1
:1042E000A02900209C2900209E2900202DE9F84FBC
:1042F0001B4C1C4D22782B789A4226D0DFF86CA0FC
:10430000DFF86C90184FDFF86CB04FF0000823789E
:10431000DAF800203888D9F80060DBB20FFA83FEA3
:1043200002EBCE0103FB0060898852F83E309847CB
:104330002378BBF80010DBB25A1C9942D2B206D9DE
:10434000227023782A789A42E1D1BDE8F88F84F868
:10435000008022782B789A42D9D1BDE8F88F00BF2F
:10436000A0290020902900209C29002098290020C5
:10437000942900209E290020F8B5204A204B0024D3
:10438000C2F84041C2F84441C2F84841C2F84C4129
:10439000C2F80041C2F804411B6833B31949D2F88E
:1043A00004550A68AD1A1A6825F07F45AA422746C7
:1043B0000DD8197CDE69AD1A144419B11F74D3E904
:1043C000052090471EB133461A68AA42F1D90E491A
:1043D0000E4A0B7812789A4208D00D490D4A41F8DE
:1043E00023404FF48013C2F80031F8BD531CDBB2F8
:1043F000022B08BF00230B70EFE700BF0010014045
:10440000C42A0020C02A0020BD2A0020BC2A002087
:10441000B42A002000E100E02DE9F04FAF48B04A97
:10442000B04913780978D0F80090AF4889B0006897
:104430000290994200F04E810133DBB2022B08BF9B
:1044400000231370A94A52F82300A44B09EB00077C
:1044500027F07F471F60029B00252A462C46AC466A
:10446000B3B11968814200F24D81DD68C3F800C024
:10447000401A0C44D9693DB109EB040626F07F4689
:10448000C3E90165DA611A460B460125002BE8D124
:10449000002D40F09B81012302990693B946944B6D
:1044A000944C1B7805934FF000084B46CDF81C80C8
:1044B000CDF80C804FF0010EC1468C469B4642B3AE
:1044C000D2E901651346D2698B48A6EB0B0121F0B6
:1044D0007F41814259D829441960002083F810E0B7
:1044E000C3E90100D861BCF1000F72D0DCF8000014
:1044F00088425FD2664603E02868884263D22E462F
:10450000F569091A002DF7D11960DD61F361002A00
:10451000D6D1CA46CDF804B094F8019021784FF076
:10452000000B1646894576D0084600EB400004EBA8
:10453000C0004A1CA378D1B2027921708B4204BF1B
:1045400084F800B00021022A836853D0032A44D0A3
:10455000012AE7D11F7C002FE4D13246C6685E6095
:1045600005699D604169D960816999610599DDF8A6
:1045700004B0D1460029A7D03E46A6EB0B015E4809
:104580005F6021F07F418142A5D9ABEB060121F0AC
:104590007F41A94202D2691A19609EE7002183F87F
:1045A00010E0C3E900119960D961BCF1000F10D08F
:1045B000DCF80000411ACCF800104FF00108C3F8F5
:1045C0001CC09C467BE7401A28601960DD61F361DE
:1045D0009DE79C464FF0010871E7BCF1000FA1D0A8
:1045E000624600231374D269002AFBD194464FF02F
:1045F000010891E7BCF1000F09D06345624603D181
:1046000092E083424FD00246D0690028F9D183F866
:1046100010B0894588D1C346DDF80490D046BBF17F
:10462000000F40F0D780079B002B40F01A82B8F1B2
:10463000000F03D02E4B9DF814201A702A4B1A68D5
:10464000039B1BB9029B9A4200F0C880002A00F02D
:10465000CC802A48214BD0F804151B68284C1568DB
:104660002678CA1A22F07F420332002E00F0A6817B
:1046700095422CBF5B199B18204823F07F43C0F85C
:104680004035D0F80425521A5B1A22F07F4223F0FD
:104690007F4303329A4200F24781154A0023137088
:1046A00009B0BDE8F08F934236D0674604931D46AB
:1046B000E8692D68D06128B102682A440260217837
:1046C00094F801906745A2D00122BC46039283F87A
:1046D00010B09EE7002206920146E0E6C02A0020C4
:1046E000BC2A0020BD2A0020C42A0020B42A0020B1
:1046F000B02A0020A4290020FEFF7F000010014006
:10470000B12A0020002D40F0B081091A1960012360
:10471000B94606930299C2E60493DCF81C7037B1DF
:104720004FF00108049DC3E7CDF810C0F5E77748C6
:10473000774DC0F808E077484FF02F08006800BFB9
:1047400000BF00BF00BF00BF00BF00BF00BFA84246
:104750002FD000BF00BF00BF00BF00BF00BF00BF21
:1047600000BF00BF00BF00BF00BF00BF00BF00BF51
:1047700000BF00BF00BF00BF00BF00BF00BF00BF41
:1047800000BF00BF00BF00BF00BF00BF00BF00BF31
:1047900000BF00BF00BF00BF00BF00BF00BF00BF21
:1047A00000BF00BF00BF00BF00BF00BF00BF00BF11
:1047B00000BFB8F10108C2D14FF0010A0197CDF84E
:1047C00014A0CDF81CA0D046049D71E75249029375
:1047D0000B6060E6504BC3F800C024E7069B002B3B
:1047E0003FF45BAF002A7FF434AF48494B4B494E4E
:1047F000474C4FF480304FF400370125C3F88070E8
:10480000C1F848032F23C1F808034D6030681E46E5
:1048100000BF00BF00BF00BF00BF00BF00BF00BFA0
:10482000A0422FD000BF00BF00BF00BF00BF00BF2D
:1048300000BF00BF00BF00BF00BF00BF00BF00BF80
:1048400000BF00BF00BF00BF00BF00BF00BF00BF70
:1048500000BF00BF00BF00BF00BF00BF00BF00BF60
:1048600000BF00BF00BF00BF00BF00BF00BF00BF50
:1048700000BF00BF00BF00BF00BF00BF00BF00BF40
:1048800000BF00BF013EC3D18D6025490A6000BF53
:1048900000BF00BF00BF00BF00BF00BF00BFA042FD
:1048A0002FD000BF00BF00BF00BF00BF00BF00BFD0
:1048B00000BF00BF00BF00BF00BF00BF00BF00BF00
:1048C00000BF00BF00BF00BF00BF00BF00BF00BFF0
:1048D00000BF00BF00BF00BF00BF00BF00BF00BFE0
:1048E00000BF00BF00BF00BF00BF00BF00BF00BFD0
:1048F00000BF00BF00BF00BF00BF00BF00BF00BFC0
:1049000000BF013BC3D1074B1A70C6E6001001403F
:104910000024F400A8210020C42A002000E100E0C7
:10492000C02A0020B12A0020D0F80435514AC0F82E
:104930004035126850492F2300BF00BF00BF00BFA1
:1049400000BF00BF00BF00BF8A422FD000BF00BF22
:1049500000BF00BF00BF00BF00BF00BF00BF00BF5F
:1049600000BF00BF00BF00BF00BF00BF00BF00BF4F
:1049700000BF00BF00BF00BF00BF00BF00BF00BF3F
:1049800000BF00BF00BF00BF00BF00BF00BF00BF2F
:1049900000BF00BF00BF00BF00BF00BF00BF00BF1F
:1049A00000BF00BF00BF00BF00BF00BF013BC3D1BD
:1049B000324B4FF40032C3F800216EE62F4EDFF881
:1049C000B4E0DFF8B4C04FF48037C0F84473C0F8E7
:1049D00004734FF40037C6F8807137600126066013
:1049E000DEF800702F2000BF00BF00BF00BF00BF77
:1049F00000BF00BF00BF67452FD000BF00BF00BF92
:104A000000BF00BF00BF00BF00BF00BF00BF00BFAE
:104A100000BF00BF00BF00BF00BF00BF00BF00BF9E
:104A200000BF00BF00BF00BF00BF00BF00BF00BF8E
:104A300000BF00BF00BF00BF00BF00BF00BF00BF7E
:104A400000BF00BF00BF00BF00BF00BF00BF00BF6E
:104A500000BF00BF00BF00BF00BF0138C3D1267038
:104A600006E6074BC3F80090E1E5064C029323608D
:104A70004BE600BFA82100200024F40000E100E084
:104A8000C02A0020C42A0020F0B4554B554A564E87
:104A9000564C4FF480304FF400310125C2F880109D
:104AA000C3F848032F21C3F808035D6030680E4641
:104AB00000BF00BF00BF00BF00BF00BF00BF00BFFE
:104AC000A0422FD000BF00BF00BF00BF00BF00BF8B
:104AD00000BF00BF00BF00BF00BF00BF00BF00BFDE
:104AE00000BF00BF00BF00BF00BF00BF00BF00BFCE
:104AF00000BF00BF00BF00BF00BF00BF00BF00BFBE
:104B000000BF00BF00BF00BF00BF00BF00BF00BFAD
:104B100000BF00BF00BF00BF00BF00BF00BF00BF9D
:104B200000BF00BF013EC3D19D6000BF00BF00BFFA
:104B300000BF00BF00BF00BF00BFA0422FD000BF1A
:104B400000BF00BF00BF00BF00BF00BF00BF00BF6D
:104B500000BF00BF00BF00BF00BF00BF00BF00BF5D
:104B600000BF00BF00BF00BF00BF00BF00BF00BF4D
:104B700000BF00BF00BF00BF00BF00BF00BF00BF3D
:104B800000BF00BF00BF00BF00BF00BF00BF00BF2D
:104B900000BF00BF00BF00BF00BF00BF00BF0139A2
:104BA000C3D1134E134C1449144D154F00203070CF
:104BB000206008704FF480140B26E0212880AE702E
:104BC0003870104DC2F8804182F814131460C3F895
:104BD000080582F81113D3F804352B60F0BC704738
:104BE0000010014000E100E0A82100200024F400B2
:104BF000B12A0020C42A0020BC2A0020A4290020B9
:104C0000BD2A0020C02A0020074B9B784BB132B14F
:104C100028B10368187C20B959745A61704707207D
:104C200070470820704700BFA42900202DE9F047F5
:104C3000264CA37882B0002B3CD000283AD004291F
:104C40003CD94369002B35D0814602A899F8113030
:104C50000026012B00F8016D0CBF8846B0461746B0
:104C60008A4600F073F86378A17822789DF80700EF
:104C70005D1CEDB2A94208BF3546AA4222D003EB23
:104C8000430304EBC3030121114AC3F808901971CF
:104C9000D2F804256570C3E9032AC3E9058700F04B
:104CA0007BF80C4B4FF480123046C3F8002102B061
:104CB000BDE8F087082002B0BDE8F087072002B009
:104CC000BDE8F08700F068F80420F0E7A429002090
:104CD0000010014000E100E0F0B51A4CA37883B069
:104CE00043B338B343692BB3064602A8002500F846
:104CF000015D357400F02AF86278A77821789DF874
:104D00000700531CDBB29F4208BF2B46994214D0C8
:104D100002EB420204EBC202022196601171637041
:104D200000F03AF8084B4FF480122846C3F80021EF
:104D300003B0F0BD082003B0F0BD00F02DF8042052
:104D4000F9E700BFA429002000E100E070B4EFF310
:104D5000108472B60D4B9A68AAB90D490D4E012503
:104D60009D60D1F8805035401D60C1F88060D1F859
:104D700084505D604FF0FF33C1F88430027004B995
:104D800062B670BC704701230370F8E7042D002061
:104D900000E100E0FC06FFBD094B9A687AB170B9EA
:104DA00010B4EFF3108272B606491C680C605C68A0
:104DB0004C60986002B962B65DF8044B704770476A
:104DC000042D002000E100E0B8B130B4D0E90112B8
:104DD000521A0468D2B2531E2160DBB242B101689C
:104DE0000A685C1E551C0D601370E3B2FF2BF6D1F0
:104DF00003680020187130BC70470E20704700BF58
:104E0000F0B583B002AB002503F8015D04461846F7
:104E1000FFF79CFFD4E900311A688A4210D9511E6D
:104E200019602168A3680F6812F8015C0A79268A64
:104E3000E068DB1BDBB29A4206FB050538BF0B714D
:104E40009DF80700FFF7A8FF284603B0F0BD00BF9C
:104E500030B583B002AB002203F8012D0546184699
:104E60000C46FFF773FF2A681368591C1160E96844
:104E70002A8A641AB4FBF2F41C709DF80700FFF74D
:104E80008BFF03B030BD00BF826842B110B504464D
:104E900043690168006998470023A36010BD70470B
:104EA0000EB400B582B0039929B102AA04AB42F84E
:104EB000043D00F08BF802B05DF804EB03B07047DE
:104EC0002DE9F84F88469045174605461E46DDE910
:104ED0000AB175D343464FF00109B3FBF7F39F4284
:104EE00009F10109F9D9B14538BFB14611F0010AFC
:104EF000AA6802D1BBF1000F43D1012402E0013EB8
:104F000007FB04F4012EFAD8B8FBF4F18F42F7D96D
:104F10002D4E05E0B4FBF7F4A4B1B8FBF4F1AA6898
:104F2000705C531CAB602B689854D5E901329A42EF
:104F300004FB1188EED32846FFF7A6FFB4FBF7F475
:104F4000002CEAD1BAF1000F15D0BBF1000F12D03E
:104F5000CB4510D92024AB682A68591CA960D454C9
:104F6000D5E901329A420BF1FF3B06D2BBF1000FAB
:104F700001D0CB45EFD1BDE8F88F2846FFF784FF7D
:104F8000F4E78B0717D42024CB45B6D92B68511CE6
:104F9000A9609C54D5E901329A420BF1FF3B05D23E
:104FA000BBF1000FA9D0CB45F0D1A6E72846FFF70B
:104FB0006BFFAA68F4E7002E0CBF30242024E3E73F
:104FC0004FF001098FE700BFD8AF0200002900F0C1
:104FD000F4812DE9F04F054685B092460C460B78DA
:104FE000DFF8A0B501E0237893B1013483B1252B1C
:104FF00015D0AA682968501CA8608B54D5E90132E5
:105000009A42F0D32846FFF73FFF2378002BECD1DC
:105010002B7B002B40F0148105B0BDE8F08F2146BA
:10502000002711F8012B2D2A00F0E180302A00F032
:10503000E2802B2A00F0D2802A2A00F0E080A2F140
:105040003006F3B2092B03D9B8E1A3F130060146CB
:10505000084606EB860310F8012BA2F13004092C58
:1050600002EB4303F1D92E2A00F0D5800023013151
:1050700001E011F8012B02F0FB0068280C46F8D083
:10508000253A532AAFD801A151F822F04D5202001F
:10509000E74F0200E74F0200E74F0200E74F020030
:1050A000E74F0200E74F0200E74F0200E74F020020
:1050B000E74F0200E74F0200E74F0200E74F020010
:1050C000E74F0200E74F0200E74F0200E74F020000
:1050D000E74F0200E74F0200E74F0200E74F0200F0
:1050E000E74F0200E74F0200E74F0200E74F0200E0
:1050F000E74F0200E74F0200E74F0200E74F0200D0
:10510000E74F0200E74F0200E74F0200E74F0200BF
:10511000E74F0200E74F0200E74F0200E74F0200AF
:10512000E74F0200E74F0200E74F0200E74F02009F
:10513000E74F0200E74F0200E74F0200E74F02008F
:10514000E74F0200E74F0200E74F0200E74F02007F
:10515000E74F0200E74F020067520200E74F0200EC
:10516000E74F0200E74F0200E74F0200E74F02005F
:10517000E74F0200E74F0200E74F0200E74F02004F
:10518000E74F020081520200A3520200E74F0200E3
:10519000E74F0200E74F0200E74F0200A352020070
:1051A000E74F0200E74F0200E74F0200E74F02001F
:1051B000E74F0200E74F0200F3520200E74F020000
:1051C000E74F020067530200E74F0200A1530200BD
:1051D000E74F0200E74F02006752020047F0040762
:1051E0000C46214611F8012B2D2A7FF41FAF47F002
:1051F00001070C46F5E747F002070C46F1E7DAF83D
:1052000000301A1DCAF8002062781E682E2A04F1A8
:1052100002007FF42BAF4A78A2F13003092B00F291
:105220005081002303EB830302EB430310F8012FAB
:10523000A2F130010929A3F13003F3D9014616E7A1
:10524000284605B0BDE8F04FFFF71EBEAB682A68E0
:10525000591CA9604FF02501D154D5E901329A4279
:10526000FFF4C1AECEE6DAF80020111DCAF8001036
:1052700011682846CDE900671022FFF721FEB2E64B
:10528000DAF80020131DCAF80030AB6829681278DC
:10529000581CA860CA54D5E901329A42FFF4A3AE63
:1052A000B0E6DAF80020111DCAF80010D2F800802C
:1052B00088EAE872A2EBE872092A4FF0010107DDE3
:1052C000AF48A0FB0202D208092A01F10101F7DC74
:1052D000994238BF1946894607F00202002E71D163
:1052E0002AB1002B00F04781FA0700F18D800026DB
:1052F0008AE0DAF80020131DCAF80030AB6829688C
:105300001768581C3022A860CA54D5E9012393427B
:1053100080F028812A68581C7821A860D154D5E9EA
:105320000123934280F019810F2F03D93A461209C5
:105330000F2AFCD84FF0805603E036093FF453AEF5
:10534000AB682968B7FBF6F2581CA8601BF802008E
:10535000C854D5E90131994206FB1277EDD32846AE
:10536000FFF792FDE9E7DAF800301A1DCAF80020CD
:10537000D3F80080FB077ED54746A7EB080917F84E
:10538000013B002B5DD0AA682968501CA8608B5493
:10539000D5E901329A42F0D32846FFF775FDECE7D4
:1053A000DAF80020111DCAF8001011682846CDE96E
:1053B00000670A22FFF784FD15E6704708460026BD
:1053C000214650E6B8F1000F01DB780700D5013E19
:1053D00002B1CBB1F90717D4002E88D0B14513D252
:1053E00020220393A9682B68481CA8605A54D5E969
:1053F0000131994206F1FF365DD2002E00F0BD80EA
:10540000B145EFD1039B4E46B8F1000FC0F2928038
:105410007A070AD5A9684A1CAA602A682B2050542A
:10542000D5E90121914280F0928007F00302022A1F
:105430005FD0CDE9006741460A222846FFF740FDCC
:10544000D1E54E457FF6CFAD202705E04E453FF430
:10545000CAAD002E3FF4C7ADAB682A68591CA960DD
:10546000D754D5E901329A4206F1FF36EED32846E9
:10547000FFF70AFDEAE7B8F1000F24D0404605F037
:10548000ECFC0746BE4220D9FEB14FF0200902E0F5
:10549000BE421AD0CEB1AB682A68591CA96002F886
:1054A0000390D5E901329A4206F1FF36F0D328463F
:1054B000FFF7EAFCECE728460292FFF7E5FC029AC8
:1054C0009BE70146D2E54746DCE708F1FF3818F8CC
:1054D000013F002B3FF487ADAA682968501CA860E3
:1054E0008B54D5E901329A42F1D32846FFF7CCFC20
:1054F000EDE7002B9DD1002E3BD0B14599D2029310
:1055000023464C469946AA682B68501C4FF0300140
:10551000A8609954D5E901329A4206F1FF3605D2C6
:105520002EB3B442EFD1029B4C4682E72846FFF7E8
:10553000ABFCF5E7A9684A1CAA602A682D205054E4
:10554000D5E901219142C8F10008FFF46EAF284669
:105550000293FFF799FC029B67E72846FFF794FC4C
:10556000AB68E1E62846FFF78FFCAB68D2E6029B0A
:105570004C4600265DE71E4646E7039BB7E600BFA4
:10558000CDCCCCCCD8AF0200FFF71EBC2DE9F0414A
:10559000058ACE1C043D2E440746B6FBF5F6FFF700
:1055A0002FFC78B3F6B24FF48073013E0446C580F9
:1055B0000760838027D08046002509E06379AE42EA
:1055C00003F101036371C8F80000076080461AD038
:1055D0003846FFF715FC01350028EFD16679721EB9
:1055E00014D02346013082421B68FBD11F684EB1A4
:1055F000002523682146013538461C46FFF728FC64
:10560000AE42F6D100242046BDE8F0812768EFE7DE
:1056100010B40430012350E8002F02EB030140E8EE
:10562000001494F0000FF6D15DF8044B704700BFF2
:105630000146021DF8B5012052E8004FA4EB00031B
:1056400042E8003595F0000FF6D113F0FF0300D0CB
:10565000F8BD4E79701E11D00A4601339842126887
:10566000FBD11768002EF3D000240D6801343846B2
:10567000FFF7EEFBA6422946F7D1F8BD0F68F3E726
:105680002DE9F8430446181DE688B0FBF6F30F46F3
:10569000904606FB130013B1013B2468FCD1351A78
:1056A000454528BF4546B8F1000F15D04FF0000919
:1056B0000430A8EB050820442A4607EB090105F051
:1056C000B9FB4645A944246835464FF0000028BF81
:1056D0004546B8F1000FEBD1BDE8F8832DE9F8435A
:1056E000C688043304460F46B3FBF6F0904606FB2B
:1056F000103110B101382468FCD1751A454528BF16
:105700004546B8F1000F15D04FF00009043121448F
:10571000A8EB05082A4607EB090005F08BFB464578
:10572000A944246835464FF0000128BF4546B8F12A
:10573000000FEBD1BDE8F88301600B6843604A6855
:10574000934204BF00234360704700BF436843B1E6
:10575000026891680B4443605268934204BF00237F
:105760004360704730B4184DA5F1F002AB1ADB105E
:1057700003EBD3735B1002EBC30152F83330984252
:1057800028BF0C4605D311E052F8333098420CD2B2
:1057900021468B1ADB1003EBD3735B108A4202EBBA
:1057A000C304F1D3094830BC70470D46984204D970
:1057B00004F10802AA42D9D3F4E76068034B002839
:1057C00008BF1846EFE700BFF8B00200F4AF0200D0
:1057D00010B40023012401E0202B0AD004FA03F2C4
:1057E000024299B203F10103F6D008465DF8044B7A
:1057F00070474FF6FF7108465DF8044B704700BFD5
:10580000A0B199B130B40238002402E00134202C58
:105810000AD030F8025F9542F8D1012202FA04F46E
:105820000A6823B122430A6030BC7047704722EAFD
:1058300004020A6030BC704770B49DF80C60D0B1AF
:10584000C9B1C2B10238002402E00134202C12D0C8
:1058500030F8025F9D42F8D1012301EB820203FA86
:1058600004F4E043043A04393EB951F8043F0340DC
:1058700091420B60F9D170BC704751F8043F23434B
:1058800091420B60F7D051F8043F234391420B60E3
:10589000F3D1F0E7F0B491B100252B46012606FACA
:1058A00003F4144205D000EB450431F81370A780CF
:1058B00001350133202BF2D10560F0BC70470D4655
:1058C0000560F0BC704700BF60B910B5064CA36816
:1058D0003BB1D3E900230020A2609847A368002BC6
:1058E000F7D110BD704700BFC82A002010B50128AD
:1058F00082B029D022D303281ED10721002000F036
:1059000093F802A80023264C00F8013DFFF71EFA89
:10591000E368013BE360E36853B9224B01221A605C
:105920004FF08042D2F8183413F48033FAD1A370C8
:105930009DF80700FFF730FA02B010BD1A4B0122A4
:10594000C3F8802002B010BD02A80023144C00F858
:10595000013DFFF7FBF9237853B1E3689DF8070099
:1059600001330122E360A270FFF716FA02B010BD06
:105970000D4A6360A3602361E360106810F00100CA
:105980000AD005F0A3F820B94FF080430122C3F8F4
:10599000182501232370E0E7072100F045F8F0E720
:1059A000C82A00200C00004000E100E010B51B4BAD
:1059B0001A6882B0AAB100221A601B6800934FF0E7
:1059C00080430122164C0099C3F80823A368627033
:1059D0003BB1D3E900230020A2609847A368002BC5
:1059E000F7D1104B1A68B2B100221A601B680193FC
:1059F0004FF0804302220A4C0199C3F8082323691F
:105A00000122A2703BB1D3E9002301202261984713
:105A10002369002BF7D102B010BD00BF0001004088
:105A2000C82A0020040100404901002810B4C9B26E
:105A3000C3B215DB00F1604202F5614282F8001347
:105A40004009800000F1604000F5614003F01F0252
:105A500001239340C0F8803103605DF8044B704728
:105A6000024A03F00F0422441176E9E7FCEC00E05F
:105A700030B5194C94F8545083B055BB4FF0FF33F8
:105A800007210620C4E90033C4E90233C4E9043322
:105A9000C4E90633C4E90833C4E90A33C4E90C3362
:105AA000C4E90E33C4E91033C4E912332365FFF7A8
:105AB000BBFF0A4B0A4A1D601B68019301984FF017
:105AC00000430121284684F85410C2F8043303B07F
:105AD00030BD082003B030BDDC2A00207C610040CE
:105AE00000600040034B93F85400003018BF0120C1
:105AF000704700BFDC2A0020F0B4654B1C1894F9F5
:105B00003050002D66DACE78002E5DD11D6A013549
:105B100000F0AD8009240C2553F8247001375DD0C6
:105B200004F1010C53F82C70013700F0AA8004F145
:105B3000020CAC4545D253F82C70013700F0A1801F
:105B400004F1030CAC453CD253F82C70013700F043
:105B5000988004F1040CAC4533D253F82C70013713
:105B600000F08F8004F1050CAC452AD253F82C705C
:105B7000013700F0868004F1060CAC4521D253F8C1
:105B80002C7001377DD004F1070CAC4519D253F8C5
:105B90002C70013775D004F1080CAC4511D253F8C4
:105BA0002C7001376DD004F1090CAC4509D253F8C3
:105BB0002C70013765D00A34AC4202D2DC6A013461
:105BC0000BD00420F0BC70471D6801355BD0012468
:105BD0000825A1E70820F0BC70470B241F1865B208
:105BE00043F8242087F83050002E46D08A78B2B18E
:105BF000820002F1A042D2F8004724F00204C2F869
:105C00000047CA780978B2B9083D2B44104693F88A
:105C1000502042EA811183F85010F0BC70474C7854
:105C200000F5E0724FF0A046A40046F82240CA7882
:105C30000978002AE8D0AB0003F1804303F5C043A4
:105C40000002D3F8102522F4473222F44072C3F840
:105C50001025090400F4F850D3F8102501F4403160
:105C600001431143C3F810150020F0BC704708260B
:105C700084F830601A62354634461C4484F8480083
:105C8000B4E76446AAE700251A6084F83050ADE70F
:105C9000DC2A002070B42E4D2E1883B096F93030D7
:105CA000072B1CDD2B4493F848309B09032B41D074
:105CB000012B14BF4FF440314FF40031800000F14C
:105CC000A040D0F8002722F44032C0F80027D0F8D6
:105CD00000370B43C0F8003703B070BC7047DAB22E
:105CE000072AF9D8980000F1804000F5C04003F180
:105CF0004002D0F81045920092B244F0010402F143
:105D00008042C0F8104502F5C04200200190019C7D
:105D100010600029E0D096F9302055F82220002AA2
:105D2000DAD001220B4902FA03F3C1F8043303B0BD
:105D300070BC70474FF0A043D3F81035C34013F048
:105D4000010F0CBF4FF400314FF44031B6E700BFF4
:105D5000DC2A002000600040164B034493F93030E9
:105D6000072B18DCDAB2072A14D810B49A0002F113
:105D7000804202F5C042104CD2F81005012120F0FB
:105D8000010001FA03F3C2F81005C4F808335DF806
:105D9000044B70477047800000F1A040D0F80037F6
:105DA00023F44033C0F80037D0F80037C0F800378C
:105DB000704700BFDC2A0020006000404FF0A04385
:105DC000D3F8103523FA00F000F00100704700BF4F
:105DD0002DE9F04186B00023A14A01931668012EF7
:105DE00000F054811E469F4B1A68012A00F05D8125
:105DF0009D4B1A68012A00F06A819C4B1A68012A9F
:105E000000F077819A4B1A68012A00F08481994B3F
:105E10001A68012A00F09181974B1A68012A00F054
:105E20009E81964B1A68012A0CD0954B1B68012B5A
:105E300000F0A58116F0FF0F15D1002E30DB06B063
:105E4000BDE8F0818F4AD2F804231706EDD5002271
:105E50001A601A6804926033049A1B68012B46F09A
:105E6000800600F08C81884F00240125A30003F1F7
:105E70008043354203F5C0434FEA45050BD0D3F8C4
:105E8000100557F82420D3F81015C0F30420C1F3EF
:105E9000014102B190470134082CE7D1002ECEDA3F
:105EA00000224FF0FF33CDE90223774C012602AFE9
:105EB00094F950305D1C2CD0DBB223F0C00006AA50
:105EC0004FEAD00C02EB0C0E03F007021EF80C1C7C
:105ED00006FA02F211421CD02518990995F93030C2
:105EE00054F82330002B00F09881032900F09881AA
:105EF0004FEA800C0CF1A04C1EF8145CDCF800E7B3
:105F00001540CEF3014E40F05C81BEF1030F00F06E
:105F1000DE81002594F95130581C2DD0DBB223F0DE
:105F2000C00006AA4FEAD00802EB080E03F00701F2
:105F30001EF80C2C06FA01FC12EA0C0F1CD02218D9
:105F4000990992F9303054F82330002B00F05B812E
:105F5000032900F05B81820002F1A0421EF8148C3C
:105F6000D2F800E718EA0C0FCEF3014E40F036816C
:105F7000BEF1030F00F0A68194F95230591C2DD0C8
:105F8000DBB223F0C00006AA4FEAD00802EB080EED
:105F900003F007011EF80C2C06FA01FC12EA0C0FA4
:105FA0001CD02218990992F9303054F82330002B74
:105FB00000F03C81032900F03C81820002F1A04204
:105FC0001EF8148CD2F800E718EA0C0FCEF3014E3D
:105FD00040F0E380BEF1030F00F06E8194F953307E
:105FE0005A1C2DD0DBB223F0C00006AA4FEAD0081D
:105FF00002EB080E03F007011EF80C2C06FA01FC58
:1060000012EA0C0F1CD02218990992F9303054F87A
:106010002330002B00F0ED80032900F0ED8082009A
:1060200002F1A0421EF8148CD2F800E718EA0C0F17
:10603000CEF3014E40F0BC80BEF1030F00F00081B2
:10604000002D3FF4FCAE4FF0A043019AD3F8103579
:1060500093423FF4F4AE029A0193039228E700BF03
:106060000061004004610040086100400C61004094
:106070001061004014610040186100401C61004044
:106080007C61004000600040DC2A00209A49D1F881
:10609000041311F0010170D0136013680493049B82
:1060A000964B1A68012A7FF4A3AE934AD2F80423D0
:1060B00097077FF59DAE00221A601B680493049B2E
:1060C0008F4B1A68012A46F002067FF496AE8A4A80
:1060D000D2F8042355077FF590AE00221A601B68A2
:1060E0000493049B874B1A68012A46F004067FF448
:1060F00089AE814AD2F8042314077FF583AE0022CB
:106100001A601B680493049B7F4B1A68012A46F0AF
:1061100008067FF47CAE784AD2F80423D0067FF5D7
:1061200076AE00221A601B680493049B774B1A68B2
:10613000012A46F010067FF46FAE6F4AD2F80423AE
:1061400091067FF569AE00221A601B680493049BD8
:106150006F4B1A68012A46F020067FF462AE664A49
:10616000D2F8042352067FF55CAE00221A601B6849
:106170000493049B46F0400653E60E4633E6654B17
:1061800000221A601B6805934FF0A043059AD3F8CC
:106190001035019346F000464CE6BEF1020F7FF445
:1061A0001DAF032963D0002B3FF418AF984715E7C4
:1061B000BEF1020F7FF444AF032969D0002B54D104
:1061C0003EE7BEF1020F7FF4A4AE032900F09180F8
:1061D0000025002B3FF49EAE98479BE6BEF1020FD0
:1061E0007FF4CAAE032956D0002B3FF4C5AE9847C2
:1061F000C2E603297FF424AF17F8082042EA0C0214
:1062000007F808200BE703297FF4B6AE17F808203B
:1062100042EA0C0207F808209DE603297FF479AED4
:1062200017F80C50154307F80C5061E603297FF46A
:10623000D5AE17F8082042EA0C0207F80820BCE6A1
:106240000329BBD14FF4003ED2F800C72CF4403CE8
:10625000C2F800C7D2F800C701354CEA0E0CEDB207
:10626000C2F800C7002B3FF4EEAE9847E8E64FF4C3
:10627000403ED2F800C72CF4403CC2F800C7D2F828
:1062800000C701354CEA0E0CEDB2C2F800C78AE730
:106290004FF4403ED8E74FF4403ED2F800C72CF40C
:1062A000403CC2F800C7D2F800C701354CEA0E0CDA
:1062B000EDB2C2F800C797E703297FF474AF4FF43B
:1062C000003ED6E703298FD14FF4003EE5E70329CE
:1062D0007FF47FAF4FF40035DCF8002722F4403222
:1062E000CCF80027DCF800272A43CCF8002701254A
:1062F0006FE74FF44035EFE7006000400461004075
:10630000086100400C6100401061004014610040D1
:10631000186100407C6100402DE9F0414479544D02
:10632000E6003719BF0005EB070C9CF81CE0BEF136
:10633000000F40F08F80EA51CCF804300B7B91F8CD
:1063400000C0012B4FF0A0474FF0010303FA0CF3FC
:1063500094BFC7F80C35C7F808350B784FF0A04E3E
:1063600003F5E0734FF0010C4EF823C04F78FF2F78
:1063700068D007F5E0780CFA07F34FF0030CCEF87D
:106380000C354EF828C08B78FF2B60D003F5E07CED
:106390009E464FF0A0434FF0040843F82C8091F83C
:1063A00003C0BCF1FF0F0FD04FF0A048012303FA48
:1063B0000CF3C8F80835CB7803F5E0734FF0030C05
:1063C00048F823C091F803C0437903EBC30305EBFE
:1063D000830383F81EC0036891F800C0C3F808C5A2
:1063E000C3F80C75C3F810E58F68C3F824754F7BAC
:1063F00091F80CC0003718BF0127BCF1020F33D051
:10640000BCF1030F2DD0BCF1010F01D147F0020701
:10641000C3F854754F79C3F8C075F2B1402707220D
:10642000C3F80473C3F80025097990F90400FFF755
:10643000FBFA344405EB8405012300202B776877B1
:10644000BDE8F0818B78FF2B4FF0FF379ED14FF0E6
:10645000FF3EA4E70820BDE8F0810722C3F800252D
:10646000E7E747F00607D3E747F00407D0E700BFA8
:10647000342B00202DE9F0434479444DE7003E19C8
:10648000B60005EB060E83B09EF81D809DF828C06F
:10649000B8F1000F74D1AE5916B101268EF81D6007
:1064A0000C264FF0240E1EFB046E05EB0E083E1961
:1064B00045F80E1005EB860688F80420C8F8083069
:1064C00088F80CC096F821E096F81E8006F12009A5
:1064D0000EF0FC066FF38206B8F1FF0F89F8016039
:1064E00006D001264FF0A04E06FA08F6CEF80C654D
:1064F00021B101F06046B6F1005F25D123B103F070
:106500006046B6F1005F1FD106680020C6F844154A
:10651000C6F84825C6F83435C6F838C5C6F8180197
:10652000D6F81831019301223B190199C6F850059C
:10653000C6F84005326155F8233073B14023C6F8E0
:10654000043303B0BDE8F0833C4405EB840500232D
:106550006B77102003B0BDE8F083D6F81831002B1C
:10656000FBD03C4405EB8405AB7FFF2B0CD0012214
:106570004FF0A04102FA03F3C1F808350020E9E723
:10658000112003B0BDE8F0830020E3E7342B0020A6
:106590000F4BD3F8182102B9704700210D4AC3F8F8
:1065A0001811D3F81811937F82B0FF2B0191019934
:1065B00006D001214FF0A04001FA03F3C0F80835DE
:1065C000002353771372D2E90031034802B0184711
:1065D00000300040342B00203C2B00204FF04023A3
:1065E000D3F8182102B9704700210E4AC3F81811D8
:1065F000D3F8181192F8423082B0FF2B0191019923
:1066000006D001214FF0A04001FA03F3C0F808358D
:10661000002382F8413082F82C30D2E90931024857
:1066200002B01847342B0020602B0020F0B506790B
:106630006F4C7601A31987B0DD7E002D40F0898074
:106640004D7F1D770B685D1C0CD001254FF0A047D6
:1066500005FA03F3C7F808350B6803F5E073032563
:1066600047F823504B685F1C06D003F5E0734FF0EA
:10667000A045002745F82370037905688F6904EB6E
:1066800043131B7FC5F82475002B46D00F7D4B7D2F
:1066900005683B43C5F86C35D1E900750368C3F85C
:1066A0000C75C3F814550B7D012B7FD0A31905463B
:1066B0005A600B69A351EAB10379097F026804EBC0
:1066C00043131B7F002B4BD1C2F81C31D2F81C01A5
:1066D0002A6800900098C2F84431D2F844212B680F
:1066E0000192444A0198C3F80423286840F3073014
:1066F000FFF79AF92B792A6804EB43131B7F5BB3EE
:106700000823C2F80035344400200123E376E07505
:106710002076A075A07607B0F0BD91F814C04D7D2D
:10672000076845EA0C05C7F86C55D1E900C705684C
:10673000C5F81475C5F80CC50D7D012DB6D18D6851
:106740006F1C3DD005F5E0754FF0A04747F82530A8
:1067500036E0082007B0F0BD0423C2F80035D2E7C8
:106760000023C2F81031D2F810012A680290029872
:10677000C2F82031D2F820012A6803900398C2F8A9
:106780002431D2F824012A6804900498C2F84431D4
:10679000D2F844212B680592174A0598C3F80423C0
:1067A000286840F30730FFF73FF9A3E78B685D1CCB
:1067B00006D003F5E0734FF0A045002745F823709D
:1067C000CB685D1C0DD001254FF0A04705FA03F3FF
:1067D000C7F80835CB6803F5E073032547F8235065
:1067E000CB6805688F68C5F80835C5F810755DE792
:1067F0007C2B00208000020010030200F0B404791A
:106800003C4B016864011A19127F002A6DD00022E6
:10681000C1F800251A19017955680268B5B103EB72
:106820004111097F002963D13349C2F80813026876
:10683000324E120B51B24909203102F01F020125DC
:1068400005FA02F246F8212001790268D2F80C75A7
:10685000D2F8146503EB41114FF0FF3C097FB1B34F
:10686000D2F80815D2F81055C2F80CC5C2F814C5F4
:106870000268C2F808C5C2F810C57A1C06D007F530
:10688000E0774FF0A042022042F82700771C06D0A4
:1068900006F5E0764FF0A042022042F82600681C80
:1068A00006D005F5E0754FF0A042022042F8250021
:1068B0004A1C06D001F5E0714FF0A042022042F8D8
:1068C000210023440022DA765A60F0BC7047D2F8E7
:1068D0000815D2F81055C2F814C5C2F80CC50268E4
:1068E000C2F808C5C2F810C5C7E7C1F8002591E78E
:1068F00003499AE77C2B00208402020000E100E0BB
:1069000010030200F0B50379524C5B01E51887B023
:106910002D7F25B101F06045B5F1005F58D12344CA
:106920009E7D002E57D19A7599609E8205796D01E2
:106930006219137F13BB0168C1F81C31D1F81C61C7
:10694000016804960126049F8E600168D2F808C091
:10695000C1F81C31D1F81C310593059B968A938AA6
:106960005768B6B201331CF806609BB29382C1F837
:106970001C65002F32D0002007B0F0BD036891687D
:10698000C3F82061D3F8203101930368019FC3F855
:106990005861D3F8586103680296967D029FC3F848
:1069A0004415C3F848650368012199605368002BBA
:1069B000E1D1036801E0002949D1D3F82021D3F8BF
:1069C0005811002AF7D0002914BF0F20002039E009
:1069D000102007B0F0BD112007B0F0BD967D938A5E
:1069E0009E4222D9016804E0938A9BB2B3F5807F6E
:1069F00003D0D1F81C31002BF6D0938A9BB2B3F5AB
:106A0000807FECD0C1F81C71D1F81C310393039B3B
:106A1000B2F814E0938A1FFA8EFE01331CF80EE0E0
:106A20009BB29382C1F81CE5D9E7938A9BB2B3F578
:106A3000807F0CD00268D2F81C31002BFBD00123E0
:106A4000D36000202C440023A37507B0F0BD0F20B5
:106A5000F8E700BF7C2B0020F0B5A94C237F8FB056
:106A6000002B73D1A74AD2F80413890546D4A54B4D
:106A7000D3F80423520704D5D3F80821002A40F0A4
:106A8000D480A04BD3F81C21BAB1A18AA27D8A423E
:106A900000F2B9800021C3F81C11D3F81C31059312
:106AA000059B52B1A3688DF82810A1750B938DF842
:106AB0003020D4E900130AA89847924BD3F8442118
:106AC000D2B10022C3F84421D3F84411A27E04912C
:106AD0000499002A40F09480E37D6BB10023617E2D
:106AE000E268E37501238DF830108DF828300B92A1
:106AF000D4E900130AA898470FB0F0BDD2F82411CA
:106B00000029B4D0C2F82431D2F82411A37E079111
:106B10004FF401710798C2F808130BB901235360B1
:106B2000784A02238DF82830D2F88034C2F88034B5
:106B3000E07DE2680D9300238DF83000E375237645
:106B400021680B9263680AA898479AE76D4BD3F8BF
:106B50002421002A00F097800022C3F82421D3F8D2
:106B60002411029102218DF828100299D3F8801483
:106B7000C3F880140D91D3F83C15E3688DF83010FC
:106B80000B93E2752276216863680AA898475D4BEB
:106B9000D3F84421B2B10022C3F84421D3F8440110
:106BA000E17D0190019869B1D3F83C35E1688DF839
:106BB000303001230B918DF82830E275D4E90013B1
:106BC0000AA898474F4BD3F82021002A94D00022DE
:106BD000C3F82021D3F82001A17D0090009800295E
:106BE0008AD0D3F84C15A3688DF830100B938DF82C
:106BF0002820A275D4E900130AA898470FB0F0BD69
:106C000001221A6068E70022C3F81C21D3F81C2176
:106C10000692069AA18AA28AA06889B20132415CD2
:106C200092B2A282C3F81C1547E7E27D002A54D035
:106C30000022C3F80821D3F808210892089AE168D5
:106C4000627ED3F818358B54637EE27D0133DBB26C
:106C50006376637E93427FF414AF237E2168002B1A
:106C600052D0E268657E2069E3750B920023012211
:106C7000E060237663768DF830508DF828206368C5
:106C80000AA89847FDE6D3F8101100293FF47FAF1A
:106C9000C3F81021D3F8101103910399D3F83C15D0
:106CA000E07DC9B288427FF472AF257EE768D4E9FF
:106CB0000016DDB1D3F800C2E5752CF02005227670
:106CC000C3F80052012223698DF83000E3600B976E
:106CD0008DF828200AA8B04759E7C3F80821D3F84F
:106CE000081109910999D3F81835B2E701238DF8F5
:106CF0003000E5750B978DF828300AA8B04746E7B5
:106D00007C2B002000200040A37E13B90A4B0122F7
:106D10005A60094AE06863684FF40175C2F8085385
:106D2000627E8DF83020002501220B90E5758DF8EC
:106D300028200AA89847A4E6002000403EDF7047BC
:106D400073DF704776DF70477ADF70477CDF70470C
:106D50007FDF70478FDF7047A8DF7047A9DF70477C
:106D600066DF7047014B01221A707047ED2B00203F
:106D7000FDF750BA08B5037803B108BD054B3B21B8
:106D80001888FFF7DFFF0028F7D0BDE80840FDF7BF
:106D900041BA00BF9C2100200D281ED110B5104B18
:106DA000188800040C4640F003000E49FCF7F6FC7E
:106DB0000D4B0E491888224603F0E2FD30F0080220
:106DC0000DD043F20202904209D043F201429042B8
:106DD00005D0BDE81040FDF71DBAFDF71BBA10BD88
:106DE0008423002048B402009C210020D42B0020E2
:106DF00008B502205AB9FDF7D9F8074B074918889A
:106E0000000440F00300BDE80840FCF7C7BCFDF7F4
:106E1000C1F8014B0249F2E78423002078B4020054
:106E200064B4020010B50388013B84B00446552BBE
:106E300058D8DFE803F08E575757575757575757CB
:106E40005757575757952B57AB575757575757576C
:106E500057575757575763575757575757575757B6
:106E600057575757575757575757575757575757B2
:106E700059575757575757575757575757575757A0
:106E80005757575757576D8457575759444B45498C
:106E90001888000440F00300FCF780FC0120FDF797
:106EA00085F8414B4FF6FF721A80FDF799F908B14A
:106EB000FDF7B0F910220021684603F0C6FF002359
:106EC0004022684601218DF8003001938DF808308A
:106ED000CDF80A20FFF734FF08B1FDF79BF9002039
:106EE000FDF758F804B010BD80881321FFF72AFF82
:106EF0000028F7D0FDF78EF904B010BD04A90023D7
:106F000021F8103D8088FFF725FF0028EAD0F1E73F
:106F10008379002BE6D0827B043A022AE2D8022B46
:106F200018BF01238DF8003080884FF4C173694683
:106F3000ADF80430FFF710FF0028D3D0DAE71A4A83
:106F40000023108819461A46FFF708FF0028C9D009
:106F5000D0E780880021FFF703FF0028C2D0C9E7EF
:106F60000F4B12491888000440F00300FCF716FC90
:106F70000120FDF70FF80020FDF718F80A4BA28852
:106F80001A80FDF717F90028ACD0B3E7064A0023B2
:106F9000108885211A46FFF7DBFE0028A2D0A9E75A
:106FA0008423002038B402009C2100202CB402006D
:106FB00010B584B04FF0A04304A94FF080522C4C80
:106FC00001F8010DC3F80825002200922270294B18
:106FD00029480122FFF74EFA08B145E020BF237887
:106FE000002BFBD0254B26491A680A2300BF00BF9F
:106FF00000BF00BF00BF00BF00BF00BF8A422FD04C
:1070000000BF00BF00BF00BF00BF00BF00BF00BF88
:1070100000BF00BF00BF00BF00BF00BF00BF00BF78
:1070200000BF00BF00BF00BF00BF00BF00BF00BF68
:1070300000BF00BF00BF00BF00BF00BF00BF00BF58
:1070400000BF00BF00BF00BF00BF00BF00BF00BF48
:1070500000BF00BF00BF00BF00BF00BF00BF00BF38
:10706000013BC3D104B010BDFDF7D4F8B7E700BFB2
:10707000ED2B0020EC2B0020C0B40200A821002042
:107080000024F40010B584B04FF0A04304A94FF0E1
:1070900080522C4C01F8010DC3F80C2500220092FF
:1070A0002270294B29480122FFF7E4F908B145E095
:1070B00020BF2378002BFBD0254B26491A680A23D2
:1070C00000BF00BF00BF00BF00BF00BF00BF00BFC8
:1070D0008A422FD000BF00BF00BF00BF00BF00BF6B
:1070E00000BF00BF00BF00BF00BF00BF00BF00BFA8
:1070F00000BF00BF00BF00BF00BF00BF00BF00BF98
:1071000000BF00BF00BF00BF00BF00BF00BF00BF87
:1071100000BF00BF00BF00BF00BF00BF00BF00BF77
:1071200000BF00BF00BF00BF00BF00BF00BF00BF67
:1071300000BF00BF013BC3D104B010BDFDF76AF82A
:10714000B7E700BFED2B0020EC2B0020C0B40200FD
:10715000A82100200024F4002DE9F04F6A4B1B68A1
:107160008DB0033B002B039341F39080674CDFF815
:10717000A891DFF8A881DFF8A8A1654F4FF0A04BD8
:1071800000252A234FF080528DF822300DF1220184
:10719000CBF80C2543460122009550462570FFF799
:1071A00069F918B1FDF736F800E020BF2378002B0D
:1071B000FBD00A23D9F8002000BF00BF00BF00BFEA
:1071C00000BF00BF00BF00BFBA422FD000BF00BF4A
:1071D00000BF00BF00BF00BF00BF00BF00BF00BFB7
:1071E00000BF00BF00BF00BF00BF00BF00BF00BFA7
:1071F00000BF00BF00BF00BF00BF00BF00BF00BF97
:1072000000BF00BF00BF00BF00BF00BF00BF00BF86
:1072100000BF00BF00BF00BF00BF00BF00BF00BF76
:1072200000BF00BF00BF00BF00BF00BF013BC3D114
:107230004FF080518DF821500122CBF808154346BC
:107240000DF12101009550462570FFF713F918B193
:10725000FCF7E0FF00E020BF2378002BFBD00A23DF
:10726000D9F8002000BF00BF00BF00BF00BF00BFB3
:1072700000BF00BFBA422FD000BF00BF00BF00BF99
:1072800000BF00BF00BF00BF00BF00BF00BF00BF06
:1072900000BF00BF00BF00BF00BF00BF00BF00BFF6
:1072A00000BF00BF00BF00BF00BF00BF00BF00BFE6
:1072B00000BF00BF00BF00BF00BF00BF00BF00BFD6
:1072C00000BF00BF00BF00BF00BF00BF00BF00BFC6
:1072D00000BF00BF00BF00BF013BC3D10D4B1B6807
:1072E0004FF0805202338DF8203008A9CBF80825E2
:1072F00043460095504601222570FFF7BBF890B138
:10730000FCF788FF0FE000BFA4210020ED2B002038
:107310000024F400A0210020A8210020EC2B002054
:10732000C0B4020020BF2378002BFBD00A23D9F879
:10733000002000BF00BF00BF00BF00BF00BF00BFF4
:1073400000BFBA422FD000BF00BF00BF00BF00BFC8
:1073500000BF00BF00BF00BF00BF00BF00BF00BF35
:1073600000BF00BF00BF00BF00BF00BF00BF00BF25
:1073700000BF00BF00BF00BF00BF00BF00BF00BF15
:1073800000BF00BF00BF00BF00BF00BF00BF00BF05
:1073900000BF00BF00BF00BF00BF00BF00BF00BFF5
:1073A00000BF00BF00BF013BC3D14FF080518DF83B
:1073B0001F500122CBF8081543460DF11F0100951F
:1073C00050462570FFF756F818B1FCF723FF00E090
:1073D00020BF2378002BFBD00A23D9F8002000BF60
:1073E00000BF00BF00BF00BF00BF00BF00BFBA4268
:1073F0002FD000BF00BF00BF00BF00BF00BF00BF55
:1074000000BF00BF00BF00BF00BF00BF00BF00BF84
:1074100000BF00BF00BF00BF00BF00BF00BF00BF74
:1074200000BF00BF00BF00BF00BF00BF00BF00BF64
:1074300000BF00BF00BF00BF00BF00BF00BF00BF54
:1074400000BF00BF00BF00BF00BF00BF00BF00BF44
:1074500000BF013BC3D1614B1B684FF08052023328
:107460008DF81E300DF11E01CBF80825434600951E
:10747000504601222570FEF7FDFF18B1FCF7CAFE49
:1074800000E020BF2378002BFBD00A23D9F800208E
:1074900000BF00BF00BF00BF00BF00BF00BF00BFF4
:1074A000BA422FD000BF00BF00BF00BF00BF00BF67
:1074B00000BF00BF00BF00BF00BF00BF00BF00BFD4
:1074C00000BF00BF00BF00BF00BF00BF00BF00BFC4
:1074D00000BF00BF00BF00BF00BF00BF00BF00BFB4
:1074E00000BF00BF00BF00BF00BF00BF00BF00BFA4
:1074F00000BF00BF00BF00BF00BF00BF00BF00BF94
:1075000000BF00BF013BC3D12B234FF080528DF849
:107510001D300DF11D01CBF80C254346009550465A
:1075200001222570FEF7A6FF18B1FCF773FE00E0FC
:1075300020BF2378002BFBD00A23D9F8002000BFFE
:1075400000BF00BF00BF00BF00BF00BF00BFBA4206
:107550002FD000BF00BF00BF00BF00BF00BF00BFF3
:1075600000BF00BF00BF00BF00BF00BF00BF00BF23
:1075700000BF00BF00BF00BF00BF00BF00BF00BF13
:1075800000BF00BF00BF00BF00BF00BF00BF00BF03
:1075900000BF00BF00BF00BF00BF00BF00BF00BFF3
:1075A00000BF00BF00BF00BF00BF00BF00BF00BFE3
:1075B00000BF013BC3D14FF080518DF81C50012218
:1075C000CBF80815434607A9009550462570FEF7ED
:1075D00051FF30B1FCF71EFE03E000BFA0210020E8
:1075E00020BF2378002BFBD00A23D9F8002000BF4E
:1075F00000BF00BF00BF00BF00BF00BF00BFBA4256
:107600002FD000BF00BF00BF00BF00BF00BF00BF42
:1076100000BF00BF00BF00BF00BF00BF00BF00BF72
:1076200000BF00BF00BF00BF00BF00BF00BF00BF62
:1076300000BF00BF00BF00BF00BF00BF00BF00BF52
:1076400000BF00BF00BF00BF00BF00BF00BF00BF42
:1076500000BF00BF00BF00BF00BF00BF00BF00BF32
:1076600000BF013BC3D19DF80C3004930A3BDBB251
:107670004FF0805205938DF81B300DF11B01CBF8B4
:10768000082543460095504601222570FEF7F2FE7C
:1076900018B1FCF7BFFD00E020BF2378002BFBD022
:1076A0000A23D9F8002000BF00BF00BF00BF00BF01
:1076B00000BF00BF00BFBA422FD000BF00BF00BF55
:1076C00000BF00BF00BF00BF00BF00BF00BF00BFC2
:1076D00000BF00BF00BF00BF00BF00BF00BF00BFB2
:1076E00000BF00BF00BF00BF00BF00BF00BF00BFA2
:1076F00000BF00BF00BF00BF00BF00BF00BF00BF92
:1077000000BF00BF00BF00BF00BF00BF00BF00BF81
:1077100000BF00BF00BF00BF00BF013BC3D14FF09F
:1077200080518DF81A500122CBF8081543460DF10F
:107730001A01009550462570FEF79CFE18B1FCF723
:1077400069FD00E020BF2378002BFBD00A23D9F885
:10775000002000BF00BF00BF00BF00BF00BF00BFD0
:1077600000BFBA422FD000BF00BF00BF00BF00BFA4
:1077700000BF00BF00BF00BF00BF00BF00BF00BF11
:1077800000BF00BF00BF00BF00BF00BF00BF00BF01
:1077900000BF00BF00BF00BF00BF00BF00BF00BFF1
:1077A00000BF00BF00BF00BF00BF00BF00BF00BFE1
:1077B00000BF00BF00BF00BF00BF00BF00BF00BFD1
:1077C00000BF00BF00BF013BC3D14FF080519DF807
:1077D00010308DF819300122CBF8081543460DF111
:1077E0001901009550462570FEF744FE18B1FCF7CC
:1077F00011FD00E020BF2378002BFBD00A23D9F82D
:10780000002000BF00BF00BF00BF00BF00BF00BF1F
:1078100000BFBA422FD000BF00BF00BF00BF00BFF3
:1078200000BF00BF00BF00BF00BF00BF00BF00BF60
:1078300000BF00BF00BF00BF00BF00BF00BF00BF50
:1078400000BF00BF00BF00BF00BF00BF00BF00BF40
:1078500000BF00BF00BF00BF00BF00BF00BF00BF30
:1078600000BF00BF00BF00BF00BF00BF00BF00BF20
:1078700000BF00BF00BF013BC3D12C234FF080529B
:107880008DF8183006A9CBF80C25434600955046D4
:1078900001222570FEF7EEFD18B1FCF7BBFC00E0FD
:1078A00020BF2378002BFBD00A23D9F8002000BF8B
:1078B00000BF00BF00BF00BF00BF00BF00BFBA4293
:1078C0002FD000BF00BF00BF00BF00BF00BF00BF80
:1078D00000BF00BF00BF00BF00BF00BF00BF00BFB0
:1078E00000BF00BF00BF00BF00BF00BF00BF00BFA0
:1078F00000BF00BF00BF00BF00BF00BF00BF00BF90
:1079000000BF00BF00BF00BF00BF00BF00BF00BF7F
:1079100000BF00BF00BF00BF00BF00BF00BF00BF6F
:1079200000BF013BC3D11E26FF234FF080528DF8CC
:1079300023300DF12301CBF80825434601220095A1
:1079400050462570FEF796FD10B100F0A2BC20BF96
:107950002378002BFBD00A23D9F8002000BF00BFFA
:1079600000BF00BF00BF00BF00BF00BFBA422FD0A2
:1079700000BF00BF00BF00BF00BF00BF00BF00BF0F
:1079800000BF00BF00BF00BF00BF00BF00BF00BFFF
:1079900000BF00BF00BF00BF00BF00BF00BF00BFEF
:1079A00000BF00BF00BF00BF00BF00BF00BF00BFDF
:1079B00000BF00BF00BF00BF00BF00BF00BF00BFCF
:1079C00000BF00BF00BF00BF00BF00BF00BF00BFBF
:1079D000013BC3D1013EA7D141F2707300BF00BF8C
:1079E00000BF00BF00BF00BF00BF00BFBA422FD022
:1079F00000BF00BF00BF00BF00BF00BF00BF00BF8F
:107A000000BF00BF00BF00BF00BF00BF00BF00BF7E
:107A100000BF00BF00BF00BF00BF00BF00BF00BF6E
:107A200000BF00BF00BF00BF00BF00BF00BF00BF5E
:107A300000BF00BF00BF00BF00BF00BF00BF00BF4E
:107A400000BF00BF00BF00BF00BF00BF00BF00BF3E
:107A5000013BC3D12A234FF080528DF82E300DF117
:107A60002E01CBF80C254346009650460122267085
:107A7000FEF700FD18B1FCF7CDFB00E020BF237836
:107A8000002BFBD00A23D9F8002000BF00BF00BFA5
:107A900000BF00BF00BF00BF00BFBA422FD000BF71
:107AA00000BF00BF00BF00BF00BF00BF00BF00BFDE
:107AB00000BF00BF00BF00BF00BF00BF00BF00BFCE
:107AC00000BF00BF00BF00BF00BF00BF00BF00BFBE
:107AD00000BF00BF00BF00BF00BF00BF00BF00BFAE
:107AE00000BF00BF00BF00BF00BF00BF00BF00BF9E
:107AF00000BF00BF00BF00BF00BF00BF00BF013B11
:107B0000C3D14FF080518DF82D500122CBF80815CC
:107B100043460DF12D01009550462570FEF7AAFC55
:107B200018B1FCF777FB00E020BF2378002BFBD0D7
:107B30000A23D9F8002000BF00BF00BF00BF00BF6C
:107B400000BF00BF00BFBA422FD000BF00BF00BFC0
:107B500000BF00BF00BF00BF00BF00BF00BF00BF2D
:107B600000BF00BF00BF00BF00BF00BF00BF00BF1D
:107B700000BF00BF00BF00BF00BF00BF00BF00BF0D
:107B800000BF00BF00BF00BF00BF00BF00BF00BFFD
:107B900000BF00BF00BF00BF00BF00BF00BF00BFED
:107BA00000BF00BF00BF00BF00BF013BC3D1624B9D
:107BB0001B684FF0805202338DF82C300BA9CBF8A4
:107BC000082543460095504601222570FEF752FCD9
:107BD00018B1FCF71FFB00E020BF2378002BFBD07F
:107BE0000A23D9F8002000BF00BF00BF00BF00BFBC
:107BF00000BF00BF00BFBA422FD000BF00BF00BF10
:107C000000BF00BF00BF00BF00BF00BF00BF00BF7C
:107C100000BF00BF00BF00BF00BF00BF00BF00BF6C
:107C200000BF00BF00BF00BF00BF00BF00BF00BF5C
:107C300000BF00BF00BF00BF00BF00BF00BF00BF4C
:107C400000BF00BF00BF00BF00BF00BF00BF00BF3C
:107C500000BF00BF00BF00BF00BF013BC3D14FF05A
:107C600080518DF82B500122CBF8081543460DF1B9
:107C70002B01009550462570FEF7FCFB18B1FCF770
:107C8000C9FA00E020BF2378002BFBD00A23D9F8E3
:107C9000002000BF00BF00BF00BF00BF00BF00BF8B
:107CA00000BFBA422FD000BF00BF00BF00BF00BF5F
:107CB00000BF00BF00BF00BF00BF00BF00BF00BFCC
:107CC00000BF00BF00BF00BF00BF00BF00BF00BFBC
:107CD00000BF00BF00BF00BF00BF00BF00BF00BFAC
:107CE00000BF00BF00BF00BF00BF00BF00BF00BF9C
:107CF00000BF00BF00BF00BF00BF00BF00BF00BF8C
:107D000000BF00BF00BF013BC3D10B4B1B684FF04E
:107D1000805202338DF82A300DF12A01CBF8082564
:107D200043460095504601222570FEF7A3FB30B173
:107D3000FCF770FA03E000BFA021002020BF2378E9
:107D4000002BFBD00A23D9F8002000BF00BF00BFE2
:107D500000BF00BF00BF00BF00BFBA422FD000BFAE
:107D600000BF00BF00BF00BF00BF00BF00BF00BF1B
:107D700000BF00BF00BF00BF00BF00BF00BF00BF0B
:107D800000BF00BF00BF00BF00BF00BF00BF00BFFB
:107D900000BF00BF00BF00BF00BF00BF00BF00BFEB
:107DA00000BF00BF00BF00BF00BF00BF00BF00BFDB
:107DB00000BF00BF00BF00BF00BF00BF00BF013B4E
:107DC000C3D12B234FF080528DF829300DF12901BA
:107DD000CBF80C2543460095504601222570FEF74E
:107DE00049FB18B1FCF716FA00E020BF2378002BFE
:107DF000FBD00A23D9F8002000BF00BF00BF00BF9E
:107E000000BF00BF00BF00BFBA422FD000BF00BFFD
:107E100000BF00BF00BF00BF00BF00BF00BF00BF6A
:107E200000BF00BF00BF00BF00BF00BF00BF00BF5A
:107E300000BF00BF00BF00BF00BF00BF00BF00BF4A
:107E400000BF00BF00BF00BF00BF00BF00BF00BF3A
:107E500000BF00BF00BF00BF00BF00BF00BF00BF2A
:107E600000BF00BF00BF00BF00BF00BF013BC3D1C8
:107E70004FF080518DF828500122CBF80815434669
:107E80000AA9009550462570FEF7F4FA18B1FCF7E0
:107E9000C1F900E020BF2378002BFBD00A23D9F8DA
:107EA000002000BF00BF00BF00BF00BF00BF00BF79
:107EB00000BFBA422FD000BF00BF00BF00BF00BF4D
:107EC00000BF00BF00BF00BF00BF00BF00BF00BFBA
:107ED00000BF00BF00BF00BF00BF00BF00BF00BFAA
:107EE00000BF00BF00BF00BF00BF00BF00BF00BF9A
:107EF00000BF00BF00BF00BF00BF00BF00BF00BF8A
:107F000000BF00BF00BF00BF00BF00BF00BF00BF79
:107F100000BF00BF00BF013BC3D14FF080519DF8AF
:107F200014308DF827300122CBF8081543460DF1A7
:107F30002701009550462570FEF79CFA18B1FCF712
:107F400069F900E020BF2378002BFBD00A23D9F881
:107F5000002000BF00BF00BF00BF00BF00BF00BFC8
:107F600000BFBA422FD000BF00BF00BF00BF00BF9C
:107F700000BF00BF00BF00BF00BF00BF00BF00BF09
:107F800000BF00BF00BF00BF00BF00BF00BF00BFF9
:107F900000BF00BF00BF00BF00BF00BF00BF00BFE9
:107FA00000BF00BF00BF00BF00BF00BF00BF00BFD9
:107FB00000BF00BF00BF00BF00BF00BF00BF00BFC9
:107FC00000BF00BF00BF013BC3D14FF080518DF80F
:107FD00026500122CBF8081543460DF126010095E5
:107FE00050462570FEF746FA18B1FCF713F900E089
:107FF00020BF2378002BFBD00A23D9F8002000BF34
:1080000000BF00BF00BF00BF00BF00BF00BFBA423B
:108010002FD000BF00BF00BF00BF00BF00BF00BF28
:1080200000BF00BF00BF00BF00BF00BF00BF00BF58
:1080300000BF00BF00BF00BF00BF00BF00BF00BF48
:1080400000BF00BF00BF00BF00BF00BF00BF00BF38
:1080500000BF00BF00BF00BF00BF00BF00BF00BF28
:1080600000BF00BF00BF00BF00BF00BF00BF00BF18
:1080700000BF013BC3D14FF080519DF810308DF807
:1080800025300122CBF8081543460DF12501009556
:1080900050462570FEF7EEF918B1FCF7BBF800E08A
:1080A00020BF2378002BFBD00A23D9F8002000BF83
:1080B00000BF00BF00BF00BF00BF00BF00BFBA428B
:1080C0002FD000BF00BF00BF00BF00BF00BF00BF78
:1080D00000BF00BF00BF00BF00BF00BF00BF00BFA8
:1080E00000BF00BF00BF00BF00BF00BF00BF00BF98
:1080F00000BF00BF00BF00BF00BF00BF00BF00BF88
:1081000000BF00BF00BF00BF00BF00BF00BF00BF77
:1081100000BF00BF00BF00BF00BF00BF00BF00BF67
:1081200000BF013BC3D12C234FF080528DF8243087
:1081300009A9CBF80C25434600955046012225702D
:10814000FEF798F918B1FCF765F800E020BF237836
:10815000002BFBD00A23D9F8002000BF00BF00BFCE
:1081600000BF00BF00BF00BF00BFBA422FD000BF9A
:1081700000BF00BF00BF00BF00BF00BF00BF00BF07
:1081800000BF00BF00BF00BF00BF00BF00BF00BFF7
:1081900000BF00BF00BF00BF00BF00BF00BF00BFE7
:1081A00000BF00BF00BF00BF00BF00BF00BF00BFD7
:1081B00000BF00BF00BF00BF00BF00BF00BF00BFC7
:1081C00000BF00BF00BF00BF00BF00BF00BF013B3A
:1081D000C3D11E264FF080528DF82F504346CBF866
:1081E00008250DF12F010122009550462570FEF75C
:1081F00041F908B151E020BF2378002BFBD00A23BE
:10820000D9F8002000BF00BF00BF00BF00BF00BF03
:1082100000BF00BFBA422FD000BF00BF00BF00BFE9
:1082200000BF00BF00BF00BF00BF00BF00BF00BF56
:1082300000BF00BF00BF00BF00BF00BF00BF00BF46
:1082400000BF00BF00BF00BF00BF00BF00BF00BF36
:1082500000BF00BF00BF00BF00BF00BF00BF00BF26
:1082600000BF00BF00BF00BF00BF00BF00BF00BF16
:1082700000BF00BF00BF00BF013BC3D1013EA9D179
:10828000039B033B002B03933EF77BAF0DB0BDE890
:10829000F08FFBF7BFFFFFF75BBBFBF7BBFFABE765
:1082A00070B52A208D4E8E4DFEF7ECFE0020FEF7B5
:1082B0007FFE30680230C0B2FEF77AFE0020FEF783
:1082C00077FE30680230C0B2FEF772FE2B20FEF758
:1082D000D9FE0020FEF76CFE2878FEF769FE00202C
:1082E000FEF766FE28680330C0B2FEF761FE2C2060
:1082F000FEF7C8FE0320FEF75BFE0320FEF758FEE4
:108300000320FEF755FE0320FEF752FE2A20FEF75B
:10831000B9FE0020FEF74CFE30680330C0B2FEF715
:1083200047FE0020FEF744FE30680330C0B2FEF77F
:108330003FFE2B20FEF7A6FE0020FEF739FE287830
:10834000FEF736FE0020FEF733FE28680330C0B289
:10835000FEF72EFE2C20FEF795FEE020FEF728FE0D
:10836000E020FEF725FEE020FEF722FEE020FEF7EB
:108370001FFE2A20FEF786FE0020FEF719FE306859
:108380000230C0B2FEF714FE0020FEF711FE306886
:108390000230C0B2FEF70CFE2B20FEF773FE002069
:1083A000FEF706FE28680430C0B2FEF701FE00208A
:1083B000FEF7FEFD28680730C0B2FEF7F9FD2C205D
:1083C000FEF760FE05241F20FEF7F2FD013CFAD106
:1083D0002A20FEF757FE2046FEF7EAFD30680330FC
:1083E000C0B2FEF7E5FD2046FEF7E2FD306803303F
:1083F000C0B2FEF7DDFD2B20FEF744FE2046FEF75F
:10840000D7FD28680430C0B2FEF7D2FD2046FEF743
:10841000CFFD28680730C0B2FEF7CAFD2C20FEF75A
:1084200031FE0524FC20FEF7C3FD013CFAD12A20D1
:10843000FEF728FE2046FEF7BBFD3078FEF7B8FDBC
:108440002046FEF7B5FD3078FEF7B2FD2B20FEF793
:1084500019FE2046FEF7ACFD28680730C0B2FEF7D3
:10846000A7FD2046FEF7A4FD28680B30C0B2FEF73A
:108470009FFD2C20FEF706FE0624FC20FEF798FD4B
:10848000013CFAD12A20FEF7FDFD2046FEF790FDC3
:1084900030680530C0B2FEF78BFD2046FEF788FD40
:1084A00030680530C0B2FEF783FD2B20FEF7EAFDF1
:1084B0002046FEF77DFD28680730C0B2FEF778FD44
:1084C0002046FEF775FD28680B30C0B2FEF770FD40
:1084D0002C20FEF7D7FD062404E000BFA0210020D9
:1084E000A42100201F20FEF763FD013CFAD12A20C1
:1084F000FEF7C8FD2046FEF75BFD30680130C0B2D4
:10850000FEF756FD2046FEF753FD30680130C0B23D
:10851000FEF74EFD2B20FEF7B5FD2046FEF748FD89
:1085200028680B30C0B2FEF743FD2046FEF740FD41
:1085300028680B30C0B2FEF73BFD2C20FEF7A2FDF1
:108540001F20FEF735FD2A20FEF79CFD2046FEF792
:108550002FFD30680130C0B2FEF72AFD2046FEF73D
:1085600027FD30680130C0B2FEF722FD2B20FEF758
:1085700089FD2046FEF71CFD28680A30C0B2FEF7D0
:1085800017FD2046FEF714FD28680A30C0B2FEF73A
:108590000FFD2C20FEF776FD0320FEF709FD2A20B3
:1085A000FEF770FD2046FEF703FD30680230C0B2D2
:1085B000FEF7FEFC2046FEF7FBFC30680230C0B23E
:1085C000FEF7F6FC2B20FEF75DFD2046FEF7F0FCE3
:1085D00028680830C0B2FEF7EBFC2046FEF7E8FC46
:1085E00028680930C0B2FEF7E3FC2C20FEF74AFDF4
:1085F000FC20FEF7DDFCFC20FEF7DAFCFC20FEF799
:10860000D7FC2A20FEF73EFD2046FEF7D1FC30685D
:108610000230C0B2FEF7CCFC2046FEF7C9FC306841
:108620000230C0B2FEF7C4FC2B20FEF72BFD204623
:10863000FEF7BEFC28680A30C0B2FEF7B9FC20463F
:10864000FEF7B6FC28680B30C0B2FEF7B1FC2C2058
:10865000FEF718FDE020FEF7ABFCE020FEF7A8FCDB
:10866000E020FEF7A5FC2A20FEF70CFD2046FEF7D1
:108670009FFC30680330C0B2FEF79AFC2046FEF73C
:1086800097FC30680330C0B2FEF792FC2B20FEF757
:10869000F9FC2046FEF78CFC28680830C0B2FEF7D3
:1086A00087FC2046FEF784FC28680930C0B2FEF73C
:1086B0007FFC2C20FEF7E6FC1F20FEF779FC1F2034
:1086C000FEF776FC1F20FEF773FC2A20FEF7DAFC8B
:1086D0002046FEF76DFC30680330C0B2FEF768FC40
:1086E0002046FEF765FC30680330C0B2FEF760FC40
:1086F0002B20FEF7C7FC2046FEF75AFC28680A30FC
:10870000C0B2FEF755FC2046FEF752FC28680B303D
:10871000C0B2FEF74DFC2C20FEF7B4FC0320FEF7A0
:1087200047FC0320FEF744FC0320FEF741FC2A200F
:10873000FEF7A8FC2046FEF73BFC30680430C0B2D0
:10874000FEF736FC2046FEF733FC30680430C0B23A
:10875000FEF72EFC2B20FEF795FC2046FEF728FCAA
:1087600028680B30C0B2FEF723FC2046FEF720FC41
:1087700028680B30C0B2FEF71BFC2C20FEF782FCF1
:10878000FC20FEF715FC2A20FEF77CFC2046FEF7B5
:108790000FFC30680430C0B2FEF70AFC2046FEF73A
:1087A00007FC30680430C0B2FEF702FC2B20FEF755
:1087B00069FC2046FEF7FCFB28680A30C0B2FEF7D1
:1087C000F7FB2046FEF7F4FB28680A30C0B2FEF73C
:1087D000EFFB2C20FEF756FCE020FEF7E9FB2A20F9
:1087E000FEF750FC2046FEF7E3FB3078FEF7E0FB97
:1087F0002046FEF7DDFB30680530C0B2FEF7D8FB3F
:108800002B20FEF73FFC2046FEF7D2FB28680C30F9
:10881000C0B2FEF7CDFB2046FEF7CAFB28680E303B
:10882000C0B2FEF7C5FB2C20FEF72CFC0624FF206F
:10883000FEF7BEFBFF20FEF7BBFBFF20FEF7B8FBF9
:10884000013CF4D12A20FEF71DFC2046FEF7B0FBC8
:108850003078FEF7ADFB2046FEF7AAFB3078FEF736
:10886000A7FB2B20FEF70EFC2046FEF7A1FB286895
:108870000E30C0B2FEF79CFB2046FEF799FB28683D
:108880001130C0B2FEF794FB2C20FEF7FBFBFF205B
:10889000FEF78EFBFF20FEF78BFBFF20FEF788FB29
:1088A000FF20FEF785FB2A20FEF7ECFB2046FEF7B3
:1088B0007FFB3078FEF77CFB2046FEF779FB3078B3
:1088C000FEF776FB2B20FEF7DDFB2046FEF770FB64
:1088D00028681030C0B2FEF76BFB2046FEF768FB3D
:1088E00028681130C0B2FEF763FB2C20FEF7CAFBEC
:1088F000FC20FEF75DFBFC20FEF75AFB2A20FEF76A
:10890000C1FB2046FEF754FB30680530C0B2FEF7CD
:108910004FFB2046FEF74CFB30680530C0B2FEF737
:1089200047FB2B20FEF7AEFB2046FEF741FB2868F5
:108930000E30C0B2FEF73CFB2046FEF739FB28683C
:108940001130C0B2FEF734FB2C20FEF79BFBFF205A
:10895000FEF72EFBFF20FEF72BFBFF20FEF728FB88
:10896000FF20FEF725FB2A20FEF78CFB2046FEF7B2
:108970001FFB30680530C0B2FEF71AFB2046FEF739
:1089800017FB30680530C0B2FEF712FB2B20FEF754
:1089900079FB2046FEF70CFB28681030C0B2FEF7CA
:1089A00007FB2046FEF704FB28681130C0B2FEF733
:1089B000FFFA2C20FEF766FB1F20FEF7F9FA1F20B6
:1089C000FEF7F6FA2A20FEF75DFB2046FEF7F0FAE6
:1089D00030680130C0B2FEF7EBFA2046FEF7E8FA45
:1089E00030680130C0B2FEF7E3FA2B20FEF74AFBF5
:1089F0002046FEF7DDFA28680F30C0B2FEF7D8FA3D
:108A00002046FEF7D5FA28680F30C0B2FEF7D0FA3C
:108A10002C20FEF737FB0320FEF7CAFA2A20FEF7C8
:108A200031FB2046FEF7C4FA30680130C0B2FEF7D1
:108A3000BFFA2046FEF7BCFA30680130C0B2FEF73C
:108A4000B7FA2B20FEF71EFB2046FEF7B1FA286886
:108A50001030C0B2FEF7ACFA2046FEF7A9FA28683B
:108A60001130C0B2FEF7A4FA2C20FEF70BFB1F203A
:108A7000FEF79EFA1F20FEF79BFA2A20FEF702FB64
:108A80002046FEF795FA30680230C0B2FEF790FA41
:108A90002046FEF78DFA30680230C0B2FEF788FA41
:108AA0002B20FEF7EFFA2046FEF782FA28681030F6
:108AB000C0B2FEF77DFA2046FEF77AFA2868113038
:108AC000C0B2FEF775FA2C20FEF7DCFAFC20FEF7A8
:108AD0006FFAFC20FEF76CFA2A20FEF7D3FA204644
