:020000022000DC
:10300000000001206DD8020095D8020097D8020078
:1030100099D802009BD802009DD802000000000051
:103020000000000000000000000000009FD8020027
:10303000A1D8020000000000A3D80200A5D8020019
:103040003D5B0200A7D80200E96B02002167020085
:103050006D670200A7D80200615F0200A7D80200D6
:10306000A7D80200A7D80200A7D80200A7D802005C
:10307000A7D80200A7D80200A7D80200A7D802004C
:10308000A7D8020009450200A7D80200A7D802006D
:10309000A9450200A7D8020029DF0200A7D8020034
:1030A000A7D80200A7D80200A7D80200A7D802001C
:1030B000A7D80200A7D8020000000000000000000E
:1030C000A7D80200A7D80200A7D80200A7D80200FC
:1030D000A7D80200A7D80200A7D80200000000006D
:1030E00000000000000000000000000000000000E0
:1030F00000000000000000000000000000000000D0
:1031000000000000000000000000000000000000BF
:1031100000000000000000000000000000000000AF
:10312000000000000000000000000000000000009F
:10313000000000000000000000000000000000008F
:10314000000000000000000000000000000000007F
:10315000000000000000000000000000000000006F
:10316000000000000000000000000000000000005F
:10317000000000000000000000000000000000004F
:10318000000000000000000000000000000000003F
:10319000000000000000000000000000000000002F
:1031A000000000000000000000000000000000001F
:1031B000000000000000000000000000000000000F
:1031C00000000000000000000000000000000000FF
:1031D00000000000000000000000000000000000EF
:1031E00000000000000000000000000000000000DF
:1031F00000000000000000000000000000000000CF
:1032000010B5054C237833B9044B13B10448AFF320
:1032100000800123237010BD302400200000000036
:10322000C0F0020008B5034B1BB103490348AFF3DC
:10323000008008BD0000000034240020C0F002001F
:10324000154B002B08BF134B9D46A3F5803A002178
:103250008B460F461348144A121A0BF01EF80F4BF8
:10326000002B00D098470E4B002B00D09847002031
:10327000002104000D000D48002802D00C48AFF3D7
:1032800000800AF0BBFF2000290007F081FD0AF052
:10329000A1FF00BF000008000000012000000000A6
:1032A0000000000030240020BC2E002000000000A0
:1032B00000000000F0B595B0002415460F46084602
:1032C0001E4602F06DFA384623460895082205A9E5
:1032D0001A9D09960D950A948DF82C400C9402F0D5
:1032E000C5FA9DF814308DF81040DDE9061003F0A2
:1032F0000302012A0290ADF80C102BD0022A04D050
:10330000384602F05DFA15B0F0BDBDF81650C3F3B3
:10331000C202C3F38003AD098DF80E208DF80F3083
:103320000826082D2C4628BF0824334622460EA91D
:10333000384602F09BFA2D1B214608AB02AA0EA8C4
:10334000264400F089FD002DEBD1384602F038FA12
:1033500015B0F0BDBDF814500598C5F38315C3F33F
:10336000C20CAA000EA9C3F38004C0F3952608235B
:1033700038468DF80EC08DF80F4002F077FA08AB92
:103380002A4630460EA9009302AB00F0CDFC384629
:1033900002F016FA15B0F0BD014B01221A70704709
:1033A00090240020704700BF70B50E4D0E4888B0C5
:1033B00003F0ECFA0FCD6C460FC495E80F0008AD92
:1033C000062645F8206D84E80F00294600220648AD
:1033D00003F0F4F908B100F07BFF044B00221A70EF
:1033E00008B070BDF0E50200802100204C240020D0
:1033F00000B583B0044B0093044A4023FFF75AFF03
:1034000003B05DF804FB00BF11340200502400201B
:1034100010B5094C09480023D2B2237003F03AFBDF
:1034200030B9074B1B7813B12378002BFCD010BDAB
:1034300000F04EFFF5E700BF90240020802100201F
:103440004C24002070B50D4D0FCD88B06C460FC4D4
:1034500095E80F0008AD062645F8206D84E80F00BA
:103460002946074A074803F0A9F908B100F030FFE0
:10347000054B01221A7008B070BD00BFF0E50200D4
:1034800099330200802100204C24002010B5054C07
:10349000FFF7D8FF2046042100F004FC01236372EB
:1034A00010BD00BF882100202DE9F047824C002389
:1034B00084B0C4F81834BFF34F8FD4E9017607EA1B
:1034C0000601CB1C04EB830214F8233098073D4619
:1034D0000FD1138852889B0903EB921301331D44CB
:1034E00006EA0501CB1C04EB830214F823309B078A
:1034F000EFD004EB81016A1CCB680193324004EBEE
:10350000820203F00303D2680292022B05F1020843
:103510000FD0012B75D0032B06D02068C01B18BF1D
:10352000012004B0BDE8F087D4F818040028F4D1D5
:10353000F7E7BDF8063061484FEA93194D46502D24
:1035400028BF502565F38F1305F10801ADF806304B
:1035500002F0E4F80746002851D026EA080A0AF1EA
:10356000010A02F01DF94FEA8A0A0023082201A984
:10357000384602F04DF9554540F29080EBB2BAF171
:10358000000F00F0848006EA0801A3EB0A03033170
:1035900004EB8101DDB252460823384602F038F9C7
:1035A0002A460AF108034649384602F031F909F182
:1035B000030908EB9909D4F81834002B62D1D4F828
:1035C000105455B16B7A28463946002B56D02B68DB
:1035D0001B6898476D68002DF4D1384602F0F0F86A
:1035E00004A8002300F80D3D01F078FCD4F818344D
:1035F0000BB9C4F804909DF8030001F095FC6768CE
:103600008BE7BDF804302D48C3F38311062928BF8A
:10361000062161F3891302318900ADF8043002F00C
:103620007DF807460028EAD002F0BAF80023082205
:1036300001A9384602F0ECF8BDF8043013F4707FAD
:1036400037D06FF0010AAAEB050A082506EA08013F
:1036500003312B46042204EB8101384602F0D8F8EE
:10366000BDF8043008F101090AEB0902C3F3831322
:103670009A42C84605F10405E8D39CE76D68002D21
:10368000A0D1AAE7384602F09BF8676845E72A46CA
:1036900008230B49384602F0BBF888E706EA080120
:1036A000033104EB81012A460823384602F0B0F8C2
:1036B0007DE7C1467FE700BF942400201CE602009E
:1036C000A024002008B50E4B0E480022FF21C3F8AD
:1036D00018249960C3E90022C3F8142483F81C2439
:1036E00002F01AF858B90849084BC91AC90806D097
:1036F000074A034622F80C3B01339942FAD108BD30
:10370000942400201CE602004CF10200F4F00200B8
:10371000A823002021B9134A02EBC00000687047BB
:1037200030B411490F4C091BC90816D00F4B5A88E9
:10373000824218BF002205D111E0DD89854203F1E4
:103740000C0305D001329142F7D1002030BC704704
:1037500004EBC200006830BC70470846F6E720461C
:10376000F8E700BFF4F002004CF10200A8230020AB
:10377000094B013903EBC00003290BD8DFE801F046
:1037800002080604022070474079704700797047AC
:103790000420704700207047F4F002002DE9F04F3C
:1037A00089B008AB002703F80D7D604C02901846E5
:1037B000A3680193039101F091FBD4E901E0D4F8EF
:1037C000008000EB0E030133A3EB0803032B60D84A
:1037D00000F1010AAAEB080A04F5836C04F214460E
:1037E00000EA0E0901255CE8003F43EA05024CE8C7
:1037F000002191F0000FF6D156E8003F43EA0502A0
:1038000046E8002191F0000FF6D109F1030304EB23
:10381000830114F823309B07CB46724610D10B88E6
:1038200049889B0903EB911301331A4400EA020B08
:103830000BF1030304EB830114F823309B07EED054
:1038400004EB8B0B0232DBF80C30059303F003031F
:10385000012B65D0022B05D1BDF816309B0903332F
:1038600002EB930256E8003F03EA070146E8001B1B
:103870009BF0000FF6D143B10AEB0203032B626009
:1038800007D8964600EA0209ADE70AEB0E03032BC0
:10389000A9D908EA0000C31C08F1020114F823208A
:1038A0009DF8130042F0030204F82320216001F088
:1038B0003BFB019A029908F10103134004EB8303D7
:1038C00002EA080808F103080A0CDA6014F8283044
:1038D0000A0962F3820361F3C50304F8283034F85F
:1038E0002830039A6FF3891324F8283054F82830CD
:1038F00062F39F231A46012161F3010244F8283044
:1039000004F8282094F81C341BB906E0FFF7CCFD1E
:1039100018B1D4E900329A42F8D109B0BDE8F08F6D
:10392000BDF81430C3F383131A449BE7942400209A
:103930002DE9F04F89B008AB002703F80D7D644CEA
:1039400001901846A3680093CDE9021201F0C6FA6F
:10395000D4E901E0D4F8008000EB0E030133A3EBBF
:103960000803042B60D800F1010AAAEB080A04F549
:10397000836C04F2144600EA0E0901255CE8003F5E
:1039800043EA05024CE8002191F0000FF6D156E819
:10399000003F43EA050246E8002191F0000FF6D10E
:1039A00009F1030304EB830114F823309B07CB4692
:1039B000724610D10B8849889B0903EB91130133A0
:1039C0001A4400EA020B0BF1030304EB830114F821
:1039D00023309B07EED004EB8B0B0232DBF80C306C
:1039E000059303F00303012B6CD0022B05D1BDF826
:1039F00016309B09033302EB930256E8003F03EABB
:103A0000070146E8001B9BF0000FF6D143B10AEB1B
:103A10000203042B626007D8964600EA0209ADE76C
:103A20000AEB0E03042BA9D908EA0000C31C08F115
:103A3000030114F823209DF8130042F0030204F858
:103A40002320216001F070FA00990198039D08F18C
:103A5000020208F101030A400B4004EB820204EB6E
:103A6000830301EA080808F10308010CD560D96056
:103A700014F82830020962F3820360F3C50304F8E6
:103A8000283034F82830029A012161F3891324F890
:103A9000283054F8283062F39F231A4661F301025C
:103AA00044F8283004F8282094F81C341BB906E0A8
:103AB000FFF7FAFC18B1D4E900329A42F8D109B004
:103AC000BDE8F08FBDF81430C3F383131A4494E7B4
:103AD000942400202DE9F04F8BB00AAD00276A4CEA
:103AE00005F80D7D029005932846A3680193CDE962
:103AF000031201F0F3F9D4E901E0D4F8008000EBFF
:103B00000E030133A3EB0803052B60D800F1010A73
:103B1000AAEB080A04F5836C04F2144600EA0E09C5
:103B200001255CE8003F43EA05024CE8002191F0E2
:103B3000000FF6D156E8003F43EA050246E80021AF
:103B400091F0000FF6D109F1030304EB830114F89F
:103B500023309B07CB46724610D10B8849889B09BE
:103B600003EB911301331A4400EA020B0BF1030338
:103B700004EB830114F823309B07EED004EB8B0B8E
:103B80000232DBF80C30079303F00303012B74D0EF
:103B9000022B05D1BDF81E309B09033302EB9302C3
:103BA00056E8003F03EA070146E8001B9BF0000FC0
:103BB000F6D143B10AEB0203052B626007D89646A3
:103BC00000EA0209ADE70AEB0E03052BA9D908EAC2
:103BD0000000C31C08F1040114F823209DF81B0009
:103BE00042F0030204F82320216001F09DF90198BE
:103BF000029D049E08F1020108F1030208F101038D
:103C000001400240034004EB810104EB820204EB1B
:103C1000830300EA0808CE6008F103080599D16023
:103C2000280CD86014F828302A0962F3820365F35F
:103C3000C50304F8283034F82830022262F38913CF
:103C400024F82830039A54F8283062F39F231A4648
:103C5000012161F3010244F8283004F8282094F887
:103C60001C341BB906E0FFF71FFC18B1D4E9003281
:103C70009A42F8D10BB0BDE8F08FBDF81C30C3F309
:103C800083131A448CE700BF94240020044BD3E92B
:103C900000239A4201D0FFF707BC0020704700BF05
:103CA0009424002030B4154DD5F81044002154B1AF
:103CB000237A8B4213D0234602E01A7A8A420ED02E
:103CC0005B68002BF9D10172D5F810347BB15B68C9
:103CD0004360D5F81034586030BC08467047013155
:103CE0000A29E4D14FF0FF31084630BC7047C5F8CF
:103CF0001004436030BC0846704700BF9424002085
:103D000038B5084BD3F81044012583F81C543CB156
:103D10002368657220465B6898476468002CF7D179
:103D200038BD00BF942400202DE9F04784B01D4623
:103D30000C9C002394F80C802373EB7981460E468B
:103D40001746DBB1062F09D8DFE807F00430363D0F
:103D500046515E004946204601F06AF9EB792BB9DD
:103D60002B7AEBB93649204601F062F9204601F082
:103D700053F984F80C8004B0BDE8F0872B7AA8884A
:103D8000A979002B4FD12F4B53F821A00021FFF729
:103D9000C1FC524603462C49204601F049F9D1E7BF
:103DA0002A4A2B49204601F043F9DBE732684946AD
:103DB000204601F03DF9D1E74946D6E900232046E7
:103DC00001F036F9CAE7B168D6E900232046009130
:103DD000494601F02DF9C1E7D6E90201D6E90023F1
:103DE000019100904946204601F022F9B6E7D6E954
:103DF0000371B068D6E900230291CDE90007494676
:103E0000204601F015F9A9E7D6E90410D6E9002308
:103E10000390D6E902070291CDE900074946204602
:103E200001F006F99AE7FFF7A3FC0A4B084953F89B
:103E30002020204601F0FCF8A979A888A3E700BF5C
:103E400084E6020088E6020070E602007CE60200DA
:103E50006CE6020034E6020008295CD82DE9F04F38
:103E60001D46914600232A7B2B7383B099F80730B7
:103E7000019207460E46002B4ED0DFF808B1DFF85E
:103E80000881002405E03A5D013401F0D1F8082CE6
:103E900009D0A64241462846F5D85946013401F0DA
:103EA000C7F8082CF5D13049DFF8E080DFF8E0B042
:103EB000284601F0BDF8002411E017F804A00AF02C
:103EC000C1F950445946437813F0970F14BF524636
:103ED0002E222846013401F0ABF8082C08D0A64267
:103EE00041462846E9D8013401F0A2F8082CF6D161
:103EF00099F8073013B999F808300BBB1B492846CD
:103F000001F096F8284601F087F89DF804302B73ED
:103F100003B0BDE8F08F704799F80830B9F8040095
:103F200099F8061093B9124B53F821400021FFF77E
:103F3000F1FB224603460F49284601F079F89CE739
:103F40000D4A0E49284601F073F8D7E7FFF710FC39
:103F50000B4B0A4953F82020284601F069F899F8DC
:103F60000610B9F80400DEE764E6020084E6020009
:103F700088E6020070E602007CE602006CE60200C1
:103F800034E6020060E6020058E6020078E602002D
:103F900068E60200054A4FF0A043105CD3F80435F0
:103FA00023FA00F0C04300F001007047FCE6020075
:103FB000044B195C4FF0A04201238B40C2F80C3532
:103FC000704700BFFCE60200044B195C4FF0A042B2
:103FD00001238B40C2F80835704700BFFCE60200A1
:103FE0004FF0A04310B44FF480204FF400344FF44E
:103FF00000214FF48012C3F80845C3F80805C3F840
:104000000815C3F808255DF8044B70474FF0A0432E
:1040100010B44FF480204FF400344FF400214FF4DB
:104020008012C3F80C45C3F80C05C3F80C15C3F88F
:104030000C255DF8044B7047074B4FF0A041185C0E
:10404000D1F804350122824022EA03001340C1F86E
:104050000805C1F80C357047FCE6020030B44FF09B
:10406000A04303224FF400354FF480244FF4002086
:104070004FF48011C3F84427C3F84827C3F84C27EE
:10408000C3F85027C3F80855C3F80845C3F8080516
:10409000C3F8081530BC70470D2809D00E2809D088
:1040A0000F2809D010280CBF03204FF0FF307047B5
:1040B0000020704701207047022070472DE9F84F1B
:1040C000254B93F800C0BCF1000F31D0DFF88CB065
:1040D000DFF88CA0DFF88C900024012703E0013486
:1040E000E4B2644524D226B2DBF80050DAF800309E
:1040F00015F8360007FA00F10B4205EBC608EED0C2
:1041000023EA0103CAF8003001F020FF15F83660F9
:10411000D9F8003007FA06F52B4000FA06F18B4279
:1041200008D00D4B013493F800C0E4B26445DAD3F3
:10413000BDE8F88F98F80110D8F80430A1F101011A
:10414000B1FA81F14909091AB1FA81F14909002B43
:10415000E7D030469847E4E784290020B4290020BE
:10416000B0290020AC29002070B50646114800F0A7
:104170007BFE40B9104D01242B68B440234203D08C
:1041800023EA04042C6070BD304601F0DFFE0B49C9
:104190000A6860B122432B6809480A601C43016821
:1041A0002C6004480022BDE8704000F007BE22EAFF
:1041B0000402F0E78C290020B0290020AC2900205F
:1041C00088290020042A34D92DE9F04182B00F4615
:1041D0000646144601F04EFD002834D01C4A1D4B03
:1041E0001D4916601F701D4A1D4B0C6000257C1E6A
:1041F00015601D60E4B2F7B106EBC404194F083E28
:104200004FF0030801E0B44215D0A37820788DF870
:1042100004803A4601A98DF806508DF807508DF8B4
:10422000053001F031FD083C0028ECD002B0BDE8BB
:10423000F081072070470C4A0C48002100F0ACFDCB
:1042400002B0BDE8F08101F0DBFC0028C6D0EDE74C
:10425000B42900208429002088290020AC290020CE
:10426000B029002069410200BD40020000E70200C1
:1042700070B5084D2B785BB1074E002433680121DF
:1042800013F8340001F0CEFD2B780134A342F5D8A9
:10429000002070BD84290020B429002070B5094D8C
:1042A0002B7853B1084E0024336813F8340001F022
:1042B0001BFE2B780134A342F6D80448BDE87040B9
:1042C00000F0D2BD84290020B42900208C290020D0
:1042D00000B585B000230390194601AA44F20100FD
:1042E000ADF80430029300F003F805B05DF804FB6C
:1042F00010B5FFF705FDFFF7C9FC0028FBD1104CF6
:1043000010492088000440F00100FFF747FA0E4BE7
:104310001B68DB0700D5FFDE20880C49000440F055
:104320000200FFF73BFABFF34F8F0949094BCA68F8
:1043300002F4E0621343CB60BFF34F8F00BFFDE791
:10434000A823002004E70200F0ED00E010E70200DF
:1043500000ED00E00400FA05F0B412F0030412D1FD
:104360004B1CDB000A4D0B4E0B4F34709BB21344B9
:104370002B600A4E0A4D0B4B28803A60347019802E
:104380002046F0BC704707242046F0BC704700BFB1
:10439000BC290020B8290020C0290020C8290020FD
:1043A000C4290020C62900202DE9F0472D4F3B8865
:1043B0008B4282B03CD3054602A84FF0000800F8BB
:1043C000018D16460C4600F089FD274B274A2848E8
:1043D00019781378B0F800C09DF80700DBB2634588
:1043E00038BF0133C9B238BF5FFA83F8414523D0E3
:1043F00092F800801378DFF88090DBB29C4586BF8E
:104400000133DBB200235FFA88F8137000F08CFDF3
:10441000D9F800300FFA88F24FEAC20A43F8326046
:10442000534405B174B90020988002B0BDE8F0870C
:10443000092002B0BDE8F08700F076FD042002B04C
:10444000BDE8F0870B4B38881B68294608FB003015
:10445000224609F017FFD9F800309A440020AAF844
:104460000440E2E7C4290020C8290020B829002020
:10447000C6290020BC290020C02900202DE9F84FC2
:104480001B4C1C4D22782B789A4226D0DFF86CA06A
:10449000DFF86C90184FDFF86CB04FF0000823780D
:1044A000DAF800203888D9F80060DBB20FFA83FE12
:1044B00002EBCE0103FB0060898852F83E3098473A
:1044C0002378BBF80010DBB25A1C9942D2B206D94D
:1044D000227023782A789A42E1D1BDE8F88F84F8D7
:1044E000008022782B789A42D9D1BDE8F88F00BF9E
:1044F000C8290020B8290020C4290020C029002094
:10450000BC290020C6290020F8B5204A204B0024F1
:10451000C2F84041C2F84441C2F84841C2F84C4197
:10452000C2F80041C2F804411B6833B31949D2F8FC
:1045300004550A68AD1A1A6825F07F45AA42274635
:104540000DD8197CDE69AD1A144419B11F74D3E972
:10455000052090471EB133461A68AA42F1D90E4988
:104560000E4A0B7812789A4208D00D490D4A41F84C
:1045700023404FF48013C2F80031F8BD531CDBB266
:10458000022B08BF00230B70EFE700BF00100140B3
:10459000EC2A0020E82A0020E52A0020E42A002056
:1045A000DC2A002000E100E02DE9F04FAF48B04ADE
:1045B000B04913780978D0F80090AF4889B0006806
:1045C0000290994200F04E810133DBB2022B08BF0A
:1045D00000231370A94A52F82300A44B09EB0007EB
:1045E00027F07F471F60029B00252A462C46AC46D9
:1045F000B3B11968814200F24D81DD68C3F800C093
:10460000401A0C44D9693DB109EB040626F07F46F7
:10461000C3E90165DA611A460B460125002BE8D192
:10462000002D40F09B81012302990693B946944BDB
:10463000944C1B7805934FF000084B46CDF81C8036
:10464000CDF80C804FF0010EC1468C469B4642B31C
:10465000D2E901651346D2698B48A6EB0B0121F024
:104660007F41814259D829441960002083F810E025
:10467000C3E90100D861BCF1000F72D0DCF8000082
:1046800088425FD2664603E02868884263D22E469D
:10469000F569091A002DF7D11960DD61F361002A6F
:1046A000D6D1CA46CDF804B094F8019021784FF0E5
:1046B000000B1646894576D0084600EB400004EB17
:1046C000C0004A1CA378D1B2027921708B4204BF8A
:1046D00084F800B00021022A836853D0032A44D012
:1046E000012AE7D11F7C002FE4D13246C6685E6004
:1046F00005699D604169D960816999610599DDF815
:1047000004B0D1460029A7D03E46A6EB0B015E4877
:104710005F6021F07F418142A5D9ABEB060121F01A
:104720007F41A94202D2691A19609EE7002183F8ED
:1047300010E0C3E900119960D961BCF1000F10D0FD
:10474000DCF80000411ACCF800104FF00108C3F863
:104750001CC09C467BE7401A28601960DD61F3614C
:104760009DE79C464FF0010871E7BCF1000FA1D016
:10477000624600231374D269002AFBD194464FF09D
:10478000010891E7BCF1000F09D06345624603D1EF
:1047900092E083424FD00246D0690028F9D183F8D5
:1047A00010B0894588D1C346DDF80490D046BBF1EE
:1047B000000F40F0D780079B002B40F01A82B8F121
:1047C000000F03D02E4B9DF814201A702A4B1A6844
:1047D000039B1BB9029B9A4200F0C880002A00F09C
:1047E000CC802A48214BD0F804151B68284C15684A
:1047F0002678CA1A22F07F420332002E00F0A681EA
:1048000095422CBF5B199B18204823F07F43C0F8CA
:104810004035D0F80425521A5B1A22F07F4223F06B
:104820007F4303329A4200F24781154A00231370F6
:1048300009B0BDE8F08F934236D0674604931D4619
:10484000E8692D68D06128B102682A4402602178A5
:1048500094F801906745A2D00122BC46039283F8E8
:1048600010B09EE7002206920146E0E6E82A00200A
:10487000E42A0020E52A0020EC2A0020DC2A00207F
:10488000D82A0020CC290020FEFF7F000010014024
:10489000D92A0020002D40F0B081091A19600123A7
:1048A000B94606930299C2E60493DCF81C7037B14E
:1048B0004FF00108049DC3E7CDF810C0F5E7774835
:1048C000774DC0F808E077484FF02F08006800BF28
:1048D00000BF00BF00BF00BF00BF00BF00BFA842B5
:1048E0002FD000BF00BF00BF00BF00BF00BF00BF90
:1048F00000BF00BF00BF00BF00BF00BF00BF00BFC0
:1049000000BF00BF00BF00BF00BF00BF00BF00BFAF
:1049100000BF00BF00BF00BF00BF00BF00BF00BF9F
:1049200000BF00BF00BF00BF00BF00BF00BF00BF8F
:1049300000BF00BF00BF00BF00BF00BF00BF00BF7F
:1049400000BFB8F10108C2D14FF0010A0197CDF8BC
:1049500014A0CDF81CA0D046049D71E752490293E3
:104960000B6060E6504BC3F800C024E7069B002BA9
:104970003FF45BAF002A7FF434AF48494B4B494EBC
:10498000474C4FF480304FF400370125C3F8807056
:10499000C1F848032F23C1F808034D6030681E4654
:1049A00000BF00BF00BF00BF00BF00BF00BF00BF0F
:1049B000A0422FD000BF00BF00BF00BF00BF00BF9C
:1049C00000BF00BF00BF00BF00BF00BF00BF00BFEF
:1049D00000BF00BF00BF00BF00BF00BF00BF00BFDF
:1049E00000BF00BF00BF00BF00BF00BF00BF00BFCF
:1049F00000BF00BF00BF00BF00BF00BF00BF00BFBF
:104A000000BF00BF00BF00BF00BF00BF00BF00BFAE
:104A100000BF00BF013EC3D18D6025490A6000BFC1
:104A200000BF00BF00BF00BF00BF00BF00BFA0426B
:104A30002FD000BF00BF00BF00BF00BF00BF00BF3E
:104A400000BF00BF00BF00BF00BF00BF00BF00BF6E
:104A500000BF00BF00BF00BF00BF00BF00BF00BF5E
:104A600000BF00BF00BF00BF00BF00BF00BF00BF4E
:104A700000BF00BF00BF00BF00BF00BF00BF00BF3E
:104A800000BF00BF00BF00BF00BF00BF00BF00BF2E
:104A900000BF013BC3D1074B1A70C6E600100140AE
:104AA0000024F400CC210020EC2A002000E100E0EA
:104AB000E82A0020D92A0020D0F80435514AC0F84D
:104AC0004035126850492F2300BF00BF00BF00BF10
:104AD00000BF00BF00BF00BF8A422FD000BF00BF91
:104AE00000BF00BF00BF00BF00BF00BF00BF00BFCE
:104AF00000BF00BF00BF00BF00BF00BF00BF00BFBE
:104B000000BF00BF00BF00BF00BF00BF00BF00BFAD
:104B100000BF00BF00BF00BF00BF00BF00BF00BF9D
:104B200000BF00BF00BF00BF00BF00BF00BF00BF8D
:104B300000BF00BF00BF00BF00BF00BF013BC3D12B
:104B4000324B4FF40032C3F800216EE62F4EDFF8EF
:104B5000B4E0DFF8B4C04FF48037C0F84473C0F855
:104B600004734FF40037C6F8807137600126066081
:104B7000DEF800702F2000BF00BF00BF00BF00BFE5
:104B800000BF00BF00BF67452FD000BF00BF00BF00
:104B900000BF00BF00BF00BF00BF00BF00BF00BF1D
:104BA00000BF00BF00BF00BF00BF00BF00BF00BF0D
:104BB00000BF00BF00BF00BF00BF00BF00BF00BFFD
:104BC00000BF00BF00BF00BF00BF00BF00BF00BFED
:104BD00000BF00BF00BF00BF00BF00BF00BF00BFDD
:104BE00000BF00BF00BF00BF00BF0138C3D12670A7
:104BF00006E6074BC3F80090E1E5064C02932360FC
:104C00004BE600BFCC2100200024F40000E100E0CE
:104C1000E82A0020EC2A0020F0B4554B554A564EA5
:104C2000564C4FF480304FF400310125C2F880100B
:104C3000C3F848032F21C3F808035D6030680E46AF
:104C400000BF00BF00BF00BF00BF00BF00BF00BF6C
:104C5000A0422FD000BF00BF00BF00BF00BF00BFF9
:104C600000BF00BF00BF00BF00BF00BF00BF00BF4C
:104C700000BF00BF00BF00BF00BF00BF00BF00BF3C
:104C800000BF00BF00BF00BF00BF00BF00BF00BF2C
:104C900000BF00BF00BF00BF00BF00BF00BF00BF1C
:104CA00000BF00BF00BF00BF00BF00BF00BF00BF0C
:104CB00000BF00BF013EC3D19D6000BF00BF00BF69
:104CC00000BF00BF00BF00BF00BFA0422FD000BF89
:104CD00000BF00BF00BF00BF00BF00BF00BF00BFDC
:104CE00000BF00BF00BF00BF00BF00BF00BF00BFCC
:104CF00000BF00BF00BF00BF00BF00BF00BF00BFBC
:104D000000BF00BF00BF00BF00BF00BF00BF00BFAB
:104D100000BF00BF00BF00BF00BF00BF00BF00BF9B
:104D200000BF00BF00BF00BF00BF00BF00BF013910
:104D3000C3D1134E134C1449144D154F002030703D
:104D4000206008704FF480140B26E0212880AE709C
:104D50003870104DC2F8804182F814131460C3F803
:104D6000080582F81113D3F804352B60F0BC7047A6
:104D70000010014000E100E0CC2100200024F400FC
:104D8000D92A0020EC2A0020E42A0020CC29002087
:104D9000E52A0020E82A0020074B9B784BB132B16E
:104DA00028B10368187C20B959745A6170470720EC
:104DB00070470820704700BFCC2900202DE9F0473C
:104DC000264CA37882B0002B3CD000283AD004298E
:104DD0003CD94369002B35D0814602A899F811309F
:104DE0000026012B00F8016D0CBF8846B04617461F
:104DF0008A4600F073F86378A17822789DF807005E
:104E00005D1CEDB2A94208BF3546AA4222D003EB91
:104E1000430304EBC3030121114AC3F8089019713D
:104E2000D2F804256570C3E9032AC3E9058700F0B9
:104E30007BF80C4B4FF480123046C3F8002102B0CF
:104E4000BDE8F087082002B0BDE8F087072002B077
:104E5000BDE8F08700F068F80420F0E7CC290020D6
:104E60000010014000E100E0F0B51A4CA37883B0D7
:104E700043B338B343692BB3064602A8002500F8B4
:104E8000015D357400F02AF86278A77821789DF8E2
:104E90000700531CDBB29F4208BF2B46994214D037
:104EA00002EB420204EBC2020221966011716370B0
:104EB00000F03AF8084B4FF480122846C3F800215E
:104EC00003B0F0BD082003B0F0BD00F02DF80420C1
:104ED000F9E700BFCC29002000E100E070B4EFF357
:104EE000108472B60D4B9A68AAB90D490D4E012572
:104EF0009D60D1F8805035401D60C1F88060D1F8C8
:104F000084505D604FF0FF33C1F88430027004B903
:104F100062B670BC704701230370F8E7302E0020A2
:104F200000E100E0FC06FFBD094B9A687AB170B958
:104F300010B4EFF3108272B606491C680C605C680E
:104F40004C60986002B962B65DF8044B70477047D8
:104F5000302E002000E100E0B8B130B4D0E90112F9
:104F6000521A0468D2B2531E2160DBB242B101680A
:104F70000A685C1E551C0D601370E3B2FF2BF6D15E
:104F800003680020187130BC70470E20704700BFC6
:104F9000F0B583B002AB002503F8015D0446184666
:104FA000FFF79CFFD4E900311A688A4210D9511EDC
:104FB00019602168A3680F6812F8015C0A79268AD3
:104FC000E068DB1BDBB29A4206FB050538BF0B71BC
:104FD0009DF80700FFF7A8FF284603B0F0BD00BF0B
:104FE00030B583B002AB002203F8012D0546184608
:104FF0000C46FFF773FF2A681368591C1160E968B3
:105000002A8A641AB4FBF2F41C709DF80700FFF7BB
:105010008BFF03B030BD00BF826842B110B50446BB
:1050200043690168006998470023A36010BD704779
:105030000EB400B582B0039929B102AA04AB42F8BC
:10504000043D00F08BF802B05DF804EB03B070474C
:105050002DE9F84F88469045174605461E46DDE97E
:105060000AB175D343464FF00109B3FBF7F39F42F2
:1050700009F10109F9D9B14538BFB14611F0010A6A
:10508000AA6802D1BBF1000F43D1012402E0013E26
:1050900007FB04F4012EFAD8B8FBF4F18F42F7D9DC
:1050A0002D4E05E0B4FBF7F4A4B1B8FBF4F1AA6807
:1050B000705C531CAB602B689854D5E901329A425E
:1050C00004FB1188EED32846FFF7A6FFB4FBF7F4E4
:1050D000002CEAD1BAF1000F15D0BBF1000F12D0AD
:1050E000CB4510D92024AB682A68591CA960D45438
:1050F000D5E901329A420BF1FF3B06D2BBF1000F1A
:1051000001D0CB45EFD1BDE8F88F2846FFF784FFEB
:10511000F4E78B0717D42024CB45B6D92B68511C54
:10512000A9609C54D5E901329A420BF1FF3B05D2AC
:10513000BBF1000FA9D0CB45F0D1A6E72846FFF779
:105140006BFFAA68F4E7002E0CBF30242024E3E7AD
:105150004FF001098FE700BF28E70200002900F0A7
:10516000F4812DE9F04F054685B092460C460B7848
:10517000DFF8A0B501E0237893B1013483B1252B8A
:1051800015D0AA682968501CA8608B54D5E9013253
:105190009A42F0D32846FFF73FFF2378002BECD14B
:1051A0002B7B002B40F0148105B0BDE8F08F214629
:1051B000002711F8012B2D2A00F0E180302A00F0A1
:1051C000E2802B2A00F0D2802A2A00F0E080A2F1AF
:1051D0003006F3B2092B03D9B8E1A3F1300601463A
:1051E000084606EB860310F8012BA2F13004092CC7
:1051F00002EB4303F1D92E2A00F0D58000230131C0
:1052000001E011F8012B02F0FB0068280C46F8D0F1
:10521000253A532AAFD801A151F822F0DD530200FC
:105220007751020077510200775102007751020056
:105230007751020077510200775102007751020046
:105240007751020077510200775102007751020036
:105250007751020077510200775102007751020026
:105260007751020077510200775102007751020016
:105270007751020077510200775102007751020006
:1052800077510200775102007751020077510200F6
:1052900077510200775102007751020077510200E6
:1052A00077510200775102007751020077510200D6
:1052B00077510200775102007751020077510200C6
:1052C00077510200775102007751020077510200B6
:1052D00077510200775102007751020077510200A6
:1052E0007751020077510200F75302007751020014
:1052F0007751020077510200775102007751020086
:105300007751020077510200775102007751020075
:105310007751020011540200335402007751020009
:105320007751020077510200775102003354020096
:105330007751020077510200775102007751020045
:105340007751020077510200835402007751020026
:1053500077510200F75402007751020031550200E4
:105360007751020077510200F753020047F004071B
:105370000C46214611F8012B2D2A7FF41FAF47F070
:1053800001070C46F5E747F002070C46F1E7DAF8AB
:1053900000301A1DCAF8002062781E682E2A04F117
:1053A00002007FF42BAF4A78A2F13003092B00F200
:1053B0005081002303EB830302EB430310F8012F1A
:1053C000A2F130010929A3F13003F3D9014616E710
:1053D000284605B0BDE8F04FFFF71EBEAB682A684F
:1053E000591CA9604FF02501D154D5E901329A42E8
:1053F000FFF4C1AECEE6DAF80020111DCAF80010A5
:1054000011682846CDE900671022FFF721FEB2E6B9
:10541000DAF80020131DCAF80030AB68296812784A
:10542000581CA860CA54D5E901329A42FFF4A3AED1
:10543000B0E6DAF80020111DCAF80010D2F800809A
:1054400088EAE872A2EBE872092A4FF0010107DD51
:10545000AF48A0FB0202D208092A01F10101F7DCE2
:10546000994238BF1946894607F00202002E71D1D1
:105470002AB1002B00F04781FA0700F18D80002649
:105480008AE0DAF80020131DCAF80030AB682968FA
:105490001768581C3022A860CA54D5E901239342EA
:1054A00080F028812A68581C7821A860D154D5E959
:1054B0000123934280F019810F2F03D93A46120934
:1054C0000F2AFCD84FF0805603E036093FF453AE64
:1054D000AB682968B7FBF6F2581CA8601BF80200FD
:1054E000C854D5E90131994206FB1277EDD328461D
:1054F000FFF792FDE9E7DAF800301A1DCAF800203C
:10550000D3F80080FB077ED54746A7EB080917F8BC
:10551000013B002B5DD0AA682968501CA8608B5401
:10552000D5E901329A42F0D32846FFF775FDECE742
:10553000DAF80020111DCAF8001011682846CDE9DC
:1055400000670A22FFF784FD15E67047084600262B
:10555000214650E6B8F1000F01DB780700D5013E87
:1055600002B1CBB1F90717D4002E88D0B14513D2C0
:1055700020220393A9682B68481CA8605A54D5E9D7
:105580000131994206F1FF365DD2002E00F0BD8058
:10559000B145EFD1039B4E46B8F1000FC0F29280A7
:1055A0007A070AD5A9684A1CAA602A682B20505499
:1055B000D5E90121914280F0928007F00302022A8E
:1055C0005FD0CDE9006741460A222846FFF740FD3B
:1055D000D1E54E457FF6CFAD202705E04E453FF49F
:1055E000CAAD002E3FF4C7ADAB682A68591CA9604C
:1055F000D754D5E901329A4206F1FF36EED3284658
:10560000FFF70AFDEAE7B8F1000F24D0404608F0A2
:105610004CFE0746BE4220D9FEB14FF0200902E001
:10562000BE421AD0CEB1AB682A68591CA96002F8F4
:105630000390D5E901329A4206F1FF36F0D32846AD
:10564000FFF7EAFCECE728460292FFF7E5FC029A36
:105650009BE70146D2E54746DCE708F1FF3818F83A
:10566000013F002B3FF487ADAA682968501CA86051
:105670008B54D5E901329A42F1D32846FFF7CCFC8E
:10568000EDE7002B9DD1002E3BD0B14599D202937E
:1056900023464C469946AA682B68501C4FF03001AF
:1056A000A8609954D5E901329A4206F1FF3605D235
:1056B0002EB3B442EFD1029B4C4682E72846FFF757
:1056C000ABFCF5E7A9684A1CAA602A682D20505453
:1056D000D5E901219142C8F10008FFF46EAF2846D8
:1056E0000293FFF799FC029B67E72846FFF794FCBB
:1056F000AB68E1E62846FFF78FFCAB68D2E6029B79
:105700004C4600265DE71E4646E7039BB7E600BF12
:10571000CDCCCCCC28E70200FFF71EBC2DE9F04130
:10572000058ACE1C043D2E440746B6FBF5F6FFF76E
:105730002FFC78B3F6B24FF48073013E0446C58067
:105740000760838027D08046002509E06379AE4258
:1057500003F101036371C8F80000076080461AD0A6
:105760003846FFF715FC01350028EFD16679721E27
:1057700014D02346013082421B68FBD11F684EB112
:10578000002523682146013538461C46FFF728FCD2
:10579000AE42F6D100242046BDE8F0812768EFE74D
:1057A00010B40430012350E8002F02EB030140E85D
:1057B000001494F0000FF6D15DF8044B704700BF61
:1057C0000146021DF8B5012052E8004FA4EB00038A
:1057D00042E8003595F0000FF6D113F0FF0300D03A
:1057E000F8BD4E79701E11D00A46013398421268F6
:1057F000FBD11768002EF3D000240D680134384621
:10580000FFF7EEFBA6422946F7D1F8BD0F68F3E794
:105810002DE9F8430446181DE688B0FBF6F30F4661
:10582000904606FB130013B1013B2468FCD1351AE6
:10583000454528BF4546B8F1000F15D04FF0000987
:105840000430A8EB050820442A4607EB090108F0BC
:1058500019FD4645A944246835464FF0000028BF8D
:105860004546B8F1000FEBD1BDE8F8832DE9F843C8
:10587000C688043304460F46B3FBF6F0904606FB99
:10588000103110B101382468FCD1751A454528BF84
:105890004546B8F1000F15D04FF0000904312144FE
:1058A000A8EB05082A4607EB090008F0EBFC464583
:1058B000A944246835464FF0000128BF4546B8F199
:1058C000000FEBD1BDE8F88301600B6843604A68C4
:1058D000934204BF00234360704700BF436843B155
:1058E000026891680B4443605268934204BF0023EE
:1058F0004360704730B4184DA5F1F002AB1ADB10CD
:1059000003EBD3735B1002EBC30152F833309842C0
:1059100028BF0C4605D311E052F8333098420CD220
:1059200021468B1ADB1003EBD3735B108A4202EB28
:10593000C304F1D3094830BC70470D46984204D9DE
:1059400004F10802AA42D9D3F4E76068034B0028A7
:1059500008BF1846EFE700BF48E8020044E702002E
:1059600010B40023012401E0202B0AD004FA03F232
:10597000024299B203F10103F6D008465DF8044BE8
:1059800070474FF6FF7108465DF8044B704700BF43
:10599000A0B199B130B40238002402E00134202CC7
:1059A0000AD030F8025F9542F8D1012202FA04F4DD
:1059B0000A6823B122430A6030BC7047704722EA6C
:1059C00004020A6030BC704770B49DF80C60D0B11E
:1059D000C9B1C2B10238002402E00134202C12D037
:1059E00030F8025F9D42F8D1012301EB820203FAF5
:1059F00004F4E043043A04393EB951F8043F03404B
:105A000091420B60F9D170BC704751F8043F2343B9
:105A100091420B60F7D051F8043F234391420B6051
:105A2000F3D1F0E7F0B491B100252B46012606FA38
:105A300003F4144205D000EB450431F81370A7803D
:105A400001350133202BF2D10560F0BC70470D46C3
:105A50000560F0BC704700BF60B910B5064CA36884
:105A60003BB1D3E900230020A2609847A368002B34
:105A7000F7D110BD704700BFF02A002010B50128F3
:105A800082B029D022D303281ED10721002000F0A4
:105A900093F802A80023264C00F8013DFFF71EFAF8
:105AA000E368013BE360E36853B9224B01221A60CB
:105AB0004FF08042D2F8183413F48033FAD1A37037
:105AC0009DF80700FFF730FA02B010BD1A4B012213
:105AD000C3F8802002B010BD02A80023144C00F8C7
:105AE000013DFFF7FBF9237853B1E3689DF8070008
:105AF00001330122E360A270FFF716FA02B010BD75
:105B00000D4A6360A3602361E360106810F0010038
:105B10000AD008F003FA20B94FF080430122C3F8FD
:105B2000182501232370E0E7072100F045F8F0E78E
:105B3000F02A00200C00004000E100E010B51B4BF3
:105B40001A6882B0AAB100221A601B6800934FF055
:105B500080430122164C0099C3F80823A3686270A1
:105B60003BB1D3E900230020A2609847A368002B33
:105B7000F7D1104B1A68B2B100221A601B6801936A
:105B80004FF0804302220A4C0199C3F8082323698D
:105B90000122A2703BB1D3E9002301202261984782
:105BA0002369002BF7D102B010BD00BF00010040F7
:105BB000F02A0020040100404901002810B4C9B2B5
:105BC000C3B215DB00F1604202F5614282F80013B6
:105BD0004009800000F1604000F5614003F01F02C1
:105BE00001239340C0F8803103605DF8044B704797
:105BF000024A03F00F0422441176E9E7FCEC00E0CE
:105C000030B5194C94F8545083B055BB4FF0FF3366
:105C100007210620C4E90033C4E90233C4E9043390
:105C2000C4E90633C4E90833C4E90A33C4E90C33D0
:105C3000C4E90E33C4E91033C4E912332365FFF716
:105C4000BBFF0A4B0A4A1D601B68019301984FF085
:105C500000430121284684F85410C2F8043303B0ED
:105C600030BD082003B030BD042B00207C61004013
:105C700000600040034B93F85400003018BF01202F
:105C8000704700BF042B0020F0B4654B1C1894F93A
:105C90003050002D66DACE78002E5DD11D6A0135B8
:105CA00000F0AD8009240C2553F8247001375DD035
:105CB00004F1010C53F82C70013700F0AA8004F1B4
:105CC000020CAC4545D253F82C70013700F0A1808E
:105CD00004F1030CAC453CD253F82C70013700F0B2
:105CE000988004F1040CAC4533D253F82C70013782
:105CF00000F08F8004F1050CAC452AD253F82C70CB
:105D0000013700F0868004F1060CAC4521D253F82F
:105D10002C7001377DD004F1070CAC4519D253F833
:105D20002C70013775D004F1080CAC4511D253F832
:105D30002C7001376DD004F1090CAC4509D253F831
:105D40002C70013765D00A34AC4202D2DC6A0134CF
:105D50000BD00420F0BC70471D6801355BD00124D6
:105D60000825A1E70820F0BC70470B241F1865B276
:105D700043F8242087F83050002E46D08A78B2B1FC
:105D8000820002F1A042D2F8004724F00204C2F8D7
:105D90000047CA780978B2B9083D2B44104693F8F9
:105DA000502042EA811183F85010F0BC70474C78C3
:105DB00000F5E0724FF0A046A40046F82240CA78F1
:105DC0000978002AE8D0AB0003F1804303F5C04313
:105DD0000002D3F8102522F4473222F44072C3F8AF
:105DE0001025090400F4F850D3F8102501F44031CF
:105DF00001431143C3F810150020F0BC704708267A
:105E000084F830601A62354634461C4484F84800F1
:105E1000B4E76446AAE700251A6084F83050ADE77D
:105E2000042B002070B42E4D2E1883B096F930301C
:105E3000072B1CDD2B4493F848309B09032B41D0E2
:105E4000012B14BF4FF440314FF40031800000F1BA
:105E5000A040D0F8002722F44032C0F80027D0F844
:105E600000370B43C0F8003703B070BC7047DAB29C
:105E7000072AF9D8980000F1804000F5C04003F1EE
:105E80004002D0F81045920092B244F0010402F1B1
:105E90008042C0F8104502F5C04200200190019CEC
:105EA00010600029E0D096F9302055F82220002A11
:105EB000DAD001220B4902FA03F3C1F8043303B02C
:105EC00070BC70474FF0A043D3F81035C34013F0B7
:105ED000010F0CBF4FF400314FF44031B6E700BF63
:105EE000042B002000600040164B034493F930302F
:105EF000072B18DCDAB2072A14D810B49A0002F182
:105F0000804202F5C042104CD2F81005012120F069
:105F1000010001FA03F3C2F81005C4F808335DF874
:105F2000044B70477047800000F1A040D0F8003764
:105F300023F44033C0F80037D0F80037C0F80037FA
:105F4000704700BF042B0020006000404FF0A043CA
:105F5000D3F8103523FA00F000F00100704700BFBD
:105F60002DE9F04186B00023A14A01931668012E65
:105F700000F054811E469F4B1A68012A00F05D8193
:105F80009D4B1A68012A00F06A819C4B1A68012A0D
:105F900000F077819A4B1A68012A00F08481994BAE
:105FA0001A68012A00F09181974B1A68012A00F0C3
:105FB0009E81964B1A68012A0CD0954B1B68012BC9
:105FC00000F0A58116F0FF0F15D1002E30DB06B0D2
:105FD000BDE8F0818F4AD2F804231706EDD50022E0
:105FE0001A601A6804926033049A1B68012B46F009
:105FF000800600F08C81884F00240125A30003F166
:106000008043354203F5C0434FEA45050BD0D3F832
:10601000100557F82420D3F81015C0F30420C1F35D
:10602000014102B190470134082CE7D1002ECEDAAD
:1060300000224FF0FF33CDE90223774C012602AF57
:1060400094F950305D1C2CD0DBB223F0C00006AABE
:106050004FEAD00C02EB0C0E03F007021EF80C1CEA
:1060600006FA02F211421CD02518990995F9303030
:1060700054F82330002B00F09881032900F0988118
:106080004FEA800C0CF1A04C1EF8145CDCF800E721
:106090001540CEF3014E40F05C81BEF1030F00F0DD
:1060A000DE81002594F95130581C2DD0DBB223F04D
:1060B000C00006AA4FEAD00802EB080E03F0070161
:1060C0001EF80C2C06FA01FC12EA0C0F1CD0221848
:1060D000990992F9303054F82330002B00F05B819D
:1060E000032900F05B81820002F1A0421EF8148CAB
:1060F000D2F800E718EA0C0FCEF3014E40F03681DB
:10610000BEF1030F00F0A68194F95230591C2DD036
:10611000DBB223F0C00006AA4FEAD00802EB080E5B
:1061200003F007011EF80C2C06FA01FC12EA0C0F12
:106130001CD02218990992F9303054F82330002BE2
:1061400000F03C81032900F03C81820002F1A04272
:106150001EF8148CD2F800E718EA0C0FCEF3014EAB
:1061600040F0E380BEF1030F00F06E8194F95330EC
:106170005A1C2DD0DBB223F0C00006AA4FEAD0088B
:1061800002EB080E03F007011EF80C2C06FA01FCC6
:1061900012EA0C0F1CD02218990992F9303054F8E9
:1061A0002330002B00F0ED80032900F0ED80820009
:1061B00002F1A0421EF8148CD2F800E718EA0C0F86
:1061C000CEF3014E40F0BC80BEF1030F00F0008121
:1061D000002D3FF4FCAE4FF0A043019AD3F81035E8
:1061E00093423FF4F4AE029A0193039228E700BF72
:1061F0000061004004610040086100400C61004003
:106200001061004014610040186100401C610040B2
:106210007C61004000600040042B00209A49D1F8C6
:10622000041311F0010170D0136013680493049BF0
:10623000964B1A68012A7FF4A3AE934AD2F804233E
:1062400097077FF59DAE00221A601B680493049B9C
:106250008F4B1A68012A46F002067FF496AE8A4AEE
:10626000D2F8042355077FF590AE00221A601B6810
:106270000493049B874B1A68012A46F004067FF4B6
:1062800089AE814AD2F8042314077FF583AE002239
:106290001A601B680493049B7F4B1A68012A46F01E
:1062A00008067FF47CAE784AD2F80423D0067FF546
:1062B00076AE00221A601B680493049B774B1A6821
:1062C000012A46F010067FF46FAE6F4AD2F804231D
:1062D00091067FF569AE00221A601B680493049B47
:1062E0006F4B1A68012A46F020067FF462AE664AB8
:1062F000D2F8042352067FF55CAE00221A601B68B8
:106300000493049B46F0400653E60E4633E6654B85
:1063100000221A601B6805934FF0A043059AD3F83A
:106320001035019346F000464CE6BEF1020F7FF4B3
:106330001DAF032963D0002B3FF418AF984715E732
:10634000BEF1020F7FF444AF032969D0002B54D172
:106350003EE7BEF1020F7FF4A4AE032900F0918066
:106360000025002B3FF49EAE98479BE6BEF1020F3E
:106370007FF4CAAE032956D0002B3FF4C5AE984730
:10638000C2E603297FF424AF17F8082042EA0C0282
:1063900007F808200BE703297FF4B6AE17F80820AA
:1063A00042EA0C0207F808209DE603297FF479AE43
:1063B00017F80C50154307F80C5061E603297FF4D9
:1063C000D5AE17F8082042EA0C0207F80820BCE610
:1063D0000329BBD14FF4003ED2F800C72CF4403C57
:1063E000C2F800C7D2F800C701354CEA0E0CEDB276
:1063F000C2F800C7002B3FF4EEAE9847E8E64FF432
:10640000403ED2F800C72CF4403CC2F800C7D2F896
:1064100000C701354CEA0E0CEDB2C2F800C78AE79E
:106420004FF4403ED8E74FF4403ED2F800C72CF47A
:10643000403CC2F800C7D2F800C701354CEA0E0C48
:10644000EDB2C2F800C797E703297FF474AF4FF4A9
:10645000003ED6E703298FD14FF4003EE5E703293C
:106460007FF47FAF4FF40035DCF8002722F4403290
:10647000CCF80027DCF800272A43CCF800270125B8
:106480006FE74FF44035EFE70060004004610040E3
:10649000086100400C610040106100401461004040
:1064A000186100407C6100402DE9F0414479544D71
:1064B000E6003719BF0005EB070C9CF81CE0BEF1A5
:1064C000000F40F08F80EA51CCF804300B7B91F83C
:1064D00000C0012B4FF0A0474FF0010303FA0CF36B
:1064E00094BFC7F80C35C7F808350B784FF0A04EAD
:1064F00003F5E0734FF0010C4EF823C04F78FF2FE7
:1065000068D007F5E0780CFA07F34FF0030CCEF8EB
:106510000C354EF828C08B78FF2B60D003F5E07C5B
:106520009E464FF0A0434FF0040843F82C8091F8AA
:1065300003C0BCF1FF0F0FD04FF0A048012303FAB6
:106540000CF3C8F80835CB7803F5E0734FF0030C73
:1065500048F823C091F803C0437903EBC30305EB6C
:10656000830383F81EC0036891F800C0C3F808C510
:10657000C3F80C75C3F810E58F68C3F824754F7B1A
:1065800091F80CC0003718BF0127BCF1020F33D0BF
:10659000BCF1030F2DD0BCF1010F01D147F0020770
:1065A000C3F854754F79C3F8C075F2B1402707227C
:1065B000C3F80473C3F80025097990F90400FFF7C4
:1065C000FBFA344405EB8405012300202B77687720
:1065D000BDE8F0818B78FF2B4FF0FF379ED14FF055
:1065E000FF3EA4E70820BDE8F0810722C3F800259C
:1065F000E7E747F00607D3E747F00407D0E700BF17
:106600005C2B00202DE9F0434479444DE7003E190E
:10661000B60005EB060E83B09EF81D809DF828C0DD
:10662000B8F1000F74D1AE5916B101268EF81D6075
:106630000C264FF0240E1EFB046E05EB0E083E19CF
:1066400045F80E1005EB860688F80420C8F80830D7
:1066500088F80CC096F821E096F81E8006F1200913
:106660000EF0FC066FF38206B8F1FF0F89F80160A7
:1066700006D001264FF0A04E06FA08F6CEF80C65BB
:1066800021B101F06046B6F1005F25D123B103F0DE
:106690006046B6F1005F1FD106680020C6F84415B9
:1066A000C6F84825C6F83435C6F838C5C6F8180106
:1066B000D6F81831019301223B190199C6F850050B
:1066C000C6F84005326155F8233073B14023C6F84F
:1066D000043303B0BDE8F0833C4405EB840500239C
:1066E0006B77102003B0BDE8F083D6F81831002B8B
:1066F000FBD03C4405EB8405AB7FFF2B0CD0012283
:106700004FF0A04102FA03F3C1F808350020E9E791
:10671000112003B0BDE8F0830020E3E75C2B0020EC
:106720000F4BD3F8182102B9704700210D4AC3F866
:106730001811D3F81811937F82B0FF2B01910199A2
:1067400006D001214FF0A04001FA03F3C0F808354C
:10675000002353771372D2E90031034802B018477F
:10676000003000405C2B0020642B00204FF04023C1
:10677000D3F8182102B9704700210E4AC3F8181146
:10678000D3F8181192F8423082B0FF2B0191019991
:1067900006D001214FF0A04001FA03F3C0F80835FC
:1067A000002382F8413082F82C30D2E909310248C6
:1067B00002B018475C2B0020882B0020F0B506792A
:1067C0006F4C7601A31987B0DD7E002D40F08980E3
:1067D0004D7F1D770B685D1C0CD001254FF0A04745
:1067E00005FA03F3C7F808350B6803F5E0730325D2
:1067F00047F823504B685F1C06D003F5E0734FF059
:10680000A045002745F82370037905688F6904EBDC
:1068100043131B7FC5F82475002B46D00F7D4B7D9D
:1068200005683B43C5F86C35D1E900750368C3F8CA
:106830000C75C3F814550B7D012B7FD0A3190546A9
:106840005A600B69A351EAB10379097F026804EB2E
:1068500043131B7F002B4BD1C2F81C31D2F81C0113
:106860002A6800900098C2F84431D2F844212B687D
:106870000192444A0198C3F80423286840F3073082
:10688000FFF79AF92B792A6804EB43131B7F5BB35C
:106890000823C2F80035344400200123E376E07574
:1068A0002076A075A07607B0F0BD91F814C04D7D9C
:1068B000076845EA0C05C7F86C55D1E900C70568BB
:1068C000C5F81475C5F80CC50D7D012DB6D18D68C0
:1068D0006F1C3DD005F5E0754FF0A04747F8253017
:1068E00036E0082007B0F0BD0423C2F80035D2E737
:1068F0000023C2F81031D2F810012A6802900298E1
:10690000C2F82031D2F820012A6803900398C2F817
:106910002431D2F824012A6804900498C2F8443142
:10692000D2F844212B680592174A0598C3F804232E
:10693000286840F30730FFF73FF9A3E78B685D1C39
:1069400006D003F5E0734FF0A045002745F823700B
:10695000CB685D1C0DD001254FF0A04705FA03F36D
:10696000C7F80835CB6803F5E073032547F82350D3
:10697000CB6805688F68C5F80835C5F810755DE700
:10698000A42B00208000020010030200F0B4047960
:106990003C4B016864011A19127F002A6DD0002255
:1069A000C1F800251A19017955680268B5B103EBE1
:1069B0004111097F002963D13349C2F808130268E5
:1069C000324E120B51B24909203102F01F0201254B
:1069D00005FA02F246F8212001790268D2F80C7516
:1069E000D2F8146503EB41114FF0FF3C097FB1B3BE
:1069F000D2F80815D2F81055C2F80CC5C2F814C563
:106A00000268C2F808C5C2F810C57A1C06D007F59E
:106A1000E0774FF0A042022042F82700771C06D012
:106A200006F5E0764FF0A042022042F82600681CEE
:106A300006D005F5E0754FF0A042022042F825008F
:106A40004A1C06D001F5E0714FF0A042022042F846
:106A5000210023440022DA765A60F0BC7047D2F855
:106A60000815D2F81055C2F814C5C2F80CC5026852
:106A7000C2F808C5C2F810C5C7E7C1F8002591E7FC
:106A800003499AE7A42B00208402020000E100E001
:106A900010030200F0B50379524C5B01E51887B092
:106AA0002D7F25B101F06045B5F1005F58D1234439
:106AB0009E7D002E57D19A7599609E8205796D0151
:106AC0006219137F13BB0168C1F81C31D1F81C6136
:106AD000016804960126049F8E600168D2F808C000
:106AE000C1F81C31D1F81C310593059B968A938A15
:106AF0005768B6B201331CF806609BB29382C1F8A6
:106B00001C65002F32D0002007B0F0BD03689168EB
:106B1000C3F82061D3F8203101930368019FC3F8C3
:106B20005861D3F8586103680296967D029FC3F8B6
:106B30004415C3F848650368012199605368002B28
:106B4000E1D1036801E0002949D1D3F82021D3F82D
:106B50005811002AF7D0002914BF0F20002039E077
:106B6000102007B0F0BD112007B0F0BD967D938ACC
:106B70009E4222D9016804E0938A9BB2B3F5807FDC
:106B800003D0D1F81C31002BF6D0938A9BB2B3F519
:106B9000807FECD0C1F81C71D1F81C310393039BAA
:106BA000B2F814E0938A1FFA8EFE01331CF80EE04F
:106BB0009BB29382C1F81CE5D9E7938A9BB2B3F5E7
:106BC000807F0CD00268D2F81C31002BFBD001234F
:106BD000D36000202C440023A37507B0F0BD0F2024
:106BE000F8E700BFA42B0020F0B5A94C237F8FB09D
:106BF000002B73D1A74AD2F80413890546D4A54BBC
:106C0000D3F80423520704D5D3F80821002A40F012
:106C1000D480A04BD3F81C21BAB1A18AA27D8A42AC
:106C200000F2B9800021C3F81C11D3F81C31059380
:106C3000059B52B1A3688DF82810A1750B938DF8B0
:106C40003020D4E900130AA89847924BD3F8442186
:106C5000D2B10022C3F84421D3F84411A27E04919A
:106C60000499002A40F09480E37D6BB10023617E9B
:106C7000E268E37501238DF830108DF828300B920F
:106C8000D4E900130AA898470FB0F0BDD2F8241138
:106C90000029B4D0C2F82431D2F82411A37E079180
:106CA0004FF401710798C2F808130BB90123536020
:106CB000784A02238DF82830D2F88034C2F8803424
:106CC000E07DE2680D9300238DF83000E3752376B4
:106CD00021680B9263680AA898479AE76D4BD3F82E
:106CE0002421002A00F097800022C3F82421D3F841
:106CF0002411029102218DF828100299D3F88014F2
:106D0000C3F880140D91D3F83C15E3688DF830106A
:106D10000B93E2752276216863680AA898475D4B59
:106D2000D3F84421B2B10022C3F84421D3F844017E
:106D3000E17D0190019869B1D3F83C35E1688DF8A7
:106D4000303001230B918DF82830E275D4E900131F
:106D50000AA898474F4BD3F82021002A94D000224C
:106D6000C3F82021D3F82001A17D009000980029CC
:106D70008AD0D3F84C15A3688DF830100B938DF89A
:106D80002820A275D4E900130AA898470FB0F0BDD7
:106D900001221A6068E70022C3F81C21D3F81C21E5
:106DA0000692069AA18AA28AA06889B20132415C41
:106DB00092B2A282C3F81C1547E7E27D002A54D0A4
:106DC0000022C3F80821D3F808210892089AE16844
:106DD000627ED3F818358B54637EE27D0133DBB2DB
:106DE0006376637E93427FF414AF237E2168002B89
:106DF00052D0E268657E2069E3750B920023012280
:106E0000E060237663768DF830508DF82820636833
:106E10000AA89847FDE6D3F8101100293FF47FAF88
:106E2000C3F81021D3F8101103910399D3F83C153E
:106E3000E07DC9B288427FF472AF257EE768D4E96D
:106E40000016DDB1D3F800C2E5752CF020052276DE
:106E5000C3F80052012223698DF83000E3600B97DC
:106E60008DF828200AA8B04759E7C3F80821D3F8BD
:106E7000081109910999D3F81835B2E701238DF863
:106E80003000E5750B978DF828300AA8B04746E723
:106E9000A42B002000200040A37E13B90A4B01223E
:106EA0005A60094AE06863684FF40175C2F80853F4
:106EB000627E8DF83020002501220B90E5758DF85B
:106EC00028200AA89847A4E6002000400220FDF7E9
:106ED000B3B800BF2DE9F0470D460646FDF7DCF8D4
:106EE00003281ED8012D04461DD00ED3022D18D123
:106EF0001B4B00EB40041C44657895B1194B1B6893
:106F00007BB12846BDE8F04718471748FDF7ACFFAE
:106F1000134B164A04EB44010B44125D9D78AA42C0
:106F2000EBD0BDE8F0870E4F4FEA400808EB0003B6
:106F3000FA18FD5C53782BB9A04447440B4BBA7840
:106F40001A55DAE7DFF8289007484A464FF400411F
:106F5000FDF734FF0028EFD189F80060ECE700BFAF
:106F6000082C00203C2C0020E82B0020442C002082
:106F7000C42B002010B50078FDF78EF803280BD83D
:106F8000064B00EB40001844407828B1044B1B68C6
:106F900013B1BDE81040184710BD00BF082C0020F9
:106FA0003C2C0020B24B1B68DB0700D4704770B547
:106FB000B04DB14E2B7834786BB1B04B1B780020BC
:106FC0002870002B4BD0FCF7FFFF0120FCF7FCFFE3
:106FD0000320FCF7F9FF172C40D8DFE814F0B500C8
:106FE000F000F000D8000401C6000F01EA005000D4
:106FF00043005000430061001800180018001800FA
:107000001800660077008B009F005D005D009C48C3
:10701000FDF72AFFD4F11104054600F0FC8000289A
:1070200040F0F980012C13D0C82303FB04F44FF483
:10703000FA704FF400430021C3FB04014FF47A724D
:10704000002307F049F92A4601468D48FDF7B6FEB0
:107050000220FCF7ADFF894B01221A7070BDFCF7CE
:10706000BFFFB8E7012318462B70FCF7E5FF0022AD
:107070004FF480418348BDE87040FDF79FBE012377
:1070800018462B70FCF7D8FF002240F6CD417D4812
:10709000BDE87040FDF792BEFCF7B8FF347070BDDC
:1070A000FCF7B4FF0C23337070BD744B1B78002BBE
:1070B00000F0BB800020FCF787FF0120FCF784FF75
:1070C0000320FCF781FF1223337070BD6B4B1B78DC
:1070D000002B00F0AD800020FCF776FF0120FCF7CC
:1070E00073FF0320FCF770FF0020FCF761FF132300
:1070F000337070BD614B1B78002B00F0A98000201D
:10710000FCF762FF0120FCF75FFF0320FCF75CFF48
:107110000120FCF74DFF1423337070BD574B1B78D3
:10712000002B7FD00020FCF74FFF0120FCF74CFF25
:107130000320FCF749FF0020FCF73AFF0120FCF791
:1071400037FF1523337070BD4C4B1B78002B00F0BC
:1071500087800020FCF738FF0120FCF735FF032073
:10716000FCF732FF0023337070BD0020FCF712FFE4
:10717000002860D00020FCF727FF05233370002291
:1071800041F69A113F48BDE87040FDF717BE002058
:10719000FCF700FF00285ED00020FCF715FF46F248
:1071A00066610323337000223648BDE87040FDF766
:1071B00005BE0020FCF7FCFE0723337070BD0020E5
:1071C000FCF7E8FED0B30020FCF7FEFE022C4EF2E6
:1071D000666118BF4FF40031347000222948BDE8C1
:1071E0007040FDF7EBBD0020FCF7D4FED8B30020C3
:1071F000FCF7EAFE4FF400310423D3E70020FCF74C
:107200001BFF06233370002240F6CD411D48BDE828
:107210007040FDF7D3BD0220FCF7D6FE174B0022CD
:107220001A7070BDFCF7DCFE85E7FCF7D9FE4AE773
:10723000FCF7D6FE58E7FCF7BBFE9EE7FCF7B8FE6E
:1072400043F2333141F69A13022C08BF1946C3E7C3
:10725000FCF7C6FE5CE7FCF7ABFE41F69A11A0E72F
:10726000FCF7BEFE7EE7FCF7A3FE43F23331C3E733
:10727000142C0020182C0020402C0020C52B0020AE
:10728000C82B00201C2C002038B5C34B1C6814F000
:10729000010401D1204638BDC04C2378054663B1B6
:1072A000BF4B1B780020207023B3FCF78DFE01201C
:1072B000FCF78AFE0320FCF787FE172D00F2698198
:1072C000DFE815F0C300E800E8000C01D5001F015D
:1072D000FE00320128001B0028001B006A0071001C
:1072E00071007100710071009A00AD0035004B0013
:1072F00064006400FCF774FEDFE701231846237086
:10730000FCF79AFE00224FF48041A648BDE83840C1
:10731000FDF754BD012318462370FCF78DFE0022B3
:1073200040F6CD419F48BDE83840FDF747BD9C4B36
:107330001B78002B00F012810020FCF745FE012095
:10734000FCF742FE0320FCF73FFE0120FCF730FE75
:10735000954B14221A7000249CE7914B1B78002B4C
:1073600000F0FF800020FCF72FFE0120FCF72CFE30
:107370000320FCF729FE0020FCF71AFE0120FCF791
:1073800017FE894B15221A70002483E7FCF73EFE96
:10739000854B00241D707DE7FCF738FE824B0C22E4
:1073A0001A70002476E78148FDF75EFD0446D5F1AA
:1073B000110000F0C180002C40F0BE80012814D0E4
:1073C000C82505FB00F54FF400434FF4FA70002187
:1073D000C3FB05014FF47A72002306F07DFF2246BD
:1073E00001467248FDF7EAFC04460220FCF7E0FD86
:1073F0006B4B01221A704DE7694B1B78002B00F094
:10740000AA800020FCF7E0FD0120FCF7DDFD032051
:10741000FCF7DAFD644B12221A7000243AE7604B45
:107420001B78002B00F08F800020FCF7CDFD0120A1
:10743000FCF7CAFD0320FCF7C7FD0020FCF7B8FDF0
:10744000594B13221A70002424E7554B1B78002B4C
:1074500000F08A800020FCF7B7FD0120FCF7B4FDA6
:107460000320FCF7B1FD504B00241C7012E70020F4
:10747000FCF790FD002869D00020FCF7A5FD4FF433
:107480000031494B474804241C700022BDE83840B5
:10749000FDF794BC0020FCF77DFD00286CD0002097
:1074A000FCF792FD022D4EF2666118BF4FF40031D9
:1074B0003D4B3C481D700022BDE83840FDF77EBCC6
:1074C0000020FCF7B9FD384B364806241C7000221A
:1074D00040F6CD41BDE83840FDF770BC0020FCF718
:1074E00059FD002843D00020FCF76EFD46F266618E
:1074F0002D4B2C4803241C700022BDE83840FDF7BA
:107500005DBC0020FCF746FD00283FD00020FCF7C2
:107510005BFD254B234805241C70002241F69A117F
:10752000BDE83840FDF74ABC0020FCF741FD1E4B8A
:1075300007221A700024ADE60220FCF745FD184B27
:1075400000221A70A6E6FCF74BFD76E7FCF730FD4B
:1075500043F2333195E7FCF743FD5BE7FCF740FD71
:10756000F3E6FCF73DFD06E7FCF73AFD7BE7FCF7A9
:107570001FFD41F69A11BBE7FCF71AFD43F23331C8
:1075800041F69A13022D08BF194691E7FCF710FD4A
:10759000BFE700247EE600BF142C0020182C00203A
:1075A000C52B00201C2C0020402C0020C82B0020C4
:1075B00030B5204B204A1960830783B0106000F07B
:1075C000010412D51D4B1E480E250F2210211D70DF
:1075D0001125DA70997140F2666204215D72FCF740
:1075E000F1FDA8B1F4B903B030BD74B9154A16481D
:1075F0000021FDF7D1FB0028F5D1144A14480121E0
:1076000003B0BDE83040FDF7C7BBFCF727FDEDE751
:10761000FCF72EFE0028E5D101460E4A0E48FDF784
:10762000BBFB1CB10190FCF719FD01980028DDD0CF
:1076300003B030BD3C2C0020142C0020082C00206E
:107640006CEB0200A56F020094EB0200CD6E02000D
:107650008CEB0200756F020090EB020073DF704745
:1076600076DF70477ADF70477CDF70477FDF7047D7
:107670008FDF7047A8DF7047A9DF704766DF70476C
:107680003EDF7047704700BF014B01221A70704700
:10769000152D0020FCF71CBE10B50C4B0C4A1B68C6
:1076A0000024012B146007D10220FCF781FC094A59
:1076B00021462046FCF778FE074B0849188800044D
:1076C00040F00300BDE81040FCF768B894210020AA
:1076D0006C2C0020F5800200A8230020D8EB0200CB
:1076E00010B50120FCF7A8FC064B074C07491B68A6
:1076F0000748084A24680C60033B012103601170AD
:1077000010BD00BFBC210020B0210020182D00209A
:10771000C4210020D42C002010B5384B82B01B6847
:107720008DF807009BB9C3B20E3B032B20D8DFE8CE
:1077300003F0022E3B21324C2168012942D002295C
:1077400005D1304A01210DF10700FCF72DFE002084
:10775000FFF79AFD2C4B2D4A2D490446188800044A
:1077600040F00300FCF7E4F814B12046FCF7B0FD4C
:1077700002B010BD224C216801292AD00229E6D18D
:10778000244A01210DF10700FCF70EFEDFE71C4C37
:10779000216801292AD00229D9D11F4A01210DF1DE
:1077A0000700FCF701FED2E7154C2168012917D02C
:1077B0002368022BCBD1194A01210DF10700FCF7F8
:1077C000F3FDC4E7164A0DF10700FCF7EDFD216853
:1077D000B5E7144A0DF10700FCF7E6FD2168CDE797
:1077E000104A0DF10700FCF7DFFDE1E70E4A0DF14D
:1077F0000700FCF7D9FD2168CDE700BF6C2C002005
:10780000942100209DA70200A8230020C4EB0200C1
:107810006CE6020035A80200E9A7020085760200A6
:10782000B5800200E1760200D58002001F4B204A9D
:107830001B6800BF00BF00BF00BF00BF00BF00BF8C
:1078400000BF93422FD000BF00BF00BF00BF00BFEA
:1078500000BF00BF00BF00BF00BF00BF00BF00BF30
:1078600000BF00BF00BF00BF00BF00BF00BF00BF20
:1078700000BF00BF00BF00BF00BF00BF00BF00BF10
:1078800000BF00BF00BF00BF00BF00BF00BF00BF00
:1078900000BF00BF00BF00BF00BF00BF00BF00BFF0
:1078A00000BF00BF00BF0138C3D17047CC2100200A
:1078B0000024F40008B5037803B108BD054B3B2153
:1078C0001888FFF7CDFE0028F7D0BDE80840FCF788
:1078D000FFBC00BFAC21002010B50388013B84B081
:1078E0000446552B58D8DFE803F08E5757575757A3
:1078F000575757575757575757952B57AB575757B2
:1079000057575757575757575757635757575757FB
:1079100057575757575757575757575757575757F7
:1079200057575757595757575757575757575757E5
:10793000575757575757575757576D845757575992
:10794000444B45491888000440F00300FBF726FF2C
:107950000120FCF739FB414B4FF6FF721A80FCF710
:107960009DFC08B1FCF7B4FC10220021684606F02B
:1079700094FC00234022684601218DF800300193D9
:107980008DF80830CDF80A20FFF768FE08B1FCF743
:107990009FFC0020FCF70CFB04B010BD8088132175
:1079A000FFF75EFE0028F7D0FCF792FC04B010BD94
:1079B00004A9002321F8103D8088FFF759FE002814
:1079C000EAD0F1E78379002BE6D0827B043A022AE1
:1079D000E2D8022B18BF01238DF8003080884FF4C5
:1079E000C1736946ADF80430FFF744FE0028D3D0D8
:1079F000DAE71A4A0023108819461A46FFF73CFEB8
:107A00000028C9D0D0E780880021FFF737FE002882
:107A1000C2D0C9E70F4B12491888000440F0030098
:107A2000FBF7BCFE0120FCF7C3FA0020FCF7CCFA00
:107A30000A4BA2881A80FCF71BFC0028ACD0B3E7E5
:107A4000064A0023108885211A46FFF70FFE0028FA
:107A5000A2D0A9E7A8230020B4EB0200AC210020AB
:107A6000A8EB020010B584B04FF0A04304A94FF07A
:107A700080522C4C01F8010DC3F80C250022009215
:107A80002270294B29480122FEF7BCFD08B145E0D0
:107A900020BF2378002BFBD0254B26491A680A23E8
:107AA00000BF00BF00BF00BF00BF00BF00BF00BFDE
:107AB0008A422FD000BF00BF00BF00BF00BF00BF81
:107AC00000BF00BF00BF00BF00BF00BF00BF00BFBE
:107AD00000BF00BF00BF00BF00BF00BF00BF00BFAE
:107AE00000BF00BF00BF00BF00BF00BF00BF00BF9E
:107AF00000BF00BF00BF00BF00BF00BF00BF00BF8E
:107B000000BF00BF00BF00BF00BF00BF00BF00BF7D
:107B100000BF00BF013BC3D104B010BDFCF7D8FBD0
:107B2000B7E700BF152D0020142D002000EC020047
:107B3000CC2100200024F40010B584B04FF0A04305
:107B400004A94FF080522C4C01F8010DC3F8082510
:107B5000002200922270294B29480122FEF752FD93
:107B600008B145E020BF2378002BFBD0254B2649E8
:107B70001A680A2300BF00BF00BF00BF00BF00BFDC
:107B800000BF00BF8A422FD000BF00BF00BF00BFB0
:107B900000BF00BF00BF00BF00BF00BF00BF00BFED
:107BA00000BF00BF00BF00BF00BF00BF00BF00BFDD
:107BB00000BF00BF00BF00BF00BF00BF00BF00BFCD
:107BC00000BF00BF00BF00BF00BF00BF00BF00BFBD
:107BD00000BF00BF00BF00BF00BF00BF00BF00BFAD
:107BE00000BF00BF00BF00BF013BC3D104B010BD48
:107BF000FCF76EFBB7E700BF152D0020142D002009
:107C000000EC0200CC2100200024F4002DE9F04F0C
:107C100087B006462A20154602911F469DF840B0BF
:107C20004D4CDFF83CA1DFF83C91DFF83C81FFF7D9
:107C300019FF0020FFF780FF3046FFF77DFF00208F
:107C4000FFF77AFF029BF018C0B2FFF775FF2B20F9
:107C5000FFF708FF0020FFF76FFF2846FFF76CFFD4
:107C60000020FFF769FFE819C0B2FFF765FF029B2C
:107C70002C2001330393FFF7F5FE00230137029315
:107C800000254FF0A0464FF0000C4FF080528DF8C9
:107C900017B04B46C6F808250DF117010122CDF8A3
:107CA00000C0404684F800C0FEF7ACFC08B14FE0CD
:107CB00020BF2378002BFBD00A23DAF800202749C5
:107CC00000BF00BF00BF00BF00BF00BF00BF00BFBC
:107CD0008A422FD000BF00BF00BF00BF00BF00BF5F
:107CE00000BF00BF00BF00BF00BF00BF00BF00BF9C
:107CF00000BF00BF00BF00BF00BF00BF00BF00BF8C
:107D000000BF00BF00BF00BF00BF00BF00BF00BF7B
:107D100000BF00BF00BF00BF00BF00BF00BF00BF6B
:107D200000BF00BF00BF00BF00BF00BF00BF00BF5B
:107D300000BF00BF013BC3D10135BD42A3D1029BAF
:107D4000039A0133934202939AD107B0BDE8F08FB2
:107D5000FCF7BEFAADE700BF152D00200024F400AB
:107D6000CC210020142D002000EC020070B5274C1F
:107D7000274D2268286882B0FF230A3A0230D2B227
:107D8000C0B2009300210A23FFF740FF2268286851
:107D900000260A3A0230D2B231460A23C0B2009617
:107DA000FFF734FF23682968013BB342B8BF194A83
:107DB0002360194CB8BF167022688A4213DC033264
:107DC000914210DC154D2A68A2F108018B420ADBB2
:107DD000934208DA124A1368013B002B136004DD5A
:107DE0000C4B00221A7002B070BD0022FF230093DA
:107DF000114610460323FFF709FF00232A78207855
:107E0000009303210923FFF701FFE9E7C4210020C4
:107E1000182D0020D42C0020B8210020C8210020DB
:107E20009C2100202DE9F04FA04DA14E286883B081
:107E300000240238C0B20094192374220921FFF7EC
:107E4000E5FE286832780327023021463B46C0B25F
:107E50000097FFF7DBFE286832784FF0E00B3844DC
:107E60003B462146C0B2CDF800B0FFF7CFFE3268E6
:107E700028684FF01F08043202303B462146D2B238
:107E8000C0B2CDF80080FFF7C1FE326828684FF01D
:107E9000FC09384404323B462146D2B2C0B2CDF888
:107EA0000090FFF7B3FE32682878CDF800900732D3
:107EB0002146D2B20423FFF7A9FE32682868CDF824
:107EC0000080073205302146D2B2C0B20423FFF74A
:107ED0009DFE32682868CDF800800B3201302346C1
:107EE0002146D2B2C0B2FFF791FE326828680097EF
:107EF0000A32013023462146D2B2C0B2FFF786FED5
:107F000032682868CDF80090083202302146D2B29B
:107F1000C0B20123FFF77AFE32682868CDF800B0BE
:107F20000A3202302146D2B2C0B20123FFF76EFE00
:107F300032682868CDF80080384408322146D2B231
:107F4000C0B20123FFF762FE326828680097384408
:107F50000A322146D2B2C0B20123FFF757FE32687F
:107F60002868CDF800900B32043023462146D2B267
:107F7000C0B2FFF74BFE32682868CDF800B00A3275
:107F8000043023462146D2B2C0B2FFF73FFE32682A
:107F900028784FF0FF0A0C32D2B2CDF800A00223AD
:107FA0000521FFF733FE32682878CDF800A00E32A5
:107FB0003B462146D2B2FFF729FE32682878CDF839
:107FC000009010322146D2B20123FFF71FFE326823
:107FD0002868CDF800A00E3205303B462146D2B2CB
:107FE000C0B2FFF713FE32682868CDF80080103267
:107FF00005302146D2B2C0B20123FFF707FE326836
:10800000286800970F32013023462146D2B2C0B211
:10801000FFF7FCFD32682868CDF80080103201308F
:108020002146D2B2C0B20123FFF7F0FD32682868C2
:10803000CDF80090103202302146D2B2C0B20123F6
:10804000FFF7E4FD32682868CDF800B00F32043045
:1080500023462146D2B2C0B2FFF7D8FD3268286865
:10806000CDF80090103204302146D2B2C0B20123C4
:10807000FFF7CCFD32682868CDF800803844103214
:108080002146D2B2C0B20123FFF7C0FD3268286892
:10809000CDF800A00F320230D2B2C0B22346012187
:1080A000FFF7B4FD03B0BDE8F08F00BFB0210020A2
:1080B000BC21002008B50020FBF7BEFF044A13686E
:1080C000002BC4BF023B1360BDE80840FFF7AABE07
:1080D000B021002008B50020FBF7AEFF044A13686A
:1080E0002A2BDCBF02331360BDE80840FFF79ABEBD
:1080F000B021002010B584B0FFF794FE04A9292315
:1081000001F8013D4FF0A0434FF080522A4CC3F8D4
:108110000C25002200922270284B29480122FEF7EC
:1081200071FA08B145E020BF2378002BFBD0254B26
:1081300025491A680A2300BF00BF00BF00BF00BF67
:1081400000BF00BF00BF8A422FD000BF00BF00BFEA
:1081500000BF00BF00BF00BF00BF00BF00BF00BF27
:1081600000BF00BF00BF00BF00BF00BF00BF00BF17
:1081700000BF00BF00BF00BF00BF00BF00BF00BF07
:1081800000BF00BF00BF00BF00BF00BF00BF00BFF7
:1081900000BF00BF00BF00BF00BF00BF00BF00BFE7
:1081A00000BF00BF00BF00BF00BF013BC3D104B090
:1081B00010BDFCF78DF8B7E7152D0020142D002019
:1081C00000EC0200CC2100200024F400924B1B683C
:1081D000002B40F3E4852DE9F04F8DB08F4B0393D6
:1081E0008F4B049300258F4B8F4C904F904E0595ED
:1081F0004FF080590693039B049953F8042F03937F
:1082000051F8043F04912A205FFA82FA5FFA83F85A
:10821000FFF728FC0020FFF78FFC5046FFF78CFC8F
:108220000020FFF789FC5046FFF786FC2B20FFF764
:1082300019FC0020FFF780FC4046FFF77DFC002082
:10824000FFF77AFC08F10200C0B2FFF775FC2C20A2
:10825000FFF708FCDFF8E0B14FF003084FF0A04A49
:108260004FF080528DF821503346CAF808250DF1A1
:1082700021010122009558462570FEF7C3F910B17F
:1082800000F04FBD20BF2378002BFBD00A233A68B3
:10829000684900BF00BF00BF00BF00BF00BF00BFF4
:1082A00000BF8A422FD000BF00BF00BF00BF00BF89
:1082B00000BF00BF00BF00BF00BF00BF00BF00BFC6
:1082C00000BF00BF00BF00BF00BF00BF00BF00BFB6
:1082D00000BF00BF00BF00BF00BF00BF00BF00BFA6
:1082E00000BF00BF00BF00BF00BF00BF00BF00BF96
:1082F00000BF00BF00BF00BF00BF00BF00BF00BF86
:1083000000BF00BF00BF013BC3D1B8F10108A7D136
:10831000049903980B680793069BD0F8008053F8E4
:10832000042B0693079B03F1010A9AFBF2F302FB6D
:1083300013A3C1F800A01BB908F10108C0F8008020
:108340004FF0A0422A238DF82F300DF12F01C2F8F3
:108350000C95334601220095374825705FFA88F85E
:108360005FFA8AFAFEF74EF910B100F0F7BC20BFB1
:108370002378002BFBD00A233A682E4900BF00BFA8
:1083800000BF00BF00BF00BF00BF00BF8A422FD0A8
:1083900000BF00BF00BF00BF00BF00BF00BF00BFE5
:1083A00000BF00BF00BF00BF00BF00BF00BF00BFD5
:1083B00000BF00BF00BF00BF00BF00BF00BF00BFC5
:1083C00000BF00BF00BF00BF00BF00BF00BF00BFB5
:1083D00000BF00BF00BF00BF00BF00BF00BF00BFA5
:1083E00000BF00BF00BF00BF00BF00BF00BF00BF95
:1083F000013BC3D14FF0A0428DF82E503346C2F856
:1084000008950DF12E01009501220B482570FEF70D
:10841000F9F8A0B100F092BCD82C00208C2E0020DE
:10842000642E00203C2E0020152D0020CC210020A1
:10843000142D00200024F40000EC020020BF23785B
:10844000002BFBD00A233A687A4900BF00BF00BF67
:1084500000BF00BF00BF00BF00BF8A422FD000BFD7
:1084600000BF00BF00BF00BF00BF00BF00BF00BF14
:1084700000BF00BF00BF00BF00BF00BF00BF00BF04
:1084800000BF00BF00BF00BF00BF00BF00BF00BFF4
:1084900000BF00BF00BF00BF00BF00BF00BF00BFE4
:1084A00000BF00BF00BF00BF00BF00BF00BF00BFD4
:1084B00000BF00BF00BF00BF00BF00BF00BF013B47
:1084C000C3D14FF0A0428DF82D803346C2F80895F5
:1084D0000DF12D010095012257482570FEF792F805
:1084E00010B100F027BC20BF2378002BFBD00A235B
:1084F0003A68504900BF00BF00BF00BF00BF00BFC7
:1085000000BF00BF8A422FD000BF00BF00BF00BF26
:1085100000BF00BF00BF00BF00BF00BF00BF00BF63
:1085200000BF00BF00BF00BF00BF00BF00BF00BF53
:1085300000BF00BF00BF00BF00BF00BF00BF00BF43
:1085400000BF00BF00BF00BF00BF00BF00BF00BF33
:1085500000BF00BF00BF00BF00BF00BF00BF00BF23
:1085600000BF00BF00BF00BF013BC3D14FF0A0421E
:108570008DF82C503346C2F808950BA900950122BE
:108580002D482570FEF73EF808B1E4E320BF2378BC
:10859000002BFBD00A233A68264900BF00BF00BF6A
:1085A00000BF00BF00BF00BF00BF8A422FD000BF86
:1085B00000BF00BF00BF00BF00BF00BF00BF00BFC3
:1085C00000BF00BF00BF00BF00BF00BF00BF00BFB3
:1085D00000BF00BF00BF00BF00BF00BF00BF00BFA3
:1085E00000BF00BF00BF00BF00BF00BF00BF00BF93
:1085F00000BF00BF00BF00BF00BF00BF00BF00BF83
:1086000000BF00BF00BF00BF00BF00BF00BF013BF5
:10861000C3D14FF0A0428DF82B803346C2F80895A5
:108620000DF12B010095012203482570FDF7EAFFAB
:1086300028B18DE30024F40000EC020020BF237871
:10864000002BFBD00A233A687A4900BF00BF00BF65
:1086500000BF00BF00BF00BF00BF8A422FD000BFD5
:1086600000BF00BF00BF00BF00BF00BF00BF00BF12
:1086700000BF00BF00BF00BF00BF00BF00BF00BF02
:1086800000BF00BF00BF00BF00BF00BF00BF00BFF2
:1086900000BF00BF00BF00BF00BF00BF00BF00BFE2
:1086A00000BF00BF00BF00BF00BF00BF00BF00BFD2
:1086B00000BF00BF00BF00BF00BF00BF00BF013B45
:1086C000C3D14FF0A0422B238DF82A300DF12A019F
:1086D000C2F80C9533460095012257482570FDF7E6
:1086E00091FF08B131E320BF2378002BFBD00A2390
:1086F0003A68504900BF00BF00BF00BF00BF00BFC5
:1087000000BF00BF8A422FD000BF00BF00BF00BF24
:1087100000BF00BF00BF00BF00BF00BF00BF00BF61
:1087200000BF00BF00BF00BF00BF00BF00BF00BF51
:1087300000BF00BF00BF00BF00BF00BF00BF00BF41
:1087400000BF00BF00BF00BF00BF00BF00BF00BF31
:1087500000BF00BF00BF00BF00BF00BF00BF00BF21
:1087600000BF00BF00BF00BF013BC3D14FF0A0421C
:108770008DF829503346C2F808950DF1290100956E
:1087800001222D482570FDF73DFF08B1DAE220BF38
:108790002378002BFBD00A233A68264900BF00BF8C
:1087A00000BF00BF00BF00BF00BF00BF8A422FD084
:1087B00000BF00BF00BF00BF00BF00BF00BF00BFC1
:1087C00000BF00BF00BF00BF00BF00BF00BF00BFB1
:1087D00000BF00BF00BF00BF00BF00BF00BF00BFA1
:1087E00000BF00BF00BF00BF00BF00BF00BF00BF91
:1087F00000BF00BF00BF00BF00BF00BF00BF00BF81
:1088000000BF00BF00BF00BF00BF00BF00BF00BF70
:10881000013BC3D14FF0A0428DF828A03346C2F8E7
:1088200008950AA90095012203482570FDF7EAFE84
:1088300028B1A9E20024F40000EC020020BF237854
:10884000002BFBD00A233A687C4900BF00BF00BF61
:1088500000BF00BF00BF00BF00BF8A422FD000BFD3
:1088600000BF00BF00BF00BF00BF00BF00BF00BF10
:1088700000BF00BF00BF00BF00BF00BF00BF00BF00
:1088800000BF00BF00BF00BF00BF00BF00BF00BFF0
:1088900000BF00BF00BF00BF00BF00BF00BF00BFE0
:1088A00000BF00BF00BF00BF00BF00BF00BF00BFD0
:1088B00000BF00BF00BF00BF00BF00BF00BF013B43
:1088C000C3D14FF0A0428DF827503346C2F8089527
:1088D0000DF127010095012259482570FDF792FE00
:1088E00008B14EE220BF2378002BFBD00A233A6860
:1088F000524900BF00BF00BF00BF00BF00BF00BFA4
:1089000000BF8A422FD000BF00BF00BF00BF00BF22
:1089100000BF00BF00BF00BF00BF00BF00BF00BF5F
:1089200000BF00BF00BF00BF00BF00BF00BF00BF4F
:1089300000BF00BF00BF00BF00BF00BF00BF00BF3F
:1089400000BF00BF00BF00BF00BF00BF00BF00BF2F
:1089500000BF00BF00BF00BF00BF00BF00BF00BF1F
:1089600000BF00BF00BF013BC3D14FF0A0420AF1DE
:10897000020A8DF826A03346C2F808950DF12601AB
:10898000009501222E482570FDF73CFE08B1F5E167
:1089900020BF2378002BFBD00A233A68274900BF69
:1089A00000BF00BF00BF00BF00BF00BF00BF8A42C2
:1089B0002FD000BF00BF00BF00BF00BF00BF00BF7F
:1089C00000BF00BF00BF00BF00BF00BF00BF00BFAF
:1089D00000BF00BF00BF00BF00BF00BF00BF00BF9F
:1089E00000BF00BF00BF00BF00BF00BF00BF00BF8F
:1089F00000BF00BF00BF00BF00BF00BF00BF00BF7F
:108A000000BF00BF00BF00BF00BF00BF00BF00BF6E
:108A100000BF013BC3D14FF0A0422C238DF825307D
:108A20000DF12501C2F80C9533460095012204484A
:108A30002570FDF7E7FD30B19DE100BF0024F40093
:108A400000EC020020BF2378002BFBD00A233A68F9
:108A50007B4900BF00BF00BF00BF00BF00BF00BF19
:108A600000BF8A422FD000BF00BF00BF00BF00BFC1
:108A700000BF00BF00BF00BF00BF00BF00BF00BFFE
:108A800000BF00BF00BF00BF00BF00BF00BF00BFEE
:108A900000BF00BF00BF00BF00BF00BF00BF00BFDE
:108AA00000BF00BF00BF00BF00BF00BF00BF00BFCE
:108AB00000BF00BF00BF00BF00BF00BF00BF00BFBE
:108AC00000BF00BF00BF013BC3D14FF0A0421C2339
:108AD0008DF8243009A9C2F8089533460095012283
