:100000000000012051520000795200007B52000094
:100010007D5200007F52000081520000000000006D
:1000200000000000000000000000000083520000FB
:100030008552000000000000875200008952000035
:100040008B5200008B520000A135000029310000C6
:100050008B5200008B520000692900008B52000077
:100060008B5200008B5200008B5200008B5200001C
:100070008B5200008B5200008B5200008B5200000C
:100080008B520000F11200008B5200008B520000D6
:10009000911300008B5200008B5200008B52000025
:1000A0008B5200008B5200008B5200008B520000DC
:1000B0008B5200008B520000000000000000000086
:1000C0008B5200008B5200008B5200008B520000BC
:1000D0008B5200008B5200008B5200000000000089
:1000E0000000000000000000000000000000000010
:1000F0000000000000000000000000000000000000
:1001000000000000000000000000000000000000EF
:1001100000000000000000000000000000000000DF
:1001200000000000000000000000000000000000CF
:1001300000000000000000000000000000000000BF
:1001400000000000000000000000000000000000AF
:10015000000000000000000000000000000000009F
:10016000000000000000000000000000000000008F
:10017000000000000000000000000000000000007F
:10018000000000000000000000000000000000006F
:10019000000000000000000000000000000000005F
:1001A000000000000000000000000000000000004F
:1001B000000000000000000000000000000000003F
:1001C000000000000000000000000000000000002F
:1001D000000000000000000000000000000000001F
:1001E000000000000000000000000000000000000F
:1001F00000000000000000000000000000000000FF
:1002000010B5054C237833B9044B13B10448AFF350
:1002100000800123237010BD2C020020000000008C
:10022000005D000008B5034B1BB103490348AFF361
:10023000008008BD0000000030020020005D0000CA
:10024000154B002B08BF134B9D46A3F5803A0021A8
:100250008B460F461348144A121A05F03CFA0F4B0E
:10026000002B00D098470E4B002B00D09847002061
:10027000002104000D000D48002802D00C48AFF307
:10028000008005F0D9F92000290004F065FF05F091
:10029000BFF900BF000008000000012000000000BE
:1002A000000000002C020020800A00200000000056
:1002B00000000000F0B595B0002415460F46084632
:1002C0001E4602F01BF9384623460895082205A968
:1002D0001A9D09960D950A948DF82C400C9402F005
:1002E00073F99DF814308DF81040DDE9061003F025
:1002F0000302012A0290ADF80C102BD0022A04D080
:10030000384602F00BF915B0F0BDBDF81650C3F336
:10031000C202C3F38003AD098DF80E208DF80F30B3
:100320000826082D2C4628BF0824334622460EA94D
:10033000384602F049F92D1B214608AB02AA0EA847
:10034000264400F09FFC002DEBD1384602F0E6F881
:1003500015B0F0BDBDF814500598C5F38315C3F36F
:10036000C20CAA000EA9C3F38004C0F3952608238B
:1003700038468DF80EC08DF80F4002F025F908AB15
:100380002A4630460EA9009302AB00F0E3FB384644
:1003900002F0C4F815B0F0BD014B01221A7070478D
:1003A0008C020020704700BF70B50E4D0E4888B01B
:1003B00002F0C8FF0FCD6C460FC495E80F0008ADE2
:1003C000062645F8206D84E80F00294600220648DD
:1003D00002F0D0FE08B100F077FE044B00221A7044
:1003E00008B070BD2C5A0000000000204802002018
:1003F00000B583B0044B0093044A4023FFF75AFF33
:1004000003B05DF804FB00BF110400004C020020A3
:1004100010B5094C09480023D2B2237003F016F836
:1004200030B9074B1B7813B12378002BFCD010BDDB
:1004300000F04AFEF5E700BF8C020020000000201B
:100440004802002070B50D4D0FCD88B06C460FC42A
:1004500095E80F0008AD062645F8206D84E80F00EA
:100460002946074A074802F085FE08B100F02CFE35
:10047000054B01221A7008B070BD00BF2C5A000055
:1004800099030000000000204802002010B5054C30
:10049000FFF7D8FF2046042100F01AFB0123637206
:1004A00010BD00BF080000202DE9F0477F4C00235D
:1004B00084B0C4F81834BFF34F8FD4E9017607EA4B
:1004C0000601CB1C04EB830214F8233098073D4649
:1004D0000FD1138852889B0903EB921301331D44FB
:1004E00006EA0501CB1C04EB830214F823309B07BA
:1004F000EFD004EB81016A1CCB680193324004EB1E
:10050000820203F00303D2680292022B05F1020873
:100510000FD0012B70D0032B06D02068C01B18BF52
:10052000012004B0BDE8F087D4F818040028F4D105
:10053000F7E7BDF806305E484FEA93194D46502D57
:1005400028BF502565F38F1305F10801ADF806307B
:1005500001F092FF074600284CD026EA080A0AF16B
:10056000010A01F0CBFF4FEA8A0A0023082201A901
:10057000384601F0FBFF554540F28B80EBB2BAF1F3
:10058000000F7FD006EA0801A3EB0A03033104EB56
:100590008101DDB252460823384601F0E7FF2A46C2
:1005A0000AF108034349384601F0E0FF09F1030965
:1005B00008EB9909D4F81834002B5ED1D4F8105404
:1005C00055B16B7A28463946002B52D02B681B68F0
:1005D00098476D68002DF4D1384601F09FFF002048
:1005E00001F062FBD4F818340BB9C4F80490002071
:1005F00001F062FB676890E7BDF804302C48C3F354
:100600008311062928BF062161F38913023189006D
:10061000ADF8043001F030FF07460028EAD001F0C1
:100620006DFF0023082201A9384601F09FFFBDF8A5
:10063000043013F4707F37D06FF0010AAAEB050A7B
:10064000082506EA080103312B46042204EB810148
:10065000384601F08BFFBDF8043008F101090AEBC0
:100660000902C3F383139A42C84605F10405E8D38F
:10067000A0E76D68002DA4D1AEE7384601F04EFF2B
:1006800067684AE72A4608230A49384601F06EFFA0
:100690008CE706EA0801033104EB81012A460823AE
:1006A000384601F063FF81E7C14683E790020020EE
:1006B000585A00009C02002008B50E4B0E4800223C
:1006C000FF21C3F818249960C3E90022C3F8142459
:1006D00083F81C2401F0CEFE58B90849084BC91A0A
:1006E000C90806D0074A034622F80C3B0133994259
:1006F000FAD108BD90020020585A00002C5D00007D
:10070000045D0000F001002021B9134A02EBC00093
:100710000068704730B411490F4C091BC90816D046
:100720000F4B5A88824218BF002205D111E0DD89A3
:10073000854203F10C0305D001329142F7D100202C
:1007400030BC704704EBC200006830BC70470846FC
:10075000F6E72046F8E700BF045D00002C5D0000CE
:10076000F0010020094B013903EBC00003290BD82D
:10077000DFE801F002080604022070474079704764
:10078000007970470420704700207047045D000026
:100790002DE9F04F604C89B0A368029000200193CE
:1007A000039101F081FAD4E901E0D4F8008000EB74
:1007B0000E030133A3EB0803032B61D800F1010AF8
:1007C000AAEB080A04F5836C04F2144600EA0E0949
:1007D000012500275CE8003F43EA05024CE80021C0
:1007E00091F0000FF6D156E8003F43EA050246E8D3
:1007F000002191F0000FF6D109F1030304EB83010E
:1008000014F823309B07CB46724610D10B884988D9
:100810009B0903EB911301331A4400EA020B0BF11D
:10082000030304EB830114F823309B07EED004EBA1
:100830008B0B0232DBF80C30059303F00303012B22
:1008400064D0022B05D1BDF816309B09033302EBAF
:10085000930256E8003F03EA070146E8001B9BF0BD
:10086000000FF6D143B10AEB0203032B626007D8F5
:10087000964600EA0209ADE70AEB0E03032BA9D95D
:1008800008EA0000033008F1020214F8203043F0B7
:10089000030304F820300020226001F00DFA019AD1
:1008A000029908F10103134004EB830302EA0808EC
:1008B00008F103080A0CDA6014F828300A0962F318
:1008C000820361F3C50304F8283034F82830039A12
:1008D0006FF3891324F8283054F8283062F39F23EB
:1008E0001A46012161F3010244F8283004F8282057
:1008F00094F81C341BB906E0FFF7D6FD18B1D4E913
:1009000000329A42F8D109B0BDE8F08FBDF814303A
:10091000C3F383131A449CE7900200202DE9F04FA3
:10092000644C89B0A368019000200093CDE90212C5
:1009300001F0BAF9D4E901E0D4F8008000EB0E032D
:100940000133A3EB0803042B61D800F1010AAAEBE1
:10095000080A04F5836C04F2144600EA0E09012526
:1009600000275CE8003F43EA05024CE8002191F0D3
:10097000000FF6D156E8003F43EA050246E80021A1
:1009800091F0000FF6D109F1030304EB830114F891
:1009900023309B07CB46724610D10B8849889B09B0
:1009A00003EB911301331A4400EA020B0BF103032A
:1009B00004EB830114F823309B07EED004EB8B0B80
:1009C0000232DBF80C30059303F00303012B6BD0EC
:1009D000022B05D1BDF816309B09033302EB9302BD
:1009E00056E8003F03EA070146E8001B9BF0000FB2
:1009F000F6D143B10AEB0203042B626007D8964696
:100A000000EA0209ADE70AEB0E03042BA9D908EAB4
:100A10000000033008F1030214F8203043F0030310
:100A200004F820300020226001F046F90099019876
:100A3000039D08F1020208F101030A400B4004EB98
:100A4000820204EB830301EA080808F10308010CA1
:100A5000D560D96014F82830020962F3820360F38C
:100A6000C50304F8283034F82830029A012161F3D4
:100A7000891324F8283054F8283062F39F231A464B
:100A800061F3010244F8283004F8282094F81C345B
:100A90001BB906E0FFF708FD18B1D4E900329A420D
:100AA000F8D109B0BDE8F08FBDF81430C3F383135B
:100AB0001A4495E790020020044BD3E900239A42A0
:100AC00001D0FFF7F1BC0020704700BF900200206A
:100AD00030B4154DD5F81044002154B1237A8B421F
:100AE00013D0234602E01A7A8A420ED05B68002BAC
:100AF000F9D10172D5F810347BB15B684360D5F849
:100B00001034586030BC0846704701310A29E4D1DE
:100B10004FF0FF31084630BC7047C5F81004436001
:100B200030BC0846704700BF9002002038B5084B23
:100B3000D3F81044012583F81C543CB12368657236
:100B400020465B6898476468002CF7D138BD00BF29
:100B5000900200202DE9F04784B01D460C9C002334
:100B600094F80C802373EB7981460E461746DBB16F
:100B7000062F09D8DFE807F00430363D46515E0005
:100B80004946204601F002F9EB792BB92B7AEBB9F3
:100B90003649204601F0FAF8204601F0EBF884F8D7
:100BA0000C8004B0BDE8F0872B7AA888A979002BC7
:100BB0004FD12F4B53F821A00021FFF7A5FD52463E
:100BC00003462C49204601F0E1F8D1E72A4A2B4997
:100BD000204601F0DBF8DBE732684946204601F0A9
:100BE000D5F8D1E74946D6E90023204601F0CEF8F2
:100BF000CAE7B168D6E9002320460091494601F0D2
:100C0000C5F8C1E7D6E90201D6E9002301910090B9
:100C10004946204601F0BAF8B6E7D6E90371B06854
:100C2000D6E900230291CDE900074946204601F0AC
:100C3000ADF8A9E7D6E90410D6E900230390D6E978
:100C400002070291CDE900074946204601F09EF8CF
:100C50009AE7FFF787FD0A4B084953F82020204602
:100C600001F094F8A979A888A3E700BFC05A000052
:100C7000C45A0000AC5A0000B85A0000A85A00003C
:100C8000705A000008295CD82DE9F04F1D469146A6
:100C900000232A7B2B7383B099F807300192074613
:100CA0000E46002B4ED0DFF808B1DFF80881002493
:100CB00005E03A5D013401F069F8082C09D0A6423C
:100CC00041462846F5D85946013401F05FF8082C12
:100CD000F5D13049DFF8E080DFF8E0B0284601F0D8
:100CE00055F8002411E017F804A004F0C9FC5044A2
:100CF0005946437813F0970F14BF52462E222846C8
:100D0000013401F043F8082C08D0A6424146284699
:100D1000E9D8013401F03AF8082CF6D199F80730F7
:100D200013B999F808300BBB1B49284601F02EF87F
:100D3000284601F01FF89DF804302B7303B0BDE87E
:100D4000F08F704799F80830B9F8040099F8061048
:100D500093B9124B53F821400021FFF7D5FC2246EE
:100D600003460F49284601F011F89CE70D4A0E4949
:100D7000284601F00BF8D7E7FFF7F4FC0B4B0A49C4
:100D800053F82020284601F001F899F80610B9F828
:100D90000400DEE7A05A0000C05A0000C45A000058
:100DA000AC5A0000B85A0000A85A0000705A00005F
:100DB0009C5A0000945A0000B45A0000A45A000043
:100DC000054A4FF0A043105CD3F8043523FA00F035
:100DD000C04300F001007047385B0000044B195C11
:100DE0004FF0A04201238B40C2F80C35704700BF82
:100DF000385B0000044B195C4FF0A04201238B408C
:100E0000C2F80835704700BF385B00004FF0A043C0
:100E100010B44FF480204FF400344FF400214FF40D
:100E20008012C3F80845C3F80805C3F80815C3F8CD
:100E300008255DF8044B70474FF0A04310B44FF401
:100E400080204FF400344FF400214FF48012C3F897
:100E50000C45C3F80C05C3F80C15C3F80C255DF858
:100E6000044B7047074B4FF0A041185CD1F8043594
:100E70000122824022EA03001340C1F80805C1F8AC
:100E80000C357047385B000030B44FF0A0430322AC
:100E90004FF400354FF480244FF400204FF48011BC
:100EA000C3F84427C3F84827C3F84C27C3F8502792
:100EB000C3F80855C3F80845C3F80805C3F8081572
:100EC00030BC70470D2809D00E2809D00F2809D052
:100ED00010280CBF03204FF0FF30704700207047F0
:100EE00001207047022070472DE9F84F254B93F8F9
:100EF00000C0BCF1000F31D0DFF88CB0DFF88CA05F
:100F0000DFF88C900024012703E00134E4B264454B
:100F100024D226B2DBF80050DAF8003015F836009B
:100F200007FA00F10B4205EBC608EED023EA0103F5
:100F3000CAF8003001F00EFD15F83660D9F800301F
:100F400007FA06F52B4000FA06F18B4208D00D4B4C
:100F5000013493F800C0E4B26445DAD3BDE8F88FF9
:100F600098F80110D8F80430A1F10101B1FA81F12B
:100F70004909091AB1FA81F14909002BE7D0304635
:100F80009847E4E780070020B0070020AC07002066
:100F9000A807002070B50646114800F051FE40B980
:100FA000104D01242B68B440234203D023EA0404EB
:100FB0002C6070BD304601F0CDFC0B490A6860B171
:100FC00022432B6809480A601C4301682C600448CE
:100FD0000022BDE8704000F0E5BD22EA0402F0E71F
:100FE00088070020AC070020A80700208407002005
:100FF000042A34D92DE9F04182B00F460646144642
:1010000001F06EFB002834D01C4A1D4B1D491660B0
:101010001F701D4A1D4B0C6000257C1E15601D6055
:10102000E4B2F7B106EBC404194F083E4FF00308D1
:1010300001E0B44215D0A37820788DF804803A46B8
:1010400001A98DF806508DF807508DF8053001F094
:1010500051FB083C0028ECD002B0BDE8F08107202D
:1010600070470C4A0C48002100F08AFD02B0BDE830
:10107000F08101F0FBFA0028C6D0EDE7B0070020B0
:101080008007002084070020A8070020AC0700206C
:10109000950F0000E90E00003C5B000070B5084DA4
:1010A0002B785BB1074E00243368012113F834001C
:1010B00001F0EEFB2B780134A342F5D8002070BD7F
:1010C00080070020B007002000B585B00023039002
:1010D000194601AA44F20100ADF80430029300F071
:1010E00003F805B05DF804FB10B5FFF71FFDFFF72F
:1010F000E3FC0028FBD1104C10492088000440F08C
:101100000100FFF745FB0E4B1B68DB0700D5FFDE38
:1011100020880C49000440F00200FFF739FBBFF3C0
:101120004F8F0949094BCA6802F4E0621343CB6050
:10113000BFF34F8F00BFFDE7F0010020405B0000D0
:10114000F0ED00E04C5B000000ED00E00400FA056B
:10115000F0B412F0030412D14B1CDB000A4D0B4E0D
:101160000B4F34709BB213442B600A4E0A4D0B4B4D
:1011700028803A60347019802046F0BC70470724FC
:101180002046F0BC704700BFB8070020B40700201D
:10119000BC070020C4070020C0070020C2070020B1
:1011A0002DE9F047294F3B888B4235D30546002077
:1011B00016460C4600F078FD254B264A264819783D
:1011C00013780088DBB2834238BF0133C9B234BF21
:1011D000DBB20023994222D092F800801378DFF826
:1011E0008090DBB2984286BF0133DBB200235FFA06
:1011F00088F80020137000F05FFDD9F800300FFA76
:1012000088F24FEAC20A43F83260534405B164B928
:1012100000209880BDE8F0870920BDE8F087002015
:1012200000F04AFD0420BDE8F0870C4B38881B68AD
:10123000294608FB0030224604F042FAD9F8003073
:101240009A440020AAF80440E4E700BFC007002049
:10125000C4070020B4070020C2070020B807002000
:10126000BC0700202DE9F84F1B4C1C4D22782B7831
:101270009A4226D0DFF86CA0DFF86C90184FDFF8A8
:101280006CB04FF000082378DAF800203888D9F8DD
:101290000060DBB20FFA83FE02EBCE0103FB0060BD
:1012A000898852F83E3098472378BBF80010DBB2AB
:1012B0005A1C9942D2B206D9227023782A789A42CF
:1012C000E1D1BDE8F88F84F8008022782B789A422B
:1012D000D9D1BDE8F88F00BFC4070020B4070020B3
:1012E000C0070020BC070020B8070020C20700206C
:1012F000F8B5204A204B0024C2F84041C2F84441CE
:10130000C2F84841C2F84C41C2F80041C2F8044159
:101310001B6833B31949D2F804550A68AD1A1A6824
:1013200025F07F45AA4227460DD8197CDE69AD1A03
:10133000144419B11F74D3E9052090471EB13346F8
:101340001A68AA42F1D90E490E4A0B7812789A42CD
:1013500008D00D490D4A41F823404FF48013C2F8DC
:101360000031F8BD531CDBB2022B08BF00230B7009
:10137000EFE700BF00100140E8080020E40800206B
:10138000E1080020E0080020D808002000E100E08B
:101390002DE9F04FAF48B04AB04913780978D0F83A
:1013A0000090AF4889B000680290994200F04E81E9
:1013B0000133DBB2022B08BF00231370A94A52F895
:1013C0002300A44B09EB000727F07F471F60029B17
:1013D00000252A462C46AC46B3B11968814200F27A
:1013E0004D81DD68C3F800C0401A0C44D9693DB195
:1013F00009EB040626F07F46C3E90165DA611A4667
:101400000B460125002BE8D1002D40F09B810123E4
:1014100002990693B946944B944C1B7805934FF070
:1014200000084B46CDF81C80CDF80C804FF0010E23
:10143000C1468C469B4642B3D2E901651346D26948
:101440008B48A6EB0B0121F07F41814259D82944FA
:101450001960002083F810E0C3E90100D861BCF1F5
:10146000000F72D0DCF8000088425FD2664603E0CD
:101470002868884263D22E46F569091A002DF7D1F3
:101480001960DD61F361002AD6D1CA46CDF804B0F7
:1014900094F8019021784FF0000B1646894576D0DC
:1014A000084600EB400004EBC0004A1CA378D1B210
:1014B000027921708B4204BF84F800B00021022A17
:1014C000836853D0032A44D0012AE7D11F7C002F20
:1014D000E4D13246C6685E6005699D604169D960A5
:1014E000816999610599DDF804B0D1460029A7D03A
:1014F0003E46A6EB0B015E485F6021F07F418142D2
:10150000A5D9ABEB060121F07F41A94202D2691AAD
:1015100019609EE7002183F810E0C3E9001199608B
:10152000D961BCF1000F10D0DCF80000411ACCF8F2
:1015300000104FF00108C3F81CC09C467BE7401A1E
:1015400028601960DD61F3619DE79C464FF001085A
:1015500071E7BCF1000FA1D0624600231374D26979
:10156000002AFBD194464FF0010891E7BCF1000F2F
:1015700009D06345624603D192E083424FD00246D0
:10158000D0690028F9D183F810B0894588D1C346C5
:10159000DDF80490D046BBF1000F40F0D780079BE8
:1015A000002B40F01A82B8F1000F03D02E4B9DF8AB
:1015B00014201A702A4B1A68039B1BB9029B9A428B
:1015C00000F0C880002A00F0CC802A48214BD0F8D7
:1015D00004151B68284C15682678CA1A22F07F4229
:1015E0000332002E00F0A68195422CBF5B199B1898
:1015F000204823F07F43C0F84035D0F80425521A24
:101600005B1A22F07F4223F07F4303329A4200F2BA
:101610004781154A0023137009B0BDE8F08F93424B
:1016200036D0674604931D46E8692D68D06128B11D
:1016300002682A440260217894F801906745A2D09C
:101640000122BC46039283F810B09EE70022069266
:101650000146E0E6E4080020E0080020E108002060
:10166000E8080020D8080020D4080020C80700207F
:10167000FEFF7F0000100140D5080020002D40F043
:10168000B081091A19600123B94606930299C2E68E
:101690000493DCF81C7037B14FF00108049DC3E7D8
:1016A000CDF810C0F5E77748774DC0F808E07748E7
:1016B0004FF02F08006800BF00BF00BF00BF00BF91
:1016C00000BF00BF00BFA8422FD000BF00BF00BFB7
:1016D00000BF00BF00BF00BF00BF00BF00BF00BF12
:1016E00000BF00BF00BF00BF00BF00BF00BF00BF02
:1016F00000BF00BF00BF00BF00BF00BF00BF00BFF2
:1017000000BF00BF00BF00BF00BF00BF00BF00BFE1
:1017100000BF00BF00BF00BF00BF00BF00BF00BFD1
:1017200000BF00BF00BF00BF00BFB8F10108C2D1B9
:101730004FF0010A0197CDF814A0CDF81CA0D046B7
:10174000049D71E7524902930B6060E6504BC3F869
:1017500000C024E7069B002B3FF45BAF002A7FF418
:1017600034AF48494B4B494E474C4FF480304FF40F
:1017700000370125C3F88070C1F848032F23C1F852
:1017800008034D6030681E4600BF00BF00BF00BFA9
:1017900000BF00BF00BF00BFA0422FD000BF00BFEE
:1017A00000BF00BF00BF00BF00BF00BF00BF00BF41
:1017B00000BF00BF00BF00BF00BF00BF00BF00BF31
:1017C00000BF00BF00BF00BF00BF00BF00BF00BF21
:1017D00000BF00BF00BF00BF00BF00BF00BF00BF11
:1017E00000BF00BF00BF00BF00BF00BF00BF00BF01
:1017F00000BF00BF00BF00BF00BF00BF013EC3D19C
:101800008D6025490A6000BF00BF00BF00BF00BF58
:1018100000BF00BF00BFA0422FD000BF00BF00BF6D
:1018200000BF00BF00BF00BF00BF00BF00BF00BFC0
:1018300000BF00BF00BF00BF00BF00BF00BF00BFB0
:1018400000BF00BF00BF00BF00BF00BF00BF00BFA0
:1018500000BF00BF00BF00BF00BF00BF00BF00BF90
:1018600000BF00BF00BF00BF00BF00BF00BF00BF80
:1018700000BF00BF00BF00BF00BF013BC3D1074B8B
:101880001A70C6E6001001400024F4001400002085
:10189000E808002000E100E0E4080020D50800206E
:1018A000D0F80435514AC0F84035126850492F230A
:1018B00000BF00BF00BF00BF00BF00BF00BF00BF30
:1018C0008A422FD000BF00BF00BF00BF00BF00BFD3
:1018D00000BF00BF00BF00BF00BF00BF00BF00BF10
:1018E00000BF00BF00BF00BF00BF00BF00BF00BF00
:1018F00000BF00BF00BF00BF00BF00BF00BF00BFF0
:1019000000BF00BF00BF00BF00BF00BF00BF00BFDF
:1019100000BF00BF00BF00BF00BF00BF00BF00BFCF
:1019200000BF00BF013BC3D1324B4FF40032C3F8BC
:1019300000216EE62F4EDFF8B4E0DFF8B4C04FF4BC
:101940008037C0F84473C0F804734FF40037C6F80A
:101950008071376001260660DEF800702F2000BF1E
:1019600000BF00BF00BF00BF00BF00BF00BF674592
:101970002FD000BF00BF00BF00BF00BF00BF00BF2F
:1019800000BF00BF00BF00BF00BF00BF00BF00BF5F
:1019900000BF00BF00BF00BF00BF00BF00BF00BF4F
:1019A00000BF00BF00BF00BF00BF00BF00BF00BF3F
:1019B00000BF00BF00BF00BF00BF00BF00BF00BF2F
:1019C00000BF00BF00BF00BF00BF00BF00BF00BF1F
:1019D00000BF0138C3D1267006E6074BC3F800905C
:1019E000E1E5064C029323604BE600BF14000020A3
:1019F0000024F40000E100E0E4080020E8080020F2
:101A0000F0B4554B554A564E564C4FF480304FF477
:101A100000310125C2F88010C3F848032F21C3F814
:101A200008035D6030680E4600BF00BF00BF00BF06
:101A300000BF00BF00BF00BFA0422FD000BF00BF4B
:101A400000BF00BF00BF00BF00BF00BF00BF00BF9E
:101A500000BF00BF00BF00BF00BF00BF00BF00BF8E
:101A600000BF00BF00BF00BF00BF00BF00BF00BF7E
:101A700000BF00BF00BF00BF00BF00BF00BF00BF6E
:101A800000BF00BF00BF00BF00BF00BF00BF00BF5E
:101A900000BF00BF00BF00BF00BF00BF013EC3D1F9
:101AA0009D6000BF00BF00BF00BF00BF00BF00BF00
:101AB00000BFA0422FD000BF00BF00BF00BF00BFCB
:101AC00000BF00BF00BF00BF00BF00BF00BF00BF1E
:101AD00000BF00BF00BF00BF00BF00BF00BF00BF0E
:101AE00000BF00BF00BF00BF00BF00BF00BF00BFFE
:101AF00000BF00BF00BF00BF00BF00BF00BF00BFEE
:101B000000BF00BF00BF00BF00BF00BF00BF00BFDD
:101B100000BF00BF00BF0139C3D1134E134C14499D
:101B2000144D154F00203070206008704FF4801461
:101B30000B26E0212880AE703870104DC2F880412D
:101B400082F814131460C3F8080582F81113D3F84F
:101B500004352B60F0BC70470010014000E100E04C
:101B6000140000200024F400D5080020E80800201C
:101B7000E0080020C8070020E1080020E408002059
:101B8000074B9B784BB132B128B10368187C20B960
:101B900059745A617047072070470820704700BF8A
:101BA000C80700202DE9F843224CA378002B35D03C
:101BB000002833D0042934D943697BB3437C0646DB
:101BC000012B4FF000000CBF88468046174689461F
:101BD00000F06AF86378A17822785D1CEDB2A94222
:101BE00008BF0025AA421FD003EB430304EBC30345
:101BF0000121114A9E601971D2F80425DA60002093
:101C0000C3E904989F61657000F056F80B4B4FF4E0
:101C10008012C3F800210020BDE8F8830820BDE849
:101C2000F8830720BDE8F883002000F045F8042081
:101C3000F2E700BFC80700200010014000E100E00B
:101C400070B5174DAB7823B318B343690BB30024B9
:101C500004740646204600F027F86A78A8782978A8
:101C6000531CDBB2984208BF2346994213D002EBC3
:101C7000420205EBC20202219660204611716B7090
:101C800000F01AF8074B4FF48012C3F800212046E9
:101C900070BD082070BD204600F00EF8042070BD15
:101CA000C807002000E100E072B6024A1368013361
:101CB00013607047EC080020034A1368013B13606F
:101CC00003B962B6704700BFEC080020B8B130B469
:101CD000D0E90112521A0468D2B2531E2160DBB25D
:101CE00042B101680A685C1E551C0D601370E3B2B6
:101CF000FF2BF6D103680020187130BC70470E200E
:101D0000704700BF38B504460020FFF7CDFFD4E987
:101D100000311A688A4215D9511E19602168A368DA
:101D20000868258A12F8012CE4681B1A0879DBB2CE
:101D3000984205FB024400D20B710020FFF7BCFF64
:101D4000204638BD0024F8E738B5054600200C468B
:101D5000FFF7AAFF2A681368591C1160E9682A8AEC
:101D6000641AB4FBF2F41C700020BDE83840FFF7A1
:101D7000A3BF00BF826842B110B504464369016841
:101D8000006998470023A36010BD70470EB400B5EA
:101D900082B0039929B102AA04AB42F8043D00F0D5
:101DA0008BF802B05DF804EB03B070472DE9F84FF3
:101DB00088469045174605461E46DDE90AB175D3AB
:101DC00043464FF00109B3FBF7F39F4209F10109C4
:101DD000F9D9B14538BFB14611F0010AAA6802D15C
:101DE000BBF1000F43D1012402E0013E07FB04F4E4
:101DF000012EFAD8B8FBF4F18F42F7D92D4E05E049
:101E0000B4FBF7F4A4B1B8FBF4F1AA68705C531CFE
:101E1000AB602B689854D5E901329A4204FB1188D3
:101E2000EED32846FFF7A6FFB4FBF7F4002CEAD167
:101E3000BAF1000F15D0BBF1000F12D0CB4510D96D
:101E40002024AB682A68591CA960D454D5E9013212
:101E50009A420BF1FF3B06D2BBF1000F01D0CB45FC
:101E6000EFD1BDE8F88F2846FFF784FFF4E78B0732
:101E700017D42024CB45B6D92B68511CA9609C549B
:101E8000D5E901329A420BF1FF3B05D2BBF1000FBD
:101E9000A9D0CB45F0D1A6E72846FFF76BFFAA688B
:101EA000F4E7002E0CBF30242024E3E74FF00109B3
:101EB0008FE700BF645B0000002900F0F4812DE98A
:101EC000F04F054685B092460C460B78DFF8A0B57A
:101ED00001E0237893B1013483B1252B15D0AA6892
:101EE0002968501CA8608B54D5E901329A42F0D37E
:101EF0002846FFF73FFF2378002BECD12B7B002BEC
:101F000040F0148105B0BDE8F08F2146002711F89C
:101F1000012B2D2A00F0E180302A00F0E2802B2AEC
:101F200000F0D2802A2A00F0E080A2F13006F3B25D
:101F3000092B03D9B8E1A3F130060146084606EBA8
:101F4000860310F8012BA2F13004092C02EB4303A5
:101F5000F1D92E2A00F0D5800023013101E011F8DB
:101F6000012B02F0FB0068280C46F8D0253A532AD2
:101F7000AFD801A151F822F039210000D31E000092
:101F8000D31E0000D31E0000D31E0000D31E00008D
:101F9000D31E0000D31E0000D31E0000D31E00007D
:101FA000D31E0000D31E0000D31E0000D31E00006D
:101FB000D31E0000D31E0000D31E0000D31E00005D
:101FC000D31E0000D31E0000D31E0000D31E00004D
:101FD000D31E0000D31E0000D31E0000D31E00003D
:101FE000D31E0000D31E0000D31E0000D31E00002D
:101FF000D31E0000D31E0000D31E0000D31E00001D
:10200000D31E0000D31E0000D31E0000D31E00000C
:10201000D31E0000D31E0000D31E0000D31E0000FC
:10202000D31E0000D31E0000D31E0000D31E0000EC
:10203000D31E0000D31E0000D31E0000D31E0000DC
:10204000D31E000053210000D31E0000D31E000049
:10205000D31E0000D31E0000D31E0000D31E0000BC
:10206000D31E0000D31E0000D31E0000D31E0000AC
:102070006D2100008F210000D31E0000D31E000040
:10208000D31E0000D31E00008F210000D31E0000CD
:10209000D31E0000D31E0000D31E0000D31E00007C
:1020A000D31E0000DF210000D31E0000D31E00005D
:1020B00053220000D31E00008D220000D31E00001A
:1020C000D31E00005321000047F004070C462146B0
:1020D00011F8012B2D2A7FF41FAF47F001070C46A2
:1020E000F5E747F002070C46F1E7DAF800301A1D71
:1020F000CAF8002062781E682E2A04F102007FF4DC
:102100002BAF4A78A2F13003092B00F25081002353
:1021100003EB830302EB430310F8012FA2F130011C
:102120000929A3F13003F3D9014616E7284605B083
:10213000BDE8F04FFFF71EBEAB682A68591CA960C6
:102140004FF02501D154D5E901329A42FFF4C1AED6
:10215000CEE6DAF80020111DCAF8001011682846F2
:10216000CDE900671022FFF721FEB2E6DAF8002081
:10217000131DCAF80030AB6829681278581CA86093
:10218000CA54D5E901329A42FFF4A3AEB0E6DAF8B8
:102190000020111DCAF80010D2F8008088EAE87209
:1021A000A2EBE872092A4FF0010107DDAF48A0FB5E
:1021B0000202D208092A01F10101F7DC994238BF75
:1021C0001946894607F00202002E71D12AB1002B70
:1021D00000F04781FA0700F18D8000268AE0DAF8E6
:1021E0000020131DCAF80030AB6829681768581C16
:1021F0003022A860CA54D5E90123934280F0288197
:102200002A68581C7821A860D154D5E9012393424B
:1022100080F019810F2F03D93A4612090F2AFCD8F2
:102220004FF0805603E036093FF453AEAB6829689F
:10223000B7FBF6F2581CA8601BF80200C854D5E999
:102240000131994206FB1277EDD32846FFF792FD44
:10225000E9E7DAF800301A1DCAF80020D3F8008048
:10226000FB077ED54746A7EB080917F8013B002B73
:102270005DD0AA682968501CA8608B54D5E901324A
:102280009A42F0D32846FFF775FDECE7DAF8002014
:10229000111DCAF8001011682846CDE900670A220E
:1022A000FFF784FD15E6704708460026214650E6F4
:1022B000B8F1000F01DB780700D5013E02B1CBB1C8
:1022C000F90717D4002E88D0B14513D220220393EA
:1022D000A9682B68481CA8605A54D5E90131994275
:1022E00006F1FF365DD2002E00F0BD80B145EFD182
:1022F000039B4E46B8F1000FC0F292807A070AD5D0
:10230000A9684A1CAA602A682B205054D5E90121EB
:10231000914280F0928007F00302022A5FD0CDE95B
:10232000006741460A222846FFF740FDD1E54E45A9
:102330007FF6CFAD202705E04E453FF4CAAD002E15
:102340003FF4C7ADAB682A68591CA960D754D5E9DA
:1023500001329A4206F1FF36EED32846FFF70AFD16
:10236000EAE7B8F1000F24D0404603F0BCF9074675
:10237000BE4220D9FEB14FF0200902E0BE421AD081
:10238000CEB1AB682A68591CA96002F80390D5E960
:1023900001329A4206F1FF36F0D32846FFF7EAFCF5
:1023A000ECE728460292FFF7E5FC029A9BE701461C
:1023B000D2E54746DCE708F1FF3818F8013F002B6B
:1023C0003FF487ADAA682968501CA8608B54D5E9F2
:1023D00001329A42F1D32846FFF7CCFCEDE7002BFF
:1023E0009DD1002E3BD0B14599D2029323464C4655
:1023F0009946AA682B68501C4FF03001A860995488
:10240000D5E901329A4206F1FF3605D22EB3B44225
:10241000EFD1029B4C4682E72846FFF7ABFCF5E77D
:10242000A9684A1CAA602A682D205054D5E90121C8
:102430009142C8F10008FFF46EAF28460293FFF7FF
:1024400099FC029B67E72846FFF794FCAB68E1E63E
:102450002846FFF78FFCAB68D2E6029B4C4600266D
:102460005DE71E4646E7039BB7E600BFCDCCCCCC6C
:10247000645B0000FFF72ABC2DE9F041058ACE1C01
:10248000043D2E440746B6FBF5F6FFF73BFC78B358
:10249000F6B24FF48073013E0446C5800760838026
:1024A00027D08046002509E06379AE4203F101039D
:1024B0006371C8F80000076080461AD03846FFF7FD
:1024C00021FC01350028EFD16679721E14D0234615
:1024D000013082421B68FBD11F684EB10025236882
:1024E0002146013538461C46FFF72EFCAE42F6D198
:1024F00000242046BDE8F0812768EFE710B40430DF
:10250000012350E8002F02EB030140E8001494F08F
:10251000000FF6D15DF8044B704700BF0146021D65
:10252000F8B5012052E8004FA4EB000342E8003563
:1025300095F0000FF6D113F0FF0300D0F8BD4E79EF
:10254000701E11D00A46013398421268FBD11768F9
:10255000002EF3D000240D6801343846FFF7F4FB59
:10256000A6422946F7D1F8BD0F68F3E72DE9F843F5
:102570000446181DE688B0FBF6F30F46904606FBAE
:10258000130013B1013B2468FCD1351A454528BF1F
:102590004546B8F1000F15D04FF000090430A8EB04
:1025A000050820442A4607EB090103F089F846454F
:1025B000A944246835464FF0000028BF4546B8F1CD
:1025C000000FEBD1BDE8F8832DE9F843C68804334A
:1025D00004460F46B3FBF6F0904606FB103110B1EF
:1025E00001382468FCD1751A454528BF4546B8F125
:1025F000000F15D04FF0000904312144A8EB050865
:102600002A4607EB090003F05BF84645A944246815
:1026100035464FF0000128BF4546B8F1000FEBD119
:10262000BDE8F8834901002810B4C9B2C3B215DB74
:1026300000F1604202F5614282F800134009800017
:1026400000F1604000F5614003F01F020123934058
:10265000C0F8803103605DF8044B7047024A03F014
:102660000F0422441176E9E7FCEC00E030B5194C88
:1026700094F8545083B055BB4FF0FF330721062028
:10268000C4E90033C4E90233C4E90433C4E90633BE
:10269000C4E90833C4E90A33C4E90C33C4E90E338E
:1026A000C4E91033C4E912332365FFF7BBFF0A4BBB
:1026B0000A4A1D601B68019301984FF000430121F5
:1026C000284684F85410C2F8043303B030BD082003
:1026D00003B030BDF00800207C6100400060004085
:1026E000034B93F85400003018BF0120704700BF1F
:1026F000F0080020F0B4654B1C1894F93050002D00
:1027000066DACE78002E5DD11D6A013500F0AD800D
:1027100009240C2553F8247001375DD004F1010C15
:1027200053F82C70013700F0AA8004F1020CAC457C
:1027300045D253F82C70013700F0A18004F1030C4E
:10274000AC453CD253F82C70013700F0988004F16E
:10275000040CAC4533D253F82C70013700F08F8055
:1027600004F1050CAC452AD253F82C70013700F067
:10277000868004F1060CAC4521D253F82C70013749
:102780007DD004F1070CAC4519D253F82C700137F9
:1027900075D004F1080CAC4511D253F82C700137F8
:1027A0006DD004F1090CAC4509D253F82C700137F7
:1027B00065D00A34AC4202D2DC6A01340BD004206A
:1027C000F0BC70471D6801355BD001240825A1E7E6
:1027D0000820F0BC70470B241F1865B243F8242072
:1027E00087F83050002E46D08A78B2B1820002F1CC
:1027F000A042D2F8004724F00204C2F80047CA7889
:102800000978B2B9083D2B44104693F8502042EAAB
:10281000811183F85010F0BC70474C7800F5E072DD
:102820004FF0A046A40046F82240CA780978002A52
:10283000E8D0AB0003F1804303F5C0430002D3F8B6
:10284000102522F4473222F44072C3F810250904FF
:1028500000F4F850D3F8102501F44031014311433E
:10286000C3F810150020F0BC7047082684F83060CB
:102870001A62354634461C4484F84800B4E764467E
:10288000AAE700251A6084F83050ADE7F008002070
:1028900070B42E4D2E1883B096F93030072B1CDD06
:1028A0002B4493F848309B09032B41D0012B14BFD4
:1028B0004FF440314FF40031800000F1A040D0F8D7
:1028C000002722F44032C0F80027D0F800370B432D
:1028D000C0F8003703B070BC7047DAB2072AF9D8E5
:1028E000980000F1804000F5C04003F14002D0F8AC
:1028F0001045920092B244F0010402F18042C0F807
:10290000104502F5C04200200190019C1060002992
:10291000E0D096F9302055F82220002ADAD00122A2
:102920000B4902FA03F3C1F8043303B070BC7047DB
:102930004FF0A043D3F81035C34013F0010F0CBF84
:102940004FF400314FF44031B6E700BFF0080020EB
:10295000006000404FF0A043D3F8103523FA00F098
:1029600000F00100704700BF2DE9F04186B0002360
:10297000A14A01931668012E00F054811E469F4B18
:102980001A68012A00F05D819D4B1A68012A00F047
:102990006A819C4B1A68012A00F077819A4B1A6869
:1029A000012A00F08481994B1A68012A00F0918174
:1029B000974B1A68012A00F09E81964B1A68012AEB
:1029C0000CD0954B1B68012B00F0A58116F0FF0F72
:1029D00015D1002E30DB06B0BDE8F0818F4AD2F869
:1029E00004231706EDD500221A601A68049260339A
:1029F000049A1B68012B46F0800600F08C81884FFA
:102A000000240125A30003F18043354203F5C043B0
:102A10004FEA45050BD0D3F8100557F82420D3F81A
:102A20001015C0F30420C1F3014102B190470134F5
:102A3000082CE7D1002ECEDA00224FF0FF33CDE98B
:102A40000223774C012602AF94F950305D1C2CD044
:102A5000DBB223F0C00006AA4FEAD00C02EB0C0E4A
:102A600003F007021EF80C1C06FA02F211421CD0F9
:102A70002518990995F9303054F82330002B00F0CF
:102A80009881032900F098814FEA800C0CF1A04C4A
:102A90001EF8145CDCF800E71540CEF3014E40F060
:102AA0005C81BEF1030F00F0DE81002594F9513006
:102AB000581C2DD0DBB223F0C00006AA4FEAD00884
:102AC00002EB080E03F007011EF80C2C06FA01FCBD
:102AD00012EA0C0F1CD02218990992F9303054F8E0
:102AE0002330002B00F05B81032900F05B81820022
:102AF00002F1A0421EF8148CD2F800E718EA0C0F7D
:102B0000CEF3014E40F03681BEF1030F00F0A681F6
:102B100094F95230591C2DD0DBB223F0C00006AA24
:102B20004FEAD00802EB080E03F007011EF80C2C48
:102B300006FA01FC12EA0C0F1CD02218990992F92E
:102B4000303054F82330002B00F03C81032900F092
:102B50003C81820002F1A0421EF8148CD2F800E7FA
:102B600018EA0C0FCEF3014E40F0E380BEF1030FE4
:102B700000F06E8194F953305A1C2DD0DBB223F053
:102B8000C00006AA4FEAD00802EB080E03F00701C6
:102B90001EF80C2C06FA01FC12EA0C0F1CD02218AD
:102BA000990992F9303054F82330002B00F0ED8071
:102BB000032900F0ED80820002F1A0421EF8148C7F
:102BC000D2F800E718EA0C0FCEF3014E40F0BC80BB
:102BD000BEF1030F00F00081002D3FF4FCAE4FF07A
:102BE000A043019AD3F8103593423FF4F4AE029A11
:102BF0000193039228E700BF006100400461004098
:102C0000086100400C610040106100401461004008
:102C1000186100401C6100407C6100400060004081
:102C2000F00800209A49D1F8041311F0010170D086
:102C3000136013680493049B964B1A68012A7FF46F
:102C4000A3AE934AD2F8042397077FF59DAE0022E6
:102C50001A601B680493049B8F4B1A68012A46F084
:102C600002067FF496AE8A4AD2F8042355077FF510
:102C700090AE00221A601B680493049B874B1A686D
:102C8000012A46F004067FF489AE814AD2F8042373
:102C900014077FF583AE00221A601B680493049B1F
:102CA0007F4B1A68012A46F008067FF47CAE784A0A
:102CB000D2F80423D0067FF576AE00221A601B6896
:102CC0000493049B774B1A68012A46F010067FF4A0
:102CD0006FAE6F4AD2F8042391067FF569AE0022E9
:102CE0001A601B680493049B6F4B1A68012A46F014
:102CF00020067FF462AE664AD2F8042352067FF5BE
:102D00005CAE00221A601B680493049B46F04006E8
:102D100053E60E4633E6654B00221A601B680593A6
:102D20004FF0A043059AD3F81035019346F00046C2
:102D30004CE6BEF1020F7FF41DAF032963D0002BD8
:102D40003FF418AF984715E7BEF1020F7FF444AF88
:102D5000032969D0002B54D13EE7BEF1020F7FF466
:102D6000A4AE032900F091800025002B3FF49EAE15
:102D700098479BE6BEF1020F7FF4CAAE032956D0F6
:102D8000002B3FF4C5AE9847C2E603297FF424AF79
:102D900017F8082042EA0C0207F808200BE703297D
:102DA0007FF4B6AE17F8082042EA0C0207F80820B4
:102DB0009DE603297FF479AE17F80C50154307F808
:102DC0000C5061E603297FF4D5AE17F8082042EADB
:102DD0000C0207F80820BCE60329BBD14FF4003EE3
:102DE000D2F800C72CF4403CC2F800C7D2F800C7A4
:102DF00001354CEA0E0CEDB2C2F800C7002B3FF4CF
:102E0000EEAE9847E8E64FF4403ED2F800C72CF407
:102E1000403CC2F800C7D2F800C701354CEA0E0C9E
:102E2000EDB2C2F800C78AE74FF4403ED8E74FF44E
:102E3000403ED2F800C72CF4403CC2F800C7D2F89C
:102E400000C701354CEA0E0CEDB2C2F800C797E797
:102E500003297FF474AF4FF4003ED6E703298FD1E6
:102E60004FF4003EE5E703297FF47FAF4FF40035D0
:102E7000DCF8002722F44032CCF80027DCF80027E9
:102E80002A43CCF8002701256FE74FF44035EFE7E0
:102E90000060004004610040086100400C61004097
:102EA0001061004014610040186100407C610040E6
:102EB0002DE9F0414479544DE6003719BF0005EB88
:102EC000070C9CF81CE0BEF1000F40F08F80EA5127
:102ED000CCF804300B7B91F800C0012B4FF0A047D9
:102EE0004FF0010303FA0CF394BFC7F80C35C7F891
:102EF00008350B784FF0A04E03F5E0734FF0010C4E
:102F00004EF823C04F78FF2F68D007F5E0780CFA11
:102F100007F34FF0030CCEF80C354EF828C08B7831
:102F2000FF2B60D003F5E07C9E464FF0A0434FF0AE
:102F3000040843F82C8091F803C0BCF1FF0F0FD0B8
:102F40004FF0A048012303FA0CF3C8F80835CB78FA
:102F500003F5E0734FF0030C48F823C091F803C069
:102F6000437903EBC30305EB830383F81EC00368B7
:102F700091F800C0C3F808C5C3F80C75C3F810E594
:102F80008F68C3F824754F7B91F80CC0003718BFC9
:102F90000127BCF1020F33D0BCF1030F2DD0BCF1DF
:102FA000010F01D147F00207C3F854754F79C3F8F8
:102FB000C075F2B140270722C3F80473C3F8002597
:102FC000097990F90400FFF72DFB344405EB8405E3
:102FD000012300202B776877BDE8F0818B78FF2BE9
:102FE0004FF0FF379ED14FF0FF3EA4E70820BDE829
:102FF000F0810722C3F80025E7E747F00607D3E78B
:1030000047F00407D0E700BF480900202DE9F0434E
:103010004479444DE7003E19B60005EB060E83B037
:103020009EF81D809DF828C0B8F1000F74D1AE59EC
:1030300016B101268EF81D600C264FF0240E1EFBE3
:10304000046E05EB0E083E1945F80E1005EB8606DA
:1030500088F80420C8F8083088F80CC096F821E0F9
:1030600096F81E8006F120090EF0FC066FF382062A
:10307000B8F1FF0F89F8016006D001264FF0A04E8D
:1030800006FA08F6CEF80C6521B101F06046B6F1FB
:10309000005F25D123B103F06046B6F1005F1FD178
:1030A00006680020C6F84415C6F84825C6F8343529
:1030B000C6F838C5C6F81801D6F8183101930122B0
:1030C0003B190199C6F85005C6F84005326155F81C
:1030D000233073B14023C6F8043303B0BDE8F08356
:1030E0003C4405EB840500236B77102003B0BDE85A
:1030F000F083D6F81831002BFBD03C4405EB840557
:10310000AB7FFF2B0CD001224FF0A04102FA03F35A
:10311000C1F808350020E9E7112003B0BDE8F083CD
:103120000020E3E7480900200F4AD2F81831D3B154
:1031300000210E4BC2F81811D2F818119A7F82B0F4
:10314000FF2A0191019906D001214FF0A04001FA18
:1031500002F2C0F8082500225A771A72D3E900213A
:10316000034802B010477047003000404809002073
:1031700050090020F0B506796F4C7601A31987B08D
:10318000DD7E002D40F089804D7F1D770B685D1C32
:103190000CD001254FF0A04705FA03F3C7F8083516
:1031A0000B6803F5E073032547F823504B685F1C59
:1031B00006D003F5E0734FF0A045002745F82370D3
:1031C000037905688F6904EB43131B7FC5F82475E9
:1031D000002B46D00F7D4B7D05683B43C5F86C3511
:1031E000D1E900750368C3F80C75C3F814550B7D5D
:1031F000012B7FD0A31905465A600B69A351EAB190
:103200000379097F026804EB43131B7F002B4BD12A
:10321000C2F81C31D2F81C012A6800900098C2F84C
:103220004431D2F844212B680192444A0198C3F8F2
:103230000423286840F30730FFF7F4F92B792A6854
:1032400004EB43131B7F5BB30823C2F800353444FF
:1032500000200123E376E0752076A075A07607B004
:10326000F0BD91F814C04D7D076845EA0C05C7F81C
:103270006C55D1E900C70568C5F81475C5F80CC5CB
:103280000D7D012DB6D18D686F1C3DD005F5E07523
:103290004FF0A04747F8253036E0082007B0F0BDD2
:1032A0000423C2F80035D2E70023C2F81031D2F867
:1032B00010012A6802900298C2F82031D2F8200149
:1032C0002A6803900398C2F82431D2F824012A68AE
:1032D00004900498C2F84431D2F844212B68059236
:1032E000174A0598C3F80423286840F30730FFF70E
:1032F00099F9A3E78B685D1C06D003F5E0734FF0E6
:10330000A045002745F82370CB685D1C0DD0012532
:103310004FF0A04705FA03F3C7F80835CB6803F56B
:10332000E073032547F82350CB6805688F68C5F81C
:103330000835C5F810755DE76C09002080000200B3
:1033400010030200F0B404793C4B016864011A19BF
:10335000127F002A6DD00022C1F800251A190179C8
:1033600055680268B5B103EB4111097F002963D1AB
:103370003349C2F808130268324E120B51B24909A0
:10338000203102F01F02012505FA02F246F8212041
:1033900001790268D2F80C75D2F8146503EB41117B
:1033A0004FF0FF3C097FB1B3D2F80815D2F81055A1
:1033B000C2F80CC5C2F814C50268C2F808C5C2F844
:1033C00010C57A1C06D007F5E0774FF0A042022026
:1033D00042F82700771C06D006F5E0764FF0A042B1
:1033E000022042F82600681C06D005F5E0754FF073
:1033F000A042022042F825004A1C06D001F5E071E7
:103400004FF0A042022042F8210023440022DA7645
:103410005A60F0BC7047D2F80815D2F81055C2F8BF
:1034200014C5C2F80CC50268C2F808C5C2F810C5B8
:10343000C7E7C1F8002591E703499AE76C09002026
:103440008402020000E100E010030200F0B50379FD
:10345000524C5B01E51887B02D7F25B101F0604526
:10346000B5F1005F58D123449E7D002E57D19A7547
:1034700099609E8205796D016219137F13BB016803
:10348000C1F81C31D1F81C61016804960126049F23
:103490008E600168D2F808C0C1F81C31D1F81C3127
:1034A0000593059B968A938A5768B6B201331CF838
:1034B00006609BB29382C1F81C65002F32D00020B9
:1034C00007B0F0BD03689168C3F82061D3F82031DC
:1034D00001930368019FC3F85861D3F858610368EA
:1034E0000296967D029FC3F84415C3F848650368A9
:1034F000012199605368002BE1D1036801E00029A4
:1035000049D1D3F82021D3F85811002AF7D0002947
:1035100014BF0F20002039E0102007B0F0BD1120AB
:1035200007B0F0BD967D938A9E4222D9016804E0DF
:10353000938A9BB2B3F5807F03D0D1F81C31002B66
:10354000F6D0938A9BB2B3F5807FECD0C1F81C71A2
:10355000D1F81C310393039BB2F814E0938A1FFA4D
:103560008EFE01331CF80EE09BB29382C1F81CE57D
:10357000D9E7938A9BB2B3F5807F0CD00268D2F86A
:103580001C31002BFBD00123D36000202C440023EE
:10359000A37507B0F0BD0F20F8E700BF6C0900204D
:1035A000F0B5A94C237F8FB0002B73D1A74AD2F876
:1035B0000413890546D4A54BD3F80423520704D538
:1035C000D3F80821002A40F0D480A04BD3F81C2166
:1035D000BAB1A18AA27D8A4200F2B9800021C3F863
:1035E0001C11D3F81C310593059B52B1A3688DF8CB
:1035F0002810A1750B938DF83020D4E900130AA888
:103600009847924BD3F84421D2B10022C3F8442109
:10361000D3F84411A27E04910499002A40F09480CA
:10362000E37D6BB10023617EE268E37501238DF8D1
:1036300030108DF828300B92D4E900130AA898476F
:103640000FB0F0BDD2F824110029B4D0C2F8243153
:10365000D2F82411A37E07914FF401710798C2F8A4
:1036600008130BB901235360784A02238DF82830E0
:10367000D2F88034C2F88034E07DE2680D930023F4
:103680008DF83000E375237621680B9263680AA8F1
:1036900098479AE76D4BD3F82421002A00F09780D1
:1036A0000022C3F82421D3F82411029102218DF8BD
:1036B00028100299D3F88014C3F880140D91D3F820
:1036C0003C15E3688DF830100B93E2752276216883
:1036D00063680AA898475D4BD3F84421B2B1002231
:1036E000C3F84421D3F84401E17D0190019869B108
:1036F000D3F83C35E1688DF8303001230B918DF81B
:103700002830E275D4E900130AA898474F4BD3F844
:103710002021002A94D00022C3F82021D3F82001D0
:10372000A17D0090009800298AD0D3F84C15A36899
:103730008DF830100B938DF82820A275D4E9001372
:103740000AA898470FB0F0BD01221A6068E700226E
:10375000C3F81C21D3F81C210692069AA18AA28ADA
:10376000A06889B20132415C92B2A282C3F81C15F2
:1037700047E7E27D002A54D00022C3F80821D3F89D
:1037800008210892089AE168627ED3F818358B54B4
:10379000637EE27D0133DBB26376637E93427FF426
:1037A00014AF237E2168002B52D0E268657E206929
:1037B000E3750B9200230122E060237663768DF897
:1037C00030508DF8282063680AA89847FDE6D3F8A2
:1037D000101100293FF47FAFC3F81021D3F8101166
:1037E00003910399D3F83C15E07DC9B288427FF478
:1037F00072AF257EE768D4E90016DDB1D3F800C2C8
:10380000E5752CF020052276C3F8005201222369C9
:103810008DF83000E3600B978DF828200AA8B04798
:1038200059E7C3F80821D3F8081109910999D3F889
:103830001835B2E701238DF83000E5750B978DF848
:1038400028300AA8B04746E76C0900200020004055
:10385000A37E13B90A4B01225A60094AE0686368E3
:103860004FF40175C2F80853627E8DF830200025B0
:1038700001220B90E5758DF828200AA89847A4E648
:10388000002000400220FDF7EDBA00BF2DE9F0470F
:103890000D460646FDF716FB03281ED8012D0446EB
:1038A0001DD00ED3022D18D11B4B00EB40041C443D
:1038B000657895B1194B1B687BB12846BDE8F04788
:1038C00018471748FEF7BCF9134B164A04EB44019E
:1038D0000B44125D9D78AA42EBD0BDE8F0870E4FF5
:1038E0004FEA400808EB0003FA18FD5C53782BB947
:1038F000A04447440B4BBA781A55DAE7DFF8289012
:1039000007484A464FF40041FEF74CF90028EFD132
:1039100089F80060ECE700BFD0090020040A00200D
:10392000B00900200C0A00208C09002010B5007896
:10393000FDF7C8FA03280BD8064B00EB40001844EB
:10394000407828B1044B1B6813B1BDE810401847FC
:1039500010BD00BFD0090020040A0020B24B1B6834
:10396000DB0700D4704770B5B04DB14E2B7834787A
:103970006BB1B04B1B7800202870002B4BD0FDF7AB
:1039800039FA0120FDF736FA0320FDF733FA172C38
:1039900040D8DFE814F0B500F000F000D8000401D2
:1039A000C6000F01EA0050004300500043006100D0
:1039B00018001800180018001800660077008B0027
:1039C0009F005D005D009C48FEF73AF9D4F11104B8
:1039D000054600F0FC80002840F0F980012C13D04F
:1039E000C82303FB04F44FF4FA704FF400430021A2
:1039F000C3FB04014FF47A72002301F08BFE2A46C8
:103A000001468D48FEF7CEF80220FDF7E7F9894B15
:103A100001221A7070BDFDF7F9F9B8E701231846C5
:103A20002B70FDF71FFA00224FF480418348BDE858
:103A30007040FEF7B7B8012318462B70FDF712FA55
:103A4000002240F6CD417D48BDE87040FEF7AAB89F
:103A5000FDF7F2F9347070BDFDF7EEF90C23337009
:103A600070BD744B1B78002B00F0BB800020FDF76D
:103A7000C1F90120FDF7BEF90320FDF7BBF91223C0
:103A8000337070BD6B4B1B78002B00F0AD800020B5
:103A9000FDF7B0F90120FDF7ADF90320FDF7AAF914
:103AA0000020FDF79BF91323337070BD614B1B7829
:103AB000002B00F0A9800020FDF79CF90120FDF704
:103AC00099F90320FDF796F90120FDF787F91423F2
:103AD000337070BD574B1B78002B7FD00020FDF753
:103AE00089F90120FDF786F90320FDF783F900200D
:103AF000FDF774F90120FDF771F91523337070BDDE
:103B00004C4B1B78002B00F087800020FDF772F9EA
:103B10000120FDF76FF90320FDF76CF900233370E6
:103B200070BD0020FDF74CF9002860D00020FDF7A3
:103B300061F905233370002241F69A113F48BDE830
:103B40007040FEF72FB80020FDF73AF900285ED04C
:103B50000020FDF74FF946F266610323337000221F
:103B60003648BDE87040FEF71DB80020FDF736F975
:103B70000723337070BD0020FDF722F9D0B3002079
:103B8000FDF738F9022C4EF2666118BF4FF4003190
:103B9000347000222948BDE87040FEF703B80020C9
:103BA000FDF70EF9D8B30020FDF724F94FF40031EA
:103BB0000423D3E70020FDF755F9062333700022D4
:103BC00040F6CD411D48BDE87040FDF7EBBF022037
:103BD000FDF710F9174B00221A7070BDFDF716F9AA
:103BE00085E7FDF713F94AE7FDF710F958E7FDF708
:103BF000F5F89EE7FDF7F2F843F2333141F69A13F8
:103C0000022C08BF1946C3E7FDF700F95CE7FDF792
:103C1000E5F841F69A11A0E7FDF7F8F87EE7FDF721
:103C2000DDF843F23331C3E7DC090020E00900206E
:103C3000080A00208D09002090090020E4090020D6
:103C400038B5C34B1C6814F0010401D1204638BDBF
:103C5000C04C2378054663B1BF4B1B780020207011
:103C600023B3FDF7C7F80120FDF7C4F80320FDF7E3
:103C7000C1F8172D00F26981DFE815F0C300E800F4
:103C8000E8000C01D5001F01FE00320128001B00D6
:103C900028001B006A007100710071007100710042
:103CA0009A00AD0035004B0064006400FDF7AEF8EB
:103CB000DFE7012318462370FDF7D4F800224FF404
:103CC0008041A648BDE83840FDF76CBF0123184687
:103CD0002370FDF7C7F8002240F6CD419F48BDE8AC
:103CE0003840FDF75FBF9C4B1B78002B00F0128122
:103CF0000020FDF77FF80120FDF77CF80320FDF799
:103D000079F80120FDF76AF8954B14221A70002407
:103D10009CE7914B1B78002B00F0FF800020FDF703
:103D200069F80120FDF766F80320FDF763F800202D
:103D3000FDF754F80120FDF751F8894B15221A7050
:103D4000002483E7FDF778F8854B00241D707DE79C
:103D5000FDF772F8824B0C221A70002476E7814836
:103D6000FDF76EFF0446D5F1110000F0C180002C74
:103D700040F0BE80012814D0C82505FB00F54FF4A3
:103D800000434FF4FA700021C3FB05014FF47A722F
:103D9000002301F0BFFC224601467248FDF702FFF6
:103DA00004460220FDF71AF86B4B01221A704DE70A
:103DB000694B1B78002B00F0AA800020FDF71AF851
:103DC0000120FDF717F80320FDF714F8644B1222C9
:103DD0001A7000243AE7604B1B78002B00F08F80AC
:103DE0000020FDF707F80120FDF704F80320FDF798
:103DF00001F80020FCF7F2FF594B13221A7000243F
:103E000024E7554B1B78002B00F08A800020FCF73C
:103E1000F1FF0120FCF7EEFF0320FCF7EBFF504B16
:103E200000241C7012E70020FCF7CAFF002869D0AC
:103E30000020FCF7DFFF4FF40031494B47480424D2
:103E40001C700022BDE83840FDF7ACBE0020FCF736
:103E5000B7FF00286CD00020FCF7CCFF022D4EF2FB
:103E6000666118BF4FF400313D4B3C481D70002285
:103E7000BDE83840FDF796BE0020FCF7F3FF384B55
:103E8000364806241C70002240F6CD41BDE838407B
:103E9000FDF788BE0020FCF793FF002843D00020E8
:103EA000FCF7A8FF46F266612D4B2C4803241C70DA
:103EB0000022BDE83840FDF775BE0020FCF780FF0A
:103EC00000283FD00020FCF795FF254B2348052410
:103ED0001C70002241F69A11BDE83840FDF762BE21
:103EE0000020FCF77BFF1E4B07221A700024ADE672
:103EF0000220FCF77FFF184B00221A70A6E6FCF7A1
:103F000085FF76E7FCF76AFF43F2333195E7FCF76C
:103F10007DFF5BE7FCF77AFFF3E6FCF777FF06E748
:103F2000FCF774FF7BE7FCF759FF41F69A11BBE7FA
:103F3000FCF754FF43F2333141F69A13022D08BFC8
:103F4000194691E7FCF74AFFBFE700247EE600BF71
:103F5000DC090020E00900208D090020E409002090
:103F6000080A00209009002030B5204B204A196033
:103F7000830783B0106000F0010412D51D4B1E486A
:103F80000E250F2210211D701125DA70997140F253
:103F9000666204215D72FDF72BF8A8B1F4B903B095
:103FA00030BD74B9154A16480021FDF7E9FD002817
:103FB000F5D1144A1448012103B0BDE83040FDF7A3
:103FC000DFBDFCF761FFEDE7FDF768F80028E5D1FC
:103FD00001460E4A0E48FDF7D3FD1CB10190FCF7D7
:103FE00053FF01980028DDD003B030BD040A002043
:103FF000DC090020D0090020885B00005D3900004A
:10400000B05B000085380000A85B00002D3900007F
:10401000AC5B0000014B01221A707047750A00204A
:1040200010B582B00E288DF807001AD00F2816D1CF
:104030000F4A01210DF10700FDF7B2F80020FFF74C
:10404000FFFD0C4B0C4A0D4904461888000440F053
:104050000300FCF763FC14B12046FDF735F802B00D
:1040600010BD074A01210DF10700FDF799F8E5E7BA
:10407000394D0000F0010020C45B0000A85A000088
:10408000194D000010B584B04FF0A04304A94FF0C3
:1040900080522C4C01F8010DC3F80C25002200922F
:1040A0002270294B29480122FEF7B0FF08B145E0F4
:1040B00020BF2378002BFBD0254B26491A680A2302
:1040C00000BF00BF00BF00BF00BF00BF00BF00BFF8
:1040D0008A422FD000BF00BF00BF00BF00BF00BF9B
:1040E00000BF00BF00BF00BF00BF00BF00BF00BFD8
:1040F00000BF00BF00BF00BF00BF00BF00BF00BFC8
:1041000000BF00BF00BF00BF00BF00BF00BF00BFB7
:1041100000BF00BF00BF00BF00BF00BF00BF00BFA7
:1041200000BF00BF00BF00BF00BF00BF00BF00BF97
:1041300000BF00BF013BC3D104B010BDFCF7C4FFFA
:10414000B7E700BF750A0020740A0020E85B000092
:10415000140000200024F40010B584B04FF0A043F8
:1041600004A94FF080522C4C01F8010DC3F808252A
:10417000002200922270294B29480122FEF746FFB7
:1041800008B145E020BF2378002BFBD0254B264902
:104190001A680A2300BF00BF00BF00BF00BF00BFF6
:1041A00000BF00BF8A422FD000BF00BF00BF00BFCA
:1041B00000BF00BF00BF00BF00BF00BF00BF00BF07
:1041C00000BF00BF00BF00BF00BF00BF00BF00BFF7
:1041D00000BF00BF00BF00BF00BF00BF00BF00BFE7
:1041E00000BF00BF00BF00BF00BF00BF00BF00BFD7
:1041F00000BF00BF00BF00BF00BF00BF00BF00BFC7
:1042000000BF00BF00BF00BF013BC3D104B010BD61
:10421000FCF75AFFB7E700BF750A0020740A0020B8
:10422000E85B0000140000200024F4002DE9F04FAA
:104230002A2085B0FFF726FF0020FFF78DFF002022
:10424000FFF78AFF0020FFF787FF7F20FFF784FF3B
:104250002B20FFF717FF0020FFF77EFF0020FFF75E
:104260007BFF0020FFF778FF9F20FFF775FF2C20D2
:10427000FFF708FF374CDFF8E890DFF8E880364FAB
:1042800040F27D1B4FF080569F254FF0A04A4FF023
:10429000000C8DF80FC04346CAF808650122CDF81E
:1042A00000C00DF10F01384684F800C0FEF7AEFEE5
:1042B00008B14BE020BF2378002BFBD00A23D9F8AC
:1042C0000020264900BF00BF00BF00BF00BF00BFE5
:1042D00000BF00BF8A422FD000BF00BF00BF00BF99
:1042E00000BF00BF00BF00BF00BF00BF00BF00BFD6
:1042F00000BF00BF00BF00BF00BF00BF00BF00BFC6
:1043000000BF00BF00BF00BF00BF00BF00BF00BFB5
:1043100000BF00BF00BF00BF00BF00BF00BF00BFA5
:1043200000BF00BF00BF00BF00BF00BF00BF00BF95
:1043300000BF00BF00BF00BF013BC3D1013DA6D1FC
:10434000BBF1010BA0D105B0BDE8F08FFCF7BCFEBE
:10435000B1E700BF750A0020E85B00000024F4000C
:1043600014000020740A002070B52A208D4E8E4D56
:10437000FFF788FE0020FFF7EFFE30680230C0B282
:10438000FFF7EAFE0020FFF7E7FE30680230C0B218
:10439000FFF7E2FE2B20FFF775FE0020FFF7DCFEA3
:1043A0002878FFF7D9FE0020FFF7D6FE28680330F3
:1043B000C0B2FFF7D1FE2C20FFF764FE0320FFF709
:1043C000CBFE0320FFF7C8FE0320FFF7C5FE032046
:1043D000FFF7C2FE2A20FFF755FE0020FFF7BCFEC4
:1043E00030680330C0B2FFF7B7FE0020FFF7B4FE1D
:1043F00030680330C0B2FFF7AFFE2B20FFF742FE5C
:104400000020FFF7A9FE2878FFF7A6FE0020FFF79F
:10441000A3FE28680330C0B2FFF79EFE2C20FFF7F2
:1044200031FEE020FFF798FEE020FFF795FEE02048
:10443000FFF792FEE020FFF78FFE2A20FFF722FE13
:104440000020FFF789FE30680230C0B2FFF784FE1B
:104450000020FFF781FE30680230C0B2FFF77CFE1B
:104460002B20FFF70FFE0020FFF776FE28680430B0
:10447000C0B2FFF771FE0020FFF76EFE286807301C
:10448000C0B2FFF769FE2C20FFF7FCFD05241F20BA
:10449000FFF762FE013CFAD12A20FFF7F3FD204628
:1044A000FFF75AFE30680330C0B2FFF755FE2046D2
:1044B000FFF752FE30680330C0B2FFF74DFE2B20ED
:1044C000FFF7E0FD2046FFF747FE28680430C0B242
:1044D000FFF742FE2046FFF73FFE28680730C0B2D4
:1044E000FFF73AFE2C20FFF7CDFD0524FC20FFF757
:1044F00033FE013CFAD12A20FFF7C4FD2046FFF726
:104500002BFE3078FFF728FE2046FFF725FE307897
:10451000FFF722FE2B20FFF7B5FD2046FFF71CFE1C
:1045200028680730C0B2FFF717FE2046FFF714FED9
:1045300028680B30C0B2FFF70FFE2C20FFF7A2FD5A
:104540000624FC20FFF708FE013CFAD12A20FFF7E1
:1045500099FD2046FFF700FE30680530C0B2FFF736
:10456000FBFD2046FFF7F8FD30680530C0B2FFF7CD
:10457000F3FD2B20FFF786FD2046FFF7EDFD2868B1
:104580000730C0B2FFF7E8FD2046FFF7E5FD2868D9
:104590000B30C0B2FFF7E0FD2C20FFF773FD0624BF
:1045A00004E000BF780A00207C0A00201F20FFF7EB
:1045B000D3FD013CFAD12A20FFF764FD2046FFF726
:1045C000CBFD30680130C0B2FFF7C6FD2046FFF7D3
:1045D000C3FD30680130C0B2FFF7BEFD2B20FFF7EE
:1045E00051FD2046FFF7B8FD28680B30C0B2FFF739
:1045F000B3FD2046FFF7B0FD28680B30C0B2FFF7CF
:10460000ABFD2C20FFF73EFD1F20FFF7A5FD2A2064
:10461000FFF738FD2046FFF79FFD30680130C0B23C
:10462000FFF79AFD2046FFF797FD30680130C0B2D2
:10463000FFF792FD2B20FFF725FD2046FFF78CFDAD
:1046400028680A30C0B2FFF787FD2046FFF784FDD7
:1046500028680A30C0B2FFF77FFD2C20FFF712FD5B
:104660000320FFF779FD2A20FFF70CFD2046FFF716
:1046700073FD30680230C0B2FFF76EFD2046FFF7D1
:104680006BFD30680230C0B2FFF766FD2B20FFF7EC
:10469000F9FC2046FFF760FD28680830C0B2FFF73C
:1046A0005BFD2046FFF758FD28680930C0B2FFF7D0
:1046B00053FD2C20FFF7E6FCFC20FFF74DFDFC200E
:1046C000FFF74AFDFC20FFF747FD2A20FFF7DAFC41
:1046D0002046FFF741FD30680230C0B2FFF73CFDD5
:1046E0002046FFF739FD30680230C0B2FFF734FDD5
:1046F0002B20FFF7C7FC2046FFF72EFD28680A3065
:10470000C0B2FFF729FD2046FFF726FD28680B30D1
:10471000C0B2FFF721FD2C20FFF7B4FCE020FFF72B
:104720001BFDE020FFF718FDE020FFF715FD2A2014
:10473000FFF7A8FC2046FFF70FFD30680330C0B23A
:10474000FFF70AFD2046FFF707FD30680330C0B2CF
:10475000FFF702FD2B20FFF795FC2046FFF7FCFC3E
:1047600028680830C0B2FFF7F7FC2046FFF7F4FCDA
:1047700028680930C0B2FFF7EFFC2C20FFF782FC5D
:104780001F20FFF7E9FC1F20FFF7E6FC1F20FFF7C3
:10479000E3FC2A20FFF776FC2046FFF7DDFC3068BB
:1047A0000330C0B2FFF7D8FC2046FFF7D5FC3068D5
:1047B0000330C0B2FFF7D0FC2B20FFF763FC20468C
:1047C000FFF7CAFC28680A30C0B2FFF7C5FC2046D4
:1047D000FFF7C2FC28680B30C0B2FFF7BDFC2C20ED
:1047E000FFF750FC0320FFF7B7FC0320FFF7B4FCF2
:1047F0000320FFF7B1FC2A20FFF744FC2046FFF717
:10480000ABFC30680430C0B2FFF7A6FC2046FFF7CF
:10481000A3FC30680430C0B2FFF79EFC2B20FFF7EA
:1048200031FC2046FFF798FC28680B30C0B2FFF738
:1048300093FC2046FFF790FC28680B30C0B2FFF7CE
:104840008BFC2C20FFF71EFCFC20FFF785FC2A20A8
:10485000FFF718FC2046FFF77FFC30680430C0B239
:10486000FFF77AFC2046FFF777FC30680430C0B2CF
:10487000FFF772FC2B20FFF705FC2046FFF76CFCCE
:1048800028680A30C0B2FFF767FC2046FFF764FCD7
:1048900028680A30C0B2FFF75FFC2C20FFF7F2FB5C
:1048A000E020FFF759FC2A20FFF7ECFB2046FFF73A
:1048B00053FC3078FFF750FC2046FFF74DFC306882
:1048C0000530C0B2FFF748FC2B20FFF7DBFB20468A
:1048D000FFF742FC28680C30C0B2FFF73DFC2046D1
:1048E000FFF73AFC28680E30C0B2FFF735FC2C20E9
:1048F000FFF7C8FB0624FF20FFF72EFCFF20FFF781
:104900002BFCFF20FFF728FC013CF4D12A20FFF705
:10491000B9FB2046FFF720FC3078FFF71DFC20464E
:10492000FFF71AFC3078FFF717FC2B20FFF7AAFBE4
:104930002046FFF711FC28680E30C0B2FFF70CFCD0
:104940002046FFF709FC28681130C0B2FFF704FCCD
:104950002C20FFF797FBFF20FFF7FEFBFF20FFF760
:10496000FBFBFF20FFF7F8FBFF20FFF7F5FB2A20FA
:10497000FFF788FB2046FFF7EFFB3078FFF7ECFBF3
:104980002046FFF7E9FB3078FFF7E6FB2B20FFF727
:1049900079FB2046FFF7E0FB28681030C0B2FFF734
:1049A000DBFB2046FFF7D8FB28681130C0B2FFF7C9
:1049B000D3FB2C20FFF766FBFC20FFF7CDFBFC2090
:1049C000FFF7CAFB2A20FFF75DFB2046FFF7C4FB79
:1049D00030680530C0B2FFF7BFFB2046FFF7BCFBD5
:1049E00030680530C0B2FFF7B7FB2B20FFF74AFB5A
:1049F0002046FFF7B1FB28680E30C0B2FFF7ACFBD2
:104A00002046FFF7A9FB28681130C0B2FFF7A4FBCE
:104A10002C20FFF737FBFF20FFF79EFBFF20FFF75F
:104A20009BFBFF20FFF798FBFF20FFF795FB2A2059
:104A3000FFF728FB2046FFF78FFB30680530C0B238
:104A4000FFF78AFB2046FFF787FB30680530C0B2CE
:104A5000FFF782FB2B20FFF715FB2046FFF77CFBBF
:104A600028681030C0B2FFF777FB2046FFF774FBD1
:104A700028681130C0B2FFF76FFB2C20FFF702FB54
:104A80001F20FFF769FB1F20FFF766FB2A20FFF7B7
:104A9000F9FA2046FFF760FB30680130C0B2FFF73B
:104AA0005BFB2046FFF758FB30680130C0B2FFF7D0
:104AB00053FB2B20FFF7E6FA2046FFF74DFB286853
:104AC0000F30C0B2FFF748FB2046FFF745FB2868D0
:104AD0000F30C0B2FFF740FB2C20FFF7D3FA0320C2
:104AE000FFF73AFB2A20FFF7CDFA2046FFF734FB09
:104AF00030680130C0B2FFF72FFB2046FFF72CFBD8
:104B000030680130C0B2FFF727FB2B20FFF7BAFA5D
:104B10002046FFF721FB28681030C0B2FFF71CFBCE
:104B20002046FFF719FB28681130C0B2FFF714FBCD
:104B30002C20FFF7A7FA1F20FFF70EFB1F20FFF71F
:104B40000BFB2A20FFF79EFA2046FFF705FB306893
:104B50000230C0B2FFF700FB2046FFF7FDFA3068D5
:104B60000230C0B2FFF7F8FA2B20FFF78BFA20468D
:104B7000FFF7F2FA28681030C0B2FFF7EDFA2046CE
:104B8000FFF7EAFA28681130C0B2FFF7E5FA2C20E7
:104B9000FFF778FAFC20FFF7DFFAFC20FFF7DCFADA
:104BA0002A20FFF76FFA2046FFF7D6FA3068043064
:104BB000C0B2FFF7D1FA2046FFF7CEFA30680430D2
:104BC000C0B2FFF7C9FA2B20FFF75CFA2046FFF7C7
:104BD000C3FA28680F30C0B2FFF7BEFA2046FFF7CD
:104BE000BBFA28680F30C0B2FFF7B6FA2C20FFF7E7
:104BF00049FAE020FFF7B0FA2A20FFF743FA2046EF
:104C0000FFF7AAFA30680430C0B2FFF7A5FA2046D1
:104C1000FFF7A2FA30680430C0B2FFF79DFA2B20EC
:104C2000FFF730FA2046FFF797FA28681030C0B235
:104C3000FFF792FA2046FFF78FFA28681130C0B2CA
:104C4000FFF78AFA2C20FFF71DFAFC20FFF784FA01
:104C5000FC20FFF781FA2A20FFF714FA2046FFF71D
:104C60007BFA30680330C0B2FFF776FA2046FFF7D0
:104C700073FA30680330C0B2FFF76EFA2B20FFF7EB
:104C800001FA2046FFF768FA28681030C0B2FFF733
:104C900063FA2046FFF760FA28681130C0B2FFF7C8
:104CA0005BFA2C20FFF7EEF91F20FFF755FA1F20C3
:104CB000FFF752FA2A20FFF7E5F92046FFF74CFAF2
:104CC00030680230C0B2FFF747FA2046FFF744FAD7
:104CD00030680330C0B2FFF73FFA2B20FFF7D2F95C
:104CE0002046FFF739FA28680F30C0B2FFF734FAD0
:104CF0002046FFF731FA28680F30C0B2FFF72CFAD0
:104D00002C20FFF7BFF9FF20FFF726FAFF20BDE8B0
:104D10007040FFF721BA00BF08B50020FCF7A2F8E9
:104D2000044A136801331360FFF780FABDE80840B6
:104D3000FFF71ABB780A002008B50120FCF792F8AB
:104D4000044A136801331360FFF770FABDE80840A6
:104D5000FFF70ABB7C0A002008B505490320FFF7CE
:104D600003F900B908BDBDE80840FCF7ADB900BFC4
:104D7000214000004FF0A04170B54FF08040694ED7
:104D8000C1F80C0542F210753268674C2B4600BF23
:104D900000BF00BF00BF00BF00BF00BF00BFA242F6
:104DA0002FD000BF00BF00BF00BF00BF00BF00BFCB
:104DB00000BF00BF00BF00BF00BF00BF00BF00BFFB
:104DC00000BF00BF00BF00BF00BF00BF00BF00BFEB
:104DD00000BF00BF00BF00BF00BF00BF00BF00BFDB
:104DE00000BF00BF00BF00BF00BF00BF00BF00BFCB
:104DF00000BF00BF00BF00BF00BF00BF00BF00BFBB
:104E000000BF013BC3D1494BC1F8080500BF00BF3B
:104E100000BF00BF00BF00BF00BF00BFA2422FD035
:104E200000BF00BF00BF00BF00BF00BF00BF00BF8A
:104E300000BF00BF00BF00BF00BF00BF00BF00BF7A
:104E400000BF00BF00BF00BF00BF00BF00BF00BF6A
:104E500000BF00BF00BF00BF00BF00BF00BF00BF5A
:104E600000BF00BF00BF00BF00BF00BF00BF00BF4A
:104E700000BF00BF00BF00BF00BF00BF00BF00BF3A
:104E8000013BC3D1D720FFF7FDF89F20FFF764F95E
:104E9000E020FFF7F7F80020FFF75EF9336800BF66
:104EA00000BF00BF00BF00BF00BF00BF00BFA342E4
:104EB0002FD000BF00BF00BF00BF00BF00BF00BFBA
:104EC00000BF00BF00BF00BF00BF00BF00BF00BFEA
:104ED00000BF00BF00BF00BF00BF00BF00BF00BFDA
:104EE00000BF00BF00BF00BF00BF00BF00BF00BFCA
:104EF00000BF00BF00BF00BF00BF00BF00BF00BFBA
:104F000000BF00BF00BF00BF00BF00BF00BF00BFA9
:104F100000BF013DC3D1E320FFF7B4F844F620639E
:104F2000326805E0140000200024F400C0D4010021
:104F300000BF00BF00BF00BF00BF00BF00BF00BF79
:104F4000A2422FD000BF00BF00BF00BF00BF00BF04
:104F500000BF00BF00BF00BF00BF00BF00BF00BF59
:104F600000BF00BF00BF00BF00BF00BF00BF00BF49
:104F700000BF00BF00BF00BF00BF00BF00BF00BF39
:104F800000BF00BF00BF00BF00BF00BF00BF00BF29
:104F900000BF00BF00BF00BF00BF00BF00BF00BF19
:104FA00000BF00BF013BC3D1E120FFF76BF8112028
:104FB000FFF768F82820FFF765F84CF250333268A5
:104FC00000BF00BF00BF00BF00BF00BF00BF00BFE9
:104FD000A2422FD000BF00BF00BF00BF00BF00BF74
:104FE00000BF00BF00BF00BF00BF00BF00BF00BFC9
:104FF00000BF00BF00BF00BF00BF00BF00BF00BFB9
:1050000000BF00BF00BF00BF00BF00BF00BF00BFA8
:1050100000BF00BF00BF00BF00BF00BF00BF00BF98
:1050200000BF00BF00BF00BF00BF00BF00BF00BF88
:1050300000BF00BF013BC3D1C020FFF723F85320BE
:10504000FFF78AF80120FFF787F8C320FFF71AF867
:105050000220FFF781F8C420FFF714F80620FFF7BD
:105060007BF8D020FFF70EF81D20FFF775F8B5206C
:10507000FFF708F80020FFF76FF83920FFF702F874
:105080003A20FEF7FFFF0220FFF766F83620FEF712
:10509000F9FF0020FFF760F8B020FEF7F3FF9F2034
:1050A000FFF75AF8B420FEF7EDFFA020FFF754F801
:1050B0003020FEF7E7FF0020FFF74EF80020FFF753
:1050C0004BF80020FFF748F87720FFF745F820203D
:1050D000FEF7D8FF2A20FEF7D5FF0020FFF73CF8A7
:1050E0000020FFF739F80020FFF736F87F20FFF7A0
:1050F00033F82B20FEF7C6FF0020FFF72DF8002025
:10510000FFF72AF80020FFF727F89F20FFF724F881
:105110002A20FEF7B7FF0020FFF71EF80020FFF758
:105120001BF80020FFF718F84F20FFF715F82B2089
:10513000FEF7A8FF0020FFF70FF80020FFF70CF89C
:105140000020FFF709F87820FFF706F82920BDE8CE
:105150007040FEF797BF00BF30B585B0FBF794FEF7
:105160000020FBF7A9FA08B1FBF7AEFFFBF78EF9B9
:10517000314B0FCB6C4684E80F001F2241F60450E0
:1051800021464FF0805503248DF80320ADF8000030
:1051900000232A4A2A4802958DF80C40FDF788FE24
:1051A00008B1FBF791FF4FF0A04303224FF080447A
:1051B0004FF080502349C3F80805C3F87027C3F89F
:1051C0000C45C3F8782708881F4900041043FBF7F3
:1051D000DFFAFFF7CFFDFFF729F8FFF7C5F8292021
:1051E000FEF750FF01230022C4F818352146C4F809
:1051F0000421A360D1F80431002BFBD0FCF700FCA4
:1052000008B1FBF761FF0020FBF756FA08B1FBF786
:105210005BFF0E4A0A210120FBF79AFF08B1FBF75A
:1052200053FFFFF799FDFCF71DF8FBF745FC00283D
:10523000FBD120BFF7E700BFB45B000015400000C2
:10524000E85B0000F0010020D85B0000100A00209D
:105250000649074A074B9B1A03DD043BC858D05048
:10526000FBDC00F013F8FAF7EBFF0000345D000000
:10527000000000202C020020FEE7FEE7FEE7FEE72C
:10528000FEE7FEE7FEE7FEE7FEE7FEE730B4AF4BE2
:105290001B78062B1BD0AE4AD2F8883043F470033B
:1052A000C2F88830BFF34F8FBFF36F8F4FF01023DA
:1052B000D3F80022002AC0F27381D3F80432002B05
:1052C000C0F26E81A34BA44A1A6030BC7047A34B56
:1052D0001B681D07DFD1A24B1B6803F0F002302AC8
:1052E00000F08E8003F0E003402B00F089809C4B9F
:1052F0001B6803F0F003302B00F0FB80984B1B6819
:1053000003F0F002302A46D003F0E003402B42D0F5
:10531000934B1B6803F0F003302B00F0F880904BA8
:105320001B6803F0F002302A56D003F0E003402B54
:1053300052D08B4B1B6803F0F003302B00F0F7804A
:10534000874B1B6803F0F003302B69D0844B1B683C
:1053500003F0F003502B7AD0814B1B6803F0F0026E
:10536000302A28D003F0E003402B24D07C4B1B686C
:1053700003F0F002302A03D003F0E003402B8AD17F
:105380004FF08043D3F80024D20744BF6FF00102EE
:10539000C3F800247FE7734B6C4A1B68127872498C
:1053A000C3F34233062A0B6048D16C4B1B681907C4
:1053B0007FF471AFACE76D4A644B12681B786C499F
:1053C00002F04F02062B0A607FF465AF634B1B6847
:1053D00019077FF460AFC9E74FF080430022C3F89C
:1053E0000C21C3F81021C3F83825584B1B78062B25
:1053F0007FF451AF594B1B681B077FF44CAF98E704
:105400005C4B524A1B6812785B49C3F30423062A9B
:105410000B60EAD1514B1B681C077FF43CAF66E779
:10542000564C4A4A564912785648574B052525602E
:1054300001250D6000243F2104601960062A7FF4D5
:105440002AAF464B1B681C077FF425AF7EE74FF061
:1054500080534E4AD3F80414C2F82015D3F8081428
:10546000C2F82415D3F80C14C2F82815D3F8101478
:10547000C2F82C15D3F81414C2F83015D3F8181448
:10548000C2F83415D3F81C14C2F84015D3F8201410
:10549000C2F84415D3F82414C2F84815D3F82814D8
:1054A000C2F84C15D3F82C14C2F85015D3F83014A8
:1054B000C2F85415D3F83414C2F86015D3F8381470
:1054C000C2F86415D3F83C14C2F86815D3F8401438
:1054D0001E48C2F86C15D3F844140378C2F870154E
:1054E000062B7FF4D8AE1D4B1B6818077FF4D3AE94
:1054F00032E7164B264A1B7826491160062B7FF4AB
:10550000CAAE164B1B6818077FF4C5AEF6E62249F3
:105510000E4BCA681B7822F08072062BCA607FF49B
:10552000BAAE0E4B1B681A077FF4B5AEF7E6074B11
:105530001A4A1B780321062B11607FF4ACAE074B8F
:105540001B681D077FF4A7AEFAE600BFE00F00F06E
:1055500000ED00E0140000200090D003E40F00F004
:10556000E80F00F0440200103C0500405802001013
:10557000E40E004024030010403501401056004066
:1055800088560040185600401456004000C00040A5
:1055900074C007400DF0ADBAF0ED00E0A00500408A
:1055A000184B0122C3F80425D3F80024002AFBD0AD
:1055B0004FF0102315221349C3F80022D1F800340C
:1055C000002BFBD04FF0102215210E4BC2F8041215
:1055D000D3F80024002AFBD000220A49C3F804258E
:1055E000D1F80034002BFBD0BFF34F8F0649074B97
:1055F000CA6802F4E0621343CB60BFF34F8F00BF71
:10560000FDE700BF00E0014000ED00E00400FA0506
:1056100008B5074B044613B10021AFF30080054BDA
:105620001868836A03B19847204600F071F800BFFC
:1056300000000000F05B000070B50D4E0D4CA41B87
:10564000A4100025A54209D10B4E0C4C00F0E2F944
:10565000A41BA4100025A54205D170BD56F8253025
:1056600098470135EEE756F8253098470135F2E7BF
:10567000E8010020E8010020E8010020EC01002002
:10568000044B054A1B681B6A002B08BF1346D3F85E
:10569000EC007047180000207C00002082B001B9A7
:1056A00001A942B14BB113780B601278101C18BFDE
:1056B000012002B070471046FBE76FF00100F8E7E9
:1056C00010B5431E0A44914200D110BD11F8014BA0
:1056D00003F8014FF7E702440346934200D17047B5
:1056E00003F8011BF9E7034613F8012B002AFBD14D
:1056F000181A0138704749B1FF2A85BF8A23036011
:105700000A704FF0FF3098BF01207047084670477D
:10571000FEE700BF53B94AB9002908BF00281CBFE3
:105720004FF0FF314FF0FF3000F072B9ADF1080CCF
:105730006DE904CE00F006F8DDF804E0DDE90223AF
:1057400004B070472DE9F047089E04468846002BB8
:105750004BD18A42154667D9B2FA82F24AB1C2F1F8
:10576000200701FA02F320FA07F7954047EA0308F9
:1057700094404FEA154E230CB8FBFEF71FFA85FC48
:105780000EFB178843EA084307FB0CF1994209D93D
:10579000EB1807F1FF3080F01B81994240F218812D
:1057A000023F2B445B1AA4B2B3FBFEF00EFB103396
:1057B00044EA034400FB0CFCA44509D92C1900F170
:1057C000FF3380F00781A44540F2048102382C4465
:1057D00040EA0740A4EB0C0400271EB1D44000238C
:1057E000C6E900433946BDE8F0878B4209D9002E4F
:1057F00000F0EB800027C6E9000138463946BDE8D5
:10580000F087B3FA83F7002F47D18B4202D382424D
:1058100000F2FA80841A61EB030301209846002EFF
:10582000E0D0C6E90048DDE702B9FFDEB2FA82F255
:10583000002A40F08F80491B4FEA154E1FFA85F869
:105840000127B1FBFEFC230C0EFB1C1143EA0143B4
:1058500008FB0CF1994207D9EB180CF1FF3002D28A
:10586000994200F2CD808446591AA3B2B1FBFEF0F2
:105870000EFB101443EA044408FB00F8A04507D9C6
:105880002C1900F1FF3302D2A04500F2B680184671
:10589000A4EB080440EA0C409FE7C7F1200CBB4092
:1058A00022FA0CFE4EEA030E01FA07F420FA0CF578
:1058B00021FA0CF34FEA1E482543B3FBF8F92C0CF0
:1058C00008FB19331FFA8EFA44EA034309FB0AF472
:1058D0009C4202FA07F200FA07F10BD91EEB030310
:1058E00009F1FF3080F087809C4240F28480A9F16A
:1058F000020973441B1BADB2B3FBF8F008FB103375
:1059000045EA034400FB0AFAA24508D91EEB040449
:1059100000F1FF336BD2A24569D90238744440EAE2
:105920000940A0FB0289A4EB0A044C45C2464B4641
:1059300054D351D0002E69D0B1EB0A0564EB0304B7
:1059400004FA0CFCFD40FC404CEA0505C6E9005495
:10595000002747E7C2F1200320FA03F7954001FA38
:1059600002F021FA03F34FEA154E3843010CB3FB62
:10597000FEF71FFA85F80EFB173341EA034107FBD8
:1059800008F38B4204FA02F407D9691807F1FF3CC7
:105990002FD28B422DD9023F2944CB1A81B2B3FBBF
:1059A000FEF00EFB103341EA034100FB08F38B428B
:1059B00007D9691800F1FF3C17D28B4215D902387C
:1059C0002944C91A40EA07473BE73746304609E70A
:1059D0000746E7E61846FBE64145ABD2B8EB020ABC
:1059E00069EB0E0201381346A4E76046E9E7184662
:1059F00095E76746D1E781467CE702382C4447E7C4
:105A0000ACF1020C2B442FE7384608E73746E9E6AD
:105A1000704700BFF8B500BFF8BC08BC9E46704791
:105A2000F8B500BFF8BC08BC9E467047FFFFFFFFFB
:105A3000FFFFFFFFFFFFFFFFFFFFFFFF0000000072
:105A4000000000000000D60107010000F103000083
:105A5000A9030000A5030000B0060020780700207D
:105A600080070020B8060020180000006170700058
:105A7000B85A0000D85A0000E05A0000E85A000066
:105A8000F05A0000F85A0000005B0000085B0000BC
:105A9000105B00002025303278000000202020001C
:105AA0007C00000025630000257300003C25733E48
:105AB0002025733A200000001B5B306D00000000C1
:105AC0000D0A000000000000185B0000205B0000D1
:105AD000285B0000305B00001B5B313B33306D0006
