:020000022000DC
:1030000000000120FD930200259402002794020095
:10301000299402002B9402002D940200000000006D
:103020000000000000000000000000002F940200DB
:103030003194020000000000339402003594020035
:10304000815A0200379402002D6B0200656602006F
:10305000B166020037940200A55E020037940200B8
:10306000379402003794020037940200379402002C
:10307000379402003794020037940200379402001C
:10308000379402004D440200379402003794020046
:10309000ED44020037940200FD9A020037940200CA
:1030A00037940200379402003794020037940200EC
:1030B0003794020037940200000000000000000076
:1030C00037940200379402003794020037940200CC
:1030D0003794020037940200379402000000000089
:1030E00000000000000000000000000000000000E0
:1030F00000000000000000000000000000000000D0
:1031000000000000000000000000000000000000BF
:1031100000000000000000000000000000000000AF
:10312000000000000000000000000000000000009F
:10313000000000000000000000000000000000008F
:10314000000000000000000000000000000000007F
:10315000000000000000000000000000000000006F
:10316000000000000000000000000000000000005F
:10317000000000000000000000000000000000004F
:10318000000000000000000000000000000000003F
:10319000000000000000000000000000000000002F
:1031A000000000000000000000000000000000001F
:1031B000000000000000000000000000000000000F
:1031C00000000000000000000000000000000000FF
:1031D00000000000000000000000000000000000EF
:1031E00000000000000000000000000000000000DF
:1031F00000000000000000000000000000000000CF
:1032000010B5054C237833B9044B13B10448AFF320
:1032100000800123237010BD102400200000000056
:1032200068A9020008B5034B1BB103490348AFF37B
:10323000008008BD000000001424002068A90200DE
:10324000154B002B08BF134B9D46A3F5803A002178
:103250008B460F461348144A121A06F008FE0F4B0D
:10326000002B00D098470E4B002B00D09847002031
:10327000002104000D000D48002802D00C48AFF3D7
:10328000008006F0A5FD2000290004F0ABFF06F049
:103290008BFD00BF000008000000012000000000BE
:1032A0000000000010240020942D002000000000E9
:1032B00000000000F0B595B0002415460F46084602
:1032C0001E4602F00FFA384623460895082205A943
:1032D0001A9D09960D950A948DF82C400C9402F0D5
:1032E00067FA9DF814308DF81040DDE9061003F000
:1032F0000302012A0290ADF80C102BD0022A04D050
:10330000384602F0FFF915B0F0BDBDF81650C3F312
:10331000C202C3F38003AD098DF80E208DF80F3083
:103320000826082D2C4628BF0824334622460EA91D
:10333000384602F03DFA2D1B214608AB02AA0EA822
:10334000264400F089FD002DEBD1384602F0DAF971
:1033500015B0F0BDBDF814500598C5F38315C3F33F
:10336000C20CAA000EA9C3F38004C0F3952608235B
:1033700038468DF80EC08DF80F4002F019FA08ABF0
:103380002A4630460EA9009302AB00F0CDFC384629
:1033900002F0B8F915B0F0BD014B01221A70704768
:1033A00070240020704700BF70B50E4D0E4888B0E5
:1033B00003F08EFA0FCD6C460FC495E80F0008ADF0
:1033C000062645F8206D84E80F00294600220648AD
:1033D00003F096F908B100F01DFF044B00221A70AB
:1033E00008B070BDC49E0200802100202C24002063
:1033F00000B583B0044B0093044A4023FFF75AFF03
:1034000003B05DF804FB00BF11340200302400203B
:1034100010B5094C09480023D2B2237003F0DCFA3E
:1034200030B9074B1B7813B12378002BFCD010BDAB
:1034300000F0F0FEF5E700BF70240020802100209E
:103440002C24002070B50D4D0FCD88B06C460FC4F4
:1034500095E80F0008AD062645F8206D84E80F00BA
:103460002946074A074803F04BF908B100F0D2FE9D
:10347000054B01221A7008B070BD00BFC49E020047
:1034800099330200802100202C24002010B5054C27
:10349000FFF7D8FF2046042100F004FC01236372EB
:1034A00010BD00BF882100202DE9F047824C002389
:1034B00084B0C4F81834BFF34F8FD4E9017607EA1B
:1034C0000601CB1C04EB830214F8233098073D4619
:1034D0000FD1138852889B0903EB921301331D44CB
:1034E00006EA0501CB1C04EB830214F823309B078A
:1034F000EFD004EB81016A1CCB680193324004EBEE
:10350000820203F00303D2680292022B05F1020843
:103510000FD0012B75D0032B06D02068C01B18BF1D
:10352000012004B0BDE8F087D4F818040028F4D1D5
:10353000F7E7BDF8063061484FEA93194D46502D24
:1035400028BF502565F38F1305F10801ADF806304B
:1035500002F086F80746002851D026EA080A0AF148
:10356000010A02F0BFF84FEA8A0A0023082201A9E3
:10357000384602F0EFF8554540F29080EBB2BAF1D0
:10358000000F00F0848006EA0801A3EB0A03033170
:1035900004EB8101DDB252460823384602F0DAF826
:1035A0002A460AF108034649384602F0D3F809F1E1
:1035B000030908EB9909D4F81834002B62D1D4F828
:1035C000105455B16B7A28463946002B56D02B68DB
:1035D0001B6898476D68002DF4D1384602F092F8C8
:1035E00004A8002300F80D3D01F01AFCD4F81834AB
:1035F0000BB9C4F804909DF8030001F037FC67682C
:103600008BE7BDF804302D48C3F38311062928BF8A
:10361000062161F3891302318900ADF8043002F00C
:103620001FF807460028EAD002F05CF800230822C1
:1036300001A9384602F08EF8BDF8043013F4707F0B
:1036400037D06FF0010AAAEB050A082506EA08013F
:1036500003312B46042204EB8101384602F07AF84C
:10366000BDF8043008F101090AEB0902C3F3831322
:103670009A42C84605F10405E8D39CE76D68002D21
:10368000A0D1AAE7384602F03DF8676845E72A4628
:1036900008230B49384602F05DF888E706EA08017E
:1036A000033104EB81012A460823384602F052F820
:1036B0007DE7C1467FE700BF74240020F09E020032
:1036C0008024002008B50E4B0E480022FF21C3F8CD
:1036D00018249960C3E90022C3F8142483F81C2439
:1036E00001F0BCFF58B90849084BC91AC90806D0EF
:1036F000074A034622F80C3B01339942FAD108BD30
:1037000074240020F09E0200F4A902009CA902008B
:103710008C23002021B9134A02EBC00000687047D7
:1037200030B411490F4C091BC90816D00F4B5A88E9
:10373000824218BF002205D111E0DD89854203F1E4
:103740000C0305D001329142F7D1002030BC704704
:1037500004EBC200006830BC70470846F6E720461C
:10376000F8E700BF9CA90200F4A902008C23002006
:10377000094B013903EBC00003290BD8DFE801F046
:1037800002080604022070474079704700797047AC
:1037900004207047002070479CA902002DE9F04FDB
:1037A00089B008AB002703F80D7D604C02901846E5
:1037B000A3680193039101F033FBD4E901E0D4F84D
:1037C000008000EB0E030133A3EB0803032B60D84A
:1037D00000F1010AAAEB080A04F5836C04F214460E
:1037E00000EA0E0901255CE8003F43EA05024CE8C7
:1037F000002191F0000FF6D156E8003F43EA0502A0
:1038000046E8002191F0000FF6D109F1030304EB23
:10381000830114F823309B07CB46724610D10B88E6
:1038200049889B0903EB911301331A4400EA020B08
:103830000BF1030304EB830114F823309B07EED054
:1038400004EB8B0B0232DBF80C30059303F003031F
:10385000012B65D0022B05D1BDF816309B0903332F
:1038600002EB930256E8003F03EA070146E8001B1B
:103870009BF0000FF6D143B10AEB0203032B626009
:1038800007D8964600EA0209ADE70AEB0E03032BC0
:10389000A9D908EA0000C31C08F1020114F823208A
:1038A0009DF8130042F0030204F82320216001F088
:1038B000DDFA019A029908F10103134004EB830336
:1038C00002EA080808F103080A0CDA6014F8283044
:1038D0000A0962F3820361F3C50304F8283034F85F
:1038E0002830039A6FF3891324F8283054F82830CD
:1038F00062F39F231A46012161F3010244F8283044
:1039000004F8282094F81C341BB906E0FFF7CCFD1E
:1039100018B1D4E900329A42F8D109B0BDE8F08F6D
:10392000BDF81430C3F383131A449BE774240020BA
:103930002DE9F04F89B008AB002703F80D7D644CEA
:1039400001901846A3680093CDE9021201F068FACD
:10395000D4E901E0D4F8008000EB0E030133A3EBBF
:103960000803042B60D800F1010AAAEB080A04F549
:10397000836C04F2144600EA0E0901255CE8003F5E
:1039800043EA05024CE8002191F0000FF6D156E819
:10399000003F43EA050246E8002191F0000FF6D10E
:1039A00009F1030304EB830114F823309B07CB4692
:1039B000724610D10B8849889B0903EB91130133A0
:1039C0001A4400EA020B0BF1030304EB830114F821
:1039D00023309B07EED004EB8B0B0232DBF80C306C
:1039E000059303F00303012B6CD0022B05D1BDF826
:1039F00016309B09033302EB930256E8003F03EABB
:103A0000070146E8001B9BF0000FF6D143B10AEB1B
:103A10000203042B626007D8964600EA0209ADE76C
:103A20000AEB0E03042BA9D908EA0000C31C08F115
:103A3000030114F823209DF8130042F0030204F858
:103A40002320216001F012FA00990198039D08F1EA
:103A5000020208F101030A400B4004EB820204EB6E
:103A6000830301EA080808F10308010CD560D96056
:103A700014F82830020962F3820360F3C50304F8E6
:103A8000283034F82830029A012161F3891324F890
:103A9000283054F8283062F39F231A4661F301025C
:103AA00044F8283004F8282094F81C341BB906E0A8
:103AB000FFF7FAFC18B1D4E900329A42F8D109B004
:103AC000BDE8F08FBDF81430C3F383131A4494E7B4
:103AD000742400202DE9F04F8BB00AAD00276A4C0A
:103AE00005F80D7D029005932846A3680193CDE962
:103AF000031201F095F9D4E901E0D4F8008000EB5D
:103B00000E030133A3EB0803052B60D800F1010A73
:103B1000AAEB080A04F5836C04F2144600EA0E09C5
:103B200001255CE8003F43EA05024CE8002191F0E2
:103B3000000FF6D156E8003F43EA050246E80021AF
:103B400091F0000FF6D109F1030304EB830114F89F
:103B500023309B07CB46724610D10B8849889B09BE
:103B600003EB911301331A4400EA020B0BF1030338
:103B700004EB830114F823309B07EED004EB8B0B8E
:103B80000232DBF80C30079303F00303012B74D0EF
:103B9000022B05D1BDF81E309B09033302EB9302C3
:103BA00056E8003F03EA070146E8001B9BF0000FC0
:103BB000F6D143B10AEB0203052B626007D89646A3
:103BC00000EA0209ADE70AEB0E03052BA9D908EAC2
:103BD0000000C31C08F1040114F823209DF81B0009
:103BE00042F0030204F82320216001F03FF901981C
:103BF000029D049E08F1020108F1030208F101038D
:103C000001400240034004EB810104EB820204EB1B
:103C1000830300EA0808CE6008F103080599D16023
:103C2000280CD86014F828302A0962F3820365F35F
:103C3000C50304F8283034F82830022262F38913CF
:103C400024F82830039A54F8283062F39F231A4648
:103C5000012161F3010244F8283004F8282094F887
:103C60001C341BB906E0FFF71FFC18B1D4E9003281
:103C70009A42F8D10BB0BDE8F08FBDF81C30C3F309
:103C800083131A448CE700BF74240020044BD3E94B
:103C900000239A4201D0FFF707BC0020704700BF05
:103CA0007424002030B4154DD5F81044002154B1CF
:103CB000237A8B4213D0234602E01A7A8A420ED02E
:103CC0005B68002BF9D10172D5F810347BB15B68C9
:103CD0004360D5F81034586030BC08467047013155
:103CE0000A29E4D14FF0FF31084630BC7047C5F8CF
:103CF0001004436030BC0846704700BF74240020A5
:103D000038B5084BD3F81044012583F81C543CB156
:103D10002368657220465B6898476468002CF7D179
:103D200038BD00BF742400202DE9F04784B01D4643
:103D30000C9C002394F80C802373EB7981460E468B
:103D40001746DBB1062F09D8DFE807F00430363D0F
:103D500046515E004946204601F00CF9EB792BB93B
:103D60002B7AEBB93649204601F004F9204601F0E0
:103D7000F5F884F80C8004B0BDE8F0872B7AA888A9
:103D8000A979002B4FD12F4B53F821A00021FFF729
:103D9000C1FC524603462C49204601F0EBF8D1E71E
:103DA0002A4A2B49204601F0E5F8DBE7326849460C
:103DB000204601F0DFF8D1E74946D6E90023204646
:103DC00001F0D8F8CAE7B168D6E90023204600918F
:103DD000494601F0CFF8C1E7D6E90201D6E9002350
:103DE000019100904946204601F0C4F8B6E7D6E9B3
:103DF0000371B068D6E900230291CDE90007494676
:103E0000204601F0B7F8A9E7D6E90410D6E9002367
:103E10000390D6E902070291CDE900074946204602
:103E200001F0A8F89AE7FFF7A3FC0A4B084953F8FA
:103E30002020204601F09EF8A979A888A3E700BFBA
:103E4000589F02005C9F0200449F0200509F0200A6
:103E5000409F0200089F020008295CD82DE9F04F1E
:103E60001D46914600232A7B2B7383B099F80730B7
:103E7000019207460E46002B4ED0DFF808B1DFF85E
:103E80000881002405E03A5D013401F073F8082C44
:103E900009D0A64241462846F5D85946013401F0DA
:103EA00069F8082CF5D13049DFF8E080DFF8E0B0A0
:103EB000284601F05FF8002411E017F804A005F08F
:103EC000ABFF50445946437813F0970F14BF524646
:103ED0002E222846013401F04DF8082C08D0A642C5
:103EE00041462846E9D8013401F044F8082CF6D1BF
:103EF00099F8073013B999F808300BBB1B492846CD
:103F000001F038F8284601F029F89DF804302B73A9
:103F100003B0BDE8F08F704799F80830B9F8040095
:103F200099F8061093B9124B53F821400021FFF77E
:103F3000F1FB224603460F49284601F01BF89CE797
:103F40000D4A0E49284601F015F8D7E7FFF710FC97
:103F50000B4B0A4953F82020284601F00BF899F83A
:103F60000610B9F80400DEE7389F0200589F0200EF
:103F70005C9F0200449F0200509F0200409F02008D
:103F8000089F0200349F02002C9F02004C9F0200F9
:103F90003C9F0200044B195C4FF0A04201238B4070
:103FA000C2F80C35704700BFD09F0200044B195C6B
:103FB0004FF0A04201238B40C2F80835704700BF84
:103FC000D09F020030B44FF0A04303224FF40035DD
:103FD0004FF480244FF400204FF48011C3F844279D
:103FE000C3F84827C3F84C27C3F85027C3F808552F
:103FF000C3F80845C3F80805C3F8081530BC704776
:104000002DE9F84F254B93F800C0BCF1000F31D0DB
:10401000DFF88CB0DFF88CA0DFF88C90002401274B
:1040200003E00134E4B2644524D226B2DBF8005048
:10403000DAF8003015F8360007FA00F10B4205EB0C
:10404000C608EED023EA0103CAF8003001F020FFD1
:1040500015F83660D9F8003007FA06F52B4000FA5B
:1040600006F18B4208D00D4B013493F800C0E4B246
:104070006445DAD3BDE8F88F98F80110D8F8043019
:10408000A1F10101B1FA81F14909091AB1FA81F1ED
:104090004909002BE7D030469847E4E7642900201F
:1040A00094290020902900208C29002070B5064614
:1040B000114800F07BFE40B9104D01242B68B4403C
:1040C000234203D023EA04042C6070BD304601F083
:1040D000DFFE0B490A6860B122432B6809480A6079
:1040E0001C4301682C6004480022BDE8704000F0C9
:1040F00007BE22EA0402F0E76C2900209029002084
:104100008C29002068290020042A34D92DE9F041A7
:1041100082B00F460646144601F04EFD002834D00A
:104120001C4A1D4B1D4916601F701D4A1D4B0C601B
:1041300000257C1E15601D60E4B2F7B106EBC404D7
:10414000194F083E4FF0030801E0B44215D0A378A0
:1041500020788DF804803A4601A98DF806508DF834
:1041600007508DF8053001F031FD083C0028ECD0F7
:1041700002B0BDE8F081072070470C4A0C480021CE
:1041800000F0ACFD02B0BDE8F08101F0DBFC0028DE
:10419000C6D0EDE79429002064290020682900207A
:1041A0008C29002090290020AD400200014002002F
:1041B000D49F020070B5084D2B785BB1074E0024E8
:1041C0003368012113F8340001F0CEFD2B7801345F
:1041D000A342F5D8002070BD642900209429002056
:1041E00070B5094D2B7853B1084E0024336813F88D
:1041F000340001F01BFE2B780134A342F6D80448AA
:10420000BDE8704000F0D2BD642900209429002050
:104210006C29002000B585B000230390194601AA3F
:1042200044F20100ADF80430029300F003F805B049
:104230005DF804FB10B5FFF763FDFFF727FD0028CD
:10424000FBD1104C10492088000440F00100FFF71A
:10425000A5FA0E4B1B68DB0700D5FFDE20880C4952
:10426000000440F00200FFF799FABFF34F8F0949AD
:10427000094BCA6802F4E0621343CB60BFF34F8F6F
:1042800000BFFDE78C230020D89F0200F0ED00E086
:10429000E49F020000ED00E00400FA05F0B412F023
:1042A000030412D14B1CDB000A4D0B4E0B4F347034
:1042B0009BB213442B600A4E0A4D0B4B28803A6088
:1042C000347019802046F0BC704707242046F0BCAB
:1042D000704700BF9C29002098290020A0290020B9
:1042E000A8290020A4290020A62900202DE9F047B4
:1042F0002D4F3B888B4282B03CD3054602A84FF03D
:10430000000800F8018D16460C4600F089FD274B89
:10431000274A284819781378B0F800C09DF807009C
:10432000DBB2634538BF0133C9B238BF5FFA83F8E7
:10433000414523D092F800801378DFF88090DBB2FB
:104340009C4586BF0133DBB200235FFA88F8137007
:1043500000F08CFDD9F800300FFA88F24FEAC20A5B
:1043600043F83260534405B174B90020988002B01C
:10437000BDE8F087092002B0BDE8F08700F076FDC7
:10438000042002B0BDE8F0870B4B38881B68294633
:1043900008FB0030224605F05FFDD9F800309A4452
:1043A0000020AAF80440E2E7A4290020A829002060
:1043B00098290020A62900209C290020A02900205F
:1043C0002DE9F84F1B4C1C4D22782B789A4226D0B1
:1043D000DFF86CA0DFF86C90184FDFF86CB04FF08E
:1043E00000082378DAF800203888D9F80060DBB2BA
:1043F0000FFA83FE02EBCE0103FB0060898852F8BE
:104400003E3098472378BBF80010DBB25A1C994223
:10441000D2B206D9227023782A789A42E1D1BDE837
:10442000F88F84F8008022782B789A42D9D1BDE8A1
:10443000F88F00BFA829002098290020A429002077
:10444000A02900209C290020A6290020F8B5204A98
:10445000204B0024C2F84041C2F84441C2F8484110
:10446000C2F84C41C2F80041C2F804411B6833B3A2
:104470001949D2F804550A68AD1A1A6825F07F4523
:10448000AA4227460DD8197CDE69AD1A144419B129
:104490001F74D3E9052090471EB133461A68AA421B
:1044A000F1D90E490E4A0B7812789A4208D00D497C
:1044B0000D4A41F823404FF48013C2F80031F8BD93
:1044C000531CDBB2022B08BF00230B70EFE700BFC9
:1044D00000100140CC2A0020C82A0020C52A002054
:1044E000C42A0020BC2A002000E100E02DE9F04FA2
:1044F000AF48B04AB04913780978D0F80090AF4877
:1045000089B000680290994200F04E810133DBB21D
:10451000022B08BF00231370A94A52F82300A44BB2
:1045200009EB000727F07F471F60029B00252A4602
:104530002C46AC46B3B11968814200F24D81DD686A
:10454000C3F800C0401A0C44D9693DB109EB040618
:1045500026F07F46C3E90165DA611A460B4601255C
:10456000002BE8D1002D40F09B8101230299069396
:10457000B946944B944C1B7805934FF000084B467A
:10458000CDF81C80CDF80C804FF0010EC1468C4652
:104590009B4642B3D2E901651346D2698B48A6EB2C
:1045A0000B0121F07F41814259D829441960002034
:1045B00083F810E0C3E90100D861BCF1000F72D0AC
:1045C000DCF8000088425FD2664603E02868884233
:1045D00063D22E46F569091A002DF7D11960DD6105
:1045E000F361002AD6D1CA46CDF804B094F8019000
:1045F00021784FF0000B1646894576D0084600EB2F
:10460000400004EBC0004A1CA378D1B202792170AB
:104610008B4204BF84F800B00021022A836853D083
:10462000032A44D0012AE7D11F7C002FE4D132466F
:10463000C6685E6005699D604169D960816999615C
:104640000599DDF804B0D1460029A7D03E46A6EB77
:104650000B015E485F6021F07F418142A5D9ABEB41
:10466000060121F07F41A94202D2691A19609EE732
:10467000002183F810E0C3E900119960D961BCF111
:10468000000F10D0DCF80000411ACCF800104FF0F9
:104690000108C3F81CC09C467BE7401A28601960DB
:1046A000DD61F3619DE79C464FF0010871E7BCF1C5
:1046B000000FA1D0624600231374D269002AFBD1F7
:1046C00094464FF0010891E7BCF1000F09D0634513
:1046D000624603D192E083424FD00246D06900285F
:1046E000F9D183F810B0894588D1C346DDF804902C
:1046F000D046BBF1000F40F0D780079B002B40F065
:104700001A82B8F1000F03D02E4B9DF814201A70B6
:104710002A4B1A68039B1BB9029B9A4200F0C8807F
:10472000002A00F0CC802A48214BD0F804151B68E1
:10473000284C15682678CA1A22F07F420332002ED0
:1047400000F0A68195422CBF5B199B18204823F0EE
:104750007F43C0F84035D0F80425521A5B1A22F086
:104760007F4223F07F4303329A4200F24781154A89
:104770000023137009B0BDE8F08F934236D067462E
:1047800004931D46E8692D68D06128B102682A4467
:104790000260217894F801906745A2D00122BC46BE
:1047A000039283F810B09EE7002206920146E0E6ED
:1047B000C82A0020C42A0020C52A0020CC2A0020B4
:1047C000BC2A0020B82A0020AC290020FEFF7F0070
:1047D00000100140B92A0020002D40F0B081091AD4
:1047E00019600123B94606930299C2E60493DCF8E6
:1047F0001C7037B14FF00108049DC3E7CDF810C01D
:10480000F5E77748774DC0F808E077484FF02F0874
:10481000006800BF00BF00BF00BF00BF00BF00BFF7
:1048200000BFA8422FD000BF00BF00BF00BF00BF25
:1048300000BF00BF00BF00BF00BF00BF00BF00BF80
:1048400000BF00BF00BF00BF00BF00BF00BF00BF70
:1048500000BF00BF00BF00BF00BF00BF00BF00BF60
:1048600000BF00BF00BF00BF00BF00BF00BF00BF50
:1048700000BF00BF00BF00BF00BF00BF00BF00BF40
:1048800000BF00BF00BFB8F10108C2D14FF0010A5C
:104890000197CDF814A0CDF81CA0D046049D71E777
:1048A000524902930B6060E6504BC3F800C024E706
:1048B000069B002B3FF45BAF002A7FF434AF4849DE
:1048C0004B4B494E474C4FF480304FF40037012595
:1048D000C3F88070C1F848032F23C1F808034D6066
:1048E00030681E4600BF00BF00BF00BF00BF00BF52
:1048F00000BF00BFA0422FD000BF00BF00BF00BF5D
:1049000000BF00BF00BF00BF00BF00BF00BF00BFAF
:1049100000BF00BF00BF00BF00BF00BF00BF00BF9F
:1049200000BF00BF00BF00BF00BF00BF00BF00BF8F
:1049300000BF00BF00BF00BF00BF00BF00BF00BF7F
:1049400000BF00BF00BF00BF00BF00BF00BF00BF6F
:1049500000BF00BF00BF00BF013EC3D18D6025492D
:104960000A6000BF00BF00BF00BF00BF00BF00BFA4
:1049700000BFA0422FD000BF00BF00BF00BF00BFDC
:1049800000BF00BF00BF00BF00BF00BF00BF00BF2F
:1049900000BF00BF00BF00BF00BF00BF00BF00BF1F
:1049A00000BF00BF00BF00BF00BF00BF00BF00BF0F
:1049B00000BF00BF00BF00BF00BF00BF00BF00BFFF
:1049C00000BF00BF00BF00BF00BF00BF00BF00BFEF
:1049D00000BF00BF00BF013BC3D1074B1A70C6E642
:1049E000001001400024F400B0210020CC2A002057
:1049F00000E100E0C82A0020B92A0020D0F80435E0
:104A0000514AC0F84035126850492F2300BF00BFFB
:104A100000BF00BF00BF00BF00BF00BF8A422FD051
:104A200000BF00BF00BF00BF00BF00BF00BF00BF8E
:104A300000BF00BF00BF00BF00BF00BF00BF00BF7E
:104A400000BF00BF00BF00BF00BF00BF00BF00BF6E
:104A500000BF00BF00BF00BF00BF00BF00BF00BF5E
:104A600000BF00BF00BF00BF00BF00BF00BF00BF4E
:104A700000BF00BF00BF00BF00BF00BF00BF00BF3E
:104A8000013BC3D1324B4FF40032C3F800216EE634
:104A90002F4EDFF8B4E0DFF8B4C04FF48037C0F831
:104AA0004473C0F804734FF40037C6F88071376060
:104AB00001260660DEF800702F2000BF00BF00BF97
:104AC00000BF00BF00BF00BF00BF67452FD000BFC1
:104AD00000BF00BF00BF00BF00BF00BF00BF00BFDE
:104AE00000BF00BF00BF00BF00BF00BF00BF00BFCE
:104AF00000BF00BF00BF00BF00BF00BF00BF00BFBE
:104B000000BF00BF00BF00BF00BF00BF00BF00BFAD
:104B100000BF00BF00BF00BF00BF00BF00BF00BF9D
:104B200000BF00BF00BF00BF00BF00BF00BF013813
:104B3000C3D1267006E6074BC3F80090E1E5064CAA
:104B4000029323604BE600BFB02100200024F40054
:104B500000E100E0C82A0020CC2A0020F0B4554B28
:104B6000554A564E564C4FF480304FF400310125D3
:104B7000C2F88010C3F848032F21C3F808035D6012
:104B800030680E4600BF00BF00BF00BF00BF00BFBF
:104B900000BF00BFA0422FD000BF00BF00BF00BFBA
:104BA00000BF00BF00BF00BF00BF00BF00BF00BF0D
:104BB00000BF00BF00BF00BF00BF00BF00BF00BFFD
:104BC00000BF00BF00BF00BF00BF00BF00BF00BFED
:104BD00000BF00BF00BF00BF00BF00BF00BF00BFDD
:104BE00000BF00BF00BF00BF00BF00BF00BF00BFCD
:104BF00000BF00BF00BF00BF013EC3D19D6000BF2A
:104C000000BF00BF00BF00BF00BF00BF00BFA04289
:104C10002FD000BF00BF00BF00BF00BF00BF00BF5C
:104C200000BF00BF00BF00BF00BF00BF00BF00BF8C
:104C300000BF00BF00BF00BF00BF00BF00BF00BF7C
:104C400000BF00BF00BF00BF00BF00BF00BF00BF6C
:104C500000BF00BF00BF00BF00BF00BF00BF00BF5C
:104C600000BF00BF00BF00BF00BF00BF00BF00BF4C
:104C700000BF0139C3D1134E134C1449144D154FC5
:104C800000203070206008704FF480140B26E02163
:104C90002880AE703870104DC2F8804182F814132D
:104CA0001460C3F8080582F81113D3F804352B609B
:104CB000F0BC70470010014000E100E0B02100208E
:104CC0000024F400B92A0020CC2A0020C42A0020A5
:104CD000AC290020C52A0020C82A0020074B9B7859
:104CE0004BB132B128B10368187C20B959745A61AC
:104CF0007047072070470820704700BFAC2900208C
:104D00002DE9F047264CA37882B0002B3CD0002838
:104D10003AD004293CD94369002B35D0814602A8FA
:104D200099F811300026012B00F8016D0CBF884660
:104D3000B04617468A4600F073F86378A178227867
:104D40009DF807005D1CEDB2A94208BF3546AA4296
:104D500022D003EB430304EBC3030121114AC3F840
:104D600008901971D2F804256570C3E9032AC3E9D4
:104D7000058700F07BF80C4B4FF480123046C3F8E7
:104D8000002102B0BDE8F087082002B0BDE8F0873E
:104D9000072002B0BDE8F08700F068F80420F0E7D3
:104DA000AC2900200010014000E100E0F0B51A4CF1
:104DB000A37883B043B338B343692BB3064602A844
:104DC000002500F8015D357400F02AF86278A778B4
:104DD00021789DF80700531CDBB29F4208BF2B4689
:104DE000994214D002EB420204EBC2020221966007
:104DF0001171637000F03AF8084B4FF480122846A6
:104E0000C3F8002103B0F0BD082003B0F0BD00F0EE
:104E10002DF80420F9E700BFAC29002000E100E0F4
:104E200070B4EFF3108472B60D4B9A68AAB90D49AD
:104E30000D4E01259D60D1F8805035401D60C1F8B0
:104E40008060D1F884505D604FF0FF33C1F884304A
:104E5000027004B962B670BC704701230370F8E7B2
:104E6000842D002000E100E0FC06FFBD094B9A689C
:104E70007AB170B910B4EFF3108272B606491C68AB
:104E80000C605C684C60986002B962B65DF8044BD7
:104E900070477047842D002000E100E0B8B130B4C5
:104EA000D0E90112521A0468D2B2531E2160DBB25B
:104EB00042B101680A685C1E551C0D601370E3B2B4
:104EC000FF2BF6D103680020187130BC70470E200C
:104ED000704700BFF0B583B002AB002503F8015D59
:104EE00004461846FFF79CFFD4E900311A688A424D
:104EF00010D9511E19602168A3680F6812F8015C6F
:104F00000A79268AE068DB1BDBB29A4206FB0505BC
:104F100038BF0B719DF80700FFF7A8FF284603B0C4
:104F2000F0BD00BF30B583B002AB002203F8012D05
:104F3000054618460C46FFF773FF2A681368591C8C
:104F40001160E9682A8A641AB4FBF2F41C709DF8B7
:104F50000700FFF78BFF03B030BD00BF826842B18E
:104F600010B5044643690168006998470023A360AF
:104F700010BD70470EB400B582B0039929B102AAE2
:104F800004AB42F8043D00F08BF802B05DF804EB8E
:104F900003B070472DE9F84F8846904517460546FF
:104FA0001E46DDE90AB175D343464FF00109B3FB54
:104FB000F7F39F4209F10109F9D9B14538BFB1466C
:104FC00011F0010AAA6802D1BBF1000F43D10124FC
:104FD00002E0013E07FB04F4012EFAD8B8FBF4F11D
:104FE0008F42F7D92D4E05E0B4FBF7F4A4B1B8FB1E
:104FF000F4F1AA68705C531CAB602B689854D5E937
:1050000001329A4204FB1188EED32846FFF7A6FF2F
:10501000B4FBF7F4002CEAD1BAF1000F15D0BBF1C4
:10502000000F12D0CB4510D92024AB682A68591C38
:10503000A960D454D5E901329A420BF1FF3B06D264
:10504000BBF1000F01D0CB45EFD1BDE8F88F28466A
:10505000FFF784FFF4E78B0717D42024CB45B6D99C
:105060002B68511CA9609C54D5E901329A420BF17E
:10507000FF3B05D2BBF1000FA9D0CB45F0D1A6E78D
:105080002846FFF76BFFAA68F4E7002E0CBF302418
:105090002024E3E74FF001098FE700BFFC9F0200E7
:1050A000002900F0F4812DE9F04F054685B09246C5
:1050B0000C460B78DFF8A0B501E0237893B10134FA
:1050C00083B1252B15D0AA682968501CA8608B5481
:1050D000D5E901329A42F0D32846FFF73FFF237803
:1050E000002BECD12B7B002B40F0148105B0BDE8E8
:1050F000F08F2146002711F8012B2D2A00F0E180C6
:10510000302A00F0E2802B2A00F0D2802A2A00F018
:10511000E080A2F13006F3B2092B03D9B8E1A3F184
:1051200030060146084606EB860310F8012BA2F173
:105130003004092C02EB4303F1D92E2A00F0D5806C
:105140000023013101E011F8012B02F0FB00682877
:105150000C46F8D0253A532AAFD801A151F822F0D5
:1051600021530200BB500200BB500200BB500200A2
:10517000BB500200BB500200BB500200BB500200FB
:10518000BB500200BB500200BB500200BB500200EB
:10519000BB500200BB500200BB500200BB500200DB
:1051A000BB500200BB500200BB500200BB500200CB
:1051B000BB500200BB500200BB500200BB500200BB
:1051C000BB500200BB500200BB500200BB500200AB
:1051D000BB500200BB500200BB500200BB5002009B
:1051E000BB500200BB500200BB500200BB5002008B
:1051F000BB500200BB500200BB500200BB5002007B
:10520000BB500200BB500200BB500200BB5002006A
:10521000BB500200BB500200BB500200BB5002005A
:10522000BB500200BB500200BB5002003B530200C7
:10523000BB500200BB500200BB500200BB5002003A
:10524000BB500200BB500200BB500200BB5002002A
:10525000BB500200BB5002005553020077530200BE
:10526000BB500200BB500200BB500200BB5002000A
:1052700077530200BB500200BB500200BB5002003B
:10528000BB500200BB500200BB500200C7530200DB
:10529000BB500200BB5002003B540200BB50020056
:1052A00075540200BB500200BB5002003B53020089
:1052B00047F004070C46214611F8012B2D2A7FF4F4
:1052C0001FAF47F001070C46F5E747F002070C4611
:1052D000F1E7DAF800301A1DCAF8002062781E687B
:1052E0002E2A04F102007FF42BAF4A78A2F130039A
:1052F000092B00F25081002303EB830302EB4303ED
:1053000010F8012FA2F130010929A3F13003F3D9DC
:10531000014616E7284605B0BDE8F04FFFF71EBE70
:10532000AB682A68591CA9604FF02501D154D5E912
:1053300001329A42FFF4C1AECEE6DAF80020111D28
:10534000CAF8001011682846CDE900671022FFF75F
:1053500021FEB2E6DAF80020131DCAF80030AB686F
:1053600029681278581CA860CA54D5E901329A42BB
:10537000FFF4A3AEB0E6DAF80020111DCAF8001061
:10538000D2F8008088EAE872A2EBE872092A4FF0AE
:10539000010107DDAF48A0FB0202D208092A01F192
:1053A0000101F7DC994238BF1946894607F002022D
:1053B000002E71D12AB1002B00F04781FA0700F1CD
:1053C0008D8000268AE0DAF80020131DCAF800302C
:1053D000AB6829681768581C3022A860CA54D5E900
:1053E0000123934280F028812A68581C7821A86004
:1053F000D154D5E90123934280F019810F2F03D9AD
:105400003A4612090F2AFCD84FF0805603E03609BD
:105410003FF453AEAB682968B7FBF6F2581CA8609E
:105420001BF80200C854D5E90131994206FB1277F6
:10543000EDD32846FFF792FDE9E7DAF800301A1DB0
:10544000CAF80020D3F80080FB077ED54746A7EBBB
:10545000080917F8013B002B5DD0AA682968501C89
:10546000A8608B54D5E901329A42F0D32846FFF761
:1054700075FDECE7DAF80020111DCAF8001011687C
:105480002846CDE900670A22FFF784FD15E670473C
:1054900008460026214650E6B8F1000F01DB7807E8
:1054A00000D5013E02B1CBB1F90717D4002E88D048
:1054B000B14513D220220393A9682B68481CA86029
:1054C0005A54D5E90131994206F1FF365DD2002EDA
:1054D00000F0BD80B145EFD1039B4E46B8F1000FFF
:1054E000C0F292807A070AD5A9684A1CAA602A6885
:1054F0002B205054D5E90121914280F0928007F091
:105500000302022A5FD0CDE9006741460A222846FD
:10551000FFF740FDD1E54E457FF6CFAD202705E0F2
:105520004E453FF4CAAD002E3FF4C7ADAB682A68C4
:10553000591CA960D754D5E901329A4206F1FF36C9
:10554000EED32846FFF70AFDEAE7B8F1000F24D0B2
:10555000404604F094FC0746BE4220D9FEB14FF00D
:10556000200902E0BE421AD0CEB1AB682A68591CAD
:10557000A96002F80390D5E901329A4206F1FF369C
:10558000F0D32846FFF7EAFCECE728460292FFF743
:10559000E5FC029A9BE70146D2E54746DCE708F1C5
:1055A000FF3818F8013F002B3FF487ADAA6829683F
:1055B000501CA8608B54D5E901329A42F1D3284699
:1055C000FFF7CCFCEDE7002B9DD1002E3BD0B14581
:1055D00099D2029323464C469946AA682B68501CE0
:1055E0004FF03001A8609954D5E901329A4206F192
:1055F000FF3605D22EB3B442EFD1029B4C4682E770
:105600002846FFF7ABFCF5E7A9684A1CAA602A68A0
:105610002D205054D5E901219142C8F10008FFF432
:105620006EAF28460293FFF799FC029B67E7284676
:10563000FFF794FCAB68E1E62846FFF78FFCAB6808
:10564000D2E6029B4C4600265DE71E4646E7039BDA
:10565000B7E600BFCDCCCCCCFC9F0200FFF71EBC50
:105660002DE9F041058ACE1C043D2E440746B6FBC9
:10567000F5F6FFF72FFC78B3F6B24FF48073013ED6
:105680000446C5800760838027D08046002509E056
:105690006379AE4203F101036371C8F8000007604B
:1056A00080461AD03846FFF715FC01350028EFD1A7
:1056B0006679721E14D02346013082421B68FBD1EA
:1056C0001F684EB1002523682146013538461C4627
:1056D000FFF728FCAE42F6D100242046BDE8F08159
:1056E0002768EFE710B40430012350E8002F02EBE5
:1056F000030140E8001494F0000FF6D15DF8044B6C
:10570000704700BF0146021DF8B5012052E8004F66
:10571000A4EB000342E8003595F0000FF6D113F03A
:10572000FF0300D0F8BD4E79701E11D00A46013338
:1057300098421268FBD11768002EF3D000240D6840
:1057400001343846FFF7EEFBA6422946F7D1F8BDF3
:105750000F68F3E72DE9F8430446181DE688B0FB0F
:10576000F6F30F46904606FB130013B1013B246885
:10577000FCD1351A454528BF4546B8F1000F15D074
:105780004FF000090430A8EB050820442A4607EB37
:10579000090104F061FB4645A944246835464FF0F1
:1057A000000028BF4546B8F1000FEBD1BDE8F883F3
:1057B0002DE9F843C688043304460F46B3FBF6F0E0
:1057C000904606FB103110B101382468FCD1751ADF
:1057D000454528BF4546B8F1000F15D04FF00009E8
:1057E00004312144A8EB05082A4607EB090004F020
:1057F00033FB4645A944246835464FF0000128BFD5
:105800004546B8F1000FEBD1BDE8F88301600B68A5
:1058100043604A68934204BF00234360704700BF5F
:10582000436843B1026891680B44436052689342F5
:1058300004BF00234360704730B4184DA5F1F00257
:10584000AB1ADB1003EBD3735B1002EBC30152F80E
:105850003330984228BF0C4605D311E052F833305C
:1058600098420CD221468B1ADB1003EBD3735B10EA
:105870008A4202EBC304F1D3094830BC70470D469D
:10588000984204D904F10802AA42D9D3F4E7606827
:10589000034B002808BF1846EFE700BF1CA1020019
:1058A00018A0020010B40023012401E0202B0AD02C
:1058B00004FA03F2024299B203F10103F6D008465A
:1058C0005DF8044B70474FF6FF7108465DF8044BD6
:1058D000704700BFA0B199B130B40238002402E093
:1058E0000134202C0AD030F8025F9542F8D1012211
:1058F00002FA04F40A6823B122430A6030BC7047FC
:10590000704722EA04020A6030BC704770B49DF808
:105910000C60D0B1C9B1C2B10238002402E0013438
:10592000202C12D030F8025F9D42F8D1012301EB08
:10593000820203FA04F4E043043A04393EB951F810
:10594000043F034091420B60F9D170BC704751F89D
:10595000043F234391420B60F7D051F8043F2343A7
:1059600091420B60F3D1F0E7F0B491B100252B46E2
:10597000012606FA03F4144205D000EB450431F881
:105980001370A78001350133202BF2D10560F0BCE4
:1059900070470D460560F0BC704700BF60B910B598
:1059A000064CA3683BB1D3E900230020A2609847CE
:1059B000A368002BF7D110BD704700BFD02A00208C
:1059C00010B5012882B029D022D303281ED1072187
:1059D000002000F093F802A80023264C00F8013DB7
:1059E000FFF71EFAE368013BE360E36853B9224B1B
:1059F00001221A604FF08042D2F8183413F4803339
:105A0000FAD1A3709DF80700FFF730FA02B010BD7D
:105A10001A4B0122C3F8802002B010BD02A8002357
:105A2000144C00F8013DFFF7FBF9237853B1E3680C
:105A30009DF8070001330122E360A270FFF716FA18
:105A400002B010BD0D4A6360A3602361E36010687B
:105A500010F001000AD004F04BF820B94FF0804359
:105A60000122C3F8182501232370E0E7072100F085
:105A700045F8F0E7D02A00200C00004000E100E0EB
:105A800010B51B4B1A6882B0AAB100221A601B68BD
:105A900000934FF080430122164C0099C3F808236D
:105AA000A36862703BB1D3E900230020A26098474D
:105AB000A368002BF7D1104B1A68B2B100221A600C
:105AC0001B6801934FF0804302220A4C0199C3F8EE
:105AD000082323690122A2703BB1D3E900230120EE
:105AE000226198472369002BF7D102B010BD00BF97
:105AF00000010040D02A0020040100404901002894
:105B000010B4C9B2C3B215DB00F1604202F56142C4
:105B100082F800134009800000F1604000F5614008
:105B200003F01F0201239340C0F8803103605DF849
:105B3000044B7047024A03F00F0422441176E9E750
:105B4000FCEC00E030B5194C94F8545083B055BBD0
:105B50004FF0FF3307210620C4E90033C4E90233C4
:105B6000C4E90433C4E90633C4E90833C4E90A3399
:105B7000C4E90C33C4E90E33C4E91033C4E9123369
:105B80002365FFF7BBFF0A4B0A4A1D601B680193A0
:105B900001984FF000430121284684F85410C2F8C0
:105BA000043303B030BD082003B030BDE42A002028
:105BB0007C61004000600040034B93F854000030CB
:105BC00018BF0120704700BFE42A0020F0B4654BE5
:105BD0001C1894F93050002D66DACE78002E5DD175
:105BE0001D6A013500F0AD8009240C2553F824709E
:105BF00001375DD004F1010C53F82C70013700F02F
:105C0000AA8004F1020CAC4545D253F82C70013740
:105C100000F0A18004F1030CAC453CD253F82C7089
:105C2000013700F0988004F1040CAC4533D253F8EE
:105C30002C70013700F08F8004F1050CAC452AD29E
:105C400053F82C70013700F0868004F1060CAC4547
:105C500021D253F82C7001377DD004F1070CAC45EC
:105C600019D253F82C70013775D004F1080CAC45EB
:105C700011D253F82C7001376DD004F1090CAC45EA
:105C800009D253F82C70013765D00A34AC4202D2E5
:105C9000DC6A01340BD00420F0BC70471D6801356C
:105CA0005BD001240825A1E70820F0BC70470B2435
:105CB0001F1865B243F8242087F83050002E46D0D4
:105CC0008A78B2B1820002F1A042D2F8004724F0F3
:105CD0000204C2F80047CA780978B2B9083D2B44DB
:105CE000104693F8502042EA811183F85010F0BC1E
:105CF00070474C7800F5E0724FF0A046A40046F8DB
:105D00002240CA780978002AE8D0AB0003F180432A
:105D100003F5C0430002D3F8102522F4473222F4E1
:105D20004072C3F81025090400F4F850D3F8102588
:105D300001F4403101431143C3F810150020F0BCB9
:105D40007047082684F830601A62354634461C4491
:105D500084F84800B4E76446AAE700251A6084F88E
:105D60003050ADE7E42A002070B42E4D2E1883B0D9
:105D700096F93030072B1CDD2B4493F848309B09F3
:105D8000032B41D0012B14BF4FF440314FF40031AD
:105D9000800000F1A040D0F8002722F44032C0F883
:105DA0000027D0F800370B43C0F8003703B070BCB1
:105DB0007047DAB2072AF9D8980000F1804000F560
:105DC000C04003F14002D0F81045920092B244F076
:105DD000010402F18042C0F8104502F5C0420020E3
:105DE0000190019C10600029E0D096F9302055F810
:105DF0002220002ADAD001220B4902FA03F3C1F86B
:105E0000043303B070BC70474FF0A043D3F8103593
:105E1000C34013F0010F0CBF4FF400314FF4403179
:105E2000B6E700BFE42A002000600040164B0344A0
:105E300093F93030072B18DCDAB2072A14D810B4E3
:105E40009A0002F1804202F5C042104CD2F81005CF
:105E5000012120F0010001FA03F3C2F81005C4F893
:105E600008335DF8044B70477047800000F1A04094
:105E7000D0F8003723F44033C0F80037D0F80037AB
:105E8000C0F80037704700BFE42A002000600040DF
:105E90004FF0A043D3F8103523FA00F000F00100D2
:105EA000704700BF2DE9F04186B00023A14A01935D
:105EB0001668012E00F054811E469F4B1A68012A75
:105EC00000F05D819D4B1A68012A00F06A819C4BAD
:105ED0001A68012A00F077819A4B1A68012A00F0AB
:105EE0008481994B1A68012A00F09181974B1A68B6
:105EF000012A00F09E81964B1A68012A0CD0954B1E
:105F00001B68012B00F0A58116F0FF0F15D1002EA4
:105F100030DB06B0BDE8F0818F4AD2F804231706C3
:105F2000EDD500221A601A6804926033049A1B6847
:105F3000012B46F0800600F08C81884F002401255B
:105F4000A30003F18043354203F5C0434FEA450502
:105F50000BD0D3F8100557F82420D3F81015C0F350
:105F60000420C1F3014102B190470134082CE7D16C
:105F7000002ECEDA00224FF0FF33CDE90223774C1A
:105F8000012602AF94F950305D1C2CD0DBB223F017
:105F9000C00006AA4FEAD00C02EB0C0E03F0070279
:105FA0001EF80C1C06FA02F211421CD025189909A1
:105FB00095F9303054F82330002B00F098810329F4
:105FC00000F098814FEA800C0CF1A04C1EF8145C94
:105FD000DCF800E71540CEF3014E40F05C81BEF1E5
:105FE000030F00F0DE81002594F95130581C2DD0AC
:105FF000DBB223F0C00006AA4FEAD00802EB080E7D
:1060000003F007011EF80C2C06FA01FC12EA0C0F33
:106010001CD02218990992F9303054F82330002B03
:1060200000F05B81032900F05B81820002F1A04255
:106030001EF8148CD2F800E718EA0C0FCEF3014ECC
:1060400040F03681BEF1030F00F0A68194F9523082
:10605000591C2DD0DBB223F0C00006AA4FEAD008AD
:1060600002EB080E03F007011EF80C2C06FA01FCE7
:1060700012EA0C0F1CD02218990992F9303054F80A
:106080002330002B00F03C81032900F03C8182008A
:1060900002F1A0421EF8148CD2F800E718EA0C0FA7
:1060A000CEF3014E40F0E380BEF1030F00F06E81AD
:1060B00094F953305A1C2DD0DBB223F0C00006AA4D
:1060C0004FEAD00802EB080E03F007011EF80C2C73
:1060D00006FA01FC12EA0C0F1CD02218990992F959
:1060E000303054F82330002B00F0ED80032900F00D
:1060F000ED80820002F1A0421EF8148CD2F800E775
:1061000018EA0C0FCEF3014E40F0BC80BEF1030F35
:1061100000F00081002D3FF4FCAE4FF0A043019A47
:10612000D3F8103593423FF4F4AE029A01930392F0
:1061300028E700BF006100400461004008610040A2
:106140000C61004010610040146100401861004083
:106150001C6100407C61004000600040E42A002097
:106160009A49D1F8041311F0010170D0136013683B
:106170000493049B964B1A68012A7FF4A3AE934ABA
:10618000D2F8042397077FF59DAE00221A601B68A2
:106190000493049B8F4B1A68012A46F002067FF491
:1061A00096AE8A4AD2F8042355077FF590AE0022B6
:1061B0001A601B680493049B874B1A68012A46F0F7
:1061C00004067FF489AE814AD2F8042314077FF5D0
:1061D00083AE00221A601B680493049B7F4B1A68ED
:1061E000012A46F008067FF47CAE784AD2F80423F0
:1061F000D0067FF576AE00221A601B680493049BDC
:10620000774B1A68012A46F010067FF46FAE6F4A8A
:10621000D2F8042391067FF569AE00221A601B684C
:106220000493049B6F4B1A68012A46F020067FF402
:1062300062AE664AD2F8042352067FF55CAE0022B5
:106240001A601B680493049B46F0400653E60E4612
:1062500033E6654B00221A601B6805934FF0A0439C
:10626000059AD3F81035019346F000464CE6BEF18E
:10627000020F7FF41DAF032963D0002B3FF418AF4A
:10628000984715E7BEF1020F7FF444AF032969D0A8
:10629000002B54D13EE7BEF1020F7FF4A4AE0329D8
:1062A00000F091800025002B3FF49EAE98479BE6BE
:1062B000BEF1020F7FF4CAAE032956D0002B3FF483
:1062C000C5AE9847C2E603297FF424AF17F808202B
:1062D00042EA0C0207F808200BE703297FF4B6AE68
:1062E00017F8082042EA0C0207F808209DE6032967
:1062F0007FF479AE17F80C50154307F80C5061E69F
:1063000003297FF4D5AE17F8082042EA0C0207F8FB
:106310000820BCE60329BBD14FF4003ED2F800C7E9
:106320002CF4403CC2F800C7D2F800C701354CEA53
:106330000E0CEDB2C2F800C7002B3FF4EEAE98474A
:10634000E8E64FF4403ED2F800C72CF4403CC2F8D7
:1063500000C7D2F800C701354CEA0E0CEDB2C2F806
:1063600000C78AE74FF4403ED8E74FF4403ED2F8EA
:1063700000C72CF4403CC2F800C7D2F800C7013572
:106380004CEA0E0CEDB2C2F800C797E703297FF480
:1063900074AF4FF4003ED6E703298FD14FF4003E8F
:1063A000E5E703297FF47FAF4FF40035DCF80027E1
:1063B00022F44032CCF80027DCF800272A43CCF83E
:1063C000002701256FE74FF44035EFE700600040FC
:1063D00004610040086100400C6100401061004011
:1063E00014610040186100407C6100402DE9F041DB
:1063F0004479544DE6003719BF0005EB070C9CF8B3
:106400001CE0BEF1000F40F08F80EA51CCF8043060
:106410000B7B91F800C0012B4FF0A0474FF0010318
:1064200003FA0CF394BFC7F80C35C7F808350B789E
:106430004FF0A04E03F5E0734FF0010C4EF823C06F
:106440004F78FF2F68D007F5E0780CFA07F34FF08C
:10645000030CCEF80C354EF828C08B78FF2B60D09B
:1064600003F5E07C9E464FF0A0434FF0040843F84C
:106470002C8091F803C0BCF1FF0F0FD04FF0A04863
:10648000012303FA0CF3C8F80835CB7803F5E07361
:106490004FF0030C48F823C091F803C0437903EB95
:1064A000C30305EB830383F81EC0036891F800C0A3
:1064B000C3F808C5C3F80C75C3F810E58F68C3F8B6
:1064C00024754F7B91F80CC0003718BF0127BCF131
:1064D000020F33D0BCF1030F2DD0BCF1010F01D15D
:1064E00047F00207C3F854754F79C3F8C075F2B18D
:1064F00040270722C3F80473C3F80025097990F9EF
:106500000400FFF7FBFA344405EB84050123002067
:106510002B776877BDE8F0818B78FF2B4FF0FF3742
:106520009ED14FF0FF3EA4E70820BDE8F08107228E
:10653000C3F80025E7E747F00607D3E747F004076D
:10654000D0E700BF3C2B00202DE9F0434479444DB7
:10655000E7003E19B60005EB060E83B09EF81D80DD
:106560009DF828C0B8F1000F74D1AE5916B10126BC
:106570008EF81D600C264FF0240E1EFB046E05EBFA
:106580000E083E1945F80E1005EB860688F8042023
:10659000C8F8083088F80CC096F821E096F81E80FC
:1065A00006F120090EF0FC066FF38206B8F1FF0F2A
:1065B00089F8016006D001264FF0A04E06FA08F6D1
:1065C000CEF80C6521B101F06046B6F1005F25D12F
:1065D00023B103F06046B6F1005F1FD106680020CA
:1065E000C6F84415C6F84825C6F83435C6F838C587
:1065F000C6F81801D6F81831019301223B19019908
:10660000C6F85005C6F84005326155F8233073B11D
:106610004023C6F8043303B0BDE8F0833C4405EBE7
:10662000840500236B77102003B0BDE8F083D6F813
:106630001831002BFBD03C4405EB8405AB7FFF2BCE
:106640000CD001224FF0A04102FA03F3C1F8083543
:106650000020E9E7112003B0BDE8F0830020E3E764
:106660003C2B00200F4BD3F8182102B970470021B2
:106670000D4AC3F81811D3F81811937F82B0FF2B7D
:106680000191019906D001214FF0A04001FA03F3D6
:10669000C0F80835002353771372D2E9003103485C
:1066A00002B01847003000403C2B0020442B002053
:1066B0004FF04023D3F8182102B9704700210E4A49
:1066C000C3F81811D3F8181192F8423082B0FF2B9A
:1066D0000191019906D001214FF0A04001FA03F386
:1066E000C0F80835002382F8413082F82C30D2E916
:1066F0000931024802B018473C2B0020682B0020CB
:10670000F0B506796F4C7601A31987B0DD7E002DB8
:1067100040F089804D7F1D770B685D1C0CD00125F2
:106720004FF0A04705FA03F3C7F808350B6803F5E7
:10673000E073032547F823504B685F1C06D003F530
:10674000E0734FF0A045002745F8237003790568F2
:106750008F6904EB43131B7FC5F82475002B46D0CB
:106760000F7D4B7D05683B43C5F86C35D1E900755D
:106770000368C3F80C75C3F814550B7D012B7FD04B
:10678000A31905465A600B69A351EAB10379097F41
:10679000026804EB43131B7F002B4BD1C2F81C3162
:1067A000D2F81C012A6800900098C2F84431D2F84F
:1067B00044212B680192444A0198C3F804232868B5
:1067C00040F30730FFF79AF92B792A6804EB43135B
:1067D0001B7F5BB30823C2F800353444002001233B
:1067E000E376E0752076A075A07607B0F0BD91F84D
:1067F00014C04D7D076845EA0C05C7F86C55D1E912
:1068000000C70568C5F81475C5F80CC50D7D012DC8
:10681000B6D18D686F1C3DD005F5E0754FF0A047EF
:1068200047F8253036E0082007B0F0BD0423C2F851
:106830000035D2E70023C2F81031D2F810012A68DF
:1068400002900298C2F82031D2F820012A68039001
:106850000398C2F82431D2F824012A6804900498DD
:10686000C2F84431D2F844212B680592174A0598A2
:10687000C3F80423286840F30730FFF73FF9A3E784
:106880008B685D1C06D003F5E0734FF0A045002730
:1068900045F82370CB685D1C0DD001254FF0A04753
:1068A00005FA03F3C7F80835CB6803F5E073032551
:1068B00047F82350CB6805688F68C5F80835C5F8D8
:1068C00010755DE7842B0020800002001003020099
:1068D000F0B404793C4B016864011A19127F002A54
:1068E0006DD00022C1F800251A1901795568026897
:1068F000B5B103EB4111097F002963D13349C2F8D7
:1069000008130268324E120B51B24909203102F0CD
:106910001F02012505FA02F246F8212001790268DA
:10692000D2F80C75D2F8146503EB41114FF0FF3C1F
:10693000097FB1B3D2F80815D2F81055C2F80CC5CA
:10694000C2F814C50268C2F808C5C2F810C57A1C9E
:1069500006D007F5E0774FF0A042022042F827006A
:10696000771C06D006F5E0764FF0A042022042F8F0
:106970002600681C06D005F5E0754FF0A042022005
:1069800042F825004A1C06D001F5E0714FF0A04204
:10699000022042F8210023440022DA765A60F0BC3B
:1069A0007047D2F80815D2F81055C2F814C5C2F8CD
:1069B0000CC50268C2F808C5C2F810C5C7E7C1F81F
:1069C000002591E703499AE7842B00208402020006
:1069D00000E100E010030200F0B50379524C5B01C6
:1069E000E51887B02D7F25B101F06045B5F1005F56
:1069F00058D123449E7D002E57D19A7599609E826E
:106A000005796D016219137F13BB0168C1F81C3150
:106A1000D1F81C61016804960126049F8E6001680C
:106A2000D2F808C0C1F81C31D1F81C310593059B80
:106A3000968A938A5768B6B201331CF806609BB2F7
:106A40009382C1F81C65002F32D0002007B0F0BD42
:106A500003689168C3F82061D3F82031019303687B
:106A6000019FC3F85861D3F8586103680296967D78
:106A7000029FC3F84415C3F8486503680121996073
:106A80005368002BE1D1036801E0002949D1D3F814
:106A90002021D3F85811002AF7D0002914BF0F2065
:106AA000002039E0102007B0F0BD112007B0F0BD84
:106AB000967D938A9E4222D9016804E0938A9BB214
:106AC000B3F5807F03D0D1F81C31002BF6D0938A28
:106AD0009BB2B3F5807FECD0C1F81C71D1F81C31AA
:106AE0000393039BB2F814E0938A1FFA8EFE0133DE
:106AF0001CF80EE09BB29382C1F81CE5D9E7938A9B
:106B00009BB2B3F5807F0CD00268D2F81C31002B09
:106B1000FBD00123D36000202C440023A37507B0D1
:106B2000F0BD0F20F8E700BF842B0020F0B5A94C82
:106B3000237F8FB0002B73D1A74AD2F804138905A5
:106B400046D4A54BD3F80423520704D5D3F8082123
:106B5000002A40F0D480A04BD3F81C21BAB1A18AFE
:106B6000A27D8A4200F2B9800021C3F81C11D3F83B
:106B70001C310593059B52B1A3688DF82810A175AF
:106B80000B938DF83020D4E900130AA89847924B54
:106B9000D3F84421D2B10022C3F84421D3F84411E0
:106BA000A27E04910499002A40F09480E37D6BB1A9
:106BB0000023617EE268E37501238DF830108DF8C3
:106BC00028300B92D4E900130AA898470FB0F0BD03
:106BD000D2F824110029B4D0C2F82431D2F82411FB
:106BE000A37E07914FF401710798C2F808130BB9FF
:106BF00001235360784A02238DF82830D2F880347C
:106C0000C2F88034E07DE2680D9300238DF83000F7
:106C1000E375237621680B9263680AA898479AE780
:106C20006D4BD3F82421002A00F097800022C3F88E
:106C30002421D3F82411029102218DF82810029901
:106C4000D3F88014C3F880140D91D3F83C15E36891
:106C50008DF830100B93E2752276216863680AA8DC
:106C600098475D4BD3F84421B2B10022C3F84421C8
:106C7000D3F84401E17D0190019869B1D3F83C3526
:106C8000E1688DF8303001230B918DF82830E275E2
:106C9000D4E900130AA898474F4BD3F82021002AC3
:106CA00094D00022C3F82021D3F82001A17D0090C8
:106CB000009800298AD0D3F84C15A3688DF83010BD
:106CC0000B938DF82820A275D4E900130AA89847E1
:106CD0000FB0F0BD01221A6068E70022C3F81C2142
:106CE000D3F81C210692069AA18AA28AA06889B2CA
:106CF0000132415C92B2A282C3F81C1547E7E27DE3
:106D0000002A54D00022C3F80821D3F808210892A1
:106D1000089AE168627ED3F818358B54637EE27D71
:106D20000133DBB26376637E93427FF414AF237E3C
:106D30002168002B52D0E268657E2069E3750B92D2
:106D400000230122E060237663768DF830508DF8C1
:106D5000282063680AA89847FDE6D3F81011002997
:106D60003FF47FAFC3F81021D3F8101103910399BA
:106D7000D3F83C15E07DC9B288427FF472AF257E1E
:106D8000E768D4E90016DDB1D3F800C2E5752CF050
:106D900020052276C3F80052012223698DF83000C5
:106DA000E3600B978DF828200AA8B04759E7C3F88D
:106DB0000821D3F8081109910999D3F81835B2E7D9
:106DC00001238DF83000E5750B978DF828300AA85F
:106DD000B04746E7842B002000200040A37E13B973
:106DE0000A4B01225A60094AE06863684FF4017552
:106DF000C2F80853627E8DF83020002501220B90E6
:106E0000E5758DF828200AA89847A4E600200040E0
:106E100073DF704776DF70477ADF70477CDF70473B
:106E20007FDF70478FDF7047A8DF7047A9DF7047AB
:106E300066DF70473EDF7047014B01221A707047D2
:106E40006D2C0020FDF7E6B908B50C4B0C4A1B6809
:106E50000021012B116007D10220FDF79BF8094AA0
:106E600009480421FDF742FA084B09491888000433
:106E700040F00300BDE80840FCF790BCA0210020D2
:106E800094210020F57B0200902D00208C2300200F
:106E900088A4020008B5037803B108BD054B3B2167
:106EA0001888FFF7B7FF0028F7D0BDE80840FDF7C6
:106EB000B1B900BFA42100200D281ED110B5104B80
:106EC000188800040C4640F003000E49FCF766FCED
:106ED0000D4B0E491888224602F064FD30F008027E
:106EE0000DD043F20202904209D043F20142904297
:106EF00005D0BDE81040FDF78DB9FDF78BB910BD89
:106F00008C2300206CA40200A4210020542C00201B
:106F100010B50388013B84B00446552B58D8DFE8F0
:106F200003F08E5757575757575757575757575775
:106F300057952B57AB57575757575757575757577B
:106F400057576357575757575757575757575757C5
:106F500057575757575757575757575759575757BF
:106F600057575757575757575757575757575757B1
:106F700057576D8457575759444B45491888000453
:106F800040F00300FCF70AFC0120FDF70FF8414B2D
:106F90004FF6FF721A80FDF723F908B1FDF73AF9B1
:106FA00010220021684602F062FF0023402268465A
:106FB00001218DF8003001938DF80830CDF80A20BA
:106FC000FFF726FF08B1FDF725F90020FCF7E2FFE7
:106FD00004B010BD80881321FFF71CFF0028F7D0F4
:106FE000FDF718F904B010BD04A9002321F8103DE5
:106FF0008088FFF717FF0028EAD0F1E78379002B9C
:10700000E6D0827B043A022AE2D8022B18BF012381
:107010008DF8003080884FF4C1736946ADF80430B4
:10702000FFF702FF0028D3D0DAE71A4A00231088BE
:1070300019461A46FFF7FAFE0028C9D0D0E7808823
:107040000021FFF7F5FE0028C2D0C9E70F4B124917
:107050001888000440F00300FCF7A0FB0120FCF7B7
:1070600099FF0020FCF7A2FF0A4BA2881A80FDF7C7
:10707000A1F80028ACD0B3E7064A00231088852188
:107080001A46FFF7CDFE0028A2D0A9E78C230020E6
:107090005CA40200A421002050A4020010B584B01A
:1070A0004FF0A04304A94FF080522C4C01F8010D81
:1070B000C3F80825002200922270294B294801229A
:1070C000FFF742FA08B145E020BF2378002BFBD040
:1070D000254B26491A680A2300BF00BF00BF00BF26
:1070E00000BF00BF00BF00BF8A422FD000BF00BF5B
:1070F00000BF00BF00BF00BF00BF00BF00BF00BF98
:1071000000BF00BF00BF00BF00BF00BF00BF00BF87
:1071100000BF00BF00BF00BF00BF00BF00BF00BF77
:1071200000BF00BF00BF00BF00BF00BF00BF00BF67
:1071300000BF00BF00BF00BF00BF00BF00BF00BF57
:1071400000BF00BF00BF00BF00BF00BF013BC3D1F5
:1071500004B010BDFDF75EF8B7E700BF6D2C00204E
:107160006C2C0020A8A40200B02100200024F40010
:1071700010B584B04FF0A04304A94FF080522C4CBE
:1071800001F8010DC3F80C25002200922270294B52
:1071900029480122FFF7D8F908B145E020BF23783C
:1071A000002BFBD0254B26491A680A2300BF00BFDD
:1071B00000BF00BF00BF00BF00BF00BF8A422FD08A
:1071C00000BF00BF00BF00BF00BF00BF00BF00BFC7
:1071D00000BF00BF00BF00BF00BF00BF00BF00BFB7
:1071E00000BF00BF00BF00BF00BF00BF00BF00BFA7
:1071F00000BF00BF00BF00BF00BF00BF00BF00BF97
:1072000000BF00BF00BF00BF00BF00BF00BF00BF86
:1072100000BF00BF00BF00BF00BF00BF00BF00BF76
:10722000013BC3D104B010BDFCF7F4FFB7E700BFCA
:107230006D2C00206C2C0020A8A40200B02100209E
:107240000024F40070B52A208D4E8E4DFFF790FF7C
:107250000020FFF723FF30680230C0B2FFF71EFFA7
:107260000020FFF71BFF30680230C0B2FFF716FFA7
:107270002B20FFF77DFF0020FFF710FF2878FFF796
:107280000DFF0020FFF70AFF28680330C0B2FFF7A8
:1072900005FF2C20FFF76CFF0320FFF7FFFE032004
:1072A000FFF7FCFE0320FFF7F9FE0320FFF7F6FED1
:1072B0002A20FFF75DFF0020FFF7F0FE3068033063
:1072C000C0B2FFF7EBFE0020FFF7E8FE30680330A6
:1072D000C0B2FFF7E3FE2B20FFF74AFF0020FFF7C5
:1072E000DDFE2878FFF7DAFE0020FFF7D7FE2868DA
:1072F0000330C0B2FFF7D2FE2C20FFF739FFE020A9
:10730000FFF7CCFEE020FFF7C9FEE020FFF7C6FE46
:10731000E020FFF7C3FE2A20FFF72AFF0020FFF737
:10732000BDFE30680230C0B2FFF7B8FE0020FFF7A4
:10733000B5FE30680230C0B2FFF7B0FE2B20FFF779
:1073400017FF0020FFF7AAFE28680430C0B2FFF73D
:10735000A5FE0020FFF7A2FE28680730C0B2FFF7A5
:107360009DFE2C20FFF704FF05241F20FFF796FE4B
:10737000013CFAD12A20FFF7FBFE2046FFF78EFEE4
:1073800030680330C0B2FFF789FE2046FFF786FE63
:1073900030680330C0B2FFF781FE2B20FFF7E8FE14
:1073A0002046FFF77BFE28680430C0B2FFF776FE68
:1073B0002046FFF773FE28680730C0B2FFF76EFE65
:1073C0002C20FFF7D5FE0524FC20FFF767FE013CCB
:1073D000FAD12A20FFF7CCFE2046FFF75FFE307877
:1073E000FFF75CFE2046FFF759FE3078FFF756FEA8
:1073F0002B20FFF7BDFE2046FFF750FE2868073020
:10740000C0B2FFF74BFE2046FFF748FE28680B305E
:10741000C0B2FFF743FE2C20FFF7AAFE0624FC2093
:10742000FFF73CFE013CFAD12A20FFF7A1FE2046DF
:10743000FFF734FE30680530C0B2FFF72FFE20465C
:10744000FFF72CFE30680530C0B2FFF727FE2B2077
:10745000FFF78EFE2046FFF721FE28680730C0B2F6
:10746000FFF71CFE2046FFF719FE28680B30C0B25C
:10747000FFF714FE2C20FFF77BFE062404E000BF7C
:10748000A8210020AC2100201F20FFF707FE013CAF
:10749000FAD12A20FFF76CFE2046FFF7FFFD306887
:1074A0000130C0B2FFF7FAFD2046FFF7F7FD306864
:1074B0000130C0B2FFF7F2FD2B20FFF759FE204646
:1074C000FFF7ECFD28680B30C0B2FFF7E7FD204660
:1074D000FFF7E4FD28680B30C0B2FFF7DFFD2C207A
:1074E000FFF746FE1F20FFF7D9FD2A20FFF740FED9
:1074F0002046FFF7D3FD30680130C0B2FFF7CEFD64
:107500002046FFF7CBFD30680130C0B2FFF7C6FD63
:107510002B20FFF72DFE2046FFF7C0FD28680A301C
:10752000C0B2FFF7BBFD2046FFF7B8FD28680A3060
:10753000C0B2FFF7B3FD2C20FFF71AFE0320FFF7C0
:10754000ADFD2A20FFF714FE2046FFF7A7FD3068A7
:107550000230C0B2FFF7A2FD2046FFF79FFD306862
:107560000230C0B2FFF79AFD2B20FFF701FE204644
:10757000FFF794FD28680830C0B2FFF78FFD204662
:10758000FFF78CFD28680930C0B2FFF787FD2C207B
:10759000FFF7EEFDFC20FFF781FDFC20FFF77EFDED
:1075A000FC20FFF77BFD2A20FFF7E2FD2046FFF7D6
:1075B00075FD30680230C0B2FFF770FD2046FFF75E
:1075C0006DFD30680230C0B2FFF768FD2B20FFF779
:1075D000CFFD2046FFF762FD28680A30C0B2FFF7F2
:1075E0005DFD2046FFF75AFD28680B30C0B2FFF75B
:1075F00055FD2C20FFF7BCFDE020FFF74FFDE020FC
:10760000FFF74CFDE020FFF749FD2A20FFF7B0FD12
:107610002046FFF743FD30680330C0B2FFF73EFD60
:107620002046FFF73BFD30680330C0B2FFF736FD60
:107630002B20FFF79DFD2046FFF730FD286808301E
:10764000C0B2FFF72BFD2046FFF728FD2868093060
:10765000C0B2FFF723FD2C20FFF78AFD1F20FFF7A4
:107660001DFD1F20FFF71AFD1F20FFF717FD2A2021
:10767000FFF77EFD2046FFF711FD30680330C0B2F2
:10768000FFF70CFD2046FFF709FD30680330C0B25C
:10769000FFF704FD2B20FFF76BFD2046FFF7FEFCF4
:1076A00028680A30C0B2FFF7F9FC2046FFF7F6FC65
:1076B00028680B30C0B2FFF7F1FC2C20FFF758FD13
:1076C0000320FFF7EBFC0320FFF7E8FC0320FFF7A4
:1076D000E5FC2A20FFF74CFD2046FFF7DFFC306871
:1076E0000430C0B2FFF7DAFC2046FFF7D7FC306861
:1076F0000430C0B2FFF7D2FC2B20FFF739FD204643
:10770000FFF7CCFC28680B30C0B2FFF7C7FC20465F
:10771000FFF7C4FC28680B30C0B2FFF7BFFC2C2079
:10772000FFF726FDFC20FFF7B9FC2A20FFF720FD1C
:107730002046FFF7B3FC30680430C0B2FFF7AEFC60
:107740002046FFF7ABFC30680430C0B2FFF7A6FC60
:107750002B20FFF70DFD2046FFF7A0FC28680A301C
:10776000C0B2FFF79BFC2046FFF798FC28680A3060
:10777000C0B2FFF793FC2C20FFF7FAFCE020FFF7E4
:107780008DFC2A20FFF7F4FC2046FFF787FC3078B9
:10779000FFF784FC2046FFF781FC30680530C0B25B
:1077A000FFF77CFC2B20FFF7E3FC2046FFF776FC7D
:1077B00028680C30C0B2FFF771FC2046FFF76EFC62
:1077C00028680E30C0B2FFF769FC2C20FFF7D0FC10
:1077D0000624FF20FFF762FCFF20FFF75FFCFF207D
:1077E000FFF75CFC013CF4D12A20FFF7C1FC2046E6
:1077F000FFF754FC3078FFF751FC2046FFF74EFCB2
:107800003078FFF74BFC2B20FFF7B2FC2046FFF748
:1078100045FC28680E30C0B2FFF740FC2046FFF759
:107820003DFC28681130C0B2FFF738FC2C20FFF770
:107830009FFCFF20FFF732FCFF20FFF72FFCFF200B
:10784000FFF72CFCFF20FFF729FC2A20FFF790FC14
:107850002046FFF723FC3078FFF720FC2046FFF797
:107860001DFC3078FFF71AFC2B20FFF781FC204627
:10787000FFF714FC28681030C0B2FFF70FFC204659
:10788000FFF70CFC28681130C0B2FFF707FC2C2072
:10789000FFF76EFCFC20FFF701FCFC20FFF7FEFB6E
:1078A0002A20FFF765FC2046FFF7F8FB306805301B
:1078B000C0B2FFF7F3FB2046FFF7F0FB306805305E
:1078C000C0B2FFF7EBFB2B20FFF752FC2046FFF77F
:1078D000E5FB28680E30C0B2FFF7E0FB2046FFF75B
:1078E000DDFB28681130C0B2FFF7D8FB2C20FFF772
:1078F0003FFCFF20FFF7D2FBFF20FFF7CFFBFF206D
:10790000FFF7CCFBFF20FFF7C9FB2A20FFF730FC75
:107910002046FFF7C3FB30680530C0B2FFF7BEFB5F
:107920002046FFF7BBFB30680530C0B2FFF7B6FB5F
:107930002B20FFF71DFC2046FFF7B0FB2868103016
:10794000C0B2FFF7ABFB2046FFF7A8FB2868113059
:10795000C0B2FFF7A3FB2C20FFF70AFC1F20FFF7A4
:107960009DFB1F20FFF79AFB2A20FFF701FC204612
:10797000FFF794FB30680130C0B2FFF78FFB204661
:10798000FFF78CFB30680130C0B2FFF787FB2B207C
:10799000FFF7EEFB2046FFF781FB28680F30C0B2EF
:1079A000FFF77CFB2046FFF779FB28680F30C0B259
:1079B000FFF774FB2C20FFF7DBFB0320FFF76EFBC8
:1079C0002A20FFF7D5FB2046FFF768FB306801301F
:1079D000C0B2FFF763FB2046FFF760FB3068013061
:1079E000C0B2FFF75BFB2B20FFF7C2FB2046FFF77F
:1079F00055FB28681030C0B2FFF750FB2046FFF758
:107A00004DFB28681130C0B2FFF748FB2C20FFF770
:107A1000AFFB1F20FFF742FB1F20FFF73FFB2A2091
:107A2000FFF7A6FB2046FFF739FB30680230C0B2F3
:107A3000FFF734FB2046FFF731FB30680230C0B25D
:107A4000FFF72CFB2B20FFF793FB2046FFF726FBCD
:107A500028681030C0B2FFF721FB2046FFF71EFB5D
:107A600028681130C0B2FFF719FB2C20FFF780FB0C
:107A7000FC20FFF713FBFC20FFF710FB2A20FFF789
:107A800077FB2046FFF70AFB30680430C0B2FFF7EF
:107A900005FB2046FFF702FB30680430C0B2FFF759
:107AA000FDFA2B20FFF764FB2046FFF7F7FA286862
:107AB0000F30C0B2FFF7F2FA2046FFF7EFFA28685E
:107AC0000F30C0B2FFF7EAFA2C20FFF751FBE0209D
:107AD000FFF7E4FA2A20FFF74BFB2046FFF7DEFA18
:107AE00030680430C0B2FFF7D9FA2046FFF7D6FA63
:107AF00030680430C0B2FFF7D1FA2B20FFF738FB13
:107B00002046FFF7CBFA28681030C0B2FFF7C6FA5C
:107B10002046FFF7C3FA28681130C0B2FFF7BEFA5B
:107B20002C20FFF725FBFC20FFF7B8FAFC20FFF71D
:107B3000B5FA2A20FFF71CFB2046FFF7AFFA3068A2
:107B40000330C0B2FFF7AAFA2046FFF7A7FA306861
:107B50000330C0B2FFF7A2FA2B20FFF709FB204643
:107B6000FFF79CFA28681030C0B2FFF797FA20465A
:107B7000FFF794FA28681130C0B2FFF78FFA2C2073
:107B8000FFF7F6FA1F20FFF789FA1F20FFF786FAA2
:107B90002A20FFF7EDFA2046FFF780FA306802301E
:107BA000C0B2FFF77BFA2046FFF778FA306803305F
:107BB000C0B2FFF773FA2B20FFF7DAFA2046FFF77F
:107BC0006DFA28680F30C0B2FFF768FA2046FFF759
:107BD00065FA28680F30C0B2FFF760FA2C20FFF773
:107BE000C7FAFF20FFF75AFAFF20BDE87040FFF701
:107BF00055BA00BF10B584B0FFF724FB04A92923B0
:107C000001F8013D4FF0A0434FF080522A4CC3F8D9
:107C10000C25002200922270284B29480122FEF7F1
:107C200093FC08B145E020BF2378002BFBD0254B07
:107C300025491A680A2300BF00BF00BF00BF00BF6C
:107C400000BF00BF00BF8A422FD000BF00BF00BFEF
:107C500000BF00BF00BF00BF00BF00BF00BF00BF2C
:107C600000BF00BF00BF00BF00BF00BF00BF00BF1C
:107C700000BF00BF00BF00BF00BF00BF00BF00BF0C
:107C800000BF00BF00BF00BF00BF00BF00BF00BFFC
:107C900000BF00BF00BF00BF00BF00BF00BF00BFEC
:107CA00000BF00BF00BF00BF00BF013BC3D104B095
:107CB00010BDFCF7AFFAB7E76D2C00206C2C00204C
:107CC000A8A40200B02100200024F4004FF0A0413D
:107CD00070B54FF08040694EC1F80C0542F2107546
:107CE0003268674C2B4600BF00BF00BF00BF00BF1B
:107CF00000BF00BF00BFA2422FD000BF00BF00BF27
:107D000000BF00BF00BF00BF00BF00BF00BF00BF7B
:107D100000BF00BF00BF00BF00BF00BF00BF00BF6B
:107D200000BF00BF00BF00BF00BF00BF00BF00BF5B
:107D300000BF00BF00BF00BF00BF00BF00BF00BF4B
:107D400000BF00BF00BF00BF00BF00BF00BF00BF3B
:107D500000BF00BF00BF00BF00BF013BC3D1494B04
:107D6000C1F8080500BF00BF00BF00BF00BF00BFD3
:107D700000BF00BFA2422FD000BF00BF00BF00BFA6
:107D800000BF00BF00BF00BF00BF00BF00BF00BFFB
:107D900000BF00BF00BF00BF00BF00BF00BF00BFEB
:107DA00000BF00BF00BF00BF00BF00BF00BF00BFDB
:107DB00000BF00BF00BF00BF00BF00BF00BF00BFCB
:107DC00000BF00BF00BF00BF00BF00BF00BF00BFBB
:107DD00000BF00BF00BF00BF013BC3D1D720FFF7EA
:107DE000C7F99F20FFF75AF9E020FFF7C1F90020FB
:107DF000FFF754F9336800BF00BF00BF00BF00BFEA
:107E000000BF00BF00BFA3422FD000BF00BF00BF14
:107E100000BF00BF00BF00BF00BF00BF00BF00BF6A
:107E200000BF00BF00BF00BF00BF00BF00BF00BF5A
:107E300000BF00BF00BF00BF00BF00BF00BF00BF4A
:107E400000BF00BF00BF00BF00BF00BF00BF00BF3A
:107E500000BF00BF00BF00BF00BF00BF00BF00BF2A
:107E600000BF00BF00BF00BF00BF013DC3D1E32082
:107E7000FFF77EF944F62063326805E0B021002068
:107E80000024F400C0D4010000BF00BF00BF00BF49
:107E900000BF00BF00BF00BFA2422FD000BF00BF85
:107EA00000BF00BF00BF00BF00BF00BF00BF00BFDA
:107EB00000BF00BF00BF00BF00BF00BF00BF00BFCA
:107EC00000BF00BF00BF00BF00BF00BF00BF00BFBA
:107ED00000BF00BF00BF00BF00BF00BF00BF00BFAA
:107EE00000BF00BF00BF00BF00BF00BF00BF00BF9A
:107EF00000BF00BF00BF00BF00BF00BF013BC3D138
:107F0000E120FFF735F91120FFF732F92820FFF7BC
:107F10002FF94CF25033326800BF00BF00BF00BFE2
:107F200000BF00BF00BF00BFA2422FD000BF00BFF4
:107F300000BF00BF00BF00BF00BF00BF00BF00BF49
:107F400000BF00BF00BF00BF00BF00BF00BF00BF39
:107F500000BF00BF00BF00BF00BF00BF00BF00BF29
:107F600000BF00BF00BF00BF00BF00BF00BF00BF19
:107F700000BF00BF00BF00BF00BF00BF00BF00BF09
:107F800000BF00BF00BF00BF00BF00BF013BC3D1A7
:107F9000C020FFF7EDF85320FFF780F80120FFF72E
:107FA0007DF8C320FFF7E4F80220FFF777F8C4203C
:107FB000FFF7DEF80620FFF771F8D020FFF7D8F8BA
:107FC0001D20FFF76BF8B520FFF7D2F80020FFF770
:107FD00065F83920FFF7CCF83A20FFF7C9F80220FE
:107FE000FFF75CF83620FFF7C3F80020FFF756F8DC
:107FF000B020FFF7BDF89F20FFF750F8B420FFF73F
:10800000B7F8A020FFF74AF83020FFF7B1F80020BA
:10801000FFF744F80020FFF741F80020FFF73EF893
:108020007720FFF73BF82020FFF7A2F82A20FFF780
:108030009FF80020FFF732F80020FFF72FF800200C
:10804000FFF72CF87F20FFF729F82B20FFF790F897
:108050000020FFF723F80020FFF720F80020FFF7AB
:108060001DF89F20FFF71AF82A20FFF781F800205B
:10807000FFF714F80020FFF711F80020FFF70EF8C3
:108080004F20FFF70BF82B20FFF772F80020FFF7C7
:1080900005F80020FFF702F80020FEF7FFFF782028
:1080A000BDE87040FEF7FABF2DE9F04F2A2085B0F9
:1080B000FFF75EF80020FEF7F1FF0020FEF7EEFF6D
:1080C0000020FEF7EBFF7F20FEF7E8FF2B20FFF7F5
:1080D0004FF80020FEF7E2FF0020FEF7DFFF002050
:1080E000FEF7DCFF9F20FEF7D9FF2C20FFF740F8BA
:1080F000374CDFF8E890DFF8E880364F40F27D1B20
:108100004FF080569F254FF0A04A4FF0000C8DF89D
:108110000FC04346CAF808650122CDF800C00DF132
:108120000F01384684F800C0FEF70EFA08B14BE0A4
:1081300020BF2378002BFBD00A23D9F80020264942
:1081400000BF00BF00BF00BF00BF00BF00BF00BF37
:108150008A422FD000BF00BF00BF00BF00BF00BFDA
:1081600000BF00BF00BF00BF00BF00BF00BF00BF17
:1081700000BF00BF00BF00BF00BF00BF00BF00BF07
:1081800000BF00BF00BF00BF00BF00BF00BF00BFF7
:1081900000BF00BF00BF00BF00BF00BF00BF00BFE7
:1081A00000BF00BF00BF00BF00BF00BF00BF00BFD7
:1081B00000BF00BF013BC3D1013DA6D1BBF1010B04
:1081C000A0D105B0BDE8F08FFCF724F8B1E700BFFF
:1081D0006D2C0020A8A402000024F400B02100208F
:1081E0006C2C002070B5A0B0FBF7ECFEFCF7B6FCE1
:1081F00008B1FCF70FF80020FBF764FA08B1FCF7B0
:1082000009F8FBF743F940F2666201217848FBF771
:108210007BFF08B1FBF7FEFF01F0E6FB08B1FBF7BF
:10822000F9FF20AC002344F83C3D0120214601F039
:10823000A7FC08B1FBF7EEFF204601F053FD08B1A3
:10824000FBF7E8FF20AD112305F8783D694801F000
:1082500016FE684982B22846FEF7E0FD08B1FBF73A
:10826000D9FF08220021204601F001FE624B119344
:1082700020464FF0C8731293FEF7CEFD08B1FBF70E
:10828000C9FF00215D4800F0ABFF08B1FBF7C2FF5A
:108290005B4B5C481193214601F0B0FA08B1FBF743
:1082A000B9FF584A927C8DF8062041F223533C22B4
:1082B00000212846ADF8043001F0D9FD0220062344
:1082C000012600218DF808003C2220468DF80B3055
:1082D0008DF80A6001F0CBFD01AB28462146ADF8D0
:1082E0005460169300F006FB08B1FBF793FF1C22C5
:1082F0000021204601F0BBFD00234FF42020424A1C
:108300001193ADF852308DF85430404B12904FF429
:1083100020350321204613958DF85010CDE9162302
:1083200000F08CFE08B1FBF775FF102200212046FB
:1083300001F09DFD00234022012120468DF84430AC
:1083400012938DF84C30CDF84E20FEF761FD08B148
:10835000FBF760FF0020FBF71DFE2D4B0FCB84E8E1
:108360000F001F2241F6045021464FF08055032490
:108370008DF84720ADF844000023264A264813957F
:108380008DF85040FEF732F808B1FBF743FF4FF08D
:10839000A04303224FF080504FF08041C3F80805FE
:1083A000C3F87027C3F80C15C3F87827FFF78EFCC5
:1083B000FFF77AFE194A0C210420FBF76FFF08B182
:1083C000FBF728FF164CFBF7FBFFFBF75FFC0028D1
:1083D000FBD120BFFBF75AFC0028F4D12368002B07
:1083E000F1D0FEF727FD0028EDD0FBF713FFEAE7F9
:1083F000982100209CA402005000A000402C0020E6
:10840000496E0200542C0020956E0200456E020059
:1084100040A40200396E0200A8A40200A42B002090
:10842000942100206DDF704772DF704779DF70475D
:108430007DDF704764DF70472DE9F04F85B0048819
:108440000E9FBDF83CA03D880195002C51D0994667
:10845000002390468B4605461C4603E02A880134DB
:10846000A24226DD6A6852F82400039000220DF132
:108470000B0103A8FFF7DEFF064620BB9DF80B208B
:108480004245EBD13A8808EB020103B38A452BDB66
:108490004A440DF10B0103A80123FFF7CBFF68BB92
:1084A00039889DF80B200A443A802A880134A24278
:1084B000D8DCF3B13B88019A013B9B1A9BB2FF2B9E
:1084C00012D809F80230304605B0BDE8F08F02310D
:1084D00001328A4592B207DB3A8009F802B03A8845
:1084E000013292B23A80D3E70C26304605B0BDE89F
:1084F000F08F0026304605B0BDE8F08F06463046C6
:1085000005B0BDE8F08F00BF2DE9F04700231788C4
:10851000138090F82D3086B0144605460E46002B89
:1085200040F0F280AA78002A40F0F480EA78A2B104
:10853000D91CB94200F2EA800221F15423880133A8
:108540009BB201212380F15423880B449BB22380EA
:10855000F25423880B449BB223806A68AAB1D91CC9
:10856000B94200F2D380022192F90020F15423880D
:1085700001339BB20A212380F154238801339BB23B
:108580002380F2542388013323802B89002B40F071
:1085900012812B8A002B40F026812B8B002B40F080
:1085A0003A812B6A002B47D0B4F800E00EF10602A6
:1085B000BA4200F2AB801A88052A40F2F8806FF4C4
:1085C000486802EB080189B24FF27D30814240F2E7
:1085D000EE805988052940F2EA806FF4486C8C449B
:1085E0001FFA8CFC844540F2E2804FF6FF70824215
:1085F00004D0814202D08A4200F2D980052206F8D6
:108600000E202288013292B212212280B154228897
:10861000013292B222801988B1543244090A517051
:108620002288023292B222805B88B35432441B0A01
:1086300053702388023323806B6A002B2FD09988D4
:10864000B4F800C0881C0CF102020244BA425DD8A2
:10865000FE285BD8033106F80C102288013292B252
:10866000FF212280B1542288013292B222801988DF
:10867000B1543244090A51702088023080B22080FF
:108680009A8862B199680393002900F09080304481
:1086900001F0E2FB039B9A8823881344238095F81A
:1086A0002C30002B7ED1287888B32B88012B7ED0EC
:1086B00023889A1CBA4229D8012804D1697802314A
:1086C00019448F4222D3023FFF1A06A9BFB221F8F4
:1086D000087DB018FFF7ACFEC8B92B78022B00F06C
:1086E000FA80012B00F0FF800822FE2F0ED823888D
:1086F000791CF154238801339BB22380F2542388E0
:1087000001331F44278002E0082F23D80C2006B035
:10871000BDE8F0870433BB42F8D804A8FFF786FE13
:108720000028F4D12388BDF810200321F1542388B8
:1087300001339BB219212380F154238801339BB26A
:10874000F1182380F254120A4A70238802339BB234
:108750002380EBE604A8FFF765FE0028D7D1138835
:108760000822CA54238801339BB21B222380CA5497
:108770002088013080B22080062208440DF11101CA
:1087800001F06AFB23889DF8102006339BB212F09B
:10879000FE0218BF01222380F254238801339BB2CA
:1087A0002380BFE6D5F82880B8F1000F4CD1072010
:1087B00006B0BDE8F08705F108080222CDE90047C0
:1087C000404611463346FFF737FE00289FD1CDE9DA
:1087D00000474046334610220621FFF72DFE0028B1
:1087E0003FF4D7AE93E705F11008CDE900474046C6
:1087F000334602220321FFF71FFE002887D1CDE96F
:1088000000474046334610220721FFF715FE002897
:108810003FF4C3AE7BE705F11808CDE900474046B9
:10882000334602221421FFF707FE00287FF46FAFC2
:10883000CDE900474046334610221521FFF7FCFDE5
:1088400000283FF4AEAE62E7B8F804200232FE2AF8
:108850003FF65CAF23884FF000094FF0160A013253
:10886000F254238801339BB2238006F803A02388A7
:1088700001339BB22380B8F80020F2543344120A2B
:108880005A70238802339BB22380B8F80410F01882
:108890000A4661B1D8F808301946002B87D001F09C
:1088A000DBFAB8F80420238813449BB2238009F133
:1088B000010995F82C205FFA89F94A4509EB490826
:1088C0007FF6F1AEAA6A02EB8808B8F804200232FB
:1088D000FE2AC4D91AE7BDF810309F42FFF404AF56
:1088E0001F46092201E76B789F42FFF4FDAE1F4649
:1088F0000822FAE62DE9F04395B01F230D46ADF8A6
:108900000E300446002800F01681C1784B0740F174
:108910000E8190F82D300022ADF80C20002B40F095
:1089200052818378002B40F022811A46032014AE36
:1089300032445F1C023316FA87F74FF0020C16FA26
:1089400083F602F840CC83B2012207F8402CADF840
:108950000C3006F8401C6068D0B1DE1C1F2E03D915
:108960000C2015B0BDE8F08314AF591C9A1C17FAFF
:1089700081F13B4417FA82F290F90000ADF80C60E7
:1089800002270A2603F8407C01F8406C02F8400CEC
:108990002389002B40F05181238A002B40F0C281B3
:1089A000238B002B40F0DE81236A002B46D0BDF8DC
:1089B0000C20911D1F29D3D81888052840F2B780B4
:1089C0006FF4486800EB0806B6B24FF27D37BE423E
:1089D00040F2AD805E88052E40F2A9806FF4486CAD
:1089E000B4441FFA8CFCBC4540F2A1804FF6FF77DF
:1089F000B84204D0BE4202D0B04200F2988014A81F
:108A00008718561C10FA86F64FF0050C901C07F8D4
:108A100040CC80B2122706F8407CADF80C001F88CD
:108A2000ADF80C1004AE3118375404323F0A4F70C1
:108A300092B25B88B35432441B0A5370676A8FB397
:108A4000B988BDF80C30881C9A1C86181F2E87D850
:108A5000FE2885D814AE1E44581C0DF1500C1CFA8B
:108A600080F0033106F8401CFF2100F8401CADF8EF
:108A70000C20398892B204AEB018B154090A417082
:108A80000433BA889BB2ADF80C305AB1B9680029EA
:108A90004DD0F01801F0E0F9BDF80C30BA8813445D
:108AA000ADF80C3094F82C10002940F0E8802378C1
:108AB000002B00F0E2802288012A38D0BDF80C207B
:108AC000901C1F283FF64CAF012B04D16378034460
:108AD0001F2B3FF645AFC2F11D0314A99BB204AE94
