:100000000000012001370000293700002B370000D5
:100010002D3700002F3700003137000000000000AE
:100020000000000000000000000000003337000066
:100030003537000000000000373700003937000076
:100040003B3700003B37000089260000DD2100001F
:100050003B3700003B370000AD1C00003B37000081
:100060003B3700003B3700003B3700003B370000C8
:100070003B3700003B3700003B3700003B370000B8
:100080003B370000FD0C00003B3700003B37000011
:100090009D0D00003B3700003B3700003B37000060
:1000A0003B3700003B3700003B3700003B37000088
:1000B0003B3700003B37000000000000000000005C
:1000C0003B3700003B3700003B3700003B37000068
:1000D0003B3700003B3700003B37000000000000CA
:1000E0000000000000000000000000000000000010
:1000F0000000000000000000000000000000000000
:1001000000000000000000000000000000000000EF
:1001100000000000000000000000000000000000DF
:1001200000000000000000000000000000000000CF
:1001300000000000000000000000000000000000BF
:1001400000000000000000000000000000000000AF
:10015000000000000000000000000000000000009F
:10016000000000000000000000000000000000008F
:10017000000000000000000000000000000000007F
:10018000000000000000000000000000000000006F
:10019000000000000000000000000000000000005F
:1001A000000000000000000000000000000000004F
:1001B000000000000000000000000000000000003F
:1001C000000000000000000000000000000000002F
:1001D000000000000000000000000000000000001F
:1001E000000000000000000000000000000000000F
:1001F00000000000000000000000000000000000FF
:1002000010B5054C237833B9044B13B10448AFF350
:1002100000800123237010BDC400002000000000F6
:10022000BC3E0000084B10B51BB108480849AFF3AD
:1002300000800848036803B910BD074B002BFBD0B2
:10024000BDE81040184700BF00000000BC3E0000A1
:10025000C80000208400002000000000154B002B87
:1002600008BF134B9D46A3F5803A00218B460F46ED
:100270001348144A121A03F068FC0F4B002B00D0ED
:1002800098470E4B002B00D0984700200021040017
:100290000D000D48002802D00C48AFF3008003F099
:1002A00023FC2000290002F0BDFD03F009FC00BF83
:1002B0000000080000000120000000000000000015
:1002C000C4000020640A00200000000000000000BC
:1002D000F0B595B0002415460F4608461E4601F0BD
:1002E00037FC3846234605A9082208951A9D099629
:1002F0000D950A948DF82C400C9401F087FC9DF824
:100300001430079806998DF8104003F00302012A73
:100310000290ADF80C102CD0022A04D0384601F01F
:1003200027FC15B0F0BDBDF81650C3F3C202C3F3ED
:100330008003C5F389158DF80E208DF80F3008263F
:10034000082D2C4628BF08243346224638460EA9DD
:1003500001F05CFC2D1B21460EA802AA08AB264426
:1003600000F0CCFB002DEBD1384601F001FC15B0BC
:10037000F0BDBDF81460059DC6F38316C3F3C20E2D
:10038000B2000EA9C3F3800438460823C5F39525AF
:100390008DF80EE08DF80F4001F038FC08AB0093AB
:1003A000284632460EA902AB00F010FBB6E700BFAC
:1003B000014B01221A707047E0000020704700BF17
:1003C00030B5114D114889B002F01EF80FCD6C46C2
:1003D0000FC495E80F00062584E80F004FF0FF33A7
:1003E0004FF0EB740948009569460022019302938F
:1003F0000393069401F01AFF08B100F02FFC044BA0
:1004000000221A7009B030BD983B000000000020A7
:10041000E100002000B583B0044B0093044A402360
:10042000FFF756FF03B05DF804FB00BF3504000082
:10043000E400002010B5094C09480023D2B2237013
:1004400002F068F830B9074B1B7813B12378002B02
:10045000FCD010BD00F002FCF5E700BFE00000207A
:1004600000000020E100002030B5104D0FCD89B014
:100470006C460FC495E80F00062584E80F004FF086
:10048000FF334FF0EB740A480A4A0095694601931E
:1004900002930393069401F0C9FE08B100F0DEFB5D
:1004A000054B01221A7009B030BD00BF983B000017
:1004B00000000020B1030000E100002010B5054C51
:1004C000FFF7D2FF2046042100F040FA01236372B7
:1004D00010BD00BF0800002008B5104B10480022D6
:1004E000FF21C3F8182499601A605A60C3F81424D5
:1004F00083F81C2401F0E4FA70B90A4B0A4A9A1AEC
:10050000D20807D0094903460B520133934200F148
:100510000C00F9D1002008BD08BD00BF2401002057
:10052000C83B0000E83E0000C03E000088000020FC
:1005300021B9124A02EBC0000068704730B410497C
:100540000E4D491BC9080ED00E4B5A88824218BF67
:10055000002205D10FE0DC89844203F10C0305D0B1
:1005600001328A42F7D1002030BC704705EBC2004F
:10057000006830BC70472846FAE700BFC03E000064
:10058000E83E000088000020094B013903EBC00061
:1005900003290BD8DFE801F00208060402207047A7
:1005A00040797047007970470420704700207047F9
:1005B000C03E00002DE9F04F854C626823689A42E6
:1005C00085B042D00023C4F81834BFF34F8F606861
:1005D000A56805EA0003023304EB8302111D1279BA
:1005E00012F0030F024610D10B884988C3F3891318
:1005F00003EB911301331A4402EA0503023304EBBF
:100600008306311D3679B607EED004EB8303511C07
:100610005B680193294004EB810103F00303C9687F
:100620000291022B02F10208694F12D0012B69D00E
:10063000032B06D02368181A18BF012005B0BDE8A7
:10064000F08FD7F81834002BF4D1002005B0BDE8A6
:10065000F08FBDF806305F48C3F38919B9F1500F28
:10066000CA46A8BF4FF0500A6AF38F130AF1080177
:10067000ADF8063001F026FA0646002800F0838027
:1006800025EA080B0BF1010B01F062FA4FEA8B0B24
:10069000304601A90822002301F090FADA4540F221
:1006A0008A80BBF1000F70D107F10C015246304631
:1006B000082301F083FA09F1030708EB9707D4F840
:1006C0001834DFF80C81D4F81054002B55D14DB1FB
:1006D0006B7A2846314613B12B681B6898476D68C2
:1006E000002DF5D1304601F043FA002000F05EFE07
:1006F000D4F81834364A03B95760002000F05EFE83
:10070000606897E7BDF804303248C3F38312062AC5
:1007100028BF0622911C62F389138900ADF80430CA
:1007200001F0D0F9064670B301F012FA002330460A
:1007300001A9082201F042FABDF8043013F4707FD9
:1007400044D04FF0000A4FF0080908EA050104EB15
:1007500081014B460C313046042201F02FFABDF8DE
:1007600004300AF1010AC3F3831308F1010753456A
:1007700009F10409B846E8D8A1E7304601F0F8F9D4
:10078000D8F8040056E7786854E708EA050107EB53
:100790008101CBEB0A0530465A460C31EDB20823F5
:1007A00001F00CFA30462A4607F10C010BF1080360
:1007B00001F004FA7FE708EA050107EB81010C313B
:1007C00052463046082301F0F9F974E7474676E7C8
:1007D00024010020C83B00002DE9F04F5A4C89B09D
:1007E000A368029000200391019300F0DFFDA5684B
:1007F0006168D4F800806B180133C8EB0303032B46
:100800005FD805F10109C8EB090904F5836C04F20E
:1008100014470126A2464FF0000E5CE8003F43EA71
:1008200006024CE8002090F0000FF6D157E8003F98
:1008300043EA060247E8002090F0000FF6D101EAF3
:100840000503023304EB8302101D127912F0030F2B
:100850000A4613D103884088C3F3891303EB90132E
:1008600001331A4402EA0503023304EB830B0BF154
:1008700004009BF804B01BF0030FEBD004EB8303E0
:1008800002325B68059303F00303012B56D0022B61
:1008900006D1BDF81630C3F38913033302EB93027C
:1008A00057E8003F03EA0E0047E8000B9BF0000FFB
:1008B000F6D113B1CAF80420114609EB0103032B4A
:1008C000ABD905EA0803023304EB830300201A794D
:1008D00042F003021A7123680233236000F06EFDB8
:1008E000019B029D08F101021A4008EA030304EB90
:1008F0008202023304EB8303290CD1601A79C5F319
:10090000001161F3820265F3C5021A719A886FF3D0
:1009100089129A805A68039961F39F221146012037
:1009200060F301015A60197194F81C341BB1FFF790
:1009300041FE0028FBD109B0BDE8F08FBDF81430AE
:10094000C3F383131A44ABE72401002030B4144DE1
:10095000D5F81044002154B1237A8B4214D0234699
:1009600002E01A7A8A420FD05B68002BF9D101723B
:10097000D5F810340A4A7BB15B684360D2F8103472
:100980005860084630BC704701310A29E3D14FF066
:10099000FF31084630BC7047C2F810044360F0E7EE
:1009A0002401002038B5084BD3F81044012583F802
:1009B0001C543CB12368657220465B6898476468A4
:1009C000002CF7D138BD00BF240100202DE9F047ED
:1009D00084B01D460C9C002394F80C802373EB79A3
:1009E00081460E4617460BB3062F0FD8DFE807F0F7
:1009F000363B414804515E00B168F06896E80C004F
:100A0000009101904946204600F046FDEB792BB954
:100A10002B7AEBB92046334900F03EFD204600F02A
:100A20002FFD84F80C8004B0BDE8F0872B7A002BF2
:100A30004BD1AA792C4BA88853F822A00021FFF7AC
:100A400077FD524603462949204600F025FDCBE7B5
:100A500020462749274A00F01FFDDBE7494620468C
:100A600000F01AFDD2E749463268204600F014FD36
:100A7000CCE74946204696E80C0000F00DFDC5E79E
:100A8000B16896E80C0020460091494600F004FD4C
:100A9000BCE7B1683069F76896E80C0000910290F5
:100AA00049460197204600F0F7FCAFE796E80C00B6
:100AB000B168F068376976690396009101904946FC
:100AC0000297204600F0E8FCA0E7A979A888FFF784
:100AD0005BFD094B064953F82020204600F0DCFC62
:100AE000A7E700BF2C3C0000DC3B0000183C0000E6
:100AF000143C0000243C0000F03B0000082951D8C1
:100B00002DE9F0471D46002395F80C902B73D379FF
:100B1000904607460E46002B45D0002405E03A5D7E
:100B2000013400F0B9FC082C0AD0A642284630490E
:100B3000F5D828462F49013400F0AEFC082CF4D13A
:100B400028462D49DFF8D4A000F0A6FC00240DE0D3
:100B50003A5DDAF80030134401345B7813F0970FF4
:100B600008BF2E2200F098FC082C0AD0A642284686
:100B70002249EDD828462249013400F08DFC082C8A
:100B8000F4D198F8073013B998F80830F3B928462B
:100B90001C4900F081FC284600F072FC85F80C909E
:100BA000BDE8F0877047137AB3B998F80620164B62
:100BB000B8F8040053F822400021FFF7B9FC2246A0
:100BC00003461249284600F067FCA6E7284610496C
:100BD000104A00F061FCDAE791799088FFF7D4FCC5
:100BE0000D4B0B4953F82020284600F055FCDCE75C
:100BF000303C0000383C00003C3C0000403C000021
:100C0000203C00002C3C0000DC3B0000183C0000B5
:100C1000143C0000243C0000F03B000018000020C1
:100C200030B44FF0A04303224FF400354FF480243A
:100C30004FF400204FF48011C3F84427C3F848272D
:100C4000C3F84C27C3F85027C3F80855C3F8084524
:100C5000C3F80805C3F8081530BC704700B585B067
:100C600000230390194644F2010001AAADF80430B4
:100C7000029300F003F805B05DF804FBF0B583B013
:100C800006460D461746FFF78DFEFFF793FC00283A
:100C9000FBD1134C134900972B46324602F020FD3E
:100CA00020881149000440F00100FFF795FD0F4B2B
:100CB0001B68DB0700D5FFDE20880D49000440F0EB
:100CC0000200FFF789FDBFF34F8F0A490A4BCA683C
:100CD00002F4E0621343CB60BFF34F8F00BFFDE728
:100CE00088000020A43C0000E03C0000F0ED00E0A3
:100CF000EC3C000000ED00E00400FA05F8B5204AE5
:100D0000204B0025C2F84051C2F84451C2F8485166
:100D1000C2F84C51C2F80051C2F804511B6813B319
:100D20001949D2F804250C68141B1A6824F07F4472
:100D3000A2422F4609D8197CDE69A41A154499B934
:100D40001EB133461A68A242F5D9104B10491A78E1
:100D50000B789A420DD00F490F4A41F823504FF4B7
:100D60008013C2F80031F8BD1F745A699869904722
:100D7000E6E7531CDBB2022B08BF00230B70EAE747
:100D80000010014018060020140600201C06002058
:100D90001D0600202C07002000E100E02DE9F04FA7
:100DA0007D4A7E49137809787D48994287B0066864
:100DB00000F0E8810133DBB2022B08BF0023794940
:100DC0001370794A0291084652F823100368744858
:100DD0008A19002522F07F420260AE462846A3B160
:100DE0001A688A4200F2D681DC68C3F800E0891AEA
:100DF0001044DA6934B1871927F07F47DD619C60C0
:100E00005F601D461346002BEAD1029A04931360DB
:100E1000049C01230593654BDFF894811B780193B3
:100E20005F4BDFF890C1D3F800A0029B1F6800233E
:100E3000BB462F460093C1461E464FF0010E37B306
:100E40007A68B9683D46FF69CAEB020323F07F4325
:100E500063453CD80B442B606E60AE6085F810E0B3
:100E6000EE61002C67D021688B4242D9204603E016
:100E70001168994244D21046C2695B1A002AF7D120
:100E80002B60EA612346C5611C46002FD8D198F833
:100E9000003098F801209A4200F08E805A1C03EB33
:100EA000430308EBC30399F802109D68D2B2914244
:100EB00089F800201A7908BF89F80070022A48D002
:100EC000032A3CD0012A22D023461C46DDE7C2EB90
:100ED0000A0222F07F428A4202D28B1A2B60BBE7C1
:100EE0002E606E60AE6085F810E0EE611CB3216884
:100EF0000023CB1A23602B46EC61AB461C46C4E7AB
:100F0000C91A11602B60EA612346C561BCE72A7CDF
:100F10000392002AD8D1DA686A601969A960586911
:100F2000E86010339B68AB61019B002B8CD0039B66
:100F30006B601A4688E72B46AB461C46A5E70CB902
:100F4000C2E71C46E3692674002BFAD19B461C4677
:100F50009BE754B1A54200F00881234602E0954288
:100F600007D01346DA69002AF9D123462E741C46AD
:100F70008BE7AB4200F0FA80E9692868D961002963
:100F8000F3D023460A6802440A60009A2E749C42F9
:100F900018BF01220092EAE71C0600201D0600206F
:100FA00014060020180600202C0700201E06002032
:100FB00020060020FEFF7F00029B9DF80420C3F85E
:100FC00000B0764BC3F800A0754B1A70009B1BB99C
:100FD000049BA34200F0D081002C00F03C81714DB5
:100FE0006E4BD5F804051B686F4ED4F800C03178FD
:100FF000C21A22F07F420332002952D16B4FDFF830
:10100000B091DFF8B0814FF480314FF4003E0124FD
:10101000C5F84413C5F80413C7F880E1C7F800E029
:101020002C602F21D9F8005000BF00BF00BF00BFC7
:1010300000BF00BF00BF00BF45452FD000BF00BFAD
:1010400000BF00BF00BF00BF00BF00BF00BF00BFA8
:1010500000BF00BF00BF00BF00BF00BF00BF00BF98
:1010600000BF00BF00BF00BF00BF00BF00BF00BF88
:1010700000BF00BF00BF00BF00BF00BF00BF00BF78
:1010800000BF00BF00BF00BF00BF00BF00BF00BF68
:1010900000BF00BF00BF00BF00BF00BF0139C3D108
:1010A000347062452CBF9A1803EB0C023D4922F0C4
:1010B0007F43C1F84035D1F80425121A1B1A22F0DB
:1010C0007F4223F07F4303329A4248D9D1F8043556
:1010D000374AC1F84035126836492F2300BF00BF98
:1010E00000BF00BF00BF00BF00BF00BF8A422FD0BB
:1010F00000BF00BF00BF00BF00BF00BF00BF00BFF8
:1011000000BF00BF00BF00BF00BF00BF00BF00BFE7
:1011100000BF00BF00BF00BF00BF00BF00BF00BFD7
:1011200000BF00BF00BF00BF00BF00BF00BF00BFC7
:1011300000BF00BF00BF00BF00BF00BF00BF00BFB7
:1011400000BF00BF00BF00BF00BF00BF00BF00BFA7
:10115000013BC3D1154B4FF40032C3F80021104AB4
:101160000023137007B0BDE8F08F2246D4F81CB0FE
:10117000BBF1000F22D0D16910685B4600297FF4D3
:1011800001AF02E70C4B02931B6804930025059501
:101190001C4640E6521A1A6037E600BF14060020CB
:1011A0001E060020001001403407002000E100E08E
:1011B000140000200024F400180600207549764B26
:1011C000C1F808E075492F20096800BF00BF00BFC3
:1011D00000BF00BF00BF00BF00BF99422FD000BFBB
:1011E00000BF00BF00BF00BF00BF00BF00BF00BF07
:1011F00000BF00BF00BF00BF00BF00BF00BF00BFF7
:1012000000BF00BF00BF00BF00BF00BF00BF00BFE6
:1012100000BF00BF00BF00BF00BF00BF00BF00BFD6
:1012200000BF00BF00BF00BF00BF00BF00BF00BFC6
:1012300000BF00BF00BF00BF00BF00BF00BF01383C
:10124000C3D1D1691068002900F09B800122DA46E1
:101250005B46019296E64F4A514B504E4E484FF432
:1012600080314FF400370125C3F88070C2F848136D
:101270002F23C2F80813556031681E4600BF00BF17
:1012800000BF00BF00BF00BF00BF00BF81422FD022
:1012900000BF00BF00BF00BF00BF00BF00BF00BF56
:1012A00000BF00BF00BF00BF00BF00BF00BF00BF46
:1012B00000BF00BF00BF00BF00BF00BF00BF00BF36
:1012C00000BF00BF00BF00BF00BF00BF00BF00BF26
:1012D00000BF00BF00BF00BF00BF00BF00BF00BF16
:1012E00000BF00BF00BF00BF00BF00BF00BF00BF06
:1012F000013EC3D195602B4A146000BF00BF00BF00
:1013000000BF00BF00BF00BF00BF81422FD000BFA1
:1013100000BF00BF00BF00BF00BF00BF00BF00BFD5
:1013200000BF00BF00BF00BF00BF00BF00BF00BFC5
:1013300000BF00BF00BF00BF00BF00BF00BF00BFB5
:1013400000BF00BF00BF00BF00BF00BF00BF00BFA5
:1013500000BF00BF00BF00BF00BF00BF00BF00BF95
:1013600000BF00BF00BF00BF00BF00BF00BF013B08
:10137000C3D10D4B1C70F2E6059B002B3FF4EFAE82
:101380002AE601231A4601938A468B460B460092B1
:101390002E74ECE5001001400024F400140000203D
:1013A00000E100E0140600203407002072B6024A73
:1013B000136801331360704738070020034A13682D
:1013C000013B136003B962B6704700BF38070020C5
:1013D000B8B130B4416882680468521AD2B2531E60
:1013E0002160DBB242B101680A685C1E551C0D60C9
:1013F0001370E3B2FF2BF6D103680020187130BCE4
:1014000070470E20704700BF70B504460020FFF7FC
:10141000CDFF236861681A688A4215D9511E196088
:101420002168A3680D68087912F8016C228AE468C3
:101430005B1BDBB2984206FB024400D20B7100201A
:10144000FFF7BCFF204670BD00240020FFF7B6FF69
:10145000204670BD38B5054600200C46FFF7A6FFB4
:101460002A681368591C1160E9682A8A641AB4FB57
:10147000F2F41C700020BDE83840FFF79FBF00BFAA
:10148000826802B9704710B5044643692168006953
:1014900098470023A36010BD0EB400B582B0039935
:1014A00029B102AA04AB42F8043D00F089F802B069
:1014B0005DF804EB03B070472DE9F84F1746B942C9
:1014C0008A4606461D46DDF828B00B9A73D30B46B4
:1014D0004FF00108B3FBF7F39F4208F10108F9D977
:1014E000A84538BFA84612F0010902D1BBF1000F90
:1014F00041D1B168012402E0013D07FB04F4012D54
:10150000FAD8BAFBF4F39F42F7D92C4D02E0B16848
:10151000BAFBF4F34A1CB2603268E85C5054B0681D
:101520007268904204FB13AA02D33046FFF7A8FF6B
:10153000B4FBF7F4002CEAD1B9F1000F15D0BBF1E0
:10154000000F12D0C34510D92024B3683268591C4B
:10155000B160D454B26873689A420BF1FF3B06D273
:10156000BBF1000F01D0C345EFD8BDE8F88F30467E
:10157000FFF786FFF4E7930718D42024C345B8D9B2
:10158000B16833684A1CB2605C54B16873689942B0
:101590000BF1FF3B05D2BBF1000FABD0C345F0D838
:1015A000A8E73046FFF76CFFB168F4E7002D14BFE1
:1015B00020243024E2E74FF0010891E7043D0000C9
:1015C0002DE9F04F0D4685B0002900F0B2800B7870
:1015D000DFF8E8A4064691460135002B00F0A5800F
:1015E000252B40F0A28129464FF000080D4611F846
:1015F000013B2D2B00F09381302B00F093812B2B9E
:1016000000F085812A2B00F09E81A3F13002092A87
:1016100000F2BE816A1C002404EB840403EB440442
:101620002A2BA4F13004154600F08E811378A3F123
:101630003001092905F10102EED91A462E2A00F0DF
:101640009081002701E015F8012F02F0FB03682BC1
:10165000F9D0253A532A63D8DFE812F02701620057
:10166000620062006200620062006200620062006A
:10167000620062006200620062006200620062005A
:10168000620062006200620062006200620062004A
:10169000620062006200620062006200620062003A
:1016A000620062006200620062006200620062002A
:1016B000620062006200620062006200620062001A
:1016C00062004A0162006200620062006200620021
:1016D00062006200620062003601CE0062006200B9
:1016E00062006200CE00620062006200620062007E
:1016F0006200A900620062006E0062005400620095
:1017000062004A01D9F800301A1DC9F80020196892
:1017100000943B46CDF8048030460A22FFF7CCFE09
:1017200001352B78002B7FF457AF337B002B40F033
:101730006C8105B0BDE8F08FD9F800301A1DC9F8EA
:10174000002018F0010F1F6840F02581002F00F0E5
:10175000A581384602F009FA8046444515D9A4B15E
:101760004FF0200B00E084B1B2683368511CB160C7
:1017700003F802B0B26873689A4204F1FF3402D3EE
:101780003046FFF77DFE4445EDD8013F17F8013F95
:10179000002BC5D0B2683168501CB0608B54B26861
:1017A00073689A42F2D33046FFF76AFEEEE7D9F843
:1017B0000020131DC9F80030B36831681468581C44
:1017C0003022B060CA54B3687268934280F01881C6
:1017D0003268581C7821B060D154B26873689A425C
:1017E00080F00A81082300220192214600933046AE
:1017F0001022FFF761FE93E7D9F800301A1DC9F8EF
:101800000020D3F800B08BEAEB73A3EBEB73092B4A
:101810004FF0010108DD8AFB0302DB17C3EBA203D3
:10182000092B01F10101F6DCB94238BF394634B168
:10183000BBF1000F02DB18F0040F00D0013C18F0E0
:10184000020F40F0D58018F0010F18D1002C00F0E5
:1018500006818C4213D94FF0200CB2683368501CBB
:10186000B06003F802C0B26873689A4204F1FF34B2
:1018700080F0F780002C00F0F2808C42EDD8BBF1B4
:10188000000FC0F20D8118F0040F40F0F48008F052
:101890000303022B00F0BF808DE8100159463B4640
:1018A00030460A22FFF708FE3AE7B3683268581C50
:1018B0002521B060D154B26873689A42FFF430AF0A
:1018C0003046FFF7DDFD2BE7D9F80020131DC9F8DE
:1018D0000030B36831681278581CB060CA54B268DE
:1018E00073689A42FFF41CAF3046FFF7C9FD17E753
:1018F000D9F800301A1DC9F80020196800943B4639
:10190000CDF8048030461022FFF7D6FD08E70D46DB
:1019100011F8013B2D2B48F004087FF46DAE48F020
:10192000010863E648F0020860E6B2683168501CBE
:10193000B0608B54B26873689A42FFF4F2AE3046DE
:10194000FFF79EFDEDE60024D9F800301A1DC9F816
:1019500000206A781B682E2A1C4405F101057FF4DB
:1019600070AE6A78A2F13003092B05F101054FF042
:1019700000073FF66AAE07EB870702EB470715F84B
:10198000012FA2F13003092BA7F13007F3D95CE650
:101990001A46002452E6B846C7EB080B18F8012B8C
:1019A0008AB1B1683368481CB0605A54B268736831
:1019B0009A42F1D33046FFF763FDC7EB080B18F8E6
:1019C000012B002AEDD15C457FF6AAAE2027B36833
:1019D0003268591CB160D754B26873689A4204F1F6
:1019E000FF3402D33046FFF74BFD5C45EFD897E656
:1019F000002F3FF444AF26E73046FFF741FDF1E604
:101A00003046FFF73DFDB368E2E6304605B0BDE87D
:101A1000F04FFFF735BD002F7FF43EAF002C3BD0D9
:101A20008C427FF639AF4FF0300CB2683368501CEF
:101A3000B06003F802C0B26873689A4204F1FF34E0
:101A400003D24CB38C42F0D826E73046CDF80CC018
:101A50000291FFF715FDDDF80CC00299F1E70024B3
:101A60000DE73046CDF80CC00291FFF709FDDDF817
:101A70000CC00299FEE6B268531CB36033682B2099
:101A80009854B26873689A42FFF401AF30460291ED
:101A9000FFF7F6FC0299FAE60024FDE6B8465CE69C
:101AA000B268531CB36033682D209854B2687368D1
:101AB0009A42CBF1000BFFF4EAAEE7E76766666691
:101AC000FFF786BC2DE9F041B0F81080A8F10408BA
:101AD0004144CF1C0646FFF797FCB7FBF8F70446D6
:101AE00078B3FFB200250123013FA0F8068006600D
:101AF0000571437128D0804609E06379AF4203F154
:101B000001036371C8F80000066080461CD03046AF
:101B1000FFF77AFC01350028EFD16679721E234663
:101B200003D0013082421B68FBD81F684EB10025EC
:101B300023682146013538461C46FFF78BFCAE4230
:101B4000F6D10020BDE8F0812046BDE8F08100BF5D
:101B500010B40430012350E8002F02EB030140E8E9
:101B6000001494F0000FF6D15DF8044B704700BFED
:101B70000146021DF8B5012052E8004FA4EB000316
:101B800042E8003595F0000FF6D113F0FF0300D0C6
:101B9000F8BD4E79701E0A4603D001339842126890
:101BA000FBD81768002EF3D000240D6801343846A6
:101BB000FFF750FCA6422946F7D1F8BD2DE9F041C8
:101BC0000446181DE688B0FBF6F30F46154606FBE3
:101BD000130013B1013B2468FCD1321AAA4228BF7A
:101BE0002A468DB14FF000082044AD1A07EB0801DA
:101BF0000430904401F09EFFB5422A46246828BF75
:101C000032460020002DEFD1BDE8F0812DE9F041F2
:101C1000C688043304460F46B3FBF6F0154606FBB0
:101C2000103110B101382468FCD1721AAA4228BFC1
:101C30002A468DB14FF000082144AD1A043107EB5C
:101C40000800904401F076FFB5422A46246828BF78
:101C500032460021002DEFD1BDE8F081002810B4FC
:101C600018DB00F1604303F561434901C9B283F811
:101C70000013C3B24009800000F1604000F56140EC
:101C800003F01F0201239340C0F8803103605DF828
:101C9000044B7047C3B2044A03F00F0449012244C5
:101CA000C9B21176E6E700BFFCEC00E02DE9F04791
:101CB00086B00026A24B01961A68012A00F03281F4
:101CC000A04B1A68012A00F01F819F4B1A68012A55
:101CD00000F00C819D4B1A68012A00F0F9809C4BA2
:101CE0001A68012A00F0E6809A4B1A68012A00F06F
:101CF000D380994B1A68012A00F0C080974B1A686C
:101D0000012A00F0AD80964B1A68012A00F09B80F2
:101D100016F0FF0F1AD0934F01250024A30003F102
:101D20008043354203F5C0434FEA45050BD0D3F855
:101D3000100557F82420D3F81015C0F30420C1F380
:101D4000014102B190470134082CE7D1002E02DB9B
:101D500006B0BDE8F087844D00224FF0FF33A5F1B7
:101D6000530702920393814C4FF00008012614F8A8
:101D7000011FFF292BD0C9B221F0C00006AB4FEAEA
:101D8000D00E03EB0E0201F0070312F80CCC06FA9A
:101D900003F31CEA030F1AD007EB000C89099CF926
:101DA00030C057F82CC0BCF1000F3CD003293CD008
:101DB0004FEA800E0EF1A04E12F8149CDEF80027B8
:101DC00019EA030FC2F3014211D1032A36D0AC4203
:101DD000CDD1B8F1000FBBD04FF0A043019AD3F89A
:101DE00010359342B4D0029A01930392BBE7022AC2
:101DF000EDD1032904D0BCF1000FE8D0E047E6E7BD
:101E00004FF44039DEF8002722F44032CEF80027A4
:101E1000DEF8003708F1010849EA03035FFA88F8A1
:101E2000CEF80037E7E70329D1D10DF1080A1AF8F7
:101E30000E9049EA03090AF80E90B9E70329DAD1AE
:101E40004FF40039DEE700221A601B6805934FF05B
:101E5000A043059AD3F81035019346F0004657E7A2
:101E6000434AD2F8042312067FF54DAF00221A60D0
:101E70001B680493049B46F0800644E73C4AD2F872
:101E8000042351067FF53AAF00221A601B680493C1
:101E9000049B46F0400631E7354AD2F80423900609
:101EA0007FF527AF00221A601B680493049B46F05D
:101EB00020061EE72E4AD2F80423D4067FF514AF7D
:101EC00000221A601B680493049B46F010060BE77F
:101ED000274AD2F8042315077FF501AF00221A60C4
:101EE0001B680493049B46F00806F8E6204AD2F8E3
:101EF000042357077FF5EEAE00221A601B68049397
:101F0000049B46F00406E5E6194AD2F8042392073A
:101F10007FF5DBAE00221A601B680493049B46F039
:101F20000206D2E61249D1F8041311F0010105D0DE
:101F30001E601B680493049B1646C1E60E46BFE66E
:101F40000061004004610040086100400C610040F5
:101F50001061004014610040186100401C610040A5
:101F60007C6100403C0700208F0700208B07002089
:101F7000006000402DE9F0414479524EE7003D19E0
:101F8000AD0006EB050E9EF81CC0BCF1000F02D0A0
:101F90000820BDE8F0817251CEF804300B7B91F837
:101FA00000E0012B4FF0A0454FF0010303FA0EF3C0
:101FB00094BFC5F80C35C5F808350D784FF0A04E24
:101FC00005F5E07501234EF825304D78FF2D6FD0D3
:101FD00005F5E07CAB404FF00308CEF80C354EF829
:101FE0002C8091F802E0BEF1FF0F5ED00EF5E07C90
:101FF0004FF0A0434FF0040843F82C80CB78FF2B20
:1020000051D04FF0010C4FF0A0480CFA03F3C8F880
:102010000835CB7803F5E0734FF0030C48F823C084
:1020200091F803C0437903EBC30306EB830383F802
:102030001EC0036891F800C0C3F808C5C3F80C556A
:10204000C3F810E58D68C3F824554D7B91F80CE07A
:10205000003518BF0125BEF1020F2CD0BEF1030FD1
:102060001ED0BEF1010F01D145F00205C3F8545551
:102070004D79C3F8C0550AB340250722C3F804536D
:10208000C3F8002590F904000979FFF7E7FD3C4407
:1020900006EB84060123002033777077BDE8F081DA
:1020A00045F00605E2E79C46BCE74FF0FF3EA5E79A
:1020B0004FF0FF3595E745F00405D7E70722C3F851
:1020C0000025E4E7940700202DE9F0434479424FCE
:1020D0004FEAC40E0EEB0405AD007E1983B096F8EE
:1020E0001D809DF828C01836B8F1000F03D01120CC
:1020F00003B0BDE8F0837D590DB1012575710EEB7C
:102100000405AD0005F108063E443D44716032729D
:10211000F36086F810C095F8216095F81E8005F1EF
:10212000200906F0FC056FF38205B8F1FF0F89F86E
:10213000015006D001254FF0A04605FA08F5C6F873
:102140000C55056869B101F06040B0F1005F08D03E
:10215000744407EB8407002310207B7703B0BDE8AD
:10216000F08323B103F06040B0F1005FF0D10020B4
:10217000C5F84415C5F84825C5F83435C5F838C53F
:10218000C5F81801D5F81831019301220EEB0403AC
:102190000199C5F85005C5F840052A6157F8233064
:1021A0001BB14023C5F80433A2E7D5F81831002B42
:1021B000FBD00EEB040307EB83039B7FFF2B08D0C0
:1021C00001224FF0A04102FA03F3C1F808350020C4
:1021D0008EE700208CE700BF94070020104AD2F859
:1021E0001831E3B100B500210E4BC2F8181183B0CD
:1021F000997FD2F818210192FF29019A05D0012276
:102200004FF0A0408A40C0F8082500225A771A7281
:1022100059681A680448904703B05DF804FB70479A
:1022200000300040940700209C070020F0B504799E
:10223000724E6401331987B0DD7E183315B1082062
:1022400007B0F0BD4D7F1D710D686B1C0BD04FF0BA
:10225000A0470123AB40C7F808350B6803F5E073CE
:10226000032547F823504B685F1C06D003F5E07345
:102270004FF0A045002745F82370037906EB431380
:102280001B7F002B4DD003688D69C3F824550F7D4B
:102290004B7D05683B43C5F86C3503680F684D6896
:1022A000C3F80C75C3F814550B7D012B00F09B800F
:1022B000331905465A600B6950483351EAB12B79FE
:1022C000097F2A6800EB4310037F002B65D1C2F819
:1022D0001C31D2F81C712A680197019FC2F8443161
:1022E000D2F844212B6846480092009AC3F80403B0
:1022F000286840F30730FFF7B1FC2B792A6806EB1A
:1023000043131B7F002B44D00823C2F8003534440C
:1023100000200121E075A0752076A076E17607B057
:10232000F0BD05688F69C5F8247591F814E04D7DFE
:1023300007684EEA0505C7F86C550568D1F800E056
:102340004F68C5F81475C5F80CE50D7D012DAFD1AA
:102350008D686F1C05D005F5E0754FF0A04747F874
:102360002530CB685D1C0DD001254FF0A04705FA44
:1023700003F3C7F80835CB6803F5E073032547F886
:102380002350CB6805688F68C5F80835C5F8107507
:102390008EE70423C2F80035B9E70023C2F81031F4
:1023A000D2F810712A680597059FC2F82031D2F83B
:1023B00020712A680497049FC2F82431D2F824714E
:1023C0002A680397039FC2F84431D2F844212B684E
:1023D00002920C48029AC3F80403286840F30730BD
:1023E000FFF73CFC89E78B685D1CBAD003F5E0730E
:1023F0004FF0A045002745F82370B2E7B80700204A
:102400008000020010030200F0B503793D4A046821
:102410005B01D118097F00296DD00021C4F8001597
:10242000D118384C4968B1B1017904EB4114217FCE
:10243000002963D10168344CC1F808430168334E68
:10244000090B4CB26409203401F01F01012505FA83
:1024500001F146F824100179076802EB4111D7F821
:102460000C65097FD7F814554FF0FF3EA9B3D7F894
:102470000815D7F81045C7F80CE5C7F814E500684B
:10248000C0F808E5C0F810E5771C06D006F5E07640
:102490004FF0A040022740F826706E1C06D005F5CC
:1024A000E0754FF0A040022640F82560651C06D07C
:1024B00004F5E0744FF0A040022540F82450481C79
:1024C00006D001F5E0714FF0A040022440F8214011
:1024D00013440022DA765A60F0BDD7F80815D7F811
:1024E0001045C7F814E5C7F80CE50068C0F808E522
:1024F000C0F810E5C8E7C4F8001591E70168044C7E
:102500009AE700BFB80700208402020000E100E063
:10251000100302002DE9F04103795A4D5B01EC18DC
:1025200086B0247F44B101F06044B4F1005F03D071
:10253000102006B0BDE8F0812B44DFF848E19F7D14
:102540001FB1112006B0BDE8F08199609A759F8295
:10255000067976010EEB06010B7F2BBB0268C2F8F1
:102560001C31D2F81C41026805940124059F946037
:102570000468D1F808C0C4F81C31D4F81C310493A5
:10258000049B8F8A8B8AD1F804E0BFB201331CF818
:1025900007709BB28B82C4F81C75BEF1000F33D05C
:1025A000002006B0BDE8F08103688A68C3F8207196
:1025B000D3F8204103680294029CC3F85871D3F801
:1025C0005841036801948C7D019FC3F84425C3F8EA
:1025D0004845036801229A604B68002BE0D10268ED
:1025E00001E0002B4CD1D2F82011D2F85831003341
:1025F00018BF01230029F4D0002B0CBF00200F20AE
:10260000AB1900229A7594E78F7D8B8A01F1100235
:102610009BB2BB4226D2046804E093889BB2B3F518
:10262000807F05D0D4F81C3101F11002002BF4D0CA
:1026300001F1100293889BB2B3F5807FE5D0C4F816
:102640001CE1D4F81C310393039BB2F804809388F7
:102650001FFA88F801331CF808809BB29380C4F8F5
:102660001C85D2E793889BB2B3F5807F08D00268BF
:10267000D2F81C31002BFBD00123D3600020BFE730
:102680000F20BDE7B8070020F0B59B4C237F8FB02B
:10269000002B75D1994AD2F80413890548D4974B79
:1026A000D3F80423520704D5D3F80821002A40F0B8
:1026B000CA80924BD3F81C21C2B1A28AA07D8E4958
:1026C00092B282424FF00002C3F81C2180F0A98030
:1026D000D3F81C210692069A888A8A8A8D6880B26D
:1026E0000132285C92B28A82C3F81C05834BD3F86E
:1026F0004421DAB10022C3F84421D3F84411A27E68
:1027000004910499002A40F08980E27D7A4B6AB1F5
:102710000022587ED968DA7501228DF830000B91BD
:102720008DF828200AA893E8060090470FB0F0BD66
:10273000D2F824110029B2D0C2F82431D2F82411E1
:10274000A37E07914FF401710798C2F808130BB9E3
:1027500001235360694A02238DF82830D2F880346F
:10276000C2F88034E07DE2680D9300238DF83000DC
:10277000E375237621680B9263680AA8984798E767
:102780005E4BD3F82421002A40F09380D3F8101137
:1027900061B1C3F81021D3F8101103910399D3F854
:1027A0003C15E07DC9B2884200F0AA80534BD3F8B3
:1027B0004421B2B10022C3F84421D3F84411E07D92
:1027C000019101994C4960B1D3F83C35C8688DF846
:1027D00030300123CA750B908DF828300AA80AC939
:1027E0009847464BD3F82021002A9FD00022C3F8F7
:1027F0002021D3F82011A07D009100993E490028A6
:1028000094D0D3F84C058B688DF830008A750B9303
:102810008DF828200AC90AA8984787E701221A607C
:1028200073E7D3F81C310593059B00283FF45EAF96
:102830008B688DF830008A750B938DF828200AC9B3
:102840000AA8984752E7E17D2B4A002970D0002161
:10285000C3F80811D3F8081108910899D068517E7F
:10286000D3F818354354537ED17D0133DBB2537610
:10287000627E214B8A427FF41CAF1A7E002A6DD102
:102880009B7E13B91D4B01225A601C4AE0686368A5
:102890004FF40171C2F80813627E8DF830200025D4
:1028A00001220B902168E5758DF828200AA8984729
:1028B000FFE60022C3F82421D3F82411029102215B
:1028C0008DF828100299D3F88014C3F880140D9164
:1028D000D3F83C15E368E27522768DF830100B933F
:1028E000216863680AA89847044BD3F84421002A5A
:1028F0003FF477AF5EE700BFB8070020002000403C
:10290000217EF1B1D3F80072E17527F02001E6686D
:102910002569C3F8001201238DF830008DF82830A6
:10292000227621680B96E56063680AA898473DE720
:10293000C3F80811D3F808210992099AD3F8183579
:1029400096E7E268E17501238DF830008DF82830B4
:102950000B9294E80A000AA8984727E7DE685D7E94
:102960001869DA7501210022D8601A765A768DF836
:1029700028100B968DF8305093E806000AA890476F
:1029800097E600BF014B01221A707047D80700205C
:1029900010B584B04FF0A04304A94FF080522C4CE6
:1029A00001F8010DC3F80C2500220092227029487D
:1029B000294B0122FFF788FB08B145E020BF2378AF
:1029C000002BFBD0254B26491A680A2300BF00BF05
:1029D00000BF00BF00BF00BF00BF00BF8A422FD0B2
:1029E00000BF00BF00BF00BF00BF00BF00BF00BFEF
:1029F00000BF00BF00BF00BF00BF00BF00BF00BFDF
:102A000000BF00BF00BF00BF00BF00BF00BF00BFCE
:102A100000BF00BF00BF00BF00BF00BF00BF00BFBE
:102A200000BF00BF00BF00BF00BF00BF00BF00BFAE
:102A300000BF00BF00BF00BF00BF00BF00BF00BF9E
:102A4000013BC3D104B010BDFEF708F9B7E700BFE2
:102A5000D8070020383D0000D907002014000020CE
:102A60000024F40010B584B04FF0A04304A94FF047
:102A700080522C4C01F8010DC3F808250022009269
:102A800022702948294B0122FFF71EFB08B145E0BF
:102A900020BF2378002BFBD0254B26491A680A2338
:102AA00000BF00BF00BF00BF00BF00BF00BF00BF2E
:102AB0008A422FD000BF00BF00BF00BF00BF00BFD1
:102AC00000BF00BF00BF00BF00BF00BF00BF00BF0E
:102AD00000BF00BF00BF00BF00BF00BF00BF00BFFE
:102AE00000BF00BF00BF00BF00BF00BF00BF00BFEE
:102AF00000BF00BF00BF00BF00BF00BF00BF00BFDE
:102B000000BF00BF00BF00BF00BF00BF00BF00BFCD
:102B100000BF00BF013BC3D104B010BDFEF79EF85B
:102B2000B7E700BFD8070020383D0000D9070020D4
:102B3000140000200024F40070B505462A200C463D
:102B40001646FFF725FF0020FFF78CFF2846FFF70A
:102B500089FF0020FFF786FF2046FFF783FF2B2029
:102B6000FFF716FF0020FFF77DFF3046FFF77AFFE3
:102B70000020FFF777FF3046FFF774FF2C20FFF7A8
:102B800007FF641B05D4013CFF20FFF76BFF631CAC
:102B9000F9D170BD2DE9F043994B0FCB87B00DF102
:102BA000080888E80F001F234FF0FF0E1D2704269A
:102BB0004FF0805503248DF80B3041469148924ADE
:102BC0008DF80AE000238DF809708DF808600495EF
:102BD0008DF81440FFF7CEF908B1FEF73FF84FF03B
:102BE000A0438A4CDFF83892894F8A4D03224FF078
:102BF00080504FF08041C3F8080504F13C06C3F84B
:102C00007027C3F80C15C3F878272378042B12D843
:102C1000DFE803F04444099F03004FF0A0434FF066
:102C20008042C3F80C2562784FF47A7303FB02F3F9
:102C3000002B40F09C800234B442E6D12A20FFF7FA
:102C4000A7FE0020FFF70EFF0020FFF70BFF00207C
:102C5000FFF708FF2A20FFF705FF2B20FFF798FE5C
:102C60000020FFF7FFFE0020FFF7FCFE0020FFF72B
:102C7000F9FE9F20FFF7F6FE2C20FFF789FEA02526
:102C80002B240020FFF7EEFE013CFAD1013DF7D1E5
:102C9000614B01221A7007B0BDE8F08362788DF8AD
:102CA0000820002B40F0A2804FF0A0434FF080524C
:102CB000C3F80C250022009252482A70574B414617
:102CC0000122FFF701FA08B197E020BF2B78002B13
:102CD000FBD00A23D9F8002000BF00BF00BF00BF0F
:102CE00000BF00BF00BF00BFBA422FD000BF00BF6F
:102CF00000BF00BF00BF00BF00BF00BF00BF00BFDC
:102D000000BF00BF00BF00BF00BF00BF00BF00BFCB
:102D100000BF00BF00BF00BF00BF00BF00BF00BFBB
:102D200000BF00BF00BF00BF00BF00BF00BF00BFAB
:102D300000BF00BF00BF00BF00BF00BF00BF00BF9B
:102D400000BF00BF00BF00BF00BF00BF013BC3D139
:102D500071E74FF0A0434FF08042C3F80825627836
:102D60004FF47A7303FB02F3002B3FF464AFD9F8FE
:102D7000002000BF00BF00BF00BF00BF00BF00BFFA
:102D800000BFBA422FD000BF00BF00BF00BF00BFCE
:102D900000BF00BF00BF00BF00BF00BF00BF00BF3B
:102DA00000BF00BF00BF00BF00BF00BF00BF00BF2B
:102DB00000BF00BF00BF00BF00BF00BF00BF00BF1B
:102DC00000BF00BF00BF00BF00BF00BF00BF00BF0B
:102DD00000BF00BF00BF00BF00BF00BF00BF00BFFB
:102DE00000BF00BF00BF013BC3D124E74FF0A043A9
:102DF0004FF08052C3F808255CE7FDF72FFF65E729
:102E0000283D0000383D000085290000403D0000BD
:102E10000024F400D8070020DA070020D90700209A
:102E20001400002008B5FDF7FBFE0020FDF754FB61
:102E3000E0B9FDF743FBFFF7ADFE00202A218E220B
:102E4000FFF77AFE00202A217322FFF775FE00208B
:102E50002A214622FFF770FE064B07491888000416
:102E600040F00300FDF7B8FC20BFFDE7FDF7F6FEDC
:102E7000DFE700BF880000207C3D00002DE9F84F0F
:102E80007A4E337883468A4617461BBB784ADFF86A
:102E9000ECE1DFF8EC81B3624FF4007C1025736243
:102EA000F362B3657365F36502247249B261B2647B
:102EB000C6F820C0C6F84CE0F01DC6F81C80356589
:102EC0003461746100F049FE30466B4900F045FE04
:102ED0002023B3714FEA4B0404EB0B0900204FEAA7
:102EE000C909FEF763FA06EB0903DA6A012A48D03A
:102EF00035D3022A3DD10BF1010B0BEB4B0B5D6A75
:102F000006EBCB0B4FF000081DE0126A641BBC42BD
:102F10002346A2EB050428BF3B469C42DBF8040095
:102F200028BF1C4622462844514600F003FE06EB0B
:102F3000090325441A6A954208BF00253F1BA04497
:102F4000A2445D6217D006EB0902936AAB4203F11B
:102F5000FF34DAD8126A1344013B5C1BD7E79A6A44
:102F60005D6AAA429CBF1B6AD218013A521B974263
:102F70003ED94FF000080020FEF720FA4046BDE899
:102F8000F88F9A6A5D6AAA422AD902F1FF381B6A51
:102F9000C5EB0808B84528BFB8465F1BB84547D3FE
:102FA0000BF1010909EB490906EBC909A344D9F85A
:102FB000040051463A46284406EBCB06C7EB080509
:102FC00000F0B8FD0AEB07012A46D9F8040000F02A
:102FD000B1FD75620020FEF7F1F94046BDE8F88FBB
:102FE0001B6A02EB030808F1FF38C5EB0808D1E7BC
:102FF0005C4406EBC4060BF1010B326A1B4BC5EBBC
:10300000020847450BEB4B0B24D303EBCB044246A2
:10301000606851462844C8EB070500F08BFD0AEBB9
:10302000080160682A4600F085FDB8467562A2E78F
:103030000BF1010303EB430306EBC303A3445868FE
:1030400006EBCB06284451464246454400F072FD4B
:10305000756290E703EBCB03514658683A46284423
:103060003D4400F067FDB846756284E7EC09002036
:103070008C3D0000983D00009C3D0000DC070020D6
:10308000EC0700202DE9F84F1746B942884606465E
:103090001D46DDF828B00B9AC0F0B4800B464FF007
:1030A000010AB3FBF7F39F420AF1010AF9D9AA45D5
:1030B00038BFAA4612F0010902D1BBF1000F6AD154
:1030C000F168002960DBB268012402E0013D07FBE2
:1030D00004F4012DFAD8B8FBF4F39F42F7D9504D10
:1030E0009C4606E0002921DBB4FBF7F4F4B1B8FB01
:1030F000F4FC706815F80CE0531C834204FB1C8838
:1031000008D8316801F802E0F1687068B3600131F5
:103110001A46F1608242E5D130693168FFF7AEFEB0
:10312000B268904232D04FF0FF33F360B9F1000F34
:103130002AD0BBF1000F63D0D3456BD920250024E2
:103140005F4605E0F368002B68DBEFB157451BD9FC
:103150007368511C994207F1FF3707D833689D54B3
:10316000F2687368B160501CF0600A469A42E9D177
:1031700030693168FFF782FEB368984238D04FF06B
:10318000FF33F360BDE8F88FBDE8F88F0023F168E6
:10319000B3601A46A6E793072DD42024D3458FD9D0
:1031A000B268CDF828B01346A3460A9C05E0F16842
:1031B000002931DB4CB354452AD97268591C91421D
:1031C00004F1FF3408D8326802F803B0F36872687B
:1031D000B160581CF0600B469A42E8D13069316802
:1031E000FFF74CFEB3689842C9D10023B360DEE715
:1031F000B4600022A6E7002D14BF20243024CDE7C0
:10320000BDE8F88F4FF0010A51E71A46A3465BE785
:10321000A34658E7BDE8F88FBDE8F88FBDE8F88F02
:10322000A43D00002DE9F04F9DB00023044603901B
:103230004025184609930A939B46DFF8A0A40B94F7
:103240000CAB0C4691460793089514F8013B002BF4
:103250005BD0252B63D10026254614F8011BA1F174
:1032600023030D2B14D8DFE803F0101313131313EB
:1032700013130D130A13130746F00206ECE746F08A
:103280000106E9E746F00406E6E746F00806E3E74C
:10329000A1F13003092B98BF002400F2A18004EBB8
:1032A000840401EB440415F8011FA1F13003092B3C
:1032B000A4F13004F3D92E296AD0002701E015F8D3
:1032C000011F01F0FB03682BF9D0642900F0E180B5
:1032D00044D9732900F0978070D9752940F0828015
:1032E000D9F800301A1DC9F800201968009407A801
:1032F0003B4601960A22FFF7C5FE0A986C1C00287F
:1033000025DB14F8013B002BA3D100281FDD099A0F
:10331000002A40F0488110441DB0BDE8F08F0999A3
:10332000089A4D1C954215D8079A53540A98089A42
:103330000995013095420A90E1D10B980799FFF762
:103340009DFD099B984200F02A814FF0FF301DB08F
:10335000BDE8F08F8A427FF478AFEEE7582943D07A
:1033600063297CD02529C9D1099C089B621C9A42FB
:1033700040F2088122469A42C0D10B980799FFF784
:103380007DFD099B984266D10A98CDF824B0B5E737
:103390006978A1F13003092B05F101054FF0000711
:1033A0008FD807EB870701EB470715F8011FA1F13D
:1033B0003003092BA7F13007F3D982E770299DD19B
:1033C000D9F800301A1DC9F800201968CDF804B0EA
:1033D000082307A800931022FFF754FE0A988DE7F0
:1033E000002468E7782989D1D9F800301A1DC9F876
:1033F00000201968009407A83B4601961022FFF7A9
:1034000041FE0A987AE7D9F800301A1DC9F8002061
:103410001E680BE00798C1540A98089B0992013076
:103420009A420A900FD00028FFF668AF16F8011BE9
:1034300000293FF463AF099B089C5A1CA242E9D9BA
:10344000A342F3D11A460B980799FFF717FD099B82
:10345000984200F08B804FF0FF300A904EE7D9F889
:1034600000400999089B221DC9F800204A1C9A4275
:1034700024687FD90A469A427FF440AF0B98079997
:10348000FFF7FCFC099B9842E5D1CDF824B00A98DF
:1034900034E7D9F800301A1DC9F800201B6883EA08
:1034A000E372A2EBE372092A4FF0010808DD8AFB00
:1034B00002E1D217C2EBA102092A08F10108F6DCE9
:1034C000B84538BFB84624B1002B01DB710700D5E1
:1034D000013CB2075ED4F10736D4002C34D0444509
:1034E00032D90596099A46464FF0200C9846034675
:1034F00005E0002BC0F2EC8014B3B44220D9089947
:10350000501C884204F1FF3408D8079901F802C022
:103510000A9A08990990531C0A9302468A42E8D1F4
:103520000B980799CDF810C0FFF7A8FC099ADDF8B1
:1035300010C090428FD10A9BCDF824B00022D8E76A
:1035400018464346B046059E002B34DB72074AD42A
:1035500006F00302022A5ED0194607A88DE8500043
:103560003B460A22FFF78EFD0A98C7E60A98CDF877
:1035700024B058E7079B5C540A98099201300A90DE
:10358000089B78E7079B19550A98099201300A9021
:10359000089BF0E6002FD7D0F107D5D49DE70A9815
:1035A000CDF824B0ABE603980CA9FFF767FC0A98A6
:1035B000099A1044B0E60999089A01F1010E96455E
:1035C000C3F100036AD99142C2D10B9807990493C1
:1035D000FFF754FC099A049B90427FF43CAFCDF86E
:1035E00024B00A9810E00999089A01F1010E964555
:1035F00043D8079A2B2050540A98089ACDF824E013
:10360000013096450A903BD00028FFF677AE06F0D1
:103610000302022AA0D1002F9ED1002C4DD0A0453C
:103620009AD2CDF81090099A4FF0300C994605E0E7
:1036300000284FDB002C3DD0444545D90899531C48
:103640008B4204F1FF3408D8079901F802C00A98A8
:103650000899099301301A460A908A42E8D10B98DA
:103660000799CDF814C0FFF709FC099ADDF814C0DA
:10367000904224D0DDF81090EDE691427FF468AFDF
:103680000B9807990493FFF7F9FB099A049B904262
:103690007FF4E1AE0A98CDF824B0B5E7079A2D2063
:1036A00050540A98089ACDF824E0013096450A90C3
:1036B000AAD18AE74B46DDF8109000244CE70A981F
:1036C000CDF824B00022B3E74B46DDF8109043E775
:1036D000184613E6DDF8109010E600BF67666666D0
:1036E0000EB400B582B003AB02AA53F8041B42F833
:1036F000043DFFF797FD02B05DF804EB03B070479F
:103700000649074A074B9B1A03DD043BC858D050B3
:10371000FBDC00F013F8FCF7A1FD0000F03E000018
:1037200000000020C4000020FEE7FEE7FEE7FEE701
:10373000FEE7FEE7FEE7FEE7FEE7FEE7F0B4AF4B8D
:103740001B78062B1BD0AE4AD2F8883043F47003A6
:10375000C2F88830BFF34F8FBFF36F8F4FF0102345
:10376000D3F80022002AC0F27381D3F80432002B70
:10377000C0F26E81A34BA44A1A60F0BC7047A34B01
:103780001B681907DFD1A24B1B6803F0F002302A37
:1037900000F08E8003F0E003402B00F089809C4B0A
:1037A0001B6803F0F003302B00F09280984B1B68ED
:1037B00003F0F002302A6BD003F0E003402B67D017
:1037C000934B1B6803F0F003302B00F00681904B05
:1037D0001B6803F0F002302A47D003F0E003402BCF
:1037E00043D08B4B1B6803F0F003302B00F0E780D5
:1037F000874B1B6803F0F003302B77D0844B1B689A
:1038000003F0F003502B00F08880814B1B6803F01D
:10381000F002302A18D003F0E003402B14D07C4B88
:103820001B6803F0F002302A03D003F0E003402BC2
:1038300089D14FF08042D2F80034DB0783D56FF096
:103840000103C2F800347EE7724B734A1B6803F031
:103850004F031360694B1B78062B7FF474AF6B4BDF
:103860001B6819077FF46FAFD9E74FF08043002240
:10387000C3F80C21C3F81021C3F838255F4B1B781F
:10388000062BE7D1614B1B681E077FF45CAFA8E7EE
:10389000624B5A4A1B6812786149C3F34233062AC5
:1038A0000B602FD1594B1B681B077FF44CAF87E788
:1038B0005C4B524A1B6812785B49C3F30423062A07
:1038C0000B60DBD1514B1B681A073FF468AF3AE736
:1038D0004A4B564A1B7856491160062B7FF433AF8A
:1038E0004A4B1B681A077FF42EAF5FE7514E524CCC
:1038F0005249534B0527012500203F2237602560A0
:1039000008601A603D4B1B78062B7FF41CAF3F4BC1
:103910001B681C077FF417AF70E74FF08052494BCC
:10392000D2F80414C3F82015D2F80814C3F82415EB
:10393000D2F80C14C3F82815D2F81014C3F82C15BB
:10394000D2F81414C3F83015D2F81814C3F834158B
:10395000D2F81C14C3F84015D2F82014C3F844154B
:10396000D2F82414C3F84815D2F82814C3F84C151B
:10397000D2F82C14C3F85015D2F83014C3F85415EB
:10398000D2F83414C3F86015D2F83814C3F86415AB
:10399000D2F83C14C3F86815D2F84014C3F86C157B
:1039A0001649D2F84424C3F870250B78062B7FF40F
:1039B000CAAE164B1B6818077FF4C5AE25E70F4B40
:1039C000214A1B780321062B11607FF4BCAE0F4BFC
:1039D0001B681D077FF4B7AE0AE71C49074BCA688E
:1039E0001B7822F08072062BCA607FF4ACAE074BC6
:1039F0001B681F077FF4A7AEE9E600BFE00F00F0E9
:103A000000ED00E0140000200090D003E40F00F06F
:103A1000E80F00F058020010E40E004044020010CD
:103A20003C050040240300104035014074C00740AD
:103A30000DF0ADBA105600408856004018560040B0
:103A40001456004000C00040A0050040F0ED00E02A
:103A5000184B0122C3F80425D3F80024002AFBD018
:103A60004FF0102315221349C3F80022D1F8003477
:103A7000002BFBD04FF0102315220E49C3F804226F
:103A8000D1F800240B4B002AFAD00022C3F80425F9
:103A9000D3F80024002AFBD0BFF34F8F0649074B11
:103AA000CA6802F4E0621343CB60BFF34F8F00BFDC
:103AB000FDE700BF00E0014000ED00E00400FA0572
:103AC00008B5074B044613B10021AFF30080054B46
:103AD0001868836A03B19847204600F04FF800BF8A
:103AE00000000000B83E000070B50E4B0E4CE41A0A
:103AF000A41000251E46A54204D056F8253098474C
:103B00000135F8E700F03CF8084C094BE41AA41022
:103B100000251E46A54204D056F8253098470135A9
:103B2000F8E770BD7C0000207C00002080000020B1
:103B30007C00002010B5431E0A44914204D011F8C5
:103B4000014B03F8014FF8E710BD024403469342CE
:103B500002D003F8011BFAE77047034611F8012B66
:103B600003F8012B002AF9D17047034613F8012B03
:103B7000002AFBD1181A013870470000FEE700BF89
:103B8000F8B500BFF8BC08BC9E467047F8B500BF4A
:103B9000F8BC08BC9E467047FFFFFFFFFFFFFFFF1A
:103BA000FFFFFFFFFFFFFFFF00000000000000001D
:103BB0000000D6010701000015040000C103000049
:103BC000BD03000061707000440500204C0500201A
:103BD00054050020540500201800000000000000DB
:103BE000843C00008C3C0000943C00009C3C0000A5
:103BF000243C0000443C00004C3C0000543C0000CD
:103C00005C3C0000643C00006C3C0000743C000024
:103C10007C3C0000257300003C25733E2025733A50
:103C2000200000001B5B306D000000000D0A00004A
:103C30002025303278000000202020007C00000089
:103C4000256300001B5B313B33306D001B5B313B58
:103C500033316D001B5B313B33326D001B5B313BFD
:103C600033336D001B5B313B33346D001B5B313BE9
:103C700033356D001B5B313B33366D001B5B313BD5
:103C800033376D006572726F720000007761726E7B
:103C9000696E6700696E666F00000000646562759A
:103CA000670000005265636569766564206120667F
:103CB00061756C74212069643A2030782530387839
:103CC0002C2070633A203078253038782C20696EAB
:103CD000666F3A203078253038780D0A00000000F1
:103CE000466174616C206572726F720053797374EF
:103CF000656D2072657365740000000062616C6C14
:103D00006F63000030313233343536373839414251
:103D1000434445466770696F7465000073706900BD
:103D20007561727400000000FFFFFFFF07FF0000D5
:103D300000000040000000000030004003000100CF
:103D40000404030100110020003601000038003A8D
:103D5000010200B0019F00C00153010100C3010234
:103D600000C40106002A010001000100012A002B05
:103D7000010001000100019F020100295350492068
:103D80006578616D706C652E000000005465726D81
:103D9000696E616C0000000052545400534547475F
:103DA00045520000303132333435363738394142EC
:103DB0004344454600202020202020202020282881
:103DC00028282820202020202020202020202020DB
:103DD000202020202088101010101010101010101B
:103DE000101010101004040404040404040404104B
:103DF00010101010101041414141414101010101D9
:103E000001010101010101010101010101010101A2
:103E100010101010101042424242424202020202AE
:103E20000202020202020202020202020202020272
:103E30001010101020000000000000000000000022
:103E40000000000000000000000000000000000072
:103E50000000000000000000000000000000000062
:103E60000000000000000000000000000000000052
:103E70000000000000000000000000000000000042
:103E80000000000000000000000000000000000032
:103E90000000000000000000000000000000000022
:103EA0000000000000000000000000000000000012
:103EB00000000000004300001C0000200000000083
:103EC000C43B000000000300FC3C000000000000B8
:103ED000143D0000000000001C3D00000000000038
:083EE000203D0000000000007D
:083EE80074C3FF7F010000001C
:103EF0000020004000000000B83B0000000000006F
:103F0000000000000090D003B43D0000000000005D
:103F100000000000000000000000000000000000A1
:103F2000000000000000000000000000B53E00009E
:103F30000000000000000000000000000000000081
:103F40000000000000000000000000000000000071
:103F50000000000000000000000000000000000061
:103F6000000000000000000000000000250200002A
:083F7000010200000000000046
:103F78000000000000000000000000000000000039
:103F88000000000000000000000000000000000029
:103F98000000000000000000000000000000000019
:0C3FA8000000000000000000000000000D
:0400000300003701C1
:00000001FF
